{
    "contractName": "Aggregator",
    "abi": [
        {
            "inputs": [
                {
                    "internalType": "address",
                    "name": "_factory",
                    "type": "address"
                },
                {
                    "internalType": "address",
                    "name": "_WETH10",
                    "type": "address"
                }
            ],
            "stateMutability": "nonpayable",
            "type": "constructor"
        },
        {
            "inputs": [],
            "name": "MathOverflowedMulDiv",
            "type": "error"
        },
        {
            "inputs": [],
            "name": "WETH10",
            "outputs": [
                {
                    "internalType": "address",
                    "name": "",
                    "type": "address"
                }
            ],
            "stateMutability": "view",
            "type": "function"
        },
        {
            "inputs": [
                {
                    "internalType": "uint256",
                    "name": "secondOffset",
                    "type": "uint256"
                },
                {
                    "internalType": "uint16",
                    "name": "numberOfSnapshots",
                    "type": "uint16"
                },
                {
                    "internalType": "address",
                    "name": "tokenA",
                    "type": "address"
                },
                {
                    "internalType": "address",
                    "name": "tokenB",
                    "type": "address"
                },
                {
                    "internalType": "uint32",
                    "name": "indexPool",
                    "type": "uint32"
                }
            ],
            "name": "aggregateLiquidity",
            "outputs": [
                {
                    "internalType": "uint256[]",
                    "name": "liquidities",
                    "type": "uint256[]"
                }
            ],
            "stateMutability": "view",
            "type": "function"
        },
        {
            "inputs": [
                {
                    "internalType": "uint256",
                    "name": "secondOffset",
                    "type": "uint256"
                },
                {
                    "internalType": "uint16",
                    "name": "numberOfSnapshots",
                    "type": "uint16"
                },
                {
                    "internalType": "bytes",
                    "name": "path",
                    "type": "bytes"
                }
            ],
            "name": "aggregatePriceX96",
            "outputs": [
                {
                    "internalType": "uint256[]",
                    "name": "priceX96s",
                    "type": "uint256[]"
                }
            ],
            "stateMutability": "view",
            "type": "function"
        },
        {
            "inputs": [],
            "name": "factory",
            "outputs": [
                {
                    "internalType": "address",
                    "name": "",
                    "type": "address"
                }
            ],
            "stateMutability": "view",
            "type": "function"
        }
    ],
    "bytecode": "60c060405234801561000f575f80fd5b5060405161141838038061141883398101604081905261002e91610060565b6001600160a01b039182166080521660a052610091565b80516001600160a01b038116811461005b575f80fd5b919050565b5f8060408385031215610071575f80fd5b61007a83610045565b915061008860208401610045565b90509250929050565b60805160a0516113616100b75f395f607c01525f818160ce015261066901526113615ff3fe608060405234801561000f575f80fd5b506004361061004a575f3560e01c806336d56c481461004e5780633fe96d9414610077578063a16d831a146100b6578063c45a0155146100c9575b5f80fd5b61006161005c366004610f4e565b6100f0565b60405161006e9190610ff6565b60405180910390f35b61009e7f000000000000000000000000000000000000000000000000000000000000000081565b6040516001600160a01b03909116815260200161006e565b6100616100c436600461104d565b61047a565b61009e7f000000000000000000000000000000000000000000000000000000000000000081565b60608261ffff1667ffffffffffffffff81111561010f5761010f610f09565b604051908082528060200260200182016040528015610138578160200160208202803683370190505b506040805160c0810182525f80825260208201819052918101829052606081018290526080810182905260a08101919091529091506001905b61017a846105d6565b1561047157610188846105f9565b63ffffffff16604084018190526001600160a01b03918216602085018190529290911680845282811060608501526101c1929091610634565b6001600160a01b0316608082018190526040805163ddca3f4360e01b8152905163ddca3f43916004808201926020929091908290030181865afa15801561020a573d5f803e3d5ffd5b505050506040513d601f19601f8201168201806040525081019061022e91906110b7565b62ffffff1660a08201525f5b8561ffff168161ffff16101561045d57821561027857600160601b848261ffff168151811061026b5761026b6110d9565b6020026020010181815250505b8061ffff165f036103b55761038e82606001516102f85782608001516001600160a01b0316634fa1323d6040518163ffffffff1660e01b8152600401602060405180830381865afa1580156102cf573d5f803e3d5ffd5b505050506040513d601f19601f820116820180604052508101906102f391906110ed565b61035c565b82608001516001600160a01b031663c806a79e6040518163ffffffff1660e01b8152600401602060405180830381865afa158015610338573d5f803e3d5ffd5b505050506040513d601f19601f8201168201806040525081019061035c91906110ed565b600160601b868461ffff1681518110610377576103776110d9565b60200260200101516107299092919063ffffffff16565b848261ffff16815181106103a4576103a46110d9565b602002602001018181525050610455565b5f805f6103c785608001518b866107e8565b925092509250826103fd575f878561ffff16815181106103e9576103e96110d9565b60200260200101818152505050505061045d565b61042f61041483838860a001518960600151610a71565b600160601b898761ffff1681518110610377576103776110d9565b878561ffff1681518110610445576104456110d9565b6020026020010181815250505050505b60010161023a565b505f915061046a84610ac9565b9350610171565b50509392505050565b60608461ffff1667ffffffffffffffff81111561049957610499610f09565b6040519080825280602002602001820160405280156104c2578160200160208202803683370190505b5090505f5b8561ffff168161ffff1610156105cc575f6104e3868686610634565b90508161ffff165f0361057457806001600160a01b0316631a6865026040518163ffffffff1660e01b8152600401602060405180830381865afa15801561052c573d5f803e3d5ffd5b505050506040513d601f19601f8201168201806040525081019061055091906110ed565b835f81518110610562576105626110d9565b602002602001018181525050506105c4565b5f805f610582848c876107e8565b92509250925082610593575f61059d565b61059d8282610b00565b868661ffff16815181106105b3576105b36110d9565b602002602001018181525050505050505b6001016104c7565b5095945050505050565b5f60146105e4600482611118565b6105ee9190611118565b825110159050919050565b5f80806106068482610b13565b9250610613846014610b77565b905061062b61062460046014611118565b8590610b13565b91509193909250565b60405163567b660d60e11b81526001600160a01b038481166004830152838116602483015263ffffffff831660448301525f917f00000000000000000000000000000000000000000000000000000000000000009091169063acf6cc1a90606401602060405180830381865afa1580156106b0573d5f803e3d5ffd5b505050506040513d601f19601f820116820180604052508101906106d4919061112b565b90506001600160a01b0381166107225760405162461bcd60e51b815260206004820152600e60248201526d141bdbdb081b9bdd08199bdd5b9960921b60448201526064015b60405180910390fd5b9392505050565b5f838302815f1985870982811083820303915050805f0361075d5783828161075357610753611146565b0492505050610722565b80841161077d5760405163227bc15360e01b815260040160405180910390fd5b5f848688095f868103871696879004966002600389028118808a02820302808a02820302808a02820302808a02820302808a02820302808a02909103029181900381900460010186841190950394909402919094039290920491909117919091029150509392505050565b5f805f808461ffff16116107fa575f80fd5b6040805160028082526060820183525f926020830190803683370190505090508561082660018761115a565b61ffff16610834919061117c565b86610840876001611193565b61ffff1661084e919061117c565b825f81518110610860576108606110d9565b602002602001018360018151811061087a5761087a6110d9565b60209081029190910101919091525260405163dea96b7160e01b81525f9081906001600160a01b038a169063dea96b71906108b9908690600401610ff6565b5f60405180830381865afa1580156108d3573d5f803e3d5ffd5b505050506040513d5f823e601f3d908101601f191682016040526108fa919081019061122b565b91509150610940604051806040016040528060078152602001667465737420257360c81b815250835f81518110610933576109336110d9565b6020026020010151610bd3565b610976604051806040016040528060078152602001667465737420257360c81b81525083600181518110610933576109336110d9565b5f825f81518110610989576109896110d9565b602002602001015111806109b557505f815f815181106109ab576109ab6110d9565b6020026020010151115b95508515610a65575f6109c989600261117c565b905080836001815181106109df576109df6110d9565b6020026020010151845f815181106109f9576109f96110d9565b6020026020010151610a0b919061128b565b610a15919061129e565b95508082600181518110610a2b57610a2b6110d9565b6020026020010151835f81518110610a4557610a456110d9565b6020026020010151610a57919061128b565b610a61919061129e565b9450505b50505093509350939050565b5f81610aa157610a9c610a8784620186a06112bd565b610a9687600160601b88610729565b90610c1c565b610ac0565b610ac0610ab184620186a06112bd565b610a9686600160601b89610729565b95945050505050565b6060610afa610ada60046014611118565b610ae660046014611118565b8451610af2919061128b565b849190610c30565b92915050565b5f610722610b0e838561117c565b610d3c565b5f610b1f826014611118565b83511015610b675760405162461bcd60e51b8152602060048201526015602482015274746f416464726573735f6f75744f66426f756e647360581b6044820152606401610719565b500160200151600160601b900490565b5f610b83826004611118565b83511015610bca5760405162461bcd60e51b8152602060048201526014602482015273746f55696e7433325f6f75744f66426f756e647360601b6044820152606401610719565b50016004015190565b610c188282604051602401610be99291906112d9565b60408051601f198184030181529190526020810180516001600160e01b0316632d839cb360e21b179052610e20565b5050565b5f6107228362ffffff8416620186a0610729565b606081610c3e81601f611118565b1015610c7d5760405162461bcd60e51b815260206004820152600e60248201526d736c6963655f6f766572666c6f7760901b6044820152606401610719565b610c878284611118565b84511015610ccb5760405162461bcd60e51b8152602060048201526011602482015270736c6963655f6f75744f66426f756e647360781b6044820152606401610719565b606082158015610ce95760405191505f825260208201604052610d33565b6040519150601f8416801560200281840101858101878315602002848b0101015b81831015610d22578051835260209283019201610d0a565b5050858452601f01601f1916604052505b50949350505050565b5f815f03610d4b57505f919050565b5f6001610d5784610e2c565b901c6001901b90506001818481610d7057610d70611146565b048201901c90506001818481610d8857610d88611146565b048201901c90506001818481610da057610da0611146565b048201901c90506001818481610db857610db8611146565b048201901c90506001818481610dd057610dd0611146565b048201901c90506001818481610de857610de8611146565b048201901c90506001818481610e0057610e00611146565b048201901c905061072281828581610e1a57610e1a611146565b04610ebf565b610e2981610ed4565b50565b5f80608083901c15610e4057608092831c92015b604083901c15610e5257604092831c92015b602083901c15610e6457602092831c92015b601083901c15610e7657601092831c92015b600883901c15610e8857600892831c92015b600483901c15610e9a57600492831c92015b600283901c15610eac57600292831c92015b600183901c15610afa5760010192915050565b5f818310610ecd5781610722565b5090919050565b5f6a636f6e736f6c652e6c6f6790505f80835160208501845afa505050565b803561ffff81168114610f04575f80fd5b919050565b634e487b7160e01b5f52604160045260245ffd5b604051601f8201601f1916810167ffffffffffffffff81118282101715610f4657610f46610f09565b604052919050565b5f805f60608486031215610f60575f80fd5b833592506020610f71818601610ef3565b9250604085013567ffffffffffffffff80821115610f8d575f80fd5b818701915087601f830112610fa0575f80fd5b813581811115610fb257610fb2610f09565b610fc4601f8201601f19168501610f1d565b91508082528884828501011115610fd9575f80fd5b80848401858401375f848284010152508093505050509250925092565b602080825282518282018190525f9190848201906040850190845b8181101561102d57835183529284019291840191600101611011565b50909695505050505050565b6001600160a01b0381168114610e29575f80fd5b5f805f805f60a08688031215611061575f80fd5b8535945061107160208701610ef3565b9350604086013561108181611039565b9250606086013561109181611039565b9150608086013563ffffffff811681146110a9575f80fd5b809150509295509295909350565b5f602082840312156110c7575f80fd5b815162ffffff81168114610722575f80fd5b634e487b7160e01b5f52603260045260245ffd5b5f602082840312156110fd575f80fd5b5051919050565b634e487b7160e01b5f52601160045260245ffd5b80820180821115610afa57610afa611104565b5f6020828403121561113b575f80fd5b815161072281611039565b634e487b7160e01b5f52601260045260245ffd5b61ffff82811682821603908082111561117557611175611104565b5092915050565b8082028115828204841417610afa57610afa611104565b61ffff81811683821601908082111561117557611175611104565b5f82601f8301126111bd575f80fd5b8151602067ffffffffffffffff8211156111d9576111d9610f09565b8160051b6111e8828201610f1d565b9283528481018201928281019087851115611201575f80fd5b83870192505b8483101561122057825182529183019190830190611207565b979650505050505050565b5f806040838503121561123c575f80fd5b825167ffffffffffffffff80821115611253575f80fd5b61125f868387016111ae565b93506020850151915080821115611274575f80fd5b50611281858286016111ae565b9150509250929050565b81810381811115610afa57610afa611104565b5f826112b857634e487b7160e01b5f52601260045260245ffd5b500490565b62ffffff82811682821603908082111561117557611175611104565b604081525f83518060408401525f5b8181101561130557602081870181015160608684010152016112e8565b505f606082850101526060601f19601f830116840101915050826020830152939250505056fea26469706673582212208a51f7ab0119f476402bb6d06217e5142a7097f72ca3a50f5b028dd53d51af3c64736f6c63430008170033",
    "sourcePath": "c:/Users/tucuo/OneDrive/Desktop/CiSwap.Contracts/contracts/Aggregator.sol",
    "compiler": {
        "name": "solc",
        "version": "0.8.23+commit.f704f362"
    },
    "functionHashes": {
        "WETH10()": "3fe96d94",
        "aggregateLiquidity(uint256,uint16,address,address,uint32)": "a16d831a",
        "aggregatePriceX96(uint256,uint16,bytes)": "36d56c48",
        "factory()": "c45a0155"
    },
    "gasEstimates": {
        "creation": {
            "codeDepositCost": "992200",
            "executionCost": "infinite",
            "totalCost": "infinite"
        },
        "external": {
            "WETH10()": "infinite",
            "aggregateLiquidity(uint256,uint16,address,address,uint32)": "infinite",
            "aggregatePriceX96(uint256,uint16,bytes)": "infinite",
            "factory()": "infinite"
        },
        "internal": {
            "_getReserves(address,uint256,uint16)": "infinite"
        }
    }
}