{
    "contractName": "OracleAggregator",
    "abi": [
        {
            "inputs": [
                {
                    "internalType": "address",
                    "name": "_factory",
                    "type": "address"
                },
                {
                    "internalType": "address",
                    "name": "_WETH10",
                    "type": "address"
                }
            ],
            "stateMutability": "nonpayable",
            "type": "constructor"
        },
        {
            "inputs": [],
            "name": "MathOverflowedMulDiv",
            "type": "error"
        },
        {
            "inputs": [],
            "name": "WETH10",
            "outputs": [
                {
                    "internalType": "address",
                    "name": "",
                    "type": "address"
                }
            ],
            "stateMutability": "view",
            "type": "function"
        },
        {
            "inputs": [
                {
                    "internalType": "uint256",
                    "name": "secondOffset",
                    "type": "uint256"
                },
                {
                    "internalType": "uint16",
                    "name": "numberOfSnapshots",
                    "type": "uint16"
                },
                {
                    "internalType": "bytes",
                    "name": "path",
                    "type": "bytes"
                }
            ],
            "name": "aggregatePriceX96",
            "outputs": [
                {
                    "internalType": "uint256[]",
                    "name": "priceX96s",
                    "type": "uint256[]"
                }
            ],
            "stateMutability": "view",
            "type": "function"
        },
        {
            "inputs": [],
            "name": "factory",
            "outputs": [
                {
                    "internalType": "address",
                    "name": "",
                    "type": "address"
                }
            ],
            "stateMutability": "view",
            "type": "function"
        }
    ],
    "bytecode": "60c060405234801561000f575f80fd5b50604051610e98380380610e9883398101604081905261002e91610060565b6001600160a01b039182166080521660a052610091565b80516001600160a01b038116811461005b575f80fd5b919050565b5f8060408385031215610071575f80fd5b61007a83610045565b915061008860208401610045565b90509250929050565b60805160a051610de16100b75f395f607101525f818160b001526106580152610de15ff3fe608060405234801561000f575f80fd5b506004361061003f575f3560e01c806336d56c48146100435780633fe96d941461006c578063c45a0155146100ab575b5f80fd5b610056610051366004610a8b565b6100d2565b6040516100639190610b3b565b60405180910390f35b6100937f000000000000000000000000000000000000000000000000000000000000000081565b6040516001600160a01b039091168152602001610063565b6100937f000000000000000000000000000000000000000000000000000000000000000081565b6040805160c0810182525f8082526020820181905291810182905260608181018390526080820183905260a08201929092528361ffff1667ffffffffffffffff81111561012157610121610a46565b60405190808252806020026020018201604052801561014a578160200160208202803683370190505b50915060015b610159846105c5565b156105bc57610167846105e8565b63ffffffff16604085018190526001600160a01b03918216602086018190529290911680855282811060608601526101a0929091610623565b6001600160a01b0316608083018190526040805163ddca3f4360e01b8152905163ddca3f43916004808201926020929091908290030181865afa1580156101e9573d5f803e3d5ffd5b505050506040513d601f19601f8201168201806040525081019061020d9190610b7e565b62ffffff1660a08301525f5b8561ffff168161ffff1610156105a857811561025757600160601b848261ffff168151811061024a5761024a610ba0565b6020026020010181815250505b8061ffff165f036103945761036d83606001516102d75783608001516001600160a01b031663c806a79e6040518163ffffffff1660e01b8152600401602060405180830381865afa1580156102ae573d5f803e3d5ffd5b505050506040513d601f19601f820116820180604052508101906102d29190610bb4565b61033b565b83608001516001600160a01b0316634fa1323d6040518163ffffffff1660e01b8152600401602060405180830381865afa158015610317573d5f803e3d5ffd5b505050506040513d601f19601f8201168201806040525081019061033b9190610bb4565b600160601b868461ffff168151811061035657610356610ba0565b60200260200101516107189092919063ffffffff16565b848261ffff168151811061038357610383610ba0565b6020026020010181815250506105a0565b6040805160028082526060820183525f92602083019080368337019050509050876103c0600184610bdf565b61ffff166103ce9190610c01565b886103da846001610c18565b61ffff166103e89190610c01565b825f815181106103fa576103fa610ba0565b602002602001018360018151811061041457610414610ba0565b60200260200101828152508281525050505f8085608001516001600160a01b031663dea96b71846040518263ffffffff1660e01b81526004016104579190610b3b565b5f60405180830381865afa158015610471573d5f803e3d5ffd5b505050506040513d5f823e601f3d908101601f191682016040526104989190810190610cb0565b90925090505f6104a98b6002610c01565b90505f81846001815181106104c0576104c0610ba0565b6020026020010151855f815181106104da576104da610ba0565b60200260200101516104ec9190610d10565b6104f69190610d37565b90505f828460018151811061050d5761050d610ba0565b6020026020010151855f8151811061052757610527610ba0565b60200260200101516105399190610d10565b6105439190610d37565b905061057761055c83838c60a001518d606001516107d7565b600160601b8c8a61ffff168151811061035657610356610ba0565b8a8861ffff168151811061058d5761058d610ba0565b6020026020010181815250505050505050505b600101610219565b505f90506105b58461082f565b9350610150565b50509392505050565b5f60146105d3600482610d56565b6105dd9190610d56565b825110159050919050565b5f80806105f58482610866565b92506106028460146108ca565b905061061a61061360046014610d56565b8590610866565b91509193909250565b60405163567b660d60e11b81526001600160a01b038481166004830152838116602483015263ffffffff831660448301525f917f00000000000000000000000000000000000000000000000000000000000000009091169063acf6cc1a90606401602060405180830381865afa15801561069f573d5f803e3d5ffd5b505050506040513d601f19601f820116820180604052508101906106c39190610d69565b90506001600160a01b0381166107115760405162461bcd60e51b815260206004820152600e60248201526d141bdbdb081b9bdd08199bdd5b9960921b60448201526064015b60405180910390fd5b9392505050565b5f838302815f1985870982811083820303915050805f0361074c5783828161074257610742610d23565b0492505050610711565b80841161076c5760405163227bc15360e01b815260040160405180910390fd5b5f848688095f868103871696879004966002600389028118808a02820302808a02820302808a02820302808a02820302808a02820302808a02909103029181900381900460010186841190950394909402919094039290920491909117919091029150509392505050565b5f81610807576108026107ed84620186a0610d8f565b6107fc87600160601b88610718565b90610926565b610826565b61082661081784620186a0610d8f565b6107fc86600160601b89610718565b95945050505050565b606061086061084060046014610d56565b61084c60046014610d56565b84516108589190610d10565b84919061093a565b92915050565b5f610872826014610d56565b835110156108ba5760405162461bcd60e51b8152602060048201526015602482015274746f416464726573735f6f75744f66426f756e647360581b6044820152606401610708565b500160200151600160601b900490565b5f6108d6826004610d56565b8351101561091d5760405162461bcd60e51b8152602060048201526014602482015273746f55696e7433325f6f75744f66426f756e647360601b6044820152606401610708565b50016004015190565b5f6107118362ffffff8416620186a0610718565b60608161094881601f610d56565b10156109875760405162461bcd60e51b815260206004820152600e60248201526d736c6963655f6f766572666c6f7760901b6044820152606401610708565b6109918284610d56565b845110156109d55760405162461bcd60e51b8152602060048201526011602482015270736c6963655f6f75744f66426f756e647360781b6044820152606401610708565b6060821580156109f35760405191505f825260208201604052610a3d565b6040519150601f8416801560200281840101858101878315602002848b0101015b81831015610a2c578051835260209283019201610a14565b5050858452601f01601f1916604052505b50949350505050565b634e487b7160e01b5f52604160045260245ffd5b604051601f8201601f1916810167ffffffffffffffff81118282101715610a8357610a83610a46565b604052919050565b5f805f60608486031215610a9d575f80fd5b8335925060208085013561ffff81168114610ab6575f80fd5b9250604085013567ffffffffffffffff80821115610ad2575f80fd5b818701915087601f830112610ae5575f80fd5b813581811115610af757610af7610a46565b610b09601f8201601f19168501610a5a565b91508082528884828501011115610b1e575f80fd5b80848401858401375f848284010152508093505050509250925092565b602080825282518282018190525f9190848201906040850190845b81811015610b7257835183529284019291840191600101610b56565b50909695505050505050565b5f60208284031215610b8e575f80fd5b815162ffffff81168114610711575f80fd5b634e487b7160e01b5f52603260045260245ffd5b5f60208284031215610bc4575f80fd5b5051919050565b634e487b7160e01b5f52601160045260245ffd5b61ffff828116828216039080821115610bfa57610bfa610bcb565b5092915050565b808202811582820484141761086057610860610bcb565b61ffff818116838216019080821115610bfa57610bfa610bcb565b5f82601f830112610c42575f80fd5b8151602067ffffffffffffffff821115610c5e57610c5e610a46565b8160051b610c6d828201610a5a565b9283528481018201928281019087851115610c86575f80fd5b83870192505b84831015610ca557825182529183019190830190610c8c565b979650505050505050565b5f8060408385031215610cc1575f80fd5b825167ffffffffffffffff80821115610cd8575f80fd5b610ce486838701610c33565b93506020850151915080821115610cf9575f80fd5b50610d0685828601610c33565b9150509250929050565b8181038181111561086057610860610bcb565b634e487b7160e01b5f52601260045260245ffd5b5f82610d5157634e487b7160e01b5f52601260045260245ffd5b500490565b8082018082111561086057610860610bcb565b5f60208284031215610d79575f80fd5b81516001600160a01b0381168114610711575f80fd5b62ffffff828116828216039080821115610bfa57610bfa610bcb56fea2646970667358221220ed6f95dbef045fd46700399152c8f55191d0787c7e1245576f61d70082f3b9f464736f6c63430008170033",
    "sourcePath": "c:/Users/tucuo/OneDrive/Desktop/CiSwap.Contracts/contracts/OracleAggregator.sol",
    "compiler": {
        "name": "solc",
        "version": "0.8.23+commit.f704f362"
    },
    "functionHashes": {
        "WETH10()": "3fe96d94",
        "aggregatePriceX96(uint256,uint16,bytes)": "36d56c48",
        "factory()": "c45a0155"
    },
    "gasEstimates": {
        "creation": {
            "codeDepositCost": "710600",
            "executionCost": "infinite",
            "totalCost": "infinite"
        },
        "external": {
            "WETH10()": "infinite",
            "aggregatePriceX96(uint256,uint16,bytes)": "infinite",
            "factory()": "infinite"
        }
    }
}