{
    "contractName": "Pool",
    "abi": [
        {
            "inputs": [],
            "stateMutability": "nonpayable",
            "type": "constructor"
        },
        {
            "inputs": [
                {
                    "internalType": "address",
                    "name": "target",
                    "type": "address"
                }
            ],
            "name": "AddressEmptyCode",
            "type": "error"
        },
        {
            "inputs": [
                {
                    "internalType": "address",
                    "name": "account",
                    "type": "address"
                }
            ],
            "name": "AddressInsufficientBalance",
            "type": "error"
        },
        {
            "inputs": [
                {
                    "internalType": "address",
                    "name": "spender",
                    "type": "address"
                },
                {
                    "internalType": "uint256",
                    "name": "allowance",
                    "type": "uint256"
                },
                {
                    "internalType": "uint256",
                    "name": "needed",
                    "type": "uint256"
                }
            ],
            "name": "ERC20InsufficientAllowance",
            "type": "error"
        },
        {
            "inputs": [
                {
                    "internalType": "address",
                    "name": "sender",
                    "type": "address"
                },
                {
                    "internalType": "uint256",
                    "name": "balance",
                    "type": "uint256"
                },
                {
                    "internalType": "uint256",
                    "name": "needed",
                    "type": "uint256"
                }
            ],
            "name": "ERC20InsufficientBalance",
            "type": "error"
        },
        {
            "inputs": [
                {
                    "internalType": "address",
                    "name": "approver",
                    "type": "address"
                }
            ],
            "name": "ERC20InvalidApprover",
            "type": "error"
        },
        {
            "inputs": [
                {
                    "internalType": "address",
                    "name": "receiver",
                    "type": "address"
                }
            ],
            "name": "ERC20InvalidReceiver",
            "type": "error"
        },
        {
            "inputs": [
                {
                    "internalType": "address",
                    "name": "sender",
                    "type": "address"
                }
            ],
            "name": "ERC20InvalidSender",
            "type": "error"
        },
        {
            "inputs": [
                {
                    "internalType": "address",
                    "name": "spender",
                    "type": "address"
                }
            ],
            "name": "ERC20InvalidSpender",
            "type": "error"
        },
        {
            "inputs": [],
            "name": "FailedInnerCall",
            "type": "error"
        },
        {
            "inputs": [],
            "name": "MathOverflowedMulDiv",
            "type": "error"
        },
        {
            "inputs": [
                {
                    "internalType": "address",
                    "name": "owner",
                    "type": "address"
                }
            ],
            "name": "OwnableInvalidOwner",
            "type": "error"
        },
        {
            "inputs": [
                {
                    "internalType": "address",
                    "name": "account",
                    "type": "address"
                }
            ],
            "name": "OwnableUnauthorizedAccount",
            "type": "error"
        },
        {
            "inputs": [
                {
                    "internalType": "int256",
                    "name": "value",
                    "type": "int256"
                }
            ],
            "name": "SafeCastOverflowedIntToUint",
            "type": "error"
        },
        {
            "inputs": [
                {
                    "internalType": "uint256",
                    "name": "value",
                    "type": "uint256"
                }
            ],
            "name": "SafeCastOverflowedUintToInt",
            "type": "error"
        },
        {
            "inputs": [
                {
                    "internalType": "address",
                    "name": "token",
                    "type": "address"
                }
            ],
            "name": "SafeERC20FailedOperation",
            "type": "error"
        },
        {
            "anonymous": false,
            "inputs": [
                {
                    "indexed": true,
                    "internalType": "address",
                    "name": "owner",
                    "type": "address"
                },
                {
                    "indexed": true,
                    "internalType": "address",
                    "name": "spender",
                    "type": "address"
                },
                {
                    "indexed": false,
                    "internalType": "uint256",
                    "name": "value",
                    "type": "uint256"
                }
            ],
            "name": "Approval",
            "type": "event"
        },
        {
            "anonymous": false,
            "inputs": [
                {
                    "indexed": true,
                    "internalType": "address",
                    "name": "sender",
                    "type": "address"
                },
                {
                    "indexed": false,
                    "internalType": "uint256",
                    "name": "amount",
                    "type": "uint256"
                },
                {
                    "indexed": false,
                    "internalType": "uint256",
                    "name": "amount0",
                    "type": "uint256"
                },
                {
                    "indexed": false,
                    "internalType": "uint256",
                    "name": "amount1",
                    "type": "uint256"
                },
                {
                    "indexed": true,
                    "internalType": "address",
                    "name": "recipient",
                    "type": "address"
                }
            ],
            "name": "Burn",
            "type": "event"
        },
        {
            "anonymous": false,
            "inputs": [
                {
                    "indexed": true,
                    "internalType": "address",
                    "name": "sender",
                    "type": "address"
                },
                {
                    "indexed": false,
                    "internalType": "uint256",
                    "name": "amount0",
                    "type": "uint256"
                },
                {
                    "indexed": false,
                    "internalType": "uint256",
                    "name": "amount1",
                    "type": "uint256"
                },
                {
                    "indexed": false,
                    "internalType": "uint256",
                    "name": "amountFeeTo0",
                    "type": "uint256"
                },
                {
                    "indexed": false,
                    "internalType": "uint256",
                    "name": "amountFeeTo1",
                    "type": "uint256"
                },
                {
                    "indexed": true,
                    "internalType": "address",
                    "name": "recipient",
                    "type": "address"
                }
            ],
            "name": "CollectProtocol",
            "type": "event"
        },
        {
            "anonymous": false,
            "inputs": [
                {
                    "indexed": true,
                    "internalType": "address",
                    "name": "sender",
                    "type": "address"
                },
                {
                    "indexed": false,
                    "internalType": "uint256",
                    "name": "amount0",
                    "type": "uint256"
                },
                {
                    "indexed": false,
                    "internalType": "uint256",
                    "name": "amount1",
                    "type": "uint256"
                },
                {
                    "indexed": false,
                    "internalType": "uint256",
                    "name": "paid0",
                    "type": "uint256"
                },
                {
                    "indexed": false,
                    "internalType": "uint256",
                    "name": "paid1",
                    "type": "uint256"
                },
                {
                    "indexed": true,
                    "internalType": "address",
                    "name": "recipient",
                    "type": "address"
                }
            ],
            "name": "Flash",
            "type": "event"
        },
        {
            "anonymous": false,
            "inputs": [],
            "name": "Initialized",
            "type": "event"
        },
        {
            "anonymous": false,
            "inputs": [
                {
                    "indexed": true,
                    "internalType": "address",
                    "name": "sender",
                    "type": "address"
                },
                {
                    "indexed": false,
                    "internalType": "uint256",
                    "name": "amount",
                    "type": "uint256"
                },
                {
                    "indexed": false,
                    "internalType": "uint256",
                    "name": "amount0",
                    "type": "uint256"
                },
                {
                    "indexed": false,
                    "internalType": "uint256",
                    "name": "amount1",
                    "type": "uint256"
                },
                {
                    "indexed": true,
                    "internalType": "address",
                    "name": "recipient",
                    "type": "address"
                }
            ],
            "name": "Mint",
            "type": "event"
        },
        {
            "anonymous": false,
            "inputs": [
                {
                    "indexed": true,
                    "internalType": "address",
                    "name": "previousOwner",
                    "type": "address"
                },
                {
                    "indexed": true,
                    "internalType": "address",
                    "name": "newOwner",
                    "type": "address"
                }
            ],
            "name": "OwnershipTransferred",
            "type": "event"
        },
        {
            "anonymous": false,
            "inputs": [
                {
                    "indexed": true,
                    "internalType": "address",
                    "name": "sender",
                    "type": "address"
                },
                {
                    "indexed": false,
                    "internalType": "int256",
                    "name": "amount0",
                    "type": "int256"
                },
                {
                    "indexed": false,
                    "internalType": "int256",
                    "name": "amount1",
                    "type": "int256"
                },
                {
                    "indexed": true,
                    "internalType": "address",
                    "name": "recipient",
                    "type": "address"
                }
            ],
            "name": "Swap",
            "type": "event"
        },
        {
            "anonymous": false,
            "inputs": [
                {
                    "indexed": false,
                    "internalType": "uint256",
                    "name": "reserve0",
                    "type": "uint256"
                },
                {
                    "indexed": false,
                    "internalType": "uint256",
                    "name": "reserve1",
                    "type": "uint256"
                }
            ],
            "name": "Sync",
            "type": "event"
        },
        {
            "anonymous": false,
            "inputs": [
                {
                    "indexed": true,
                    "internalType": "address",
                    "name": "from",
                    "type": "address"
                },
                {
                    "indexed": true,
                    "internalType": "address",
                    "name": "to",
                    "type": "address"
                },
                {
                    "indexed": false,
                    "internalType": "uint256",
                    "name": "value",
                    "type": "uint256"
                }
            ],
            "name": "Transfer",
            "type": "event"
        },
        {
            "inputs": [],
            "name": "FEE_PROTOCOL_RATE",
            "outputs": [
                {
                    "internalType": "uint24",
                    "name": "",
                    "type": "uint24"
                }
            ],
            "stateMutability": "view",
            "type": "function"
        },
        {
            "inputs": [
                {
                    "internalType": "address",
                    "name": "owner",
                    "type": "address"
                },
                {
                    "internalType": "address",
                    "name": "spender",
                    "type": "address"
                }
            ],
            "name": "allowance",
            "outputs": [
                {
                    "internalType": "uint256",
                    "name": "",
                    "type": "uint256"
                }
            ],
            "stateMutability": "view",
            "type": "function"
        },
        {
            "inputs": [
                {
                    "internalType": "address",
                    "name": "spender",
                    "type": "address"
                },
                {
                    "internalType": "uint256",
                    "name": "value",
                    "type": "uint256"
                }
            ],
            "name": "approve",
            "outputs": [
                {
                    "internalType": "bool",
                    "name": "",
                    "type": "bool"
                }
            ],
            "stateMutability": "nonpayable",
            "type": "function"
        },
        {
            "inputs": [
                {
                    "internalType": "address",
                    "name": "account",
                    "type": "address"
                }
            ],
            "name": "balanceOf",
            "outputs": [
                {
                    "internalType": "uint256",
                    "name": "",
                    "type": "uint256"
                }
            ],
            "stateMutability": "view",
            "type": "function"
        },
        {
            "inputs": [
                {
                    "internalType": "address",
                    "name": "recipient",
                    "type": "address"
                },
                {
                    "internalType": "uint256",
                    "name": "amount",
                    "type": "uint256"
                }
            ],
            "name": "burn",
            "outputs": [
                {
                    "internalType": "uint256",
                    "name": "amount0",
                    "type": "uint256"
                },
                {
                    "internalType": "uint256",
                    "name": "amount1",
                    "type": "uint256"
                }
            ],
            "stateMutability": "nonpayable",
            "type": "function"
        },
        {
            "inputs": [
                {
                    "internalType": "address",
                    "name": "recipient",
                    "type": "address"
                },
                {
                    "internalType": "uint256",
                    "name": "amount0Requested",
                    "type": "uint256"
                },
                {
                    "internalType": "uint256",
                    "name": "amount1Requested",
                    "type": "uint256"
                }
            ],
            "name": "collectProtocol",
            "outputs": [
                {
                    "internalType": "uint256",
                    "name": "amount0",
                    "type": "uint256"
                },
                {
                    "internalType": "uint256",
                    "name": "amount1",
                    "type": "uint256"
                },
                {
                    "internalType": "uint256",
                    "name": "amountFeeTo0",
                    "type": "uint256"
                },
                {
                    "internalType": "uint256",
                    "name": "amountFeeTo1",
                    "type": "uint256"
                }
            ],
            "stateMutability": "nonpayable",
            "type": "function"
        },
        {
            "inputs": [],
            "name": "config",
            "outputs": [
                {
                    "internalType": "address",
                    "name": "tokenA",
                    "type": "address"
                },
                {
                    "internalType": "address",
                    "name": "tokenB",
                    "type": "address"
                },
                {
                    "internalType": "uint256",
                    "name": "amountA",
                    "type": "uint256"
                },
                {
                    "internalType": "uint256",
                    "name": "amountB",
                    "type": "uint256"
                },
                {
                    "internalType": "uint256",
                    "name": "basePriceAX96",
                    "type": "uint256"
                },
                {
                    "internalType": "uint256",
                    "name": "maxPriceAX96",
                    "type": "uint256"
                }
            ],
            "stateMutability": "view",
            "type": "function"
        },
        {
            "inputs": [],
            "name": "constants",
            "outputs": [
                {
                    "internalType": "uint256",
                    "name": "token0",
                    "type": "uint256"
                },
                {
                    "internalType": "uint256",
                    "name": "token1",
                    "type": "uint256"
                }
            ],
            "stateMutability": "view",
            "type": "function"
        },
        {
            "inputs": [],
            "name": "decimals",
            "outputs": [
                {
                    "internalType": "uint8",
                    "name": "",
                    "type": "uint8"
                }
            ],
            "stateMutability": "view",
            "type": "function"
        },
        {
            "inputs": [],
            "name": "factory",
            "outputs": [
                {
                    "internalType": "address",
                    "name": "",
                    "type": "address"
                }
            ],
            "stateMutability": "view",
            "type": "function"
        },
        {
            "inputs": [],
            "name": "fee",
            "outputs": [
                {
                    "internalType": "uint24",
                    "name": "",
                    "type": "uint24"
                }
            ],
            "stateMutability": "view",
            "type": "function"
        },
        {
            "inputs": [
                {
                    "internalType": "address",
                    "name": "recipient",
                    "type": "address"
                },
                {
                    "internalType": "uint256",
                    "name": "amount0",
                    "type": "uint256"
                },
                {
                    "internalType": "uint256",
                    "name": "amount1",
                    "type": "uint256"
                },
                {
                    "internalType": "bytes",
                    "name": "callback",
                    "type": "bytes"
                }
            ],
            "name": "flash",
            "outputs": [
                {
                    "internalType": "uint256",
                    "name": "paid0",
                    "type": "uint256"
                },
                {
                    "internalType": "uint256",
                    "name": "paid1",
                    "type": "uint256"
                }
            ],
            "stateMutability": "nonpayable",
            "type": "function"
        },
        {
            "inputs": [],
            "name": "initialize",
            "outputs": [],
            "stateMutability": "nonpayable",
            "type": "function"
        },
        {
            "inputs": [],
            "name": "liquidity",
            "outputs": [
                {
                    "internalType": "uint256",
                    "name": "",
                    "type": "uint256"
                }
            ],
            "stateMutability": "view",
            "type": "function"
        },
        {
            "inputs": [
                {
                    "internalType": "address",
                    "name": "recipient",
                    "type": "address"
                }
            ],
            "name": "mint",
            "outputs": [
                {
                    "internalType": "uint256",
                    "name": "amount",
                    "type": "uint256"
                }
            ],
            "stateMutability": "nonpayable",
            "type": "function"
        },
        {
            "inputs": [],
            "name": "name",
            "outputs": [
                {
                    "internalType": "string",
                    "name": "",
                    "type": "string"
                }
            ],
            "stateMutability": "view",
            "type": "function"
        },
        {
            "inputs": [
                {
                    "internalType": "uint256",
                    "name": "",
                    "type": "uint256"
                }
            ],
            "name": "observations",
            "outputs": [
                {
                    "internalType": "uint256",
                    "name": "blockTimestamp",
                    "type": "uint256"
                },
                {
                    "internalType": "uint256",
                    "name": "reserve0Cumulative",
                    "type": "uint256"
                },
                {
                    "internalType": "uint256",
                    "name": "reserve1Cumulative",
                    "type": "uint256"
                }
            ],
            "stateMutability": "view",
            "type": "function"
        },
        {
            "inputs": [
                {
                    "internalType": "uint256[]",
                    "name": "secondAgos",
                    "type": "uint256[]"
                }
            ],
            "name": "observe",
            "outputs": [
                {
                    "internalType": "uint256[]",
                    "name": "reserve0Cumulatives",
                    "type": "uint256[]"
                },
                {
                    "internalType": "uint256[]",
                    "name": "reserve1Cumulatives",
                    "type": "uint256[]"
                }
            ],
            "stateMutability": "view",
            "type": "function"
        },
        {
            "inputs": [],
            "name": "owner",
            "outputs": [
                {
                    "internalType": "address",
                    "name": "",
                    "type": "address"
                }
            ],
            "stateMutability": "view",
            "type": "function"
        },
        {
            "inputs": [],
            "name": "price0X96",
            "outputs": [
                {
                    "internalType": "uint256",
                    "name": "",
                    "type": "uint256"
                }
            ],
            "stateMutability": "view",
            "type": "function"
        },
        {
            "inputs": [],
            "name": "price1X96",
            "outputs": [
                {
                    "internalType": "uint256",
                    "name": "",
                    "type": "uint256"
                }
            ],
            "stateMutability": "view",
            "type": "function"
        },
        {
            "inputs": [],
            "name": "protocolFees",
            "outputs": [
                {
                    "internalType": "uint256",
                    "name": "token0",
                    "type": "uint256"
                },
                {
                    "internalType": "uint256",
                    "name": "token1",
                    "type": "uint256"
                }
            ],
            "stateMutability": "view",
            "type": "function"
        },
        {
            "inputs": [],
            "name": "renounceOwnership",
            "outputs": [],
            "stateMutability": "nonpayable",
            "type": "function"
        },
        {
            "inputs": [],
            "name": "slot0",
            "outputs": [
                {
                    "internalType": "uint256",
                    "name": "reserve0",
                    "type": "uint256"
                },
                {
                    "internalType": "uint256",
                    "name": "reserve1",
                    "type": "uint256"
                },
                {
                    "internalType": "uint256",
                    "name": "observationCardinality",
                    "type": "uint256"
                },
                {
                    "internalType": "bool",
                    "name": "unlocked",
                    "type": "bool"
                }
            ],
            "stateMutability": "view",
            "type": "function"
        },
        {
            "inputs": [
                {
                    "components": [
                        {
                            "internalType": "int256",
                            "name": "amountSpecified",
                            "type": "int256"
                        },
                        {
                            "internalType": "uint256",
                            "name": "limitAmountCalculated",
                            "type": "uint256"
                        },
                        {
                            "internalType": "bool",
                            "name": "zeroForOne",
                            "type": "bool"
                        },
                        {
                            "internalType": "address",
                            "name": "recipient",
                            "type": "address"
                        },
                        {
                            "internalType": "bytes",
                            "name": "callback",
                            "type": "bytes"
                        }
                    ],
                    "internalType": "struct IPoolActions.SwapParams",
                    "name": "params",
                    "type": "tuple"
                }
            ],
            "name": "swap",
            "outputs": [
                {
                    "internalType": "int256",
                    "name": "amount0",
                    "type": "int256"
                },
                {
                    "internalType": "int256",
                    "name": "amount1",
                    "type": "int256"
                }
            ],
            "stateMutability": "nonpayable",
            "type": "function"
        },
        {
            "inputs": [],
            "name": "symbol",
            "outputs": [
                {
                    "internalType": "string",
                    "name": "",
                    "type": "string"
                }
            ],
            "stateMutability": "view",
            "type": "function"
        },
        {
            "inputs": [],
            "name": "token0",
            "outputs": [
                {
                    "internalType": "address",
                    "name": "",
                    "type": "address"
                }
            ],
            "stateMutability": "view",
            "type": "function"
        },
        {
            "inputs": [],
            "name": "token1",
            "outputs": [
                {
                    "internalType": "address",
                    "name": "",
                    "type": "address"
                }
            ],
            "stateMutability": "view",
            "type": "function"
        },
        {
            "inputs": [],
            "name": "totalSupply",
            "outputs": [
                {
                    "internalType": "uint256",
                    "name": "",
                    "type": "uint256"
                }
            ],
            "stateMutability": "view",
            "type": "function"
        },
        {
            "inputs": [
                {
                    "internalType": "address",
                    "name": "to",
                    "type": "address"
                },
                {
                    "internalType": "uint256",
                    "name": "value",
                    "type": "uint256"
                }
            ],
            "name": "transfer",
            "outputs": [
                {
                    "internalType": "bool",
                    "name": "",
                    "type": "bool"
                }
            ],
            "stateMutability": "nonpayable",
            "type": "function"
        },
        {
            "inputs": [
                {
                    "internalType": "address",
                    "name": "from",
                    "type": "address"
                },
                {
                    "internalType": "address",
                    "name": "to",
                    "type": "address"
                },
                {
                    "internalType": "uint256",
                    "name": "value",
                    "type": "uint256"
                }
            ],
            "name": "transferFrom",
            "outputs": [
                {
                    "internalType": "bool",
                    "name": "",
                    "type": "bool"
                }
            ],
            "stateMutability": "nonpayable",
            "type": "function"
        },
        {
            "inputs": [
                {
                    "internalType": "address",
                    "name": "newOwner",
                    "type": "address"
                }
            ],
            "name": "transferOwnership",
            "outputs": [],
            "stateMutability": "nonpayable",
            "type": "function"
        }
    ],
    "bytecode": "61012060405234801562000011575f80fd5b506040518060400160405280601881526020017f4c69717569646974792050726f766964657220546f6b656e0000000000000000815250604051806040016040528060088152602001672628102a37b5b2b760c11b815250620000796200020960201b60201c565b6001600160a01b038116620000a757604051631e4fbdf760e01b81525f600482015260240160405180910390fd5b620000b2816200020d565b506004620000c18382620006dd565b506005620000d08282620006dd565b50503060805250336001600160a01b031663f3778fd86040518163ffffffff1660e01b815260040161010060405180830381865afa15801562000115573d5f803e3d5ffd5b505050506040513d601f19601f820116820180604052508101906200013b9190620007c5565b8051600680546001600160a01b039283166001600160a01b03199182168117909255602084015160078054918516919092168117909155604084015160085560608401516009556080840151600a5560a093840151600b5562ffffff90941660c052931690525f91620001ae916200025c565b6001600160a01b0391821661010052911660e052600a54600b546008546009549394505f938493620001e4939092909162000295565b9150915082620001f6578082620001f9565b81815b601455601355506200090a915050565b3390565b5f80546001600160a01b038381166001600160a01b0319831681178455604051919092169283917f8be0079c531659141344cd1fd0a4f28419497f9722a3daafe3b4186f6b6457e09190a35050565b5f805f836001600160a01b0316856001600160a01b031610620002825783855f62000287565b848460015b919790965090945092505050565b5f80620002a4868686620002bf565b9150620002b4868386866200033a565b905094509492505050565b5f80620002db856c0100000000000000000000000086620003a0565b90505f620002e98262000465565b90505f620002f88583620008a6565b905066010000000000005f8062000310838662000566565b91509150816200031e575f80fd5b6200032a8185620008d4565b96505050505050505b9392505050565b5f6c0100000000000000000000000081806200037a886200035c8989620008f4565b620003689190620008a6565b620003748786620008a6565b62000566565b915091508162000388575f80fd5b620003948382620008d4565b98975050505050505050565b5f838302815f1985870982811083820303915050805f03620003d957838281620003ce57620003ce620008c0565b049250505062000333565b808411620003fa5760405163227bc15360e01b815260040160405180910390fd5b5f848688095f868103871696879004966002600389028118808a02820302808a02820302808a02820302808a02820302808a02820302808a02909103029181900381900460010186841190950394909402919094039290920491909117919091029150509392505050565b5f815f036200047557505f919050565b5f600162000483846200058c565b901c6001901b905060018184816200049f576200049f620008c0565b048201901c90506001818481620004ba57620004ba620008c0565b048201901c90506001818481620004d557620004d5620008c0565b048201901c90506001818481620004f057620004f0620008c0565b048201901c905060018184816200050b576200050b620008c0565b048201901c90506001818481620005265762000526620008c0565b048201901c90506001818481620005415762000541620008c0565b048201901c905062000333818285816200055f576200055f620008c0565b0462000628565b5f80838311156200057c57505f90508062000585565b50600190508183035b9250929050565b5f80608083901c15620005a157608092831c92015b604083901c15620005b457604092831c92015b602083901c15620005c757602092831c92015b601083901c15620005da57601092831c92015b600883901c15620005ed57600892831c92015b600483901c156200060057600492831c92015b600283901c156200061357600292831c92015b600183901c1562000622576001015b92915050565b5f81831062000638578162000333565b5090919050565b634e487b7160e01b5f52604160045260245ffd5b600181811c908216806200066857607f821691505b6020821081036200068757634e487b7160e01b5f52602260045260245ffd5b50919050565b601f821115620006d857805f5260205f20601f840160051c81016020851015620006b45750805b601f840160051c820191505b81811015620006d5575f8155600101620006c0565b50505b505050565b81516001600160401b03811115620006f957620006f96200063f565b62000711816200070a845462000653565b846200068d565b602080601f83116001811462000747575f84156200072f5750858301515b5f19600386901b1c1916600185901b178555620007a1565b5f85815260208120601f198616915b82811015620007775788860151825594840194600190910190840162000756565b50858210156200079557878501515f19600388901b60f8161c191681555b505060018460011b0185555b505050505050565b80516001600160a01b0381168114620007c0575f80fd5b919050565b5f805f838503610100811215620007da575f80fd5b620007e585620007a9565b9350602085015162ffffff81168114620007fd575f80fd5b925060c0603f198201121562000811575f80fd5b5060405160c081016001600160401b03811182821017156200083757620008376200063f565b80604052506200084a60408601620007a9565b81526200085a60608601620007a9565b60208201526080850151604082015260a0850151606082015260c0850151608082015260e085015160a0820152809150509250925092565b634e487b7160e01b5f52601160045260245ffd5b808202811582820484141762000622576200062262000892565b634e487b7160e01b5f52601260045260245ffd5b5f82620008ef57634e487b7160e01b5f52601260045260245ffd5b500490565b8082018082111562000622576200062262000892565b60805160a05160c05160e0516101005161350c620009db5f395f81816104c3015281816107a20152818161080a01528181610e4301528181611560015281816117af0152818161180501526128e501525f8181610231015281816107c3015281816107e901528181610e180152818161153501528181611784015281816117da015261285c01525f818161053f0152818161091e01528181610a3101528181610f16015281816110d2015261190401525f81816104940152818161130401526116d101525f611afd015261350c5ff3fe608060405234801561000f575f80fd5b50600436106101e7575f3560e01c806372de5b2f11610109578063c45a01551161009e578063dd62ed3e1161006e578063dd62ed3e14610502578063ddca3f431461053a578063dea96b7114610561578063f2fde38b14610582575f80fd5b8063c45a01551461048f578063c806a79e146104b6578063d21220a7146104be578063d24c503d146104e5575f80fd5b806395d89b41116100d957806395d89b411461042e5780639dc29fac14610436578063a582015714610449578063a9059cbb1461047c575f80fd5b806372de5b2f146103a657806379502c55146103b45780638129fc1c146104165780638da5cb5b1461041e575f80fd5b806325a12ac11161017f5780634fa1323d1161014f5780634fa1323d146103595780636a6278421461036157806370a0823114610374578063715018a61461039c575f80fd5b806325a12ac1146102e9578063313ce567146102fc5780633850c7bd1461030b578063490e6cbc14610346575f80fd5b80631a686502116101ba5780631a6865021461027d5780631ad8b03b1461028557806323b872dd146102a8578063252c09d7146102bb575f80fd5b806306fdde03146101eb578063095ea7b3146102095780630dfe16811461022c57806318160ddd1461026b575b5f80fd5b6101f3610595565b6040516102009190612f6c565b60405180910390f35b61021c610217366004612f92565b610625565b6040519015158152602001610200565b6102537f000000000000000000000000000000000000000000000000000000000000000081565b6040516001600160a01b039091168152602001610200565b6003545b604051908152602001610200565b61026f61063e565b601154601254610293919082565b60408051928352602083019190915201610200565b61021c6102b6366004612fbc565b610681565b6102ce6102c9366004612ffa565b6106a6565b60408051938452602084019290925290820152606001610200565b6102936102f7366004613011565b6106d7565b60405160128152602001610200565b600d54600e54600f546010546103249392919060ff1684565b6040805194855260208501939093529183015215156060820152608001610200565b610293610354366004613048565b610ddb565b61026f611098565b61026f61036f3660046130d6565b6110f7565b61026f6103823660046130d6565b6001600160a01b03165f9081526001602052604090205490565b6103a46112ee565b005b601354601454610293919082565b600654600754600854600954600a54600b546103de956001600160a01b0390811695169392919086565b604080516001600160a01b039788168152969095166020870152938501929092526060840152608083015260a082015260c001610200565b6103a4611301565b5f546001600160a01b0316610253565b6101f361146d565b610293610444366004612f92565b61147c565b61045c6104573660046130f1565b6116a0565b604080519485526020850193909352918301526060820152608001610200565b61021c61048a366004612f92565b6118bd565b6102537f000000000000000000000000000000000000000000000000000000000000000081565b61026f6118ca565b6102537f000000000000000000000000000000000000000000000000000000000000000081565b6104ee614e2081565b60405162ffffff9091168152602001610200565b61026f610510366004613123565b6001600160a01b039182165f90815260026020908152604080832093909416825291909152205490565b6104ee7f000000000000000000000000000000000000000000000000000000000000000081565b61057461056f36600461315a565b61192a565b604051610200929190613203565b6103a46105903660046130d6565b6119b8565b6060600480546105a490613227565b80601f01602080910402602001604051908101604052809291908181526020018280546105d090613227565b801561061b5780601f106105f25761010080835404028352916020019161061b565b820191905f5260205f20905b8154815290600101906020018083116105fe57829003601f168201915b5050505050905090565b5f336106328185856119f5565b60019150505b92915050565b60408051608081018252600d54808252600e5460208301819052600f549383019390935260105460ff16151560608301525f9261067b9190611a07565b91505090565b5f3361068e858285611a1a565b610699858585611a95565b60019150505b9392505050565b600c81815481106106b5575f80fd5b5f91825260209091206003909102018054600182015460029092015490925083565b6010545f90819060ff166107065760405162461bcd60e51b81526004016106fd9061325f565b60405180910390fd5b6010805460ff19169055610718611af2565b6040805160808082018352600d548252600e54602080840191909152600f548385015260105460ff1615156060808501919091528451610120810186525f808252928101839052948501829052840181905290830181905260a0830181905260c0830181905260e083018190526101008301529061079c606086016040870161328a565b6107e7577f00000000000000000000000000000000000000000000000000000000000000007f000000000000000000000000000000000000000000000000000000000000000061082a565b7f00000000000000000000000000000000000000000000000000000000000000007f00000000000000000000000000000000000000000000000000000000000000005b6001600160a01b03908116602084015216815261084d606086016040870161328a565b61085d5760208201518251610865565b815160208301515b60a083015260808201525f610880606087016040880161328a565b61088c57601354610890565b6014545b90505f86351380156109a7576108a68735611b26565b83604001818152505061094a6040518060a001604052808960400160208101906108d0919061328a565b6108de5786602001516108e1565b86515b81526020016108f660608b0160408c0161328a565b610901578651610907565b86602001515b8152602001848152602001856040015181526020017f000000000000000000000000000000000000000000000000000000000000000062ffffff16815250611b4f565b61010085015260608401819052602088013511156109a25760405162461bcd60e51b815260206004820152601560248201527413dd5d1c1d5d081b1a5b5a5d08195e18d959591959605a1b60448201526064016106fd565b610ab4565b6109b96109b488356132b9565b611b26565b836060018181525050610a5d6040518060a001604052808960400160208101906109e3919061328a565b6109f15786602001516109f4565b86515b8152602001610a0960608b0160408c0161328a565b610a14578651610a1a565b86602001515b8152602001848152602001856060015181526020017f000000000000000000000000000000000000000000000000000000000000000062ffffff16815250611c2c565b6101008501526040840181905260208801351015610ab45760405162461bcd60e51b8152602060048201526014602482015273125b9c1d5d081b1a5b5a5d08195e18d95959195960621b60448201526064016106fd565b6020830151610ad790610acd60808a0160608b016130d6565b8560600151611cc6565b5f610ae6846101000151611cda565b9050610af86060890160408a0161328a565b610b1a578060115f015f828254610b0f91906132d3565b925050819055610b35565b8060116001015f828254610b2e91906132d3565b9250508190555b50610b466060890160408a0161328a565b610b5c57610b578460600151611ce7565b610b72565b610b698460400151611ce7565b610b72906132b9565b9650610b846060890160408a0161328a565b610ba357610b958460400151611ce7565b610b9e906132b9565b610bb0565b610bb08460600151611ce7565b95505f610bc060808a018a6132e6565b90501115610c2a5733638d4a84198888610bdd60808d018d6132e6565b6040518563ffffffff1660e01b8152600401610bfc9493929190613351565b5f604051808303815f87803b158015610c13575f80fd5b505af1158015610c25573d5f803e3d5ffd5b505050505b5f610c3b60608a0160408b0161328a565b610c455781610c47565b5f5b610c4f611d13565b610c599190613370565b90505f610c6c60608b0160408c0161328a565b610c76575f610c78565b825b610c80611d2f565b610c8a9190613370565b90505f610c9d60608c0160408d0161328a565b610ca75781610ca9565b825b905086604001518760800151610cbf91906132d3565b811015610d0e5760405162461bcd60e51b815260206004820152601960248201527f496e73756666696369656e7420616d6f756e7420696e7075740000000000000060448201526064016106fd565b610d4e60405180604001604052806014815260200173696e202573206f757420257320706f6f6c20257360601b8152508860400151896060015130611d3c565b610d588383611d85565b610d6860808c0160608d016130d6565b6001600160a01b0316336001600160a01b03167f86104e7a79e16fb712c2a4133be3187400bdcaf8d7a74c66f7b75718a83f83718c8c604051610db5929190918252602082015260400190565b60405180910390a350506010805460ff1916600117905550959794965093945050505050565b6010545f90819060ff16610e015760405162461bcd60e51b81526004016106fd9061325f565b6010805460ff19169055610e13611af2565b610e3e7f00000000000000000000000000000000000000000000000000000000000000008888611cc6565b610e697f00000000000000000000000000000000000000000000000000000000000000008887611cc6565b60405163e83517b560e01b8152339063e83517b590610e92908990899089908990600401613351565b5f604051808303815f87803b158015610ea9575f80fd5b505af1158015610ebb573d5f803e3d5ffd5b505060408051608081018252600d548152600e546020820152600f549181019190915260105460ff161515606082015291505f9050610ef8611d13565b90505f610f03611d2f565b90505f610f3a845f0151856020015185857f0000000000000000000000000000000000000000000000000000000000000000611e0a565b905080610f895760405162461bcd60e51b815260206004820152601960248201527f496e73756666696369656e7420616d6f756e747320706169640000000000000060448201526064016106fd565b8351610f96908b90613370565b610fa09084613370565b9550888460200151610fb29190613370565b610fbc9083613370565b94505f610fc887611cda565b90505f610fd487611cda565b90508160115f015f828254610fe991906132d3565b9091555050601280548291905f906110029084906132d3565b9091555061102490506110158387613370565b61101f8387613370565b611d85565b604080518d8152602081018d90528082018a90526060810189905290516001600160a01b038f169133917f1d940843caa7af592ac83e5e979405c98c9cad66a2a99359615008d6c97d5bc39181900360800190a350506010805460ff19166001179055509399929850919650505050505050565b60408051608081018252600d54808252600e5460208301819052600f549383019390935260105460ff16151560608301525f9261067b91907f000000000000000000000000000000000000000000000000000000000000000085611e50565b6010545f9060ff1661111b5760405162461bcd60e51b81526004016106fd9061325f565b6010805460ff1916905561112d611af2565b5f61113760035490565b60408051608081018252600d548152600e546020820152600f549181019190915260105460ff16151560608201529091505f611171611d13565b90505f61117c611d2f565b83519091508211806111915750826020015181115b6111dd5760405162461bcd60e51b815260206004820152601f60248201527f496e73756666696369656e7420616d6f756e74207472616e736665727265640060448201526064016106fd565b5f806111f386865f015187602001518787611e9f565b919850925090506112048888611f68565b83838315611232578360135f015f82825461121f91906132d3565b9091555061122f905084836132d3565b91505b821561125f578360136001015f82825461124c91906132d3565b9091555061125c905084826132d3565b90505b6112698282611d85565b86516001600160a01b038b169033907fa8137fff86647d8a402117b9c5dbda627f721d3773338fb9678c83e54ed39080908c906112a6908b613370565b60208c01516112b5908b613370565b6040805193845260208401929092529082015260600160405180910390a350506010805460ff1916600117905550949695505050505050565b6112f6611fa0565b6112ff5f611fcc565b565b337f00000000000000000000000000000000000000000000000000000000000000006001600160a01b031614611335575f80fd5b5f61133e611d13565b90505f611349611d2f565b60408051606080820183524282525f6020808401828152848601838152600c80546001808201835591865296517fdf6966c971051c3d54ec59162606531493a51404a002842f56009d7e5cf4a8c760039098029788015591517fdf6966c971051c3d54ec59162606531493a51404a002842f56009d7e5cf4a8c8870155517fdf6966c971051c3d54ec59162606531493a51404a002842f56009d7e5cf4a8c99095019490945584516080810186528881529081018690529384018390529201819052600d859055600e839055600f8190556010805460ff1916821790559192506114338484611a07565b905061143f3082611f68565b6040517f5daa87a0e9463431830481fd4b6e3403442dfb9a12b9c07597e9f61d50b633c8905f90a150505050565b6060600580546105a490613227565b6010545f90819060ff166114a25760405162461bcd60e51b81526004016106fd9061325f565b6010805460ff191690556114b4611af2565b5f6114be60035490565b90505f84116114cb575f80fd5b60408051608081018252600d548152600e546020820152600f549181019190915260105460ff16151560608201525f61150261201b565b90505f61150d612032565b90505f806115268987875f01518860200151888861203f565b929a509098509250905061155b7f00000000000000000000000000000000000000000000000000000000000000008b8a611cc6565b6115867f00000000000000000000000000000000000000000000000000000000000000008b89611cc6565b611590338a612181565b6013545f9089906115a190876132d3565b6115ab9190613370565b90505f88601360010154866115c091906132d3565b6115ca9190613370565b9050818185156115fa578560135f015f8282546115e791906132d3565b909155506115f7905086836132d3565b91505b8415611627578460136001015f82825461161491906132d3565b90915550611624905085826132d3565b90505b6116318282611d85565b604080518e8152602081018e90529081018c90526001600160a01b038f169033907fd175a80c109434bb89948928ab2475a6647c94244cb70002197896423c8833639060600160405180910390a350506010805460ff1916600117905550979a96995095975050505050505050565b5f805f806116ac611fa0565b60115486908111156116bd57506011545b60125486908111156116ce57506012545b5f7f00000000000000000000000000000000000000000000000000000000000000006001600160a01b031663017e7e586040518163ffffffff1660e01b8152600401602060405180830381865afa15801561172b573d5f803e3d5ffd5b505050506040513d601f19601f8201168201806040525081019061174f9190613383565b905061175a83611cda565b945061176582611cda565b93506117718584613370565b965061177d8483613370565b95506117aa7f00000000000000000000000000000000000000000000000000000000000000008b89611cc6565b6117d57f00000000000000000000000000000000000000000000000000000000000000008b88611cc6565b6118007f00000000000000000000000000000000000000000000000000000000000000008287611cc6565b61182b7f00000000000000000000000000000000000000000000000000000000000000008287611cc6565b8260115f015f82825461183e9190613370565b9091555050601280548391905f90611857908490613370565b90915550506040805188815260208101889052908101869052606081018590526001600160a01b038b169081907ffa65a20d0648910458fcef8ddd874cbd1e0323f608236e3b01d8d5d0ddf261eb9060800160405180910390a350505093509350935093565b5f33610632818585611a95565b60408051608081018252600d54808252600e5460208301819052600f549383019390935260105460ff16151560608301525f9261067b91907f00000000000000000000000000000000000000000000000000000000000000006001611e50565b60408051608081018252600d54808252600e546020808401829052600f5484860181905260105460ff1615156060868101919091528651888402818101850190985288815290968796956119ab95429591949093909290918c918c918291908501908490808284375f92019190915250600c97969594939250506121b59050565b92509250505b9250929050565b6119c0611fa0565b6001600160a01b0381166119e957604051631e4fbdf760e01b81525f60048201526024016106fd565b6119f281611fcc565b50565b611a02838383600161233b565b505050565b5f61069f611a15838561339e565b61240d565b6001600160a01b038381165f908152600260209081526040808320938616835292905220545f198114611a8f5781811015611a8157604051637dc7a0d960e11b81526001600160a01b038416600482015260248101829052604481018390526064016106fd565b611a8f84848484035f61233b565b50505050565b6001600160a01b038316611abe57604051634b637e8f60e11b81525f60048201526024016106fd565b6001600160a01b038216611ae75760405163ec442f0560e01b81525f60048201526024016106fd565b611a028383836124f1565b306001600160a01b037f000000000000000000000000000000000000000000000000000000000000000016146112ff575f80fd5b5f80821215611b4b57604051635467221960e11b8152600481018390526024016106fd565b5090565b5f8082606001515f03611b60575f80fd5b602083015183515f91611b729161339e565b90505f8460600151855f0151611b8891906132d3565b90505f611b958383612617565b90508560400151811015611beb5760405162461bcd60e51b815260206004820152601760248201527f496e73756666696369656e7420616d6f756e74206f757400000000000000000060448201526064016106fd565b5f818760200151611bfc9190613370565b9050611c1587608001518261264790919063ffffffff16565b9450611c218582613370565b955050505050915091565b5f8082606001515f03611c3d575f80fd5b5f611c5f8460800151620186a0611c5491906133b5565b60608601519061265b565b9050836060015181611c719190613370565b91505f8460200151855f0151611c87919061339e565b90505f828660200151611c9a9190613370565b90508560400151811015611cac575f80fd5b5f611cb78383612617565b8751909150611c219082613370565b611a026001600160a01b038416838361266f565b5f61063882614e20612647565b5f6001600160ff1b03821115611b4b5760405163123baf0360e11b8152600481018390526024016106fd565b6013545f90611d2061201b565b611d2a91906132d3565b905090565b6014545f90611d20612032565b611a8f84848484604051602401611d5694939291906133d8565b60408051601f198184030181529190526020810180516001600160e01b0316631c43bc4f60e31b1790526126c1565b600d829055600e8190556040805160808101825283815260208101839052600f5491810182905260105460ff161515606082015290611dc990600c904286866126ca565b600f5560408051848152602081018490527fcf2aa50876cdfbb541206f89af0ee78d44a2abf8d328e37fa4917f982149848a910160405180910390a1505050565b5f80611e168787611a07565b90505f611e238686611a07565b90505f611e3d611e3686620186a06133b5565b8390612647565b9290921015925050505b95945050505050565b5f81611e8057611e7b611e6684620186a06133b5565b611e7587600160601b88612786565b90612647565b611e47565b611e47611e9084620186a06133b5565b611e7586600160601b89612786565b5f805f80611ead8888611a07565b90505f611eba8787611a07565b9050818111611ec7575f80fd5b611edd8a83611ed68185613370565b9190612786565b94505f611eef8a600160601b8b612786565b90505f611f0189600160601b8a612786565b905080821015611f2e57878b611f178c8c61339e565b611f219190613423565b611f2b9190613370565b95505b80821115611f5957888a611f428d8b61339e565b611f4c9190613423565b611f569190613370565b94505b50505050955095509592505050565b6001600160a01b038216611f915760405163ec442f0560e01b81525f60048201526024016106fd565b611f9c5f83836124f1565b5050565b5f546001600160a01b031633146112ff5760405163118cdaa760e01b81523360048201526024016106fd565b5f80546001600160a01b038381166001600160a01b0319831681178455604051919092169283917f8be0079c531659141344cd1fd0a4f28419497f9722a3daafe3b4186f6b6457e09190a35050565b6011545f90612028612845565b611d2a9190613370565b6012545f906120286128ce565b5f80808061204e888b8b612786565b935061205b878b8b612786565b92505f6120688489613370565b612072868b613370565b61207c919061339e565b9050868511156120b2578694505f61209e612097878c613370565b8390612617565b90506120aa818a613370565b9450506120db565b858411156120db578593505f6120cb612097868b613370565b90506120d7818b613370565b9550505b5f6120e6868b613370565b90505f6120f3868b613370565b90505f6121058c600160601b8d612786565b90505f61211784600160601b85612786565b90508082101561214457828d61212d8e8761339e565b6121379190613423565b6121419190613370565b96505b8082111561216f57838c6121588f8661339e565b6121629190613423565b61216c9190613370565b95505b50505050509650965096509692505050565b6001600160a01b0382166121aa57604051634b637e8f60e11b81525f60048201526024016106fd565b611f9c825f836124f1565b805160609081908067ffffffffffffffff8111156121d5576121d5613436565b6040519080825280602002602001820160405280156121fe578160200160208202803683370190505b5092508067ffffffffffffffff81111561221a5761221a613436565b604051908082528060200260200182016040528015612243578160200160208202803683370190505b5091505f89805480602002602001604051908101604052809291908181526020015f905b828210156122b4578382905f5260205f2090600302016040518060600160405290815f82015481526020016001820154815260200160028201548152505081526020019060010190612267565b5050505090505f5b8281101561232d576122eb828b8b8b8b8b87815181106122de576122de61344a565b602002602001015161291c565b8683815181106122fd576122fd61344a565b602002602001018684815181106123165761231661344a565b6020908102919091010191909152526001016122bc565b505050965096945050505050565b6001600160a01b0384166123645760405163e602df0560e01b81525f60048201526024016106fd565b6001600160a01b03831661238d57604051634a1406b160e11b81525f60048201526024016106fd565b6001600160a01b038085165f9081526002602090815260408083209387168352929052208290558015611a8f57826001600160a01b0316846001600160a01b03167f8c5be1e5ebec7d5bd14f71427d1e84f3dd0314c0f7b2291e5b200ac8c7c3b925846040516123ff91815260200190565b60405180910390a350505050565b5f815f0361241c57505f919050565b5f6001612428846129fe565b901c6001901b905060018184816124415761244161340f565b048201901c905060018184816124595761245961340f565b048201901c905060018184816124715761247161340f565b048201901c905060018184816124895761248961340f565b048201901c905060018184816124a1576124a161340f565b048201901c905060018184816124b9576124b961340f565b048201901c905060018184816124d1576124d161340f565b048201901c905061069f818285816124eb576124eb61340f565b04612a91565b6001600160a01b03831661251b578060035f82825461251091906132d3565b9091555061258b9050565b6001600160a01b0383165f908152600160205260409020548181101561256d5760405163391434e360e21b81526001600160a01b038516600482015260248101829052604481018390526064016106fd565b6001600160a01b0384165f9081526001602052604090209082900390555b6001600160a01b0382166125a7576003805482900390556125c5565b6001600160a01b0382165f9081526001602052604090208054820190555b816001600160a01b0316836001600160a01b03167fddf252ad1be2c89b69c2b068fc378daa952ba7f163c4a11628f55a4df523b3ef8360405161260a91815260200190565b60405180910390a3505050565b5f6126228284613423565b90505f61262f838561345e565b1115610638578061263f81613471565b949350505050565b5f61069f8362ffffff8416620186a0612786565b5f61069f83620186a08462ffffff16612aa6565b604080516001600160a01b038416602482015260448082018490528251808303909101815260649091019091526020810180516001600160e01b031663a9059cbb60e01b179052611a02908490612ad6565b6119f281612b37565b5f80866126d8600188613370565b815481106126e8576126e861344a565b905f5260205f2090600302016040518060600160405290815f8201548152602001600182015481526020016002820154815250509050805f015185036127315785915050611e47565b8661273e82878787612b56565b8154600181810184555f9384526020938490208351600390930201918255928201518184015560409091015160029091015561277b9087906132d3565b979650505050505050565b5f838302815f1985870982811083820303915050805f036127ba578382816127b0576127b061340f565b049250505061069f565b8084116127da5760405163227bc15360e01b815260040160405180910390fd5b5f848688095f868103871696879004966002600389028118808a02820302808a02820302808a02820302808a02820302808a02820302808a02909103029181900381900460010186841190950394909402919094039290920491909117919091029150509392505050565b6040516370a0823160e01b81523060048201525f907f00000000000000000000000000000000000000000000000000000000000000006001600160a01b0316906370a08231906024015b602060405180830381865afa1580156128aa573d5f803e3d5ffd5b505050506040513d601f19601f82011682018060405250810190611d2a9190613489565b6040516370a0823160e01b81523060048201525f907f00000000000000000000000000000000000000000000000000000000000000006001600160a01b0316906370a082319060240161288f565b5f805f885f815181106129315761293161344a565b602002602001015190505f84896129489190613370565b825190915081101561299c5760405162461bcd60e51b815260206004820152601860248201527f496e76616c6964207461726765742074696d657374616d70000000000000000060448201526064016106fd565b5f806129a98c848a612bdd565b8051825192945090925090036129de576129c5818c8c8c612b56565b90508060200151816040015195509550505050506129f3565b6129e9828285612d3c565b9096509450505050505b965096945050505050565b5f80608083901c15612a1257608092831c92015b604083901c15612a2457604092831c92015b602083901c15612a3657602092831c92015b601083901c15612a4857601092831c92015b600883901c15612a5a57600892831c92015b600483901c15612a6c57600492831c92015b600283901c15612a7e57600292831c92015b600183901c156106385760010192915050565b5f818310612a9f578161069f565b5090919050565b5f612ab2848484612786565b90505f8280612ac357612ac361340f565b848609111561069f5780611e4781613471565b5f612aea6001600160a01b03841683612dda565b905080515f14158015612b0e575080806020019051810190612b0c91906134a0565b155b15611a0257604051635274afe760e01b81526001600160a01b03841660048201526024016106fd565b5f6a636f6e736f6c652e6c6f6790505f80835160208501845afa505050565b612b7760405180606001604052805f81526020015f81526020015f81525090565b84515f90612b859086613370565b905060405180606001604052808681526020018286612ba4919061339e565b8860200151612bb391906132d3565b8152602001612bc2838661339e565b8860400151612bd191906132d3565b90529695505050505050565b612bfe60405180606001604052805f81526020015f81526020015f81525090565b612c1f60405180606001604052805f81526020015f81526020015f81525090565b5f855f81518110612c3257612c3261344a565b602002602001015190505f86600186612c4b9190613370565b81518110612c5b57612c5b61344a565b60200260200101519050815f0151861015612c74575f80fd5b865160011480612c85575080518610155b15612c96579250829150612d349050565b5f80612ca3600188613370565b90505f5b612cb18383612de7565b9050898181518110612cc557612cc561344a565b6020026020010151965088875f01511115612cec57612ce5600182613370565b9150612ca7565b89612cf88260016132d3565b81518110612d0857612d0861344a565b6020026020010151955088865f015111612d2e57612d278160016132d3565b9250612ca7565b50505050505b935093915050565b5f8082855f015111158015612d515750835183105b612d59575f80fd5b84515f90612d679085613370565b865186519192505f91612d7a9190613370565b9050612d95828289602001518960200151611ed69190613370565b8760200151612da491906132d3565b9350612dbf828289604001518960400151611ed69190613370565b8760400151612dce91906132d3565b92505050935093915050565b606061069f83835f612e01565b5f612df56002848418613423565b61069f908484166132d3565b606081471015612e265760405163cd78605960e01b81523060048201526024016106fd565b5f80856001600160a01b03168486604051612e4191906134bb565b5f6040518083038185875af1925050503d805f8114612e7b576040519150601f19603f3d011682016040523d82523d5f602084013e612e80565b606091505b5091509150612e90868383612e9a565b9695505050505050565b606082612eaf57612eaa82612ef6565b61069f565b8151158015612ec657506001600160a01b0384163b155b15612eef57604051639996b31560e01b81526001600160a01b03851660048201526024016106fd565b508061069f565b805115612f065780518082602001fd5b604051630a12f52160e11b815260040160405180910390fd5b5f5b83811015612f39578181015183820152602001612f21565b50505f910152565b5f8151808452612f58816020860160208601612f1f565b601f01601f19169290920160200192915050565b602081525f61069f6020830184612f41565b6001600160a01b03811681146119f2575f80fd5b5f8060408385031215612fa3575f80fd5b8235612fae81612f7e565b946020939093013593505050565b5f805f60608486031215612fce575f80fd5b8335612fd981612f7e565b92506020840135612fe981612f7e565b929592945050506040919091013590565b5f6020828403121561300a575f80fd5b5035919050565b5f60208284031215613021575f80fd5b813567ffffffffffffffff811115613037575f80fd5b820160a0818503121561069f575f80fd5b5f805f805f6080868803121561305c575f80fd5b853561306781612f7e565b94506020860135935060408601359250606086013567ffffffffffffffff80821115613091575f80fd5b818801915088601f8301126130a4575f80fd5b8135818111156130b2575f80fd5b8960208285010111156130c3575f80fd5b9699959850939650602001949392505050565b5f602082840312156130e6575f80fd5b813561069f81612f7e565b5f805f60608486031215613103575f80fd5b833561310e81612f7e565b95602085013595506040909401359392505050565b5f8060408385031215613134575f80fd5b823561313f81612f7e565b9150602083013561314f81612f7e565b809150509250929050565b5f806020838503121561316b575f80fd5b823567ffffffffffffffff80821115613182575f80fd5b818501915085601f830112613195575f80fd5b8135818111156131a3575f80fd5b8660208260051b85010111156131b7575f80fd5b60209290920196919550909350505050565b5f815180845260208085019450602084015f5b838110156131f8578151875295820195908201906001016131dc565b509495945050505050565b604081525f61321560408301856131c9565b8281036020840152611e4781856131c9565b600181811c9082168061323b57607f821691505b60208210810361325957634e487b7160e01b5f52602260045260245ffd5b50919050565b6020808252600490820152634c6f636b60e01b604082015260600190565b80151581146119f2575f80fd5b5f6020828403121561329a575f80fd5b813561069f8161327d565b634e487b7160e01b5f52601160045260245ffd5b5f600160ff1b82016132cd576132cd6132a5565b505f0390565b80820180821115610638576106386132a5565b5f808335601e198436030181126132fb575f80fd5b83018035915067ffffffffffffffff821115613315575f80fd5b6020019150368190038213156119b1575f80fd5b81835281816020850137505f828201602090810191909152601f909101601f19169091010190565b848152836020820152606060408201525f612e90606083018486613329565b81810381811115610638576106386132a5565b5f60208284031215613393575f80fd5b815161069f81612f7e565b8082028115828204841417610638576106386132a5565b62ffffff8281168282160390808211156133d1576133d16132a5565b5092915050565b608081525f6133ea6080830187612f41565b60208301959095525060408101929092526001600160a01b0316606090910152919050565b634e487b7160e01b5f52601260045260245ffd5b5f826134315761343161340f565b500490565b634e487b7160e01b5f52604160045260245ffd5b634e487b7160e01b5f52603260045260245ffd5b5f8261346c5761346c61340f565b500690565b5f60018201613482576134826132a5565b5060010190565b5f60208284031215613499575f80fd5b5051919050565b5f602082840312156134b0575f80fd5b815161069f8161327d565b5f82516134cc818460208701612f1f565b919091019291505056fea2646970667358221220fa01a3f6e6c523f5f4d45f9e811255d9e887c0fc51c6a0dad0e81862ea817e2f64736f6c63430008170033",
    "sourcePath": "c:/Users/tucuo/OneDrive/Desktop/CiSwap.Contracts/contracts/Pool.sol",
    "compiler": {
        "name": "solc",
        "version": "0.8.23+commit.f704f362"
    },
    "functionHashes": {
        "FEE_PROTOCOL_RATE()": "d24c503d",
        "allowance(address,address)": "dd62ed3e",
        "approve(address,uint256)": "095ea7b3",
        "balanceOf(address)": "70a08231",
        "burn(address,uint256)": "9dc29fac",
        "collectProtocol(address,uint256,uint256)": "a5820157",
        "config()": "79502c55",
        "constants()": "72de5b2f",
        "decimals()": "313ce567",
        "factory()": "c45a0155",
        "fee()": "ddca3f43",
        "flash(address,uint256,uint256,bytes)": "490e6cbc",
        "initialize()": "8129fc1c",
        "liquidity()": "1a686502",
        "mint(address)": "6a627842",
        "name()": "06fdde03",
        "observations(uint256)": "252c09d7",
        "observe(uint256[])": "dea96b71",
        "owner()": "8da5cb5b",
        "price0X96()": "c806a79e",
        "price1X96()": "4fa1323d",
        "protocolFees()": "1ad8b03b",
        "renounceOwnership()": "715018a6",
        "slot0()": "3850c7bd",
        "swap((int256,uint256,bool,address,bytes))": "25a12ac1",
        "symbol()": "95d89b41",
        "token0()": "0dfe1681",
        "token1()": "d21220a7",
        "totalSupply()": "18160ddd",
        "transfer(address,uint256)": "a9059cbb",
        "transferFrom(address,address,uint256)": "23b872dd",
        "transferOwnership(address)": "f2fde38b"
    },
    "gasEstimates": {
        "creation": {
            "codeDepositCost": "2716000",
            "executionCost": "infinite",
            "totalCost": "infinite"
        },
        "external": {
            "FEE_PROTOCOL_RATE()": "314",
            "allowance(address,address)": "infinite",
            "approve(address,uint256)": "24775",
            "balanceOf(address)": "2617",
            "burn(address,uint256)": "infinite",
            "collectProtocol(address,uint256,uint256)": "infinite",
            "config()": "13042",
            "constants()": "4473",
            "decimals()": "244",
            "factory()": "infinite",
            "fee()": "infinite",
            "flash(address,uint256,uint256,bytes)": "infinite",
            "initialize()": "infinite",
            "liquidity()": "infinite",
            "mint(address)": "infinite",
            "name()": "infinite",
            "observations(uint256)": "8967",
            "observe(uint256[])": "infinite",
            "owner()": "2441",
            "price0X96()": "infinite",
            "price1X96()": "infinite",
            "protocolFees()": "4495",
            "renounceOwnership()": "infinite",
            "slot0()": "8774",
            "swap((int256,uint256,bool,address,bytes))": "infinite",
            "symbol()": "infinite",
            "token0()": "infinite",
            "token1()": "infinite",
            "totalSupply()": "2393",
            "transfer(address,uint256)": "51312",
            "transferFrom(address,address,uint256)": "infinite",
            "transferOwnership(address)": "infinite"
        },
        "internal": {
            "_adjusted0()": "infinite",
            "_adjusted1()": "infinite",
            "_balance0()": "infinite",
            "_balance0Net()": "infinite",
            "_balance1()": "infinite",
            "_balance1Net()": "infinite",
            "_computeFeeProtocol(uint256)": "infinite",
            "_update(uint256,uint256)": "infinite"
        }
    }
}