{
    "contractName": "Pool",
    "abi": [
        {
            "inputs": [],
            "stateMutability": "nonpayable",
            "type": "constructor"
        },
        {
            "inputs": [
                {
                    "internalType": "address",
                    "name": "target",
                    "type": "address"
                }
            ],
            "name": "AddressEmptyCode",
            "type": "error"
        },
        {
            "inputs": [
                {
                    "internalType": "address",
                    "name": "account",
                    "type": "address"
                }
            ],
            "name": "AddressInsufficientBalance",
            "type": "error"
        },
        {
            "inputs": [
                {
                    "internalType": "address",
                    "name": "spender",
                    "type": "address"
                },
                {
                    "internalType": "uint256",
                    "name": "allowance",
                    "type": "uint256"
                },
                {
                    "internalType": "uint256",
                    "name": "needed",
                    "type": "uint256"
                }
            ],
            "name": "ERC20InsufficientAllowance",
            "type": "error"
        },
        {
            "inputs": [
                {
                    "internalType": "address",
                    "name": "sender",
                    "type": "address"
                },
                {
                    "internalType": "uint256",
                    "name": "balance",
                    "type": "uint256"
                },
                {
                    "internalType": "uint256",
                    "name": "needed",
                    "type": "uint256"
                }
            ],
            "name": "ERC20InsufficientBalance",
            "type": "error"
        },
        {
            "inputs": [
                {
                    "internalType": "address",
                    "name": "approver",
                    "type": "address"
                }
            ],
            "name": "ERC20InvalidApprover",
            "type": "error"
        },
        {
            "inputs": [
                {
                    "internalType": "address",
                    "name": "receiver",
                    "type": "address"
                }
            ],
            "name": "ERC20InvalidReceiver",
            "type": "error"
        },
        {
            "inputs": [
                {
                    "internalType": "address",
                    "name": "sender",
                    "type": "address"
                }
            ],
            "name": "ERC20InvalidSender",
            "type": "error"
        },
        {
            "inputs": [
                {
                    "internalType": "address",
                    "name": "spender",
                    "type": "address"
                }
            ],
            "name": "ERC20InvalidSpender",
            "type": "error"
        },
        {
            "inputs": [],
            "name": "FailedInnerCall",
            "type": "error"
        },
        {
            "inputs": [],
            "name": "MathOverflowedMulDiv",
            "type": "error"
        },
        {
            "inputs": [
                {
                    "internalType": "int256",
                    "name": "value",
                    "type": "int256"
                }
            ],
            "name": "SafeCastOverflowedIntToUint",
            "type": "error"
        },
        {
            "inputs": [
                {
                    "internalType": "uint256",
                    "name": "value",
                    "type": "uint256"
                }
            ],
            "name": "SafeCastOverflowedUintToInt",
            "type": "error"
        },
        {
            "inputs": [
                {
                    "internalType": "address",
                    "name": "token",
                    "type": "address"
                }
            ],
            "name": "SafeERC20FailedOperation",
            "type": "error"
        },
        {
            "anonymous": false,
            "inputs": [
                {
                    "indexed": true,
                    "internalType": "address",
                    "name": "owner",
                    "type": "address"
                },
                {
                    "indexed": true,
                    "internalType": "address",
                    "name": "spender",
                    "type": "address"
                },
                {
                    "indexed": false,
                    "internalType": "uint256",
                    "name": "value",
                    "type": "uint256"
                }
            ],
            "name": "Approval",
            "type": "event"
        },
        {
            "anonymous": false,
            "inputs": [
                {
                    "indexed": true,
                    "internalType": "address",
                    "name": "sender",
                    "type": "address"
                },
                {
                    "indexed": false,
                    "internalType": "uint256",
                    "name": "amount",
                    "type": "uint256"
                },
                {
                    "indexed": false,
                    "internalType": "uint256",
                    "name": "amount0",
                    "type": "uint256"
                },
                {
                    "indexed": false,
                    "internalType": "uint256",
                    "name": "amount1",
                    "type": "uint256"
                },
                {
                    "indexed": true,
                    "internalType": "address",
                    "name": "recipient",
                    "type": "address"
                }
            ],
            "name": "Burn",
            "type": "event"
        },
        {
            "anonymous": false,
            "inputs": [
                {
                    "indexed": true,
                    "internalType": "address",
                    "name": "sender",
                    "type": "address"
                },
                {
                    "indexed": false,
                    "internalType": "uint256",
                    "name": "amount0",
                    "type": "uint256"
                },
                {
                    "indexed": false,
                    "internalType": "uint256",
                    "name": "amount1",
                    "type": "uint256"
                },
                {
                    "indexed": true,
                    "internalType": "address",
                    "name": "recipient",
                    "type": "address"
                }
            ],
            "name": "CollectProtocol",
            "type": "event"
        },
        {
            "anonymous": false,
            "inputs": [
                {
                    "indexed": true,
                    "internalType": "address",
                    "name": "sender",
                    "type": "address"
                },
                {
                    "indexed": false,
                    "internalType": "uint256",
                    "name": "amount0",
                    "type": "uint256"
                },
                {
                    "indexed": false,
                    "internalType": "uint256",
                    "name": "amount1",
                    "type": "uint256"
                },
                {
                    "indexed": false,
                    "internalType": "uint256",
                    "name": "paid0",
                    "type": "uint256"
                },
                {
                    "indexed": false,
                    "internalType": "uint256",
                    "name": "paid1",
                    "type": "uint256"
                },
                {
                    "indexed": true,
                    "internalType": "address",
                    "name": "recipient",
                    "type": "address"
                }
            ],
            "name": "Flash",
            "type": "event"
        },
        {
            "anonymous": false,
            "inputs": [],
            "name": "Initialized",
            "type": "event"
        },
        {
            "anonymous": false,
            "inputs": [
                {
                    "indexed": true,
                    "internalType": "address",
                    "name": "sender",
                    "type": "address"
                },
                {
                    "indexed": false,
                    "internalType": "uint256",
                    "name": "amount",
                    "type": "uint256"
                },
                {
                    "indexed": false,
                    "internalType": "uint256",
                    "name": "amount0",
                    "type": "uint256"
                },
                {
                    "indexed": false,
                    "internalType": "uint256",
                    "name": "amount1",
                    "type": "uint256"
                },
                {
                    "indexed": true,
                    "internalType": "address",
                    "name": "recipient",
                    "type": "address"
                }
            ],
            "name": "Mint",
            "type": "event"
        },
        {
            "anonymous": false,
            "inputs": [
                {
                    "indexed": true,
                    "internalType": "address",
                    "name": "sender",
                    "type": "address"
                },
                {
                    "indexed": false,
                    "internalType": "int256",
                    "name": "amount0",
                    "type": "int256"
                },
                {
                    "indexed": false,
                    "internalType": "int256",
                    "name": "amount1",
                    "type": "int256"
                },
                {
                    "indexed": true,
                    "internalType": "address",
                    "name": "recipient",
                    "type": "address"
                }
            ],
            "name": "Swap",
            "type": "event"
        },
        {
            "anonymous": false,
            "inputs": [
                {
                    "indexed": false,
                    "internalType": "uint256",
                    "name": "reserve0",
                    "type": "uint256"
                },
                {
                    "indexed": false,
                    "internalType": "uint256",
                    "name": "reserve1",
                    "type": "uint256"
                }
            ],
            "name": "Sync",
            "type": "event"
        },
        {
            "anonymous": false,
            "inputs": [
                {
                    "indexed": true,
                    "internalType": "address",
                    "name": "from",
                    "type": "address"
                },
                {
                    "indexed": true,
                    "internalType": "address",
                    "name": "to",
                    "type": "address"
                },
                {
                    "indexed": false,
                    "internalType": "uint256",
                    "name": "value",
                    "type": "uint256"
                }
            ],
            "name": "Transfer",
            "type": "event"
        },
        {
            "inputs": [],
            "name": "FEE_PROTOCOL_RATE",
            "outputs": [
                {
                    "internalType": "uint24",
                    "name": "",
                    "type": "uint24"
                }
            ],
            "stateMutability": "view",
            "type": "function"
        },
        {
            "inputs": [
                {
                    "internalType": "address",
                    "name": "owner",
                    "type": "address"
                },
                {
                    "internalType": "address",
                    "name": "spender",
                    "type": "address"
                }
            ],
            "name": "allowance",
            "outputs": [
                {
                    "internalType": "uint256",
                    "name": "",
                    "type": "uint256"
                }
            ],
            "stateMutability": "view",
            "type": "function"
        },
        {
            "inputs": [
                {
                    "internalType": "address",
                    "name": "spender",
                    "type": "address"
                },
                {
                    "internalType": "uint256",
                    "name": "value",
                    "type": "uint256"
                }
            ],
            "name": "approve",
            "outputs": [
                {
                    "internalType": "bool",
                    "name": "",
                    "type": "bool"
                }
            ],
            "stateMutability": "nonpayable",
            "type": "function"
        },
        {
            "inputs": [
                {
                    "internalType": "address",
                    "name": "account",
                    "type": "address"
                }
            ],
            "name": "balanceOf",
            "outputs": [
                {
                    "internalType": "uint256",
                    "name": "",
                    "type": "uint256"
                }
            ],
            "stateMutability": "view",
            "type": "function"
        },
        {
            "inputs": [
                {
                    "internalType": "address",
                    "name": "recipient",
                    "type": "address"
                },
                {
                    "internalType": "uint256",
                    "name": "amount",
                    "type": "uint256"
                }
            ],
            "name": "burn",
            "outputs": [
                {
                    "internalType": "uint256",
                    "name": "amount0",
                    "type": "uint256"
                },
                {
                    "internalType": "uint256",
                    "name": "amount1",
                    "type": "uint256"
                }
            ],
            "stateMutability": "nonpayable",
            "type": "function"
        },
        {
            "inputs": [
                {
                    "internalType": "uint256",
                    "name": "amount0Requested",
                    "type": "uint256"
                },
                {
                    "internalType": "uint256",
                    "name": "amount1Requested",
                    "type": "uint256"
                }
            ],
            "name": "collectProtocol",
            "outputs": [
                {
                    "internalType": "uint256",
                    "name": "amount0",
                    "type": "uint256"
                },
                {
                    "internalType": "uint256",
                    "name": "amount1",
                    "type": "uint256"
                }
            ],
            "stateMutability": "nonpayable",
            "type": "function"
        },
        {
            "inputs": [],
            "name": "config",
            "outputs": [
                {
                    "internalType": "address",
                    "name": "tokenA",
                    "type": "address"
                },
                {
                    "internalType": "address",
                    "name": "tokenB",
                    "type": "address"
                },
                {
                    "internalType": "uint256",
                    "name": "amountA",
                    "type": "uint256"
                },
                {
                    "internalType": "uint256",
                    "name": "amountB",
                    "type": "uint256"
                },
                {
                    "internalType": "uint256",
                    "name": "priceABaseX96",
                    "type": "uint256"
                },
                {
                    "internalType": "uint256",
                    "name": "priceAMaxX96",
                    "type": "uint256"
                }
            ],
            "stateMutability": "view",
            "type": "function"
        },
        {
            "inputs": [],
            "name": "constants",
            "outputs": [
                {
                    "internalType": "uint256",
                    "name": "token0",
                    "type": "uint256"
                },
                {
                    "internalType": "uint256",
                    "name": "token1",
                    "type": "uint256"
                }
            ],
            "stateMutability": "view",
            "type": "function"
        },
        {
            "inputs": [],
            "name": "decimals",
            "outputs": [
                {
                    "internalType": "uint8",
                    "name": "",
                    "type": "uint8"
                }
            ],
            "stateMutability": "view",
            "type": "function"
        },
        {
            "inputs": [],
            "name": "factory",
            "outputs": [
                {
                    "internalType": "address",
                    "name": "",
                    "type": "address"
                }
            ],
            "stateMutability": "view",
            "type": "function"
        },
        {
            "inputs": [],
            "name": "fee",
            "outputs": [
                {
                    "internalType": "uint24",
                    "name": "",
                    "type": "uint24"
                }
            ],
            "stateMutability": "view",
            "type": "function"
        },
        {
            "inputs": [
                {
                    "internalType": "address",
                    "name": "recipient",
                    "type": "address"
                },
                {
                    "internalType": "uint256",
                    "name": "amount0",
                    "type": "uint256"
                },
                {
                    "internalType": "uint256",
                    "name": "amount1",
                    "type": "uint256"
                },
                {
                    "internalType": "bytes",
                    "name": "callback",
                    "type": "bytes"
                }
            ],
            "name": "flash",
            "outputs": [
                {
                    "internalType": "uint256",
                    "name": "paid0",
                    "type": "uint256"
                },
                {
                    "internalType": "uint256",
                    "name": "paid1",
                    "type": "uint256"
                }
            ],
            "stateMutability": "nonpayable",
            "type": "function"
        },
        {
            "inputs": [],
            "name": "indexPool",
            "outputs": [
                {
                    "internalType": "uint32",
                    "name": "",
                    "type": "uint32"
                }
            ],
            "stateMutability": "view",
            "type": "function"
        },
        {
            "inputs": [
                {
                    "internalType": "uint32",
                    "name": "_indexPool",
                    "type": "uint32"
                }
            ],
            "name": "initialize",
            "outputs": [],
            "stateMutability": "nonpayable",
            "type": "function"
        },
        {
            "inputs": [],
            "name": "liquidity",
            "outputs": [
                {
                    "internalType": "uint256",
                    "name": "",
                    "type": "uint256"
                }
            ],
            "stateMutability": "view",
            "type": "function"
        },
        {
            "inputs": [
                {
                    "internalType": "address",
                    "name": "recipient",
                    "type": "address"
                }
            ],
            "name": "mint",
            "outputs": [
                {
                    "internalType": "uint256",
                    "name": "amount",
                    "type": "uint256"
                }
            ],
            "stateMutability": "nonpayable",
            "type": "function"
        },
        {
            "inputs": [
                {
                    "internalType": "bytes[]",
                    "name": "data",
                    "type": "bytes[]"
                }
            ],
            "name": "multicall",
            "outputs": [
                {
                    "internalType": "bytes[]",
                    "name": "results",
                    "type": "bytes[]"
                }
            ],
            "stateMutability": "nonpayable",
            "type": "function"
        },
        {
            "inputs": [],
            "name": "name",
            "outputs": [
                {
                    "internalType": "string",
                    "name": "",
                    "type": "string"
                }
            ],
            "stateMutability": "view",
            "type": "function"
        },
        {
            "inputs": [
                {
                    "internalType": "uint256",
                    "name": "",
                    "type": "uint256"
                }
            ],
            "name": "observations",
            "outputs": [
                {
                    "internalType": "uint256",
                    "name": "blockTimestamp",
                    "type": "uint256"
                },
                {
                    "internalType": "uint256",
                    "name": "reserve0Cumulative",
                    "type": "uint256"
                },
                {
                    "internalType": "uint256",
                    "name": "reserve1Cumulative",
                    "type": "uint256"
                }
            ],
            "stateMutability": "view",
            "type": "function"
        },
        {
            "inputs": [
                {
                    "internalType": "uint256[]",
                    "name": "secondAgos",
                    "type": "uint256[]"
                }
            ],
            "name": "observe",
            "outputs": [
                {
                    "internalType": "uint256[]",
                    "name": "reserve0Cumulatives",
                    "type": "uint256[]"
                },
                {
                    "internalType": "uint256[]",
                    "name": "reserve1Cumulatives",
                    "type": "uint256[]"
                }
            ],
            "stateMutability": "view",
            "type": "function"
        },
        {
            "inputs": [],
            "name": "price0X96",
            "outputs": [
                {
                    "internalType": "uint256",
                    "name": "",
                    "type": "uint256"
                }
            ],
            "stateMutability": "view",
            "type": "function"
        },
        {
            "inputs": [],
            "name": "price1X96",
            "outputs": [
                {
                    "internalType": "uint256",
                    "name": "",
                    "type": "uint256"
                }
            ],
            "stateMutability": "view",
            "type": "function"
        },
        {
            "inputs": [],
            "name": "protocolFees",
            "outputs": [
                {
                    "internalType": "uint256",
                    "name": "token0",
                    "type": "uint256"
                },
                {
                    "internalType": "uint256",
                    "name": "token1",
                    "type": "uint256"
                }
            ],
            "stateMutability": "view",
            "type": "function"
        },
        {
            "inputs": [],
            "name": "slot0",
            "outputs": [
                {
                    "internalType": "uint256",
                    "name": "reserve0",
                    "type": "uint256"
                },
                {
                    "internalType": "uint256",
                    "name": "reserve1",
                    "type": "uint256"
                },
                {
                    "internalType": "uint256",
                    "name": "observationCardinality",
                    "type": "uint256"
                },
                {
                    "internalType": "bool",
                    "name": "unlocked",
                    "type": "bool"
                }
            ],
            "stateMutability": "view",
            "type": "function"
        },
        {
            "inputs": [
                {
                    "components": [
                        {
                            "internalType": "int256",
                            "name": "amountSpecified",
                            "type": "int256"
                        },
                        {
                            "internalType": "uint256",
                            "name": "limitAmountCalculated",
                            "type": "uint256"
                        },
                        {
                            "internalType": "bool",
                            "name": "zeroForOne",
                            "type": "bool"
                        },
                        {
                            "internalType": "address",
                            "name": "recipient",
                            "type": "address"
                        },
                        {
                            "internalType": "bytes",
                            "name": "callback",
                            "type": "bytes"
                        }
                    ],
                    "internalType": "struct IPoolActions.SwapParams",
                    "name": "params",
                    "type": "tuple"
                }
            ],
            "name": "swap",
            "outputs": [
                {
                    "internalType": "int256",
                    "name": "amount0",
                    "type": "int256"
                },
                {
                    "internalType": "int256",
                    "name": "amount1",
                    "type": "int256"
                }
            ],
            "stateMutability": "nonpayable",
            "type": "function"
        },
        {
            "inputs": [],
            "name": "symbol",
            "outputs": [
                {
                    "internalType": "string",
                    "name": "",
                    "type": "string"
                }
            ],
            "stateMutability": "view",
            "type": "function"
        },
        {
            "inputs": [],
            "name": "token0",
            "outputs": [
                {
                    "internalType": "address",
                    "name": "",
                    "type": "address"
                }
            ],
            "stateMutability": "view",
            "type": "function"
        },
        {
            "inputs": [],
            "name": "token1",
            "outputs": [
                {
                    "internalType": "address",
                    "name": "",
                    "type": "address"
                }
            ],
            "stateMutability": "view",
            "type": "function"
        },
        {
            "inputs": [],
            "name": "totalSupply",
            "outputs": [
                {
                    "internalType": "uint256",
                    "name": "",
                    "type": "uint256"
                }
            ],
            "stateMutability": "view",
            "type": "function"
        },
        {
            "inputs": [
                {
                    "internalType": "address",
                    "name": "to",
                    "type": "address"
                },
                {
                    "internalType": "uint256",
                    "name": "value",
                    "type": "uint256"
                }
            ],
            "name": "transfer",
            "outputs": [
                {
                    "internalType": "bool",
                    "name": "",
                    "type": "bool"
                }
            ],
            "stateMutability": "nonpayable",
            "type": "function"
        },
        {
            "inputs": [
                {
                    "internalType": "address",
                    "name": "from",
                    "type": "address"
                },
                {
                    "internalType": "address",
                    "name": "to",
                    "type": "address"
                },
                {
                    "internalType": "uint256",
                    "name": "value",
                    "type": "uint256"
                }
            ],
            "name": "transferFrom",
            "outputs": [
                {
                    "internalType": "bool",
                    "name": "",
                    "type": "bool"
                }
            ],
            "stateMutability": "nonpayable",
            "type": "function"
        }
    ],
    "bytecode": "61012060405234801562000011575f80fd5b506040518060400160405280601881526020017f4c69717569646974792050726f766964657220546f6b656e0000000000000000815250604051806040016040528060088152602001672628102a37b5b2b760c11b81525081600390816200007a919062000643565b50600462000089828262000643565b50503060805250336001600160a01b031663f3778fd86040518163ffffffff1660e01b815260040161010060405180830381865afa158015620000ce573d5f803e3d5ffd5b505050506040513d601f19601f82011682018060405250810190620000f491906200072b565b8051600680546001600160a01b039283166001600160a01b03199182168117909255602084015160078054918516919092168117909155604084015160085560608401516009556080840151600a5560a093840151600b5562ffffff90941660c052931690525f916200016791620001c2565b6001600160a01b0391821661010052911660e052600a54600b546008546009549394505f9384936200019d9390929091620001fb565b9150915082620001af578082620001b2565b81815b6014556013555062000870915050565b5f805f836001600160a01b0316856001600160a01b031610620001e85783855f620001ed565b848460015b919790965090945092505050565b5f806200020a86868662000225565b91506200021a86838686620002a0565b905094509492505050565b5f8062000241856c010000000000000000000000008662000306565b90505f6200024f82620003cb565b90505f6200025e85836200080c565b905066010000000000005f80620002768386620004cc565b915091508162000284575f80fd5b6200029081856200083a565b96505050505050505b9392505050565b5f6c010000000000000000000000008180620002e088620002c289896200085a565b620002ce91906200080c565b620002da87866200080c565b620004cc565b9150915081620002ee575f80fd5b620002fa83826200083a565b98975050505050505050565b5f838302815f1985870982811083820303915050805f036200033f5783828162000334576200033462000826565b049250505062000299565b808411620003605760405163227bc15360e01b815260040160405180910390fd5b5f848688095f868103871696879004966002600389028118808a02820302808a02820302808a02820302808a02820302808a02820302808a02909103029181900381900460010186841190950394909402919094039290920491909117919091029150509392505050565b5f815f03620003db57505f919050565b5f6001620003e984620004f2565b901c6001901b9050600181848162000405576200040562000826565b048201901c9050600181848162000420576200042062000826565b048201901c905060018184816200043b576200043b62000826565b048201901c9050600181848162000456576200045662000826565b048201901c9050600181848162000471576200047162000826565b048201901c905060018184816200048c576200048c62000826565b048201901c90506001818481620004a757620004a762000826565b048201901c90506200029981828581620004c557620004c562000826565b046200058e565b5f8083831115620004e257505f905080620004eb565b50600190508183035b9250929050565b5f80608083901c156200050757608092831c92015b604083901c156200051a57604092831c92015b602083901c156200052d57602092831c92015b601083901c156200054057601092831c92015b600883901c156200055357600892831c92015b600483901c156200056657600492831c92015b600283901c156200057957600292831c92015b600183901c1562000588576001015b92915050565b5f8183106200059e578162000299565b5090919050565b634e487b7160e01b5f52604160045260245ffd5b600181811c90821680620005ce57607f821691505b602082108103620005ed57634e487b7160e01b5f52602260045260245ffd5b50919050565b601f8211156200063e57805f5260205f20601f840160051c810160208510156200061a5750805b601f840160051c820191505b818110156200063b575f815560010162000626565b50505b505050565b81516001600160401b038111156200065f576200065f620005a5565b6200067781620006708454620005b9565b84620005f3565b602080601f831160018114620006ad575f8415620006955750858301515b5f19600386901b1c1916600185901b17855562000707565b5f85815260208120601f198616915b82811015620006dd57888601518255948401946001909101908401620006bc565b5085821015620006fb57878501515f19600388901b60f8161c191681555b505060018460011b0185555b505050505050565b80516001600160a01b038116811462000726575f80fd5b919050565b5f805f83850361010081121562000740575f80fd5b6200074b856200070f565b9350602085015162ffffff8116811462000763575f80fd5b925060c0603f198201121562000777575f80fd5b5060405160c081016001600160401b03811182821017156200079d576200079d620005a5565b8060405250620007b0604086016200070f565b8152620007c0606086016200070f565b60208201526080850151604082015260a0850151606082015260c0850151608082015260e085015160a0820152809150509250925092565b634e487b7160e01b5f52601160045260245ffd5b8082028115828204841417620005885762000588620007f8565b634e487b7160e01b5f52601260045260245ffd5b5f826200085557634e487b7160e01b5f52601260045260245ffd5b500490565b80820180821115620005885762000588620007f8565b60805160a05160c05160e051610100516138eb6200093a5f395f81816104d00152818161079c0152818161080401528181610e61015281816112c5015281816118970152612c2a01525f8181610226015281816107bd015281816107e301528181610e360152818161129a0152818161186c0152612ba101525f818161054c0152818161091801528181610a2b01528181610f6e015281816113a40152611b2801525f81816104a10152818161111a0152818161121501526115ef01525f611ce401526138eb5ff3fe608060405234801561000f575f80fd5b50600436106101dc575f3560e01c806370a0823111610109578063ac9650d81161009e578063d24c503d1161006e578063d24c503d146104f2578063dd62ed3e1461050f578063ddca3f4314610547578063dea96b711461056e575f80fd5b8063ac9650d81461047c578063c45a01551461049c578063c806a79e146104c3578063d21220a7146104cb575f80fd5b806395d89b41116100d957806395d89b41146104295780639dc29fac14610431578063a9059cbb14610444578063aafb81c014610457575f80fd5b806370a082311461037c57806372de5b2f146103a457806379502c55146103b25780638d8965bd14610414575f80fd5b8063252c09d71161017f578063490e6cbc1161014f578063490e6cbc1461033b5780634bc5c27b1461034e5780634fa1323d146103615780636a62784214610369575f80fd5b8063252c09d7146102b057806325a12ac1146102de578063313ce567146102f15780633850c7bd14610300575f80fd5b806318160ddd116101ba57806318160ddd146102605780631a686502146102725780631ad8b03b1461027a57806323b872dd1461029d575f80fd5b806306fdde03146101e0578063095ea7b3146101fe5780630dfe168114610221575b5f80fd5b6101e861058f565b6040516101f59190613281565b60405180910390f35b61021161020c3660046132a7565b61061f565b60405190151581526020016101f5565b6102487f000000000000000000000000000000000000000000000000000000000000000081565b6040516001600160a01b0390911681526020016101f5565b6002545b6040519081526020016101f5565b610264610638565b601154601254610288919082565b604080519283526020830191909152016101f5565b6102116102ab3660046132d1565b61067b565b6102c36102be36600461330f565b6106a0565b604080519384526020840192909252908201526060016101f5565b6102886102ec366004613326565b6106d1565b604051601281526020016101f5565b600d54600e54600f546010546103199392919060ff1684565b60408051948552602085019390935291830152151560608201526080016101f5565b61028861034936600461335d565b610df9565b61028861035c3660046133eb565b611116565b61026461136a565b61026461037736600461340b565b6113c9565b61026461038a36600461340b565b6001600160a01b03165f9081526020819052604090205490565b601354601454610288919082565b600654600754600854600954600a54600b546103dc956001600160a01b0390811695169392919086565b604080516001600160a01b039788168152969095166020870152938501929092526060840152608083015260a082015260c0016101f5565b610427610422366004613426565b6115ec565b005b6101e86117a1565b61028861043f3660046132a7565b6117b0565b6102116104523660046132a7565b6119fb565b6005546104679063ffffffff1681565b60405163ffffffff90911681526020016101f5565b61048f61048a36600461348a565b611a08565b6040516101f591906134c9565b6102487f000000000000000000000000000000000000000000000000000000000000000081565b610264611aee565b6102487f000000000000000000000000000000000000000000000000000000000000000081565b6104fb614e2081565b60405162ffffff90911681526020016101f5565b61026461051d36600461352b565b6001600160a01b039182165f90815260016020908152604080832093909416825291909152205490565b6104fb7f000000000000000000000000000000000000000000000000000000000000000081565b61058161057c36600461348a565b611b4e565b6040516101f592919061359c565b60606003805461059e906135c0565b80601f01602080910402602001604051908101604052809291908181526020018280546105ca906135c0565b80156106155780601f106105ec57610100808354040283529160200191610615565b820191905f5260205f20905b8154815290600101906020018083116105f857829003601f168201915b5050505050905090565b5f3361062c818585611bdc565b60019150505b92915050565b60408051608081018252600d54808252600e5460208301819052600f549383019390935260105460ff16151560608301525f926106759190611bee565b91505090565b5f33610688858285611c01565b610693858585611c7c565b60019150505b9392505050565b600c81815481106106af575f80fd5b5f91825260209091206003909102018054600182015460029092015490925083565b6010545f90819060ff166107005760405162461bcd60e51b81526004016106f7906135f8565b60405180910390fd5b6010805460ff19169055610712611cd9565b6040805160808082018352600d548252600e54602080840191909152600f548385015260105460ff1615156060808501919091528451610120810186525f808252928101839052948501829052840181905290830181905260a0830181905260c0830181905260e08301819052610100830152906107966060860160408701613623565b6107e1577f00000000000000000000000000000000000000000000000000000000000000007f0000000000000000000000000000000000000000000000000000000000000000610824565b7f00000000000000000000000000000000000000000000000000000000000000007f00000000000000000000000000000000000000000000000000000000000000005b6001600160a01b0390811660208401521681526108476060860160408701613623565b610857576020820151825161085f565b815160208301515b60a083015260808201525f61087a6060870160408801613623565b6108865760135461088a565b6014545b90505f86351380156109a1576108a08735611d0f565b8360400181815250506109446040518060a001604052808960400160208101906108ca9190613623565b6108d85786602001516108db565b86515b81526020016108f060608b0160408c01613623565b6108fb578651610901565b86602001515b8152602001848152602001856040015181526020017f000000000000000000000000000000000000000000000000000000000000000062ffffff16815250611d38565b610100850152606084018190526020880135111561099c5760405162461bcd60e51b815260206004820152601560248201527413dd5d1c1d5d081b1a5b5a5d08195e18d959591959605a1b60448201526064016106f7565b610aae565b6109b36109ae8835613652565b611d0f565b836060018181525050610a576040518060a001604052808960400160208101906109dd9190613623565b6109eb5786602001516109ee565b86515b8152602001610a0360608b0160408c01613623565b610a0e578651610a14565b86602001515b8152602001848152602001856060015181526020017f000000000000000000000000000000000000000000000000000000000000000062ffffff16815250611e15565b6101008501526040840181905260208801351015610aae5760405162461bcd60e51b8152602060048201526014602482015273125b9c1d5d081b1a5b5a5d08195e18d95959195960621b60448201526064016106f7565b6020830151610ad190610ac760808a0160608b0161340b565b8560600151611eaf565b610ae16060880160408901613623565b610af757610af28360600151611ec3565b610b0d565b610b048360400151611ec3565b610b0d90613652565b9550610b1f6060880160408901613623565b610b3e57610b308360400151611ec3565b610b3990613652565b610b4b565b610b4b8360600151611ec3565b94505f610b5c846101000151611eef565b9050610b866040518060400160405280600681526020016566656520257360d01b81525082611efc565b610b966060890160408a01613623565b610bb8578060115f015f828254610bad919061366c565b925050819055610bd3565b8060116001015f828254610bcc919061366c565b9250508190555b505f610be260808a018a61367f565b90501115610c4c5733638d4a84198888610bff60808d018d61367f565b6040518563ffffffff1660e01b8152600401610c1e94939291906136ea565b5f604051808303815f87803b158015610c35575f80fd5b505af1158015610c47573d5f803e3d5ffd5b505050505b5f610c55611f45565b90505f610c60611f61565b90505f610c7360608c0160408d01613623565b610c7d5781610c7f565b825b905086604001518760800151610c95919061366c565b811015610ce45760405162461bcd60e51b815260206004820152601960248201527f496e73756666696369656e7420616d6f756e7420696e7075740000000000000060448201526064016106f7565b610d2460405180604001604052806014815260200173696e202573206f757420257320706f6f6c20257360601b8152508860400151896060015130611f6e565b8282610d3660608e0160408f01613623565b15610d4857610d458682613709565b90505b610d5860608e0160408f01613623565b15610d6a57610d678683613709565b91505b610d748282611fb7565b610d8460808e0160608f0161340b565b6001600160a01b0316336001600160a01b03167f86104e7a79e16fb712c2a4133be3187400bdcaf8d7a74c66f7b75718a83f83718e8e604051610dd1929190918252602082015260400190565b60405180910390a350506010805460ff19166001179055509799969850959650505050505050565b6010545f90819060ff16610e1f5760405162461bcd60e51b81526004016106f7906135f8565b6010805460ff19169055610e31611cd9565b610e5c7f00000000000000000000000000000000000000000000000000000000000000008888611eaf565b610e877f00000000000000000000000000000000000000000000000000000000000000008887611eaf565b60405163e83517b560e01b8152339063e83517b590610eb09089908990899089906004016136ea565b5f604051808303815f87803b158015610ec7575f80fd5b505af1158015610ed9573d5f803e3d5ffd5b50506040805160808082018352600d548252600e54602080840191909152600f548385015260105460ff161515606080850191909152845160c0810186525f808252928101839052948501829052840181905290830181905260a083015292509050610f43611f45565b6040820152610f50611f61565b606082018190528251602084015160408401515f93610f92939291907f000000000000000000000000000000000000000000000000000000000000000061203c565b905080610fe15760405162461bcd60e51b815260206004820152601960248201527f496e73756666696369656e7420616d6f756e747320706169640000000000000060448201526064016106f7565b8251610fee908a90613709565b8260400151610ffd9190613709565b945087836020015161100f9190613709565b826060015161101e9190613709565b93505f61102a86611eef565b90505f61103686611eef565b90508160115f015f82825461104b919061366c565b9091555050601280548291905f9061106490849061366c565b90915550506040840151611079908390613709565b6080850152606084015161108e908290613709565b60a0850181905260808501516110a391611fb7565b604080518c8152602081018c90528082018990526060810188905290516001600160a01b038e169133917f1d940843caa7af592ac83e5e979405c98c9cad66a2a99359615008d6c97d5bc39181900360800190a350506010805460ff191660011790555092989197509095505050505050565b5f807f00000000000000000000000000000000000000000000000000000000000000006001600160a01b0316638da5cb5b6040518163ffffffff1660e01b8152600401602060405180830381865afa158015611174573d5f803e3d5ffd5b505050506040513d601f19601f82011682018060405250810190611198919061371c565b6001600160a01b0316336001600160a01b0316146111ed5760405162461bcd60e51b8152602060048201526012602482015271466163746f7279206f776e6572206f6e6c7960701b60448201526064016106f7565b6011548492508211156112005760115491505b50601254829081111561121257506012545b5f7f00000000000000000000000000000000000000000000000000000000000000006001600160a01b031663017e7e586040518163ffffffff1660e01b8152600401602060405180830381865afa15801561126f573d5f803e3d5ffd5b505050506040513d601f19601f82011682018060405250810190611293919061371c565b90506112c07f00000000000000000000000000000000000000000000000000000000000000008285611eaf565b6112eb7f00000000000000000000000000000000000000000000000000000000000000008284611eaf565b8260115f015f8282546112fe9190613709565b9091555050601280548391905f90611317908490613709565b909155505060408051848152602081018490526001600160a01b0383169133917f5e6cc887bda1cdb0e109d5217764eaa1bcbe13a87fa506e95d6d57243c7370a3910160405180910390a3509250929050565b60408051608081018252600d54808252600e5460208301819052600f549383019390935260105460ff16151560608301525f9261067591907f000000000000000000000000000000000000000000000000000000000000000085612082565b6010545f9060ff166113ed5760405162461bcd60e51b81526004016106f7906135f8565b6010805460ff191690556113ff611cd9565b5f61140960025490565b60408051608081018252600d548152600e546020820152600f549181019190915260105460ff16151560608201529091505f611443611f45565b90505f61144e611f61565b83519091508211806114635750826020015181115b6114af5760405162461bcd60e51b815260206004820152601f60248201527f496e73756666696369656e7420616d6f756e74207472616e736665727265640060448201526064016106f7565b5f6114c485855f0151866020015186866120d1565b8051965090506114d48787612204565b6114e2308260200151612204565b6040810151839083901561151d576040830151601380545f9061150690849061366c565b9091555050604083015161151a908361366c565b91505b606083015115611554576060830151601480545f9061153d90849061366c565b90915550506060830151611551908261366c565b90505b61155e8282611fb7565b85515f9061156c9087613709565b90505f87602001518661157f9190613709565b604080518c81526020810185905280820183905290519192506001600160a01b038d169133917fa8137fff86647d8a402117b9c5dbda627f721d3773338fb9678c83e54ed39080919081900360600190a350506010805460ff191660011790555095979650505050505050565b337f00000000000000000000000000000000000000000000000000000000000000006001600160a01b0316146116535760405162461bcd60e51b815260206004820152600c60248201526b466163746f7279206f6e6c7960a01b60448201526064016106f7565b6005805463ffffffff191663ffffffff83161790555f611671611f45565b90505f61167c611f61565b60408051606080820183524282525f6020808401828152848601838152600c80546001808201835591865296517fdf6966c971051c3d54ec59162606531493a51404a002842f56009d7e5cf4a8c760039098029788015591517fdf6966c971051c3d54ec59162606531493a51404a002842f56009d7e5cf4a8c8870155517fdf6966c971051c3d54ec59162606531493a51404a002842f56009d7e5cf4a8c99095019490945584516080810186528881529081018690529384018390529201819052600d859055600e839055600f8190556010805460ff1916821790559192506117668484611bee565b90506117723082612204565b6040517f5daa87a0e9463431830481fd4b6e3403442dfb9a12b9c07597e9f61d50b633c8905f90a15050505050565b60606004805461059e906135c0565b6010545f90819060ff166117d65760405162461bcd60e51b81526004016106f7906135f8565b6010805460ff191690556117e8611cd9565b5f6117f260025490565b90505f84116117ff575f80fd5b60408051608081018252600d548152600e546020820152600f549181019190915260105460ff16151560608201525f611836612238565b90505f61184161224f565b90505f6118598886865f01518760200151878761225c565b80516020820151909850965090506118927f00000000000000000000000000000000000000000000000000000000000000008a89611eaf565b6118bd7f00000000000000000000000000000000000000000000000000000000000000008a88611eaf565b6118c7338961242a565b6118d530826040015161242a565b6013545f9088906118e6908661366c565b6118f09190613709565b90505f8760136001015485611905919061366c565b61190f9190613709565b6060840151909150829082901561194d576060850151601380545f90611936908490613709565b9091555050606085015161194a9083613709565b91505b608085015115611984576080850151601480545f9061196d908490613709565b909155505060808501516119819082613709565b90505b61198e8282611fb7565b604080518d8152602081018d90528082018c905290516001600160a01b038f169133917fd175a80c109434bb89948928ab2475a6647c94244cb70002197896423c8833639181900360600190a350506010805460ff19166001179055509699959850949650505050505050565b5f3361062c818585611c7c565b604080515f8152602081019091526060908267ffffffffffffffff811115611a3257611a32613737565b604051908082528060200260200182016040528015611a6557816020015b6060815260200190600190039081611a505790505b5091505f5b83811015611ae657611ac130868684818110611a8857611a8861374b565b9050602002810190611a9a919061367f565b85604051602001611aad9392919061375f565b60405160208183030381529060405261245e565b838281518110611ad357611ad361374b565b6020908102919091010152600101611a6a565b505092915050565b60408051608081018252600d54808252600e5460208301819052600f549383019390935260105460ff16151560608301525f9261067591907f00000000000000000000000000000000000000000000000000000000000000006001612082565b60408051608081018252600d54808252600e546020808401829052600f5484860181905260105460ff161515606086810191909152865188840281810185019098528881529096879695611bcf95429591949093909290918c918c918291908501908490808284375f92019190915250600c97969594939250506124c79050565b92509250505b9250929050565b611be9838383600161264d565b505050565b5f610699611bfc8385613784565b61271f565b6001600160a01b038381165f908152600160209081526040808320938616835292905220545f198114611c765781811015611c6857604051637dc7a0d960e11b81526001600160a01b038416600482015260248101829052604481018390526064016106f7565b611c7684848484035f61264d565b50505050565b6001600160a01b038316611ca557604051634b637e8f60e11b81525f60048201526024016106f7565b6001600160a01b038216611cce5760405163ec442f0560e01b81525f60048201526024016106f7565b611be9838383612803565b306001600160a01b037f00000000000000000000000000000000000000000000000000000000000000001614611d0d575f80fd5b565b5f80821215611d3457604051635467221960e11b8152600481018390526024016106f7565b5090565b5f8082606001515f03611d49575f80fd5b602083015183515f91611d5b91613784565b90505f8460600151855f0151611d71919061366c565b90505f611d7e8383612929565b90508560400151811015611dd45760405162461bcd60e51b815260206004820152601760248201527f496e73756666696369656e7420616d6f756e74206f757400000000000000000060448201526064016106f7565b5f818760200151611de59190613709565b9050611dfe87608001518261295990919063ffffffff16565b9450611e0a8582613709565b955050505050915091565b5f8082606001515f03611e26575f80fd5b5f611e488460800151620186a0611e3d919061379b565b60608601519061296d565b9050836060015181611e5a9190613709565b91505f8460200151855f0151611e709190613784565b90505f828660200151611e839190613709565b90508560400151811015611e95575f80fd5b5f611ea08383612929565b8751909150611e0a9082613709565b611be96001600160a01b0384168383612981565b5f6001600160ff1b03821115611d345760405163123baf0360e11b8152600481018390526024016106f7565b5f61063282614e20612959565b611f418282604051602401611f129291906137be565b60408051601f198184030181529190526020810180516001600160e01b0316632d839cb360e21b1790526129d3565b5050565b6013545f90611f52612238565b611f5c919061366c565b905090565b6014545f90611f5261224f565b611c7684848484604051602401611f8894939291906137df565b60408051601f198184030181529190526020810180516001600160e01b0316631c43bc4f60e31b1790526129d3565b600d829055600e8190556040805160808101825283815260208101839052600f5491810182905260105460ff161515606082015290611ffb90600c904286866129df565b600f5560408051848152602081018490527fcf2aa50876cdfbb541206f89af0ee78d44a2abf8d328e37fa4917f982149848a910160405180910390a1505050565b5f806120488787611bee565b90505f6120558686611bee565b90505f61206f61206886620186a061379b565b8390612959565b9290921015925050505b95945050505050565b5f816120b2576120ad61209884620186a061379b565b6120a787600160601b88612a9b565b90612959565b612079565b6120796120c284620186a061379b565b6120a786600160601b89612a9b565b6120f860405180608001604052805f81526020015f81526020015f81526020015f81525090565b5f6121038686611bee565b90505f6121108585611bee565b905081811161211d575f80fd5b612133888361212c8185613709565b9190612a9b565b83525f61214588600160601b89612a9b565b90505f61215787600160601b88612a9b565b905086868284101561219657876121788c6121728d8d613784565b90612929565b6121829190613709565b60608801819052612193908261366c565b90505b828411156121cb57886121ad8b6121728e8c613784565b6121b79190613709565b604088018190526121c8908361366c565b91505b5f6121d68383611bee565b90506121ee8d876121e78185613709565b9190612b5a565b602089015250959b9a5050505050505050505050565b6001600160a01b03821661222d5760405163ec442f0560e01b81525f60048201526024016106f7565b611f415f8383612803565b6011545f90612245612b8a565b611f5c9190613709565b6012545f90612245612c13565b6122896040518060a001604052805f81526020015f81526020015f81526020015f81526020015f81525090565b612294858888612a9b565b81526122a1848888612a9b565b602082018190525f906122b49086613709565b82516122c09088613709565b6122ca9190613784565b905083825f01511115612306578382525f6122ef6122e88689613709565b8390612929565b90506122fb8187613709565b602084015250612337565b828260200151111561233757602082018390525f6123276122e88588613709565b90506123338188613709565b8352505b81515f906123459088613709565b90505f8360200151876123589190613709565b90505f61236a89600160601b8a612a9b565b90505f61237c84600160601b85612a9b565b90508383828410156123b4576123968b612172878f613784565b6123a09087613709565b606089018190526123b19083613709565b91505b828411156123e8576123ca8c612172888e613784565b6123d49086613709565b608089018190526123e59082613709565b90505b5f6123f38787611bee565b90505f6124008484611bee565b90506124118f8361212c8482613709565b60408b015250979e9d5050505050505050505050505050565b6001600160a01b03821661245357604051634b637e8f60e11b81525f60048201526024016106f7565b611f41825f83612803565b60605f80846001600160a01b03168460405161247a9190613816565b5f60405180830381855af49150503d805f81146124b2576040519150601f19603f3d011682016040523d82523d5f602084013e6124b7565b606091505b5091509150612079858383612c61565b805160609081908067ffffffffffffffff8111156124e7576124e7613737565b604051908082528060200260200182016040528015612510578160200160208202803683370190505b5092508067ffffffffffffffff81111561252c5761252c613737565b604051908082528060200260200182016040528015612555578160200160208202803683370190505b5091505f89805480602002602001604051908101604052809291908181526020015f905b828210156125c6578382905f5260205f2090600302016040518060600160405290815f82015481526020016001820154815260200160028201548152505081526020019060010190612579565b5050505090505f5b8281101561263f576125fd828b8b8b8b8b87815181106125f0576125f061374b565b6020026020010151612cbd565b86838151811061260f5761260f61374b565b602002602001018684815181106126285761262861374b565b6020908102919091010191909152526001016125ce565b505050965096945050505050565b6001600160a01b0384166126765760405163e602df0560e01b81525f60048201526024016106f7565b6001600160a01b03831661269f57604051634a1406b160e11b81525f60048201526024016106f7565b6001600160a01b038085165f9081526001602090815260408083209387168352929052208290558015611c7657826001600160a01b0316846001600160a01b03167f8c5be1e5ebec7d5bd14f71427d1e84f3dd0314c0f7b2291e5b200ac8c7c3b9258460405161271191815260200190565b60405180910390a350505050565b5f815f0361272e57505f919050565b5f600161273a84612d9f565b901c6001901b9050600181848161275357612753613831565b048201901c9050600181848161276b5761276b613831565b048201901c9050600181848161278357612783613831565b048201901c9050600181848161279b5761279b613831565b048201901c905060018184816127b3576127b3613831565b048201901c905060018184816127cb576127cb613831565b048201901c905060018184816127e3576127e3613831565b048201901c9050610699818285816127fd576127fd613831565b04612e32565b6001600160a01b03831661282d578060025f828254612822919061366c565b9091555061289d9050565b6001600160a01b0383165f908152602081905260409020548181101561287f5760405163391434e360e21b81526001600160a01b038516600482015260248101829052604481018390526064016106f7565b6001600160a01b0384165f9081526020819052604090209082900390555b6001600160a01b0382166128b9576002805482900390556128d7565b6001600160a01b0382165f9081526020819052604090208054820190555b816001600160a01b0316836001600160a01b03167fddf252ad1be2c89b69c2b068fc378daa952ba7f163c4a11628f55a4df523b3ef8360405161291c91815260200190565b60405180910390a3505050565b5f6129348284613845565b90505f6129418385613858565b111561063257806129518161386b565b949350505050565b5f6106998362ffffff8416620186a0612a9b565b5f61069983620186a08462ffffff16612b5a565b604080516001600160a01b038416602482015260448082018490528251808303909101815260649091019091526020810180516001600160e01b031663a9059cbb60e01b179052611be9908490612e47565b6129dc81612ea8565b50565b5f80866129ed600188613709565b815481106129fd576129fd61374b565b905f5260205f2090600302016040518060600160405290815f8201548152602001600182015481526020016002820154815250509050805f01518503612a465785915050612079565b86612a5382878787612ec7565b8154600181810184555f93845260209384902083516003909302019182559282015181840155604090910151600290910155612a9090879061366c565b979650505050505050565b5f838302815f1985870982811083820303915050805f03612acf57838281612ac557612ac5613831565b0492505050610699565b808411612aef5760405163227bc15360e01b815260040160405180910390fd5b5f848688095f868103871696879004966002600389028118808a02820302808a02820302808a02820302808a02820302808a02820302808a02909103029181900381900460010186841190950394909402919094039290920491909117919091029150509392505050565b5f612b66848484612a9b565b90505f8280612b7757612b77613831565b848609111561069957806120798161386b565b6040516370a0823160e01b81523060048201525f907f00000000000000000000000000000000000000000000000000000000000000006001600160a01b0316906370a08231906024015b602060405180830381865afa158015612bef573d5f803e3d5ffd5b505050506040513d601f19601f82011682018060405250810190611f5c9190613883565b6040516370a0823160e01b81523060048201525f907f00000000000000000000000000000000000000000000000000000000000000006001600160a01b0316906370a0823190602401612bd4565b606082612c7657612c7182612f4e565b610699565b8151158015612c8d57506001600160a01b0384163b155b15612cb657604051639996b31560e01b81526001600160a01b03851660048201526024016106f7565b5080610699565b5f805f885f81518110612cd257612cd261374b565b602002602001015190505f8489612ce99190613709565b8251909150811015612d3d5760405162461bcd60e51b815260206004820152601860248201527f496e76616c6964207461726765742074696d657374616d70000000000000000060448201526064016106f7565b5f80612d4a8c848a612f77565b805182519294509092509003612d7f57612d6681848c8c612ec7565b9050806020015181604001519550955050505050612d94565b612d8a8282856130d6565b9096509450505050505b965096945050505050565b5f80608083901c15612db357608092831c92015b604083901c15612dc557604092831c92015b602083901c15612dd757602092831c92015b601083901c15612de957601092831c92015b600883901c15612dfb57600892831c92015b600483901c15612e0d57600492831c92015b600283901c15612e1f57600292831c92015b600183901c156106325760010192915050565b5f818310612e405781610699565b5090919050565b5f612e5b6001600160a01b03841683613174565b905080515f14158015612e7f575080806020019051810190612e7d919061389a565b155b15611be957604051635274afe760e01b81526001600160a01b03841660048201526024016106f7565b5f6a636f6e736f6c652e6c6f6790505f80835160208501845afa505050565b612ee860405180606001604052805f81526020015f81526020015f81525090565b84515f90612ef69086613709565b905060405180606001604052808681526020018286612f159190613784565b8860200151612f24919061366c565b8152602001612f338386613784565b8860400151612f42919061366c565b90529695505050505050565b805115612f5e5780518082602001fd5b604051630a12f52160e11b815260040160405180910390fd5b612f9860405180606001604052805f81526020015f81526020015f81525090565b612fb960405180606001604052805f81526020015f81526020015f81525090565b5f855f81518110612fcc57612fcc61374b565b602002602001015190505f86600186612fe59190613709565b81518110612ff557612ff561374b565b60200260200101519050815f015186101561300e575f80fd5b86516001148061301f575080518610155b156130305792508291506130ce9050565b5f8061303d600188613709565b90505f5b61304b8383613181565b905089818151811061305f5761305f61374b565b6020026020010151965088875f015111156130865761307f600182613709565b9150613041565b8961309282600161366c565b815181106130a2576130a261374b565b6020026020010151955088865f0151116130c8576130c181600161366c565b9250613041565b50505050505b935093915050565b5f8082855f0151111580156130eb5750835183105b6130f3575f80fd5b84515f906131019085613709565b865186519192505f916131149190613709565b905061312f82828960200151896020015161212c9190613709565b876020015161313e919061366c565b935061315982828960400151896040015161212c9190613709565b8760400151613168919061366c565b92505050935093915050565b606061069983835f61319b565b5f61318f6002848418613845565b6106999084841661366c565b6060814710156131c05760405163cd78605960e01b81523060048201526024016106f7565b5f80856001600160a01b031684866040516131db9190613816565b5f6040518083038185875af1925050503d805f8114613215576040519150601f19603f3d011682016040523d82523d5f602084013e61321a565b606091505b509150915061322a868383612c61565b9695505050505050565b5f5b8381101561324e578181015183820152602001613236565b50505f910152565b5f815180845261326d816020860160208601613234565b601f01601f19169290920160200192915050565b602081525f6106996020830184613256565b6001600160a01b03811681146129dc575f80fd5b5f80604083850312156132b8575f80fd5b82356132c381613293565b946020939093013593505050565b5f805f606084860312156132e3575f80fd5b83356132ee81613293565b925060208401356132fe81613293565b929592945050506040919091013590565b5f6020828403121561331f575f80fd5b5035919050565b5f60208284031215613336575f80fd5b813567ffffffffffffffff81111561334c575f80fd5b820160a08185031215610699575f80fd5b5f805f805f60808688031215613371575f80fd5b853561337c81613293565b94506020860135935060408601359250606086013567ffffffffffffffff808211156133a6575f80fd5b818801915088601f8301126133b9575f80fd5b8135818111156133c7575f80fd5b8960208285010111156133d8575f80fd5b9699959850939650602001949392505050565b5f80604083850312156133fc575f80fd5b50508035926020909101359150565b5f6020828403121561341b575f80fd5b813561069981613293565b5f60208284031215613436575f80fd5b813563ffffffff81168114610699575f80fd5b5f8083601f840112613459575f80fd5b50813567ffffffffffffffff811115613470575f80fd5b6020830191508360208260051b8501011115611bd5575f80fd5b5f806020838503121561349b575f80fd5b823567ffffffffffffffff8111156134b1575f80fd5b6134bd85828601613449565b90969095509350505050565b5f60208083016020845280855180835260408601915060408160051b8701019250602087015f5b8281101561351e57603f1988860301845261350c858351613256565b945092850192908501906001016134f0565b5092979650505050505050565b5f806040838503121561353c575f80fd5b823561354781613293565b9150602083013561355781613293565b809150509250929050565b5f815180845260208085019450602084015f5b8381101561359157815187529582019590820190600101613575565b509495945050505050565b604081525f6135ae6040830185613562565b82810360208401526120798185613562565b600181811c908216806135d457607f821691505b6020821081036135f257634e487b7160e01b5f52602260045260245ffd5b50919050565b6020808252600490820152634c6f636b60e01b604082015260600190565b80151581146129dc575f80fd5b5f60208284031215613633575f80fd5b813561069981613616565b634e487b7160e01b5f52601160045260245ffd5b5f600160ff1b82016136665761366661363e565b505f0390565b808201808211156106325761063261363e565b5f808335601e19843603018112613694575f80fd5b83018035915067ffffffffffffffff8211156136ae575f80fd5b602001915036819003821315611bd5575f80fd5b81835281816020850137505f828201602090810191909152601f909101601f19169091010190565b848152836020820152606060408201525f61322a6060830184866136c2565b818103818111156106325761063261363e565b5f6020828403121561372c575f80fd5b815161069981613293565b634e487b7160e01b5f52604160045260245ffd5b634e487b7160e01b5f52603260045260245ffd5b828482375f8382015f8152835161377a818360208801613234565b0195945050505050565b80820281158282048414176106325761063261363e565b62ffffff8281168282160390808211156137b7576137b761363e565b5092915050565b604081525f6137d06040830185613256565b90508260208301529392505050565b608081525f6137f16080830187613256565b60208301959095525060408101929092526001600160a01b0316606090910152919050565b5f8251613827818460208701613234565b9190910192915050565b634e487b7160e01b5f52601260045260245ffd5b5f8261385357613853613831565b500490565b5f8261386657613866613831565b500690565b5f6001820161387c5761387c61363e565b5060010190565b5f60208284031215613893575f80fd5b5051919050565b5f602082840312156138aa575f80fd5b81516106998161361656fea2646970667358221220d9f124bf450eb57930ddef535902ab3588a3f906ec57ffb864afb9b5efba6ffe64736f6c63430008170033",
    "sourcePath": "c:/Users/tucuo/OneDrive/Desktop/CiSwap.Contracts/contracts/Pool.sol",
    "compiler": {
        "name": "solc",
        "version": "0.8.23+commit.f704f362"
    },
    "functionHashes": {
        "FEE_PROTOCOL_RATE()": "d24c503d",
        "allowance(address,address)": "dd62ed3e",
        "approve(address,uint256)": "095ea7b3",
        "balanceOf(address)": "70a08231",
        "burn(address,uint256)": "9dc29fac",
        "collectProtocol(uint256,uint256)": "4bc5c27b",
        "config()": "79502c55",
        "constants()": "72de5b2f",
        "decimals()": "313ce567",
        "factory()": "c45a0155",
        "fee()": "ddca3f43",
        "flash(address,uint256,uint256,bytes)": "490e6cbc",
        "indexPool()": "aafb81c0",
        "initialize(uint32)": "8d8965bd",
        "liquidity()": "1a686502",
        "mint(address)": "6a627842",
        "multicall(bytes[])": "ac9650d8",
        "name()": "06fdde03",
        "observations(uint256)": "252c09d7",
        "observe(uint256[])": "dea96b71",
        "price0X96()": "c806a79e",
        "price1X96()": "4fa1323d",
        "protocolFees()": "1ad8b03b",
        "slot0()": "3850c7bd",
        "swap((int256,uint256,bool,address,bytes))": "25a12ac1",
        "symbol()": "95d89b41",
        "token0()": "0dfe1681",
        "token1()": "d21220a7",
        "totalSupply()": "18160ddd",
        "transfer(address,uint256)": "a9059cbb",
        "transferFrom(address,address,uint256)": "23b872dd"
    },
    "gasEstimates": {
        "creation": {
            "codeDepositCost": "2914200",
            "executionCost": "infinite",
            "totalCost": "infinite"
        },
        "external": {
            "FEE_PROTOCOL_RATE()": "247",
            "allowance(address,address)": "infinite",
            "approve(address,uint256)": "24775",
            "balanceOf(address)": "2577",
            "burn(address,uint256)": "infinite",
            "collectProtocol(uint256,uint256)": "infinite",
            "config()": "13064",
            "constants()": "4495",
            "decimals()": "266",
            "factory()": "infinite",
            "fee()": "infinite",
            "flash(address,uint256,uint256,bytes)": "infinite",
            "indexPool()": "2423",
            "initialize(uint32)": "infinite",
            "liquidity()": "infinite",
            "mint(address)": "infinite",
            "multicall(bytes[])": "infinite",
            "name()": "infinite",
            "observations(uint256)": "8901",
            "observe(uint256[])": "infinite",
            "price0X96()": "infinite",
            "price1X96()": "infinite",
            "protocolFees()": "4517",
            "slot0()": "8796",
            "swap((int256,uint256,bool,address,bytes))": "infinite",
            "symbol()": "infinite",
            "token0()": "infinite",
            "token1()": "infinite",
            "totalSupply()": "2326",
            "transfer(address,uint256)": "51299",
            "transferFrom(address,address,uint256)": "infinite"
        },
        "internal": {
            "_balance0()": "infinite",
            "_balance0Net()": "infinite",
            "_balance0NetWithConstant()": "infinite",
            "_balance1()": "infinite",
            "_balance1Net()": "infinite",
            "_balance1NetWithConstant()": "infinite",
            "_computeFeeProtocol(uint256)": "infinite",
            "_update(uint256,uint256)": "infinite"
        }
    }
}