{
    "contractName": "Pool",
    "abi": [
        {
            "inputs": [],
            "stateMutability": "nonpayable",
            "type": "constructor"
        },
        {
            "inputs": [
                {
                    "internalType": "address",
                    "name": "target",
                    "type": "address"
                }
            ],
            "name": "AddressEmptyCode",
            "type": "error"
        },
        {
            "inputs": [
                {
                    "internalType": "address",
                    "name": "account",
                    "type": "address"
                }
            ],
            "name": "AddressInsufficientBalance",
            "type": "error"
        },
        {
            "inputs": [
                {
                    "internalType": "address",
                    "name": "spender",
                    "type": "address"
                },
                {
                    "internalType": "uint256",
                    "name": "allowance",
                    "type": "uint256"
                },
                {
                    "internalType": "uint256",
                    "name": "needed",
                    "type": "uint256"
                }
            ],
            "name": "ERC20InsufficientAllowance",
            "type": "error"
        },
        {
            "inputs": [
                {
                    "internalType": "address",
                    "name": "sender",
                    "type": "address"
                },
                {
                    "internalType": "uint256",
                    "name": "balance",
                    "type": "uint256"
                },
                {
                    "internalType": "uint256",
                    "name": "needed",
                    "type": "uint256"
                }
            ],
            "name": "ERC20InsufficientBalance",
            "type": "error"
        },
        {
            "inputs": [
                {
                    "internalType": "address",
                    "name": "approver",
                    "type": "address"
                }
            ],
            "name": "ERC20InvalidApprover",
            "type": "error"
        },
        {
            "inputs": [
                {
                    "internalType": "address",
                    "name": "receiver",
                    "type": "address"
                }
            ],
            "name": "ERC20InvalidReceiver",
            "type": "error"
        },
        {
            "inputs": [
                {
                    "internalType": "address",
                    "name": "sender",
                    "type": "address"
                }
            ],
            "name": "ERC20InvalidSender",
            "type": "error"
        },
        {
            "inputs": [
                {
                    "internalType": "address",
                    "name": "spender",
                    "type": "address"
                }
            ],
            "name": "ERC20InvalidSpender",
            "type": "error"
        },
        {
            "inputs": [],
            "name": "FailedInnerCall",
            "type": "error"
        },
        {
            "inputs": [],
            "name": "MathOverflowedMulDiv",
            "type": "error"
        },
        {
            "inputs": [
                {
                    "internalType": "address",
                    "name": "owner",
                    "type": "address"
                }
            ],
            "name": "OwnableInvalidOwner",
            "type": "error"
        },
        {
            "inputs": [
                {
                    "internalType": "address",
                    "name": "account",
                    "type": "address"
                }
            ],
            "name": "OwnableUnauthorizedAccount",
            "type": "error"
        },
        {
            "inputs": [
                {
                    "internalType": "int256",
                    "name": "value",
                    "type": "int256"
                }
            ],
            "name": "SafeCastOverflowedIntToUint",
            "type": "error"
        },
        {
            "inputs": [
                {
                    "internalType": "uint256",
                    "name": "value",
                    "type": "uint256"
                }
            ],
            "name": "SafeCastOverflowedUintToInt",
            "type": "error"
        },
        {
            "inputs": [
                {
                    "internalType": "address",
                    "name": "token",
                    "type": "address"
                }
            ],
            "name": "SafeERC20FailedOperation",
            "type": "error"
        },
        {
            "anonymous": false,
            "inputs": [
                {
                    "indexed": true,
                    "internalType": "address",
                    "name": "owner",
                    "type": "address"
                },
                {
                    "indexed": true,
                    "internalType": "address",
                    "name": "spender",
                    "type": "address"
                },
                {
                    "indexed": false,
                    "internalType": "uint256",
                    "name": "value",
                    "type": "uint256"
                }
            ],
            "name": "Approval",
            "type": "event"
        },
        {
            "anonymous": false,
            "inputs": [
                {
                    "indexed": true,
                    "internalType": "address",
                    "name": "sender",
                    "type": "address"
                },
                {
                    "indexed": false,
                    "internalType": "uint256",
                    "name": "amount",
                    "type": "uint256"
                },
                {
                    "indexed": false,
                    "internalType": "uint256",
                    "name": "amount0",
                    "type": "uint256"
                },
                {
                    "indexed": false,
                    "internalType": "uint256",
                    "name": "amount1",
                    "type": "uint256"
                },
                {
                    "indexed": true,
                    "internalType": "address",
                    "name": "recipient",
                    "type": "address"
                }
            ],
            "name": "Burn",
            "type": "event"
        },
        {
            "anonymous": false,
            "inputs": [
                {
                    "indexed": true,
                    "internalType": "address",
                    "name": "sender",
                    "type": "address"
                },
                {
                    "indexed": false,
                    "internalType": "uint256",
                    "name": "amount0",
                    "type": "uint256"
                },
                {
                    "indexed": false,
                    "internalType": "uint256",
                    "name": "amount1",
                    "type": "uint256"
                },
                {
                    "indexed": false,
                    "internalType": "uint256",
                    "name": "amountFeeTo0",
                    "type": "uint256"
                },
                {
                    "indexed": false,
                    "internalType": "uint256",
                    "name": "amountFeeTo1",
                    "type": "uint256"
                },
                {
                    "indexed": true,
                    "internalType": "address",
                    "name": "recipient",
                    "type": "address"
                }
            ],
            "name": "CollectProtocol",
            "type": "event"
        },
        {
            "anonymous": false,
            "inputs": [
                {
                    "indexed": true,
                    "internalType": "address",
                    "name": "sender",
                    "type": "address"
                },
                {
                    "indexed": false,
                    "internalType": "uint256",
                    "name": "amount0",
                    "type": "uint256"
                },
                {
                    "indexed": false,
                    "internalType": "uint256",
                    "name": "amount1",
                    "type": "uint256"
                },
                {
                    "indexed": false,
                    "internalType": "uint256",
                    "name": "paid0",
                    "type": "uint256"
                },
                {
                    "indexed": false,
                    "internalType": "uint256",
                    "name": "paid1",
                    "type": "uint256"
                },
                {
                    "indexed": true,
                    "internalType": "address",
                    "name": "recipient",
                    "type": "address"
                }
            ],
            "name": "Flash",
            "type": "event"
        },
        {
            "anonymous": false,
            "inputs": [],
            "name": "Initialized",
            "type": "event"
        },
        {
            "anonymous": false,
            "inputs": [
                {
                    "indexed": true,
                    "internalType": "address",
                    "name": "sender",
                    "type": "address"
                },
                {
                    "indexed": false,
                    "internalType": "uint256",
                    "name": "amount",
                    "type": "uint256"
                },
                {
                    "indexed": false,
                    "internalType": "uint256",
                    "name": "amount0",
                    "type": "uint256"
                },
                {
                    "indexed": false,
                    "internalType": "uint256",
                    "name": "amount1",
                    "type": "uint256"
                },
                {
                    "indexed": true,
                    "internalType": "address",
                    "name": "recipient",
                    "type": "address"
                }
            ],
            "name": "Mint",
            "type": "event"
        },
        {
            "anonymous": false,
            "inputs": [
                {
                    "indexed": true,
                    "internalType": "address",
                    "name": "previousOwner",
                    "type": "address"
                },
                {
                    "indexed": true,
                    "internalType": "address",
                    "name": "newOwner",
                    "type": "address"
                }
            ],
            "name": "OwnershipTransferred",
            "type": "event"
        },
        {
            "anonymous": false,
            "inputs": [
                {
                    "indexed": true,
                    "internalType": "address",
                    "name": "sender",
                    "type": "address"
                },
                {
                    "indexed": false,
                    "internalType": "int256",
                    "name": "amount0",
                    "type": "int256"
                },
                {
                    "indexed": false,
                    "internalType": "int256",
                    "name": "amount1",
                    "type": "int256"
                },
                {
                    "indexed": true,
                    "internalType": "address",
                    "name": "recipient",
                    "type": "address"
                }
            ],
            "name": "Swap",
            "type": "event"
        },
        {
            "anonymous": false,
            "inputs": [
                {
                    "indexed": false,
                    "internalType": "uint256",
                    "name": "reserve0",
                    "type": "uint256"
                },
                {
                    "indexed": false,
                    "internalType": "uint256",
                    "name": "reserve1",
                    "type": "uint256"
                }
            ],
            "name": "Sync",
            "type": "event"
        },
        {
            "anonymous": false,
            "inputs": [
                {
                    "indexed": true,
                    "internalType": "address",
                    "name": "from",
                    "type": "address"
                },
                {
                    "indexed": true,
                    "internalType": "address",
                    "name": "to",
                    "type": "address"
                },
                {
                    "indexed": false,
                    "internalType": "uint256",
                    "name": "value",
                    "type": "uint256"
                }
            ],
            "name": "Transfer",
            "type": "event"
        },
        {
            "inputs": [],
            "name": "FEE_PROTOCOL_RATE",
            "outputs": [
                {
                    "internalType": "uint24",
                    "name": "",
                    "type": "uint24"
                }
            ],
            "stateMutability": "view",
            "type": "function"
        },
        {
            "inputs": [
                {
                    "internalType": "address",
                    "name": "owner",
                    "type": "address"
                },
                {
                    "internalType": "address",
                    "name": "spender",
                    "type": "address"
                }
            ],
            "name": "allowance",
            "outputs": [
                {
                    "internalType": "uint256",
                    "name": "",
                    "type": "uint256"
                }
            ],
            "stateMutability": "view",
            "type": "function"
        },
        {
            "inputs": [
                {
                    "internalType": "address",
                    "name": "spender",
                    "type": "address"
                },
                {
                    "internalType": "uint256",
                    "name": "value",
                    "type": "uint256"
                }
            ],
            "name": "approve",
            "outputs": [
                {
                    "internalType": "bool",
                    "name": "",
                    "type": "bool"
                }
            ],
            "stateMutability": "nonpayable",
            "type": "function"
        },
        {
            "inputs": [
                {
                    "internalType": "address",
                    "name": "account",
                    "type": "address"
                }
            ],
            "name": "balanceOf",
            "outputs": [
                {
                    "internalType": "uint256",
                    "name": "",
                    "type": "uint256"
                }
            ],
            "stateMutability": "view",
            "type": "function"
        },
        {
            "inputs": [
                {
                    "internalType": "address",
                    "name": "recipient",
                    "type": "address"
                },
                {
                    "internalType": "uint256",
                    "name": "amount",
                    "type": "uint256"
                }
            ],
            "name": "burn",
            "outputs": [
                {
                    "internalType": "uint256",
                    "name": "amount0",
                    "type": "uint256"
                },
                {
                    "internalType": "uint256",
                    "name": "amount1",
                    "type": "uint256"
                }
            ],
            "stateMutability": "nonpayable",
            "type": "function"
        },
        {
            "inputs": [
                {
                    "internalType": "address",
                    "name": "recipient",
                    "type": "address"
                },
                {
                    "internalType": "uint256",
                    "name": "amount0Requested",
                    "type": "uint256"
                },
                {
                    "internalType": "uint256",
                    "name": "amount1Requested",
                    "type": "uint256"
                }
            ],
            "name": "collectProtocol",
            "outputs": [
                {
                    "internalType": "uint256",
                    "name": "amount0",
                    "type": "uint256"
                },
                {
                    "internalType": "uint256",
                    "name": "amount1",
                    "type": "uint256"
                },
                {
                    "internalType": "uint256",
                    "name": "amountFeeTo0",
                    "type": "uint256"
                },
                {
                    "internalType": "uint256",
                    "name": "amountFeeTo1",
                    "type": "uint256"
                }
            ],
            "stateMutability": "nonpayable",
            "type": "function"
        },
        {
            "inputs": [],
            "name": "config",
            "outputs": [
                {
                    "internalType": "address",
                    "name": "tokenA",
                    "type": "address"
                },
                {
                    "internalType": "address",
                    "name": "tokenB",
                    "type": "address"
                },
                {
                    "internalType": "uint256",
                    "name": "amountA",
                    "type": "uint256"
                },
                {
                    "internalType": "uint256",
                    "name": "amountB",
                    "type": "uint256"
                },
                {
                    "internalType": "uint256",
                    "name": "priceABaseX96",
                    "type": "uint256"
                },
                {
                    "internalType": "uint256",
                    "name": "priceAMaxX96",
                    "type": "uint256"
                }
            ],
            "stateMutability": "view",
            "type": "function"
        },
        {
            "inputs": [],
            "name": "constants",
            "outputs": [
                {
                    "internalType": "uint256",
                    "name": "token0",
                    "type": "uint256"
                },
                {
                    "internalType": "uint256",
                    "name": "token1",
                    "type": "uint256"
                }
            ],
            "stateMutability": "view",
            "type": "function"
        },
        {
            "inputs": [],
            "name": "decimals",
            "outputs": [
                {
                    "internalType": "uint8",
                    "name": "",
                    "type": "uint8"
                }
            ],
            "stateMutability": "view",
            "type": "function"
        },
        {
            "inputs": [],
            "name": "factory",
            "outputs": [
                {
                    "internalType": "address",
                    "name": "",
                    "type": "address"
                }
            ],
            "stateMutability": "view",
            "type": "function"
        },
        {
            "inputs": [],
            "name": "fee",
            "outputs": [
                {
                    "internalType": "uint24",
                    "name": "",
                    "type": "uint24"
                }
            ],
            "stateMutability": "view",
            "type": "function"
        },
        {
            "inputs": [
                {
                    "internalType": "address",
                    "name": "recipient",
                    "type": "address"
                },
                {
                    "internalType": "uint256",
                    "name": "amount0",
                    "type": "uint256"
                },
                {
                    "internalType": "uint256",
                    "name": "amount1",
                    "type": "uint256"
                },
                {
                    "internalType": "bytes",
                    "name": "callback",
                    "type": "bytes"
                }
            ],
            "name": "flash",
            "outputs": [
                {
                    "internalType": "uint256",
                    "name": "paid0",
                    "type": "uint256"
                },
                {
                    "internalType": "uint256",
                    "name": "paid1",
                    "type": "uint256"
                }
            ],
            "stateMutability": "nonpayable",
            "type": "function"
        },
        {
            "inputs": [],
            "name": "indexPool",
            "outputs": [
                {
                    "internalType": "uint32",
                    "name": "",
                    "type": "uint32"
                }
            ],
            "stateMutability": "view",
            "type": "function"
        },
        {
            "inputs": [
                {
                    "internalType": "uint32",
                    "name": "_indexPool",
                    "type": "uint32"
                }
            ],
            "name": "initialize",
            "outputs": [],
            "stateMutability": "nonpayable",
            "type": "function"
        },
        {
            "inputs": [],
            "name": "liquidity",
            "outputs": [
                {
                    "internalType": "uint256",
                    "name": "",
                    "type": "uint256"
                }
            ],
            "stateMutability": "view",
            "type": "function"
        },
        {
            "inputs": [
                {
                    "internalType": "address",
                    "name": "recipient",
                    "type": "address"
                }
            ],
            "name": "mint",
            "outputs": [
                {
                    "internalType": "uint256",
                    "name": "amount",
                    "type": "uint256"
                }
            ],
            "stateMutability": "nonpayable",
            "type": "function"
        },
        {
            "inputs": [
                {
                    "internalType": "bytes[]",
                    "name": "data",
                    "type": "bytes[]"
                }
            ],
            "name": "multicall",
            "outputs": [
                {
                    "internalType": "bytes[]",
                    "name": "results",
                    "type": "bytes[]"
                }
            ],
            "stateMutability": "nonpayable",
            "type": "function"
        },
        {
            "inputs": [],
            "name": "name",
            "outputs": [
                {
                    "internalType": "string",
                    "name": "",
                    "type": "string"
                }
            ],
            "stateMutability": "view",
            "type": "function"
        },
        {
            "inputs": [
                {
                    "internalType": "uint256",
                    "name": "",
                    "type": "uint256"
                }
            ],
            "name": "observations",
            "outputs": [
                {
                    "internalType": "uint256",
                    "name": "blockTimestamp",
                    "type": "uint256"
                },
                {
                    "internalType": "uint256",
                    "name": "reserve0Cumulative",
                    "type": "uint256"
                },
                {
                    "internalType": "uint256",
                    "name": "reserve1Cumulative",
                    "type": "uint256"
                }
            ],
            "stateMutability": "view",
            "type": "function"
        },
        {
            "inputs": [
                {
                    "internalType": "uint256[]",
                    "name": "secondAgos",
                    "type": "uint256[]"
                }
            ],
            "name": "observe",
            "outputs": [
                {
                    "internalType": "uint256[]",
                    "name": "reserve0Cumulatives",
                    "type": "uint256[]"
                },
                {
                    "internalType": "uint256[]",
                    "name": "reserve1Cumulatives",
                    "type": "uint256[]"
                }
            ],
            "stateMutability": "view",
            "type": "function"
        },
        {
            "inputs": [],
            "name": "owner",
            "outputs": [
                {
                    "internalType": "address",
                    "name": "",
                    "type": "address"
                }
            ],
            "stateMutability": "view",
            "type": "function"
        },
        {
            "inputs": [],
            "name": "price0X96",
            "outputs": [
                {
                    "internalType": "uint256",
                    "name": "",
                    "type": "uint256"
                }
            ],
            "stateMutability": "view",
            "type": "function"
        },
        {
            "inputs": [],
            "name": "price1X96",
            "outputs": [
                {
                    "internalType": "uint256",
                    "name": "",
                    "type": "uint256"
                }
            ],
            "stateMutability": "view",
            "type": "function"
        },
        {
            "inputs": [],
            "name": "protocolFees",
            "outputs": [
                {
                    "internalType": "uint256",
                    "name": "token0",
                    "type": "uint256"
                },
                {
                    "internalType": "uint256",
                    "name": "token1",
                    "type": "uint256"
                }
            ],
            "stateMutability": "view",
            "type": "function"
        },
        {
            "inputs": [],
            "name": "renounceOwnership",
            "outputs": [],
            "stateMutability": "nonpayable",
            "type": "function"
        },
        {
            "inputs": [],
            "name": "slot0",
            "outputs": [
                {
                    "internalType": "uint256",
                    "name": "reserve0",
                    "type": "uint256"
                },
                {
                    "internalType": "uint256",
                    "name": "reserve1",
                    "type": "uint256"
                },
                {
                    "internalType": "uint256",
                    "name": "observationCardinality",
                    "type": "uint256"
                },
                {
                    "internalType": "bool",
                    "name": "unlocked",
                    "type": "bool"
                }
            ],
            "stateMutability": "view",
            "type": "function"
        },
        {
            "inputs": [
                {
                    "components": [
                        {
                            "internalType": "int256",
                            "name": "amountSpecified",
                            "type": "int256"
                        },
                        {
                            "internalType": "uint256",
                            "name": "limitAmountCalculated",
                            "type": "uint256"
                        },
                        {
                            "internalType": "bool",
                            "name": "zeroForOne",
                            "type": "bool"
                        },
                        {
                            "internalType": "address",
                            "name": "recipient",
                            "type": "address"
                        },
                        {
                            "internalType": "bytes",
                            "name": "callback",
                            "type": "bytes"
                        }
                    ],
                    "internalType": "struct IPoolActions.SwapParams",
                    "name": "params",
                    "type": "tuple"
                }
            ],
            "name": "swap",
            "outputs": [
                {
                    "internalType": "int256",
                    "name": "amount0",
                    "type": "int256"
                },
                {
                    "internalType": "int256",
                    "name": "amount1",
                    "type": "int256"
                }
            ],
            "stateMutability": "nonpayable",
            "type": "function"
        },
        {
            "inputs": [],
            "name": "symbol",
            "outputs": [
                {
                    "internalType": "string",
                    "name": "",
                    "type": "string"
                }
            ],
            "stateMutability": "view",
            "type": "function"
        },
        {
            "inputs": [],
            "name": "token0",
            "outputs": [
                {
                    "internalType": "address",
                    "name": "",
                    "type": "address"
                }
            ],
            "stateMutability": "view",
            "type": "function"
        },
        {
            "inputs": [],
            "name": "token1",
            "outputs": [
                {
                    "internalType": "address",
                    "name": "",
                    "type": "address"
                }
            ],
            "stateMutability": "view",
            "type": "function"
        },
        {
            "inputs": [],
            "name": "totalSupply",
            "outputs": [
                {
                    "internalType": "uint256",
                    "name": "",
                    "type": "uint256"
                }
            ],
            "stateMutability": "view",
            "type": "function"
        },
        {
            "inputs": [
                {
                    "internalType": "address",
                    "name": "to",
                    "type": "address"
                },
                {
                    "internalType": "uint256",
                    "name": "value",
                    "type": "uint256"
                }
            ],
            "name": "transfer",
            "outputs": [
                {
                    "internalType": "bool",
                    "name": "",
                    "type": "bool"
                }
            ],
            "stateMutability": "nonpayable",
            "type": "function"
        },
        {
            "inputs": [
                {
                    "internalType": "address",
                    "name": "from",
                    "type": "address"
                },
                {
                    "internalType": "address",
                    "name": "to",
                    "type": "address"
                },
                {
                    "internalType": "uint256",
                    "name": "value",
                    "type": "uint256"
                }
            ],
            "name": "transferFrom",
            "outputs": [
                {
                    "internalType": "bool",
                    "name": "",
                    "type": "bool"
                }
            ],
            "stateMutability": "nonpayable",
            "type": "function"
        },
        {
            "inputs": [
                {
                    "internalType": "address",
                    "name": "newOwner",
                    "type": "address"
                }
            ],
            "name": "transferOwnership",
            "outputs": [],
            "stateMutability": "nonpayable",
            "type": "function"
        }
    ],
    "bytecode": "61012060405234801562000011575f80fd5b506040518060400160405280601881526020017f4c69717569646974792050726f766964657220546f6b656e0000000000000000815250604051806040016040528060088152602001672628102a37b5b2b760c11b815250620000796200020960201b60201c565b6001600160a01b038116620000a757604051631e4fbdf760e01b81525f600482015260240160405180910390fd5b620000b2816200020d565b506004620000c18382620006dd565b506005620000d08282620006dd565b50503060805250336001600160a01b031663f3778fd86040518163ffffffff1660e01b815260040161010060405180830381865afa15801562000115573d5f803e3d5ffd5b505050506040513d601f19601f820116820180604052508101906200013b9190620007c5565b8051600780546001600160a01b039283166001600160a01b0319918216811790925560208401516008805491851691909216811790915560408401516009556060840151600a556080840151600b5560a093840151600c5562ffffff90941660c052931690525f91620001ae916200025c565b6001600160a01b0391821661010052911660e052600b54600c54600954600a549394505f938493620001e4939092909162000295565b9150915082620001f6578082620001f9565b81815b601555601455506200090a915050565b3390565b5f80546001600160a01b038381166001600160a01b0319831681178455604051919092169283917f8be0079c531659141344cd1fd0a4f28419497f9722a3daafe3b4186f6b6457e09190a35050565b5f805f836001600160a01b0316856001600160a01b031610620002825783855f62000287565b848460015b919790965090945092505050565b5f80620002a4868686620002bf565b9150620002b4868386866200033a565b905094509492505050565b5f80620002db856c0100000000000000000000000086620003a0565b90505f620002e98262000465565b90505f620002f88583620008a6565b905066010000000000005f8062000310838662000566565b91509150816200031e575f80fd5b6200032a8185620008d4565b96505050505050505b9392505050565b5f6c0100000000000000000000000081806200037a886200035c8989620008f4565b620003689190620008a6565b620003748786620008a6565b62000566565b915091508162000388575f80fd5b620003948382620008d4565b98975050505050505050565b5f838302815f1985870982811083820303915050805f03620003d957838281620003ce57620003ce620008c0565b049250505062000333565b808411620003fa5760405163227bc15360e01b815260040160405180910390fd5b5f848688095f868103871696879004966002600389028118808a02820302808a02820302808a02820302808a02820302808a02820302808a02909103029181900381900460010186841190950394909402919094039290920491909117919091029150509392505050565b5f815f036200047557505f919050565b5f600162000483846200058c565b901c6001901b905060018184816200049f576200049f620008c0565b048201901c90506001818481620004ba57620004ba620008c0565b048201901c90506001818481620004d557620004d5620008c0565b048201901c90506001818481620004f057620004f0620008c0565b048201901c905060018184816200050b576200050b620008c0565b048201901c90506001818481620005265762000526620008c0565b048201901c90506001818481620005415762000541620008c0565b048201901c905062000333818285816200055f576200055f620008c0565b0462000628565b5f80838311156200057c57505f90508062000585565b50600190508183035b9250929050565b5f80608083901c15620005a157608092831c92015b604083901c15620005b457604092831c92015b602083901c15620005c757602092831c92015b601083901c15620005da57601092831c92015b600883901c15620005ed57600892831c92015b600483901c156200060057600492831c92015b600283901c156200061357600292831c92015b600183901c1562000622576001015b92915050565b5f81831062000638578162000333565b5090919050565b634e487b7160e01b5f52604160045260245ffd5b600181811c908216806200066857607f821691505b6020821081036200068757634e487b7160e01b5f52602260045260245ffd5b50919050565b601f821115620006d857805f5260205f20601f840160051c81016020851015620006b45750805b601f840160051c820191505b81811015620006d5575f8155600101620006c0565b50505b505050565b81516001600160401b03811115620006f957620006f96200063f565b62000711816200070a845462000653565b846200068d565b602080601f83116001811462000747575f84156200072f5750858301515b5f19600386901b1c1916600185901b178555620007a1565b5f85815260208120601f198616915b82811015620007775788860151825594840194600190910190840162000756565b50858210156200079557878501515f19600388901b60f8161c191681555b505060018460011b0185555b505050505050565b80516001600160a01b0381168114620007c0575f80fd5b919050565b5f805f838503610100811215620007da575f80fd5b620007e585620007a9565b9350602085015162ffffff81168114620007fd575f80fd5b925060c0603f198201121562000811575f80fd5b5060405160c081016001600160401b03811182821017156200083757620008376200063f565b80604052506200084a60408601620007a9565b81526200085a60608601620007a9565b60208201526080850151604082015260a0850151606082015260c0850151608082015260e085015160a0820152809150509250925092565b634e487b7160e01b5f52601160045260245ffd5b808202811582820484141762000622576200062262000892565b634e487b7160e01b5f52601260045260245ffd5b5f82620008ef57634e487b7160e01b5f52601260045260245ffd5b500490565b8082018082111562000622576200062262000892565b60805160a05160c05160e05161010051613866620009db5f395f8181610529015281816108080152818161087001528181610ecd01528181611660015281816118af015281816119050152612b6301525f8181610247015281816108290152818161084f01528181610ea20152818161163501528181611884015281816118da0152612ada01525f81816105a50152818161098401528181610a9701528181610fda015281816111bc0152611aea01525f81816104fa015281816113ee01526117d101525f611ce301526138665ff3fe608060405234801561000f575f80fd5b50600436106101fd575f3560e01c806379502c5511610114578063ac9650d8116100a9578063d24c503d11610079578063d24c503d1461054b578063dd62ed3e14610568578063ddca3f43146105a0578063dea96b71146105c7578063f2fde38b146105e8575f80fd5b8063ac9650d8146104d5578063c45a0155146104f5578063c806a79e1461051c578063d21220a714610524575f80fd5b80639dc29fac116100e45780639dc29fac14610457578063a58201571461046a578063a9059cbb1461049d578063aafb81c0146104b0575f80fd5b806379502c55146103ca5780638d8965bd1461042c5780638da5cb5b1461043f57806395d89b411461044f575f80fd5b806325a12ac1116101955780634fa1323d116101655780634fa1323d1461036f5780636a6278421461037757806370a082311461038a578063715018a6146103b257806372de5b2f146103bc575f80fd5b806325a12ac1146102ff578063313ce567146103125780633850c7bd14610321578063490e6cbc1461035c575f80fd5b80631a686502116101d05780631a686502146102935780631ad8b03b1461029b57806323b872dd146102be578063252c09d7146102d1575f80fd5b806306fdde0314610201578063095ea7b31461021f5780630dfe16811461024257806318160ddd14610281575b5f80fd5b6102096105fb565b60405161021691906131ea565b60405180910390f35b61023261022d366004613210565b61068b565b6040519015158152602001610216565b6102697f000000000000000000000000000000000000000000000000000000000000000081565b6040516001600160a01b039091168152602001610216565b6003545b604051908152602001610216565b6102856106a4565b6012546013546102a9919082565b60408051928352602083019190915201610216565b6102326102cc36600461323a565b6106e7565b6102e46102df366004613278565b61070c565b60408051938452602084019290925290820152606001610216565b6102a961030d36600461328f565b61073d565b60405160128152602001610216565b600e54600f5460105460115461033a9392919060ff1684565b6040805194855260208501939093529183015215156060820152608001610216565b6102a961036a3660046132c6565b610e65565b610285611182565b610285610385366004613354565b6111e1565b610285610398366004613354565b6001600160a01b03165f9081526001602052604090205490565b6103ba6113d8565b005b6014546015546102a9919082565b600754600854600954600a54600b54600c546103f4956001600160a01b0390811695169392919086565b604080516001600160a01b039788168152969095166020870152938501929092526060840152608083015260a082015260c001610216565b6103ba61043a36600461336f565b6113eb565b5f546001600160a01b0316610269565b61020961156d565b6102a9610465366004613210565b61157c565b61047d610478366004613392565b6117a0565b604080519485526020850193909352918301526060820152608001610216565b6102326104ab366004613210565b6119bd565b6006546104c09063ffffffff1681565b60405163ffffffff9091168152602001610216565b6104e86104e3366004613405565b6119ca565b6040516102169190613444565b6102697f000000000000000000000000000000000000000000000000000000000000000081565b610285611ab0565b6102697f000000000000000000000000000000000000000000000000000000000000000081565b610554614e2081565b60405162ffffff9091168152602001610216565b6102856105763660046134a6565b6001600160a01b039182165f90815260026020908152604080832093909416825291909152205490565b6105547f000000000000000000000000000000000000000000000000000000000000000081565b6105da6105d5366004613405565b611b10565b604051610216929190613517565b6103ba6105f6366004613354565b611b9e565b60606004805461060a9061353b565b80601f01602080910402602001604051908101604052809291908181526020018280546106369061353b565b80156106815780601f1061065857610100808354040283529160200191610681565b820191905f5260205f20905b81548152906001019060200180831161066457829003601f168201915b5050505050905090565b5f33610698818585611bdb565b60019150505b92915050565b60408051608081018252600e54808252600f54602083018190526010549383019390935260115460ff16151560608301525f926106e19190611bed565b91505090565b5f336106f4858285611c00565b6106ff858585611c7b565b60019150505b9392505050565b600d818154811061071b575f80fd5b5f91825260209091206003909102018054600182015460029092015490925083565b6011545f90819060ff1661076c5760405162461bcd60e51b815260040161076390613573565b60405180910390fd5b6011805460ff1916905561077e611cd8565b6040805160808082018352600e548252600f546020808401919091526010548385015260115460ff1615156060808501919091528451610120810186525f808252928101839052948501829052840181905290830181905260a0830181905260c0830181905260e0830181905261010083015290610802606086016040870161359e565b61084d577f00000000000000000000000000000000000000000000000000000000000000007f0000000000000000000000000000000000000000000000000000000000000000610890565b7f00000000000000000000000000000000000000000000000000000000000000007f00000000000000000000000000000000000000000000000000000000000000005b6001600160a01b0390811660208401521681526108b3606086016040870161359e565b6108c357602082015182516108cb565b815160208301515b60a083015260808201525f6108e6606087016040880161359e565b6108f2576014546108f6565b6015545b90505f8635138015610a0d5761090c8735611d0c565b8360400181815250506109b06040518060a00160405280896040016020810190610936919061359e565b610944578660200151610947565b86515b815260200161095c60608b0160408c0161359e565b61096757865161096d565b86602001515b8152602001848152602001856040015181526020017f000000000000000000000000000000000000000000000000000000000000000062ffffff16815250611d35565b6101008501526060840181905260208801351115610a085760405162461bcd60e51b815260206004820152601560248201527413dd5d1c1d5d081b1a5b5a5d08195e18d959591959605a1b6044820152606401610763565b610b1a565b610a1f610a1a88356135cd565b611d0c565b836060018181525050610ac36040518060a00160405280896040016020810190610a49919061359e565b610a57578660200151610a5a565b86515b8152602001610a6f60608b0160408c0161359e565b610a7a578651610a80565b86602001515b8152602001848152602001856060015181526020017f000000000000000000000000000000000000000000000000000000000000000062ffffff16815250611e12565b6101008501526040840181905260208801351015610b1a5760405162461bcd60e51b8152602060048201526014602482015273125b9c1d5d081b1a5b5a5d08195e18d95959195960621b6044820152606401610763565b6020830151610b3d90610b3360808a0160608b01613354565b8560600151611eac565b610b4d606088016040890161359e565b610b6357610b5e8360600151611ec0565b610b79565b610b708360400151611ec0565b610b79906135cd565b9550610b8b606088016040890161359e565b610baa57610b9c8360400151611ec0565b610ba5906135cd565b610bb7565b610bb78360600151611ec0565b94505f610bc8846101000151611eec565b9050610bf26040518060400160405280600681526020016566656520257360d01b81525082611ef9565b610c026060890160408a0161359e565b610c24578060125f015f828254610c1991906135e7565b925050819055610c3f565b8060126001015f828254610c3891906135e7565b9250508190555b505f610c4e60808a018a6135fa565b90501115610cb85733638d4a84198888610c6b60808d018d6135fa565b6040518563ffffffff1660e01b8152600401610c8a9493929190613665565b5f604051808303815f87803b158015610ca1575f80fd5b505af1158015610cb3573d5f803e3d5ffd5b505050505b5f610cc1611f42565b90505f610ccc611f5e565b90505f610cdf60608c0160408d0161359e565b610ce95781610ceb565b825b905086604001518760800151610d0191906135e7565b811015610d505760405162461bcd60e51b815260206004820152601960248201527f496e73756666696369656e7420616d6f756e7420696e707574000000000000006044820152606401610763565b610d9060405180604001604052806014815260200173696e202573206f757420257320706f6f6c20257360601b8152508860400151896060015130611f6b565b8282610da260608e0160408f0161359e565b15610db457610db18682613684565b90505b610dc460608e0160408f0161359e565b15610dd657610dd38683613684565b91505b610de08282611fb4565b610df060808e0160608f01613354565b6001600160a01b0316336001600160a01b03167f86104e7a79e16fb712c2a4133be3187400bdcaf8d7a74c66f7b75718a83f83718e8e604051610e3d929190918252602082015260400190565b60405180910390a350506011805460ff19166001179055509799969850959650505050505050565b6011545f90819060ff16610e8b5760405162461bcd60e51b815260040161076390613573565b6011805460ff19169055610e9d611cd8565b610ec87f00000000000000000000000000000000000000000000000000000000000000008888611eac565b610ef37f00000000000000000000000000000000000000000000000000000000000000008887611eac565b60405163e83517b560e01b8152339063e83517b590610f1c908990899089908990600401613665565b5f604051808303815f87803b158015610f33575f80fd5b505af1158015610f45573d5f803e3d5ffd5b50506040805160808082018352600e548252600f546020808401919091526010548385015260115460ff161515606080850191909152845160c0810186525f808252928101839052948501829052840181905290830181905260a083015292509050610faf611f42565b6040820152610fbc611f5e565b606082018190528251602084015160408401515f93610ffe939291907f0000000000000000000000000000000000000000000000000000000000000000612039565b90508061104d5760405162461bcd60e51b815260206004820152601960248201527f496e73756666696369656e7420616d6f756e74732070616964000000000000006044820152606401610763565b825161105a908a90613684565b82604001516110699190613684565b945087836020015161107b9190613684565b826060015161108a9190613684565b93505f61109686611eec565b90505f6110a286611eec565b90508160125f015f8282546110b791906135e7565b9091555050601380548291905f906110d09084906135e7565b909155505060408401516110e5908390613684565b608085015260608401516110fa908290613684565b60a08501819052608085015161110f91611fb4565b604080518c8152602081018c90528082018990526060810188905290516001600160a01b038e169133917f1d940843caa7af592ac83e5e979405c98c9cad66a2a99359615008d6c97d5bc39181900360800190a350506011805460ff191660011790555092989197509095505050505050565b60408051608081018252600e54808252600f54602083018190526010549383019390935260115460ff16151560608301525f926106e191907f00000000000000000000000000000000000000000000000000000000000000008561207f565b6011545f9060ff166112055760405162461bcd60e51b815260040161076390613573565b6011805460ff19169055611217611cd8565b5f61122160035490565b60408051608081018252600e548152600f5460208201526010549181019190915260115460ff16151560608201529091505f61125b611f42565b90505f611266611f5e565b835190915082118061127b5750826020015181115b6112c75760405162461bcd60e51b815260206004820152601f60248201527f496e73756666696369656e7420616d6f756e74207472616e73666572726564006044820152606401610763565b5f806112dd86865f0151876020015187876120ce565b919850925090506112ee888861218f565b8383831561131c578360145f015f82825461130991906135e7565b90915550611319905084836135e7565b91505b8215611349578260146001015f82825461133691906135e7565b90915550611346905083826135e7565b90505b6113538282611fb4565b86516001600160a01b038b169033907fa8137fff86647d8a402117b9c5dbda627f721d3773338fb9678c83e54ed39080908c90611390908b613684565b60208c015161139f908b613684565b6040805193845260208401929092529082015260600160405180910390a350506011805460ff1916600117905550949695505050505050565b6113e06121c3565b6113e95f6121ef565b565b337f00000000000000000000000000000000000000000000000000000000000000006001600160a01b03161461141f575f80fd5b6006805463ffffffff191663ffffffff83161790555f61143d611f42565b90505f611448611f5e565b60408051606080820183524282525f6020808401828152848601838152600d80546001808201835591865296517fd7b6990105719101dabeb77144f2a3385c8033acd3af97e9423a695e81ad1eb560039098029788015591517fd7b6990105719101dabeb77144f2a3385c8033acd3af97e9423a695e81ad1eb6870155517fd7b6990105719101dabeb77144f2a3385c8033acd3af97e9423a695e81ad1eb79095019490945584516080810186528881529081018690529384018390529201819052600e859055600f83905560108190556011805460ff1916821790559192506115328484611bed565b905061153e308261218f565b6040517f5daa87a0e9463431830481fd4b6e3403442dfb9a12b9c07597e9f61d50b633c8905f90a15050505050565b60606005805461060a9061353b565b6011545f90819060ff166115a25760405162461bcd60e51b815260040161076390613573565b6011805460ff191690556115b4611cd8565b5f6115be60035490565b90505f84116115cb575f80fd5b60408051608081018252600e548152600f5460208201526010549181019190915260115460ff16151560608201525f61160261223e565b90505f61160d612255565b90505f806116268987875f015188602001518888612262565b929a509098509250905061165b7f00000000000000000000000000000000000000000000000000000000000000008b8a611eac565b6116867f00000000000000000000000000000000000000000000000000000000000000008b89611eac565b611690338a612396565b6014545f9089906116a190876135e7565b6116ab9190613684565b90505f88601460010154866116c091906135e7565b6116ca9190613684565b9050818185156116fa578560145f015f8282546116e79190613684565b909155506116f790508683613684565b91505b8415611727578460146001015f8282546117149190613684565b9091555061172490508582613684565b90505b6117318282611fb4565b604080518e8152602081018e90529081018c90526001600160a01b038f169033907fd175a80c109434bb89948928ab2475a6647c94244cb70002197896423c8833639060600160405180910390a350506011805460ff1916600117905550979a96995095975050505050505050565b5f805f806117ac6121c3565b60125486908111156117bd57506012545b60135486908111156117ce57506013545b5f7f00000000000000000000000000000000000000000000000000000000000000006001600160a01b031663017e7e586040518163ffffffff1660e01b8152600401602060405180830381865afa15801561182b573d5f803e3d5ffd5b505050506040513d601f19601f8201168201806040525081019061184f9190613697565b905061185a83611eec565b945061186582611eec565b93506118718584613684565b965061187d8483613684565b95506118aa7f00000000000000000000000000000000000000000000000000000000000000008b89611eac565b6118d57f00000000000000000000000000000000000000000000000000000000000000008b88611eac565b6119007f00000000000000000000000000000000000000000000000000000000000000008287611eac565b61192b7f00000000000000000000000000000000000000000000000000000000000000008287611eac565b8260125f015f82825461193e9190613684565b9091555050601380548391905f90611957908490613684565b90915550506040805188815260208101889052908101869052606081018590526001600160a01b038b169081907ffa65a20d0648910458fcef8ddd874cbd1e0323f608236e3b01d8d5d0ddf261eb9060800160405180910390a350505093509350935093565b5f33610698818585611c7b565b604080515f8152602081019091526060908267ffffffffffffffff8111156119f4576119f46136b2565b604051908082528060200260200182016040528015611a2757816020015b6060815260200190600190039081611a125790505b5091505f5b83811015611aa857611a8330868684818110611a4a57611a4a6136c6565b9050602002810190611a5c91906135fa565b85604051602001611a6f939291906136da565b6040516020818303038152906040526123ca565b838281518110611a9557611a956136c6565b6020908102919091010152600101611a2c565b505092915050565b60408051608081018252600e54808252600f54602083018190526010549383019390935260115460ff16151560608301525f926106e191907f0000000000000000000000000000000000000000000000000000000000000000600161207f565b60408051608081018252600e54808252600f54602080840182905260105484860181905260115460ff161515606086810191909152865188840281810185019098528881529096879695611b9195429591949093909290918c918c918291908501908490808284375f92019190915250600d97969594939250506124339050565b92509250505b9250929050565b611ba66121c3565b6001600160a01b038116611bcf57604051631e4fbdf760e01b81525f6004820152602401610763565b611bd8816121ef565b50565b611be883838360016125b9565b505050565b5f610705611bfb83856136ff565b61268b565b6001600160a01b038381165f908152600260209081526040808320938616835292905220545f198114611c755781811015611c6757604051637dc7a0d960e11b81526001600160a01b03841660048201526024810182905260448101839052606401610763565b611c7584848484035f6125b9565b50505050565b6001600160a01b038316611ca457604051634b637e8f60e11b81525f6004820152602401610763565b6001600160a01b038216611ccd5760405163ec442f0560e01b81525f6004820152602401610763565b611be883838361276f565b306001600160a01b037f000000000000000000000000000000000000000000000000000000000000000016146113e9575f80fd5b5f80821215611d3157604051635467221960e11b815260048101839052602401610763565b5090565b5f8082606001515f03611d46575f80fd5b602083015183515f91611d58916136ff565b90505f8460600151855f0151611d6e91906135e7565b90505f611d7b8383612895565b90508560400151811015611dd15760405162461bcd60e51b815260206004820152601760248201527f496e73756666696369656e7420616d6f756e74206f75740000000000000000006044820152606401610763565b5f818760200151611de29190613684565b9050611dfb8760800151826128c590919063ffffffff16565b9450611e078582613684565b955050505050915091565b5f8082606001515f03611e23575f80fd5b5f611e458460800151620186a0611e3a9190613716565b6060860151906128d9565b9050836060015181611e579190613684565b91505f8460200151855f0151611e6d91906136ff565b90505f828660200151611e809190613684565b90508560400151811015611e92575f80fd5b5f611e9d8383612895565b8751909150611e079082613684565b611be86001600160a01b03841683836128ed565b5f6001600160ff1b03821115611d315760405163123baf0360e11b815260048101839052602401610763565b5f61069e82614e206128c5565b611f3e8282604051602401611f0f929190613739565b60408051601f198184030181529190526020810180516001600160e01b0316632d839cb360e21b17905261293f565b5050565b6014545f90611f4f61223e565b611f5991906135e7565b905090565b6015545f90611f4f612255565b611c7584848484604051602401611f85949392919061375a565b60408051601f198184030181529190526020810180516001600160e01b0316631c43bc4f60e31b17905261293f565b600e829055600f819055604080516080810182528381526020810183905260105491810182905260115460ff161515606082015290611ff890600d90428686612948565b60105560408051848152602081018490527fcf2aa50876cdfbb541206f89af0ee78d44a2abf8d328e37fa4917f982149848a910160405180910390a1505050565b5f806120458787611bed565b90505f6120528686611bed565b90505f61206c61206586620186a0613716565b83906128c5565b9290921015925050505b95945050505050565b5f816120af576120aa61209584620186a0613716565b6120a487600160601b88612a04565b906128c5565b612076565b6120766120bf84620186a0613716565b6120a486600160601b89612a04565b5f805f806120dc8888611bed565b90505f6120e98787611bed565b90508181116120f6575f80fd5b61210c8a836121058185613684565b9190612a04565b94505f61211e8a600160601b8b612a04565b90505f61213089600160601b8a612a04565b90508082101561215c578761214f8c6121498d8d6136ff565b90612895565b6121599190613684565b94505b8082111561218057886121738b6121498e8c6136ff565b61217d9190613684565b95505b50505050955095509592505050565b6001600160a01b0382166121b85760405163ec442f0560e01b81525f6004820152602401610763565b611f3e5f838361276f565b5f546001600160a01b031633146113e95760405163118cdaa760e01b8152336004820152602401610763565b5f80546001600160a01b038381166001600160a01b0319831681178455604051919092169283917f8be0079c531659141344cd1fd0a4f28419497f9722a3daafe3b4186f6b6457e09190a35050565b6012545f9061224b612ac3565b611f599190613684565b6013545f9061224b612b4c565b5f808080612271888b8b612a04565b935061227e878b8b612a04565b92505f61228b8489613684565b612295868b613684565b61229f91906136ff565b9050868511156122d5578694505f6122c16122ba878c613684565b8390612895565b90506122cd818a613684565b9450506122fe565b858411156122fe578593505f6122ee6122ba868b613684565b90506122fa818b613684565b9550505b5f612309868b613684565b90505f612316868b613684565b90505f6123288c600160601b8d612a04565b90505f61233a84600160601b85612a04565b905080821015612361576123548c848f61214991906136ff565b61235e9085613684565b96505b80821115612384576123778d612149868f6136ff565b6123819084613684565b95505b50505050509650965096509692505050565b6001600160a01b0382166123bf57604051634b637e8f60e11b81525f6004820152602401610763565b611f3e825f8361276f565b60605f80846001600160a01b0316846040516123e69190613791565b5f60405180830381855af49150503d805f811461241e576040519150601f19603f3d011682016040523d82523d5f602084013e612423565b606091505b5091509150612076858383612b9a565b805160609081908067ffffffffffffffff811115612453576124536136b2565b60405190808252806020026020018201604052801561247c578160200160208202803683370190505b5092508067ffffffffffffffff811115612498576124986136b2565b6040519080825280602002602001820160405280156124c1578160200160208202803683370190505b5091505f89805480602002602001604051908101604052809291908181526020015f905b82821015612532578382905f5260205f2090600302016040518060600160405290815f820154815260200160018201548152602001600282015481525050815260200190600101906124e5565b5050505090505f5b828110156125ab57612569828b8b8b8b8b878151811061255c5761255c6136c6565b6020026020010151612bf6565b86838151811061257b5761257b6136c6565b60200260200101868481518110612594576125946136c6565b60209081029190910101919091525260010161253a565b505050965096945050505050565b6001600160a01b0384166125e25760405163e602df0560e01b81525f6004820152602401610763565b6001600160a01b03831661260b57604051634a1406b160e11b81525f6004820152602401610763565b6001600160a01b038085165f9081526002602090815260408083209387168352929052208290558015611c7557826001600160a01b0316846001600160a01b03167f8c5be1e5ebec7d5bd14f71427d1e84f3dd0314c0f7b2291e5b200ac8c7c3b9258460405161267d91815260200190565b60405180910390a350505050565b5f815f0361269a57505f919050565b5f60016126a684612cd8565b901c6001901b905060018184816126bf576126bf6137ac565b048201901c905060018184816126d7576126d76137ac565b048201901c905060018184816126ef576126ef6137ac565b048201901c90506001818481612707576127076137ac565b048201901c9050600181848161271f5761271f6137ac565b048201901c90506001818481612737576127376137ac565b048201901c9050600181848161274f5761274f6137ac565b048201901c905061070581828581612769576127696137ac565b04612d6b565b6001600160a01b038316612799578060035f82825461278e91906135e7565b909155506128099050565b6001600160a01b0383165f90815260016020526040902054818110156127eb5760405163391434e360e21b81526001600160a01b03851660048201526024810182905260448101839052606401610763565b6001600160a01b0384165f9081526001602052604090209082900390555b6001600160a01b03821661282557600380548290039055612843565b6001600160a01b0382165f9081526001602052604090208054820190555b816001600160a01b0316836001600160a01b03167fddf252ad1be2c89b69c2b068fc378daa952ba7f163c4a11628f55a4df523b3ef8360405161288891815260200190565b60405180910390a3505050565b5f6128a082846137c0565b90505f6128ad83856137d3565b111561069e57806128bd816137e6565b949350505050565b5f6107058362ffffff8416620186a0612a04565b5f61070583620186a08462ffffff16612d80565b604080516001600160a01b038416602482015260448082018490528251808303909101815260649091019091526020810180516001600160e01b031663a9059cbb60e01b179052611be8908490612db0565b611bd881612e11565b5f8086612956600188613684565b81548110612966576129666136c6565b905f5260205f2090600302016040518060600160405290815f8201548152602001600182015481526020016002820154815250509050805f015185036129af5785915050612076565b866129bc82878787612e30565b8154600181810184555f938452602093849020835160039093020191825592820151818401556040909101516002909101556129f99087906135e7565b979650505050505050565b5f838302815f1985870982811083820303915050805f03612a3857838281612a2e57612a2e6137ac565b0492505050610705565b808411612a585760405163227bc15360e01b815260040160405180910390fd5b5f848688095f868103871696879004966002600389028118808a02820302808a02820302808a02820302808a02820302808a02820302808a02909103029181900381900460010186841190950394909402919094039290920491909117919091029150509392505050565b6040516370a0823160e01b81523060048201525f907f00000000000000000000000000000000000000000000000000000000000000006001600160a01b0316906370a08231906024015b602060405180830381865afa158015612b28573d5f803e3d5ffd5b505050506040513d601f19601f82011682018060405250810190611f5991906137fe565b6040516370a0823160e01b81523060048201525f907f00000000000000000000000000000000000000000000000000000000000000006001600160a01b0316906370a0823190602401612b0d565b606082612baf57612baa82612eb7565b610705565b8151158015612bc657506001600160a01b0384163b155b15612bef57604051639996b31560e01b81526001600160a01b0385166004820152602401610763565b5080610705565b5f805f885f81518110612c0b57612c0b6136c6565b602002602001015190505f8489612c229190613684565b8251909150811015612c765760405162461bcd60e51b815260206004820152601860248201527f496e76616c6964207461726765742074696d657374616d7000000000000000006044820152606401610763565b5f80612c838c848a612ee0565b805182519294509092509003612cb857612c9f81848c8c612e30565b9050806020015181604001519550955050505050612ccd565b612cc382828561303f565b9096509450505050505b965096945050505050565b5f80608083901c15612cec57608092831c92015b604083901c15612cfe57604092831c92015b602083901c15612d1057602092831c92015b601083901c15612d2257601092831c92015b600883901c15612d3457600892831c92015b600483901c15612d4657600492831c92015b600283901c15612d5857600292831c92015b600183901c1561069e5760010192915050565b5f818310612d795781610705565b5090919050565b5f612d8c848484612a04565b90505f8280612d9d57612d9d6137ac565b84860911156107055780612076816137e6565b5f612dc46001600160a01b038416836130dd565b905080515f14158015612de8575080806020019051810190612de69190613815565b155b15611be857604051635274afe760e01b81526001600160a01b0384166004820152602401610763565b5f6a636f6e736f6c652e6c6f6790505f80835160208501845afa505050565b612e5160405180606001604052805f81526020015f81526020015f81525090565b84515f90612e5f9086613684565b905060405180606001604052808681526020018286612e7e91906136ff565b8860200151612e8d91906135e7565b8152602001612e9c83866136ff565b8860400151612eab91906135e7565b90529695505050505050565b805115612ec75780518082602001fd5b604051630a12f52160e11b815260040160405180910390fd5b612f0160405180606001604052805f81526020015f81526020015f81525090565b612f2260405180606001604052805f81526020015f81526020015f81525090565b5f855f81518110612f3557612f356136c6565b602002602001015190505f86600186612f4e9190613684565b81518110612f5e57612f5e6136c6565b60200260200101519050815f0151861015612f77575f80fd5b865160011480612f88575080518610155b15612f995792508291506130379050565b5f80612fa6600188613684565b90505f5b612fb483836130ea565b9050898181518110612fc857612fc86136c6565b6020026020010151965088875f01511115612fef57612fe8600182613684565b9150612faa565b89612ffb8260016135e7565b8151811061300b5761300b6136c6565b6020026020010151955088865f0151116130315761302a8160016135e7565b9250612faa565b50505050505b935093915050565b5f8082855f0151111580156130545750835183105b61305c575f80fd5b84515f9061306a9085613684565b865186519192505f9161307d9190613684565b90506130988282896020015189602001516121059190613684565b87602001516130a791906135e7565b93506130c28282896040015189604001516121059190613684565b87604001516130d191906135e7565b92505050935093915050565b606061070583835f613104565b5f6130f860028484186137c0565b610705908484166135e7565b6060814710156131295760405163cd78605960e01b8152306004820152602401610763565b5f80856001600160a01b031684866040516131449190613791565b5f6040518083038185875af1925050503d805f811461317e576040519150601f19603f3d011682016040523d82523d5f602084013e613183565b606091505b5091509150613193868383612b9a565b9695505050505050565b5f5b838110156131b757818101518382015260200161319f565b50505f910152565b5f81518084526131d681602086016020860161319d565b601f01601f19169290920160200192915050565b602081525f61070560208301846131bf565b6001600160a01b0381168114611bd8575f80fd5b5f8060408385031215613221575f80fd5b823561322c816131fc565b946020939093013593505050565b5f805f6060848603121561324c575f80fd5b8335613257816131fc565b92506020840135613267816131fc565b929592945050506040919091013590565b5f60208284031215613288575f80fd5b5035919050565b5f6020828403121561329f575f80fd5b813567ffffffffffffffff8111156132b5575f80fd5b820160a08185031215610705575f80fd5b5f805f805f608086880312156132da575f80fd5b85356132e5816131fc565b94506020860135935060408601359250606086013567ffffffffffffffff8082111561330f575f80fd5b818801915088601f830112613322575f80fd5b813581811115613330575f80fd5b896020828501011115613341575f80fd5b9699959850939650602001949392505050565b5f60208284031215613364575f80fd5b8135610705816131fc565b5f6020828403121561337f575f80fd5b813563ffffffff81168114610705575f80fd5b5f805f606084860312156133a4575f80fd5b83356133af816131fc565b95602085013595506040909401359392505050565b5f8083601f8401126133d4575f80fd5b50813567ffffffffffffffff8111156133eb575f80fd5b6020830191508360208260051b8501011115611b97575f80fd5b5f8060208385031215613416575f80fd5b823567ffffffffffffffff81111561342c575f80fd5b613438858286016133c4565b90969095509350505050565b5f60208083016020845280855180835260408601915060408160051b8701019250602087015f5b8281101561349957603f198886030184526134878583516131bf565b9450928501929085019060010161346b565b5092979650505050505050565b5f80604083850312156134b7575f80fd5b82356134c2816131fc565b915060208301356134d2816131fc565b809150509250929050565b5f815180845260208085019450602084015f5b8381101561350c578151875295820195908201906001016134f0565b509495945050505050565b604081525f61352960408301856134dd565b828103602084015261207681856134dd565b600181811c9082168061354f57607f821691505b60208210810361356d57634e487b7160e01b5f52602260045260245ffd5b50919050565b6020808252600490820152634c6f636b60e01b604082015260600190565b8015158114611bd8575f80fd5b5f602082840312156135ae575f80fd5b813561070581613591565b634e487b7160e01b5f52601160045260245ffd5b5f600160ff1b82016135e1576135e16135b9565b505f0390565b8082018082111561069e5761069e6135b9565b5f808335601e1984360301811261360f575f80fd5b83018035915067ffffffffffffffff821115613629575f80fd5b602001915036819003821315611b97575f80fd5b81835281816020850137505f828201602090810191909152601f909101601f19169091010190565b848152836020820152606060408201525f61319360608301848661363d565b8181038181111561069e5761069e6135b9565b5f602082840312156136a7575f80fd5b8151610705816131fc565b634e487b7160e01b5f52604160045260245ffd5b634e487b7160e01b5f52603260045260245ffd5b828482375f8382015f815283516136f581836020880161319d565b0195945050505050565b808202811582820484141761069e5761069e6135b9565b62ffffff828116828216039080821115613732576137326135b9565b5092915050565b604081525f61374b60408301856131bf565b90508260208301529392505050565b608081525f61376c60808301876131bf565b60208301959095525060408101929092526001600160a01b0316606090910152919050565b5f82516137a281846020870161319d565b9190910192915050565b634e487b7160e01b5f52601260045260245ffd5b5f826137ce576137ce6137ac565b500490565b5f826137e1576137e16137ac565b500690565b5f600182016137f7576137f76135b9565b5060010190565b5f6020828403121561380e575f80fd5b5051919050565b5f60208284031215613825575f80fd5b81516107058161359156fea2646970667358221220a659a087cf07d4c7167675d18c36aaae4a0debc84af63be2d47c1c4cf277e03f64736f6c63430008170033",
    "sourcePath": "c:/Users/tucuo/OneDrive/Desktop/CiSwap.Contracts/contracts/Pool.sol",
    "compiler": {
        "name": "solc",
        "version": "0.8.23+commit.f704f362"
    },
    "functionHashes": {
        "FEE_PROTOCOL_RATE()": "d24c503d",
        "allowance(address,address)": "dd62ed3e",
        "approve(address,uint256)": "095ea7b3",
        "balanceOf(address)": "70a08231",
        "burn(address,uint256)": "9dc29fac",
        "collectProtocol(address,uint256,uint256)": "a5820157",
        "config()": "79502c55",
        "constants()": "72de5b2f",
        "decimals()": "313ce567",
        "factory()": "c45a0155",
        "fee()": "ddca3f43",
        "flash(address,uint256,uint256,bytes)": "490e6cbc",
        "indexPool()": "aafb81c0",
        "initialize(uint32)": "8d8965bd",
        "liquidity()": "1a686502",
        "mint(address)": "6a627842",
        "multicall(bytes[])": "ac9650d8",
        "name()": "06fdde03",
        "observations(uint256)": "252c09d7",
        "observe(uint256[])": "dea96b71",
        "owner()": "8da5cb5b",
        "price0X96()": "c806a79e",
        "price1X96()": "4fa1323d",
        "protocolFees()": "1ad8b03b",
        "renounceOwnership()": "715018a6",
        "slot0()": "3850c7bd",
        "swap((int256,uint256,bool,address,bytes))": "25a12ac1",
        "symbol()": "95d89b41",
        "token0()": "0dfe1681",
        "token1()": "d21220a7",
        "totalSupply()": "18160ddd",
        "transfer(address,uint256)": "a9059cbb",
        "transferFrom(address,address,uint256)": "23b872dd",
        "transferOwnership(address)": "f2fde38b"
    },
    "gasEstimates": {
        "creation": {
            "codeDepositCost": "2887600",
            "executionCost": "infinite",
            "totalCost": "infinite"
        },
        "external": {
            "FEE_PROTOCOL_RATE()": "247",
            "allowance(address,address)": "infinite",
            "approve(address,uint256)": "24775",
            "balanceOf(address)": "2617",
            "burn(address,uint256)": "infinite",
            "collectProtocol(address,uint256,uint256)": "infinite",
            "config()": "13020",
            "constants()": "4560",
            "decimals()": "244",
            "factory()": "infinite",
            "fee()": "infinite",
            "flash(address,uint256,uint256,bytes)": "infinite",
            "indexPool()": "2423",
            "initialize(uint32)": "infinite",
            "liquidity()": "infinite",
            "mint(address)": "infinite",
            "multicall(bytes[])": "infinite",
            "name()": "infinite",
            "observations(uint256)": "8967",
            "observe(uint256[])": "infinite",
            "owner()": "2419",
            "price0X96()": "infinite",
            "price1X96()": "infinite",
            "protocolFees()": "4495",
            "renounceOwnership()": "infinite",
            "slot0()": "8774",
            "swap((int256,uint256,bool,address,bytes))": "infinite",
            "symbol()": "infinite",
            "token0()": "infinite",
            "token1()": "infinite",
            "totalSupply()": "2393",
            "transfer(address,uint256)": "51290",
            "transferFrom(address,address,uint256)": "infinite",
            "transferOwnership(address)": "infinite"
        },
        "internal": {
            "_balance0()": "infinite",
            "_balance0Net()": "infinite",
            "_balance0NetWithConstant()": "infinite",
            "_balance1()": "infinite",
            "_balance1Net()": "infinite",
            "_balance1NetWithConstant()": "infinite",
            "_computeFeeProtocol(uint256)": "infinite",
            "_update(uint256,uint256)": "infinite"
        }
    }
}