{
    "contractName": "Quoter",
    "abi": [
        {
            "inputs": [
                {
                    "internalType": "address",
                    "name": "_factory",
                    "type": "address"
                },
                {
                    "internalType": "address",
                    "name": "_WETH10",
                    "type": "address"
                }
            ],
            "stateMutability": "nonpayable",
            "type": "constructor"
        },
        {
            "inputs": [
                {
                    "internalType": "int256",
                    "name": "value",
                    "type": "int256"
                }
            ],
            "name": "SafeCastOverflowedIntToUint",
            "type": "error"
        },
        {
            "inputs": [
                {
                    "internalType": "uint256",
                    "name": "value",
                    "type": "uint256"
                }
            ],
            "name": "SafeCastOverflowedUintToInt",
            "type": "error"
        },
        {
            "inputs": [],
            "name": "WETH10",
            "outputs": [
                {
                    "internalType": "address",
                    "name": "",
                    "type": "address"
                }
            ],
            "stateMutability": "view",
            "type": "function"
        },
        {
            "inputs": [],
            "name": "factory",
            "outputs": [
                {
                    "internalType": "address",
                    "name": "",
                    "type": "address"
                }
            ],
            "stateMutability": "view",
            "type": "function"
        },
        {
            "inputs": [
                {
                    "internalType": "address",
                    "name": "tokenA",
                    "type": "address"
                },
                {
                    "internalType": "address",
                    "name": "tokenB",
                    "type": "address"
                },
                {
                    "internalType": "uint32",
                    "name": "indexPool",
                    "type": "uint32"
                },
                {
                    "internalType": "uint256",
                    "name": "amount0",
                    "type": "uint256"
                },
                {
                    "internalType": "uint256",
                    "name": "amount1",
                    "type": "uint256"
                }
            ],
            "name": "quoteAddLiquidity",
            "outputs": [
                {
                    "internalType": "uint256",
                    "name": "",
                    "type": "uint256"
                }
            ],
            "stateMutability": "nonpayable",
            "type": "function"
        },
        {
            "inputs": [
                {
                    "internalType": "uint256",
                    "name": "amountIn",
                    "type": "uint256"
                },
                {
                    "internalType": "bytes",
                    "name": "path",
                    "type": "bytes"
                }
            ],
            "name": "quoteExactInput",
            "outputs": [
                {
                    "internalType": "uint256",
                    "name": "amountOut",
                    "type": "uint256"
                }
            ],
            "stateMutability": "nonpayable",
            "type": "function"
        },
        {
            "inputs": [
                {
                    "internalType": "uint256",
                    "name": "amountIn",
                    "type": "uint256"
                },
                {
                    "internalType": "address",
                    "name": "tokenIn",
                    "type": "address"
                },
                {
                    "internalType": "address",
                    "name": "tokenOut",
                    "type": "address"
                },
                {
                    "internalType": "uint32",
                    "name": "indexPool",
                    "type": "uint32"
                }
            ],
            "name": "quoteExactInputSingle",
            "outputs": [
                {
                    "internalType": "uint256",
                    "name": "amountOut",
                    "type": "uint256"
                }
            ],
            "stateMutability": "nonpayable",
            "type": "function"
        },
        {
            "inputs": [
                {
                    "internalType": "uint256",
                    "name": "amountOut",
                    "type": "uint256"
                },
                {
                    "internalType": "bytes",
                    "name": "path",
                    "type": "bytes"
                }
            ],
            "name": "quoteExactOutput",
            "outputs": [
                {
                    "internalType": "uint256",
                    "name": "amountIn",
                    "type": "uint256"
                }
            ],
            "stateMutability": "nonpayable",
            "type": "function"
        },
        {
            "inputs": [
                {
                    "internalType": "uint256",
                    "name": "amountOut",
                    "type": "uint256"
                },
                {
                    "internalType": "address",
                    "name": "tokenIn",
                    "type": "address"
                },
                {
                    "internalType": "address",
                    "name": "tokenOut",
                    "type": "address"
                },
                {
                    "internalType": "uint32",
                    "name": "indexPool",
                    "type": "uint32"
                }
            ],
            "name": "quoteExactOutputSingle",
            "outputs": [
                {
                    "internalType": "uint256",
                    "name": "amountIn",
                    "type": "uint256"
                }
            ],
            "stateMutability": "nonpayable",
            "type": "function"
        },
        {
            "inputs": [
                {
                    "internalType": "uint256",
                    "name": "amount",
                    "type": "uint256"
                },
                {
                    "internalType": "address",
                    "name": "tokenA",
                    "type": "address"
                },
                {
                    "internalType": "address",
                    "name": "tokenB",
                    "type": "address"
                },
                {
                    "internalType": "uint32",
                    "name": "indexPool",
                    "type": "uint32"
                }
            ],
            "name": "quoteRemoveLiquidity",
            "outputs": [
                {
                    "internalType": "uint256",
                    "name": "",
                    "type": "uint256"
                }
            ],
            "stateMutability": "nonpayable",
            "type": "function"
        },
        {
            "inputs": [
                {
                    "internalType": "int256",
                    "name": "amount0Delta",
                    "type": "int256"
                },
                {
                    "internalType": "int256",
                    "name": "amount1Delta",
                    "type": "int256"
                },
                {
                    "internalType": "bytes",
                    "name": "callback",
                    "type": "bytes"
                }
            ],
            "name": "swapCall",
            "outputs": [],
            "stateMutability": "view",
            "type": "function"
        }
    ],
    "bytecode": "60c060405234801561000f575f80fd5b50604051610eac380380610eac83398101604081905261002e91610060565b6001600160a01b039182166080521660a052610091565b80516001600160a01b038116811461005b575f80fd5b919050565b5f8060408385031215610071575f80fd5b61007a83610045565b915061008860208401610045565b90509250929050565b60805160a051610df46100b85f395f609901525f818161017b015261069b0152610df45ff3fe608060405234801561000f575f80fd5b5060043610610090575f3560e01c80637f71bc60116100635780637f71bc60146101235780638d4a84191461013b57806390e67e1b14610150578063b4f7fad514610163578063c45a015514610176575f80fd5b80633fe96d94146100945780635a28888a146100d85780636c6e4b4c146100f9578063762ae17e14610110575b5f80fd5b6100bb7f000000000000000000000000000000000000000000000000000000000000000081565b6040516001600160a01b0390911681526020015b60405180910390f35b6100eb6100e6366004610a2e565b61019d565b6040519081526020016100cf565b6100eb610107366004610b0f565b5f949350505050565b6100eb61011e366004610b0f565b6101fc565b6100eb610131366004610b5d565b5f95945050505050565b61014e610149366004610bb2565b610338565b005b6100eb61015e366004610b0f565b61042c565b6100eb610171366004610a2e565b610579565b6100bb7f000000000000000000000000000000000000000000000000000000000000000081565b5f5b5f6101a9836105c1565b90505f805f6101b7866105fa565b9250925092506101c9878385846101fc565b965083156101e1576101da86610635565b95506101ed565b869450505050506101f6565b5050505061019f565b92915050565b5f6001600160a01b038084169085161081610218868686610666565b9050806001600160a01b03166325a12ac16040518060a0016040528061023d8b61075b565b61024690610c3f565b81526020015f1981526020018515158152602001306001600160a01b0316815260200188888b60405160200161027e93929190610c59565b6040516020818303038152906040528152506040518263ffffffff1660e01b81526004016102ac9190610cd7565b60408051808303815f875af19250505080156102e5575060408051601f3d908101601f191682019092526102e291810190610d23565b60015b61032b573d808015610312576040519150601f19603f3d011682016040523d82523d5f602084013e610317565b606091505b506103218161078b565b9350505050610330565b505050505b949350505050565b5f84138061034557505f83135b61034d575f80fd5b5f805f61038e85858080601f0160208091040260200160405190810160405280939291908181526020018383808284375f920191909152506105fa92505050565b92509250925061039f838383610666565b505f805f808a126103df57856001600160a01b0316856001600160a01b0316106103d18a6103cc90610c3f565b6107b5565b6103da8c6107b5565b61040a565b846001600160a01b0316866001600160a01b0316106104018b6103cc90610c3f565b61040a8b6107b5565b925092509250821561042157604051818152602081fd5b604051828152602081fd5b5f6001600160a01b038084169085161081610448868686610666565b9050806001600160a01b03166325a12ac16040518060a0016040528061046d8b61075b565b81526020015f81526020018515158152602001306001600160a01b0316815260200189888a6040516020016104a493929190610c59565b6040516020818303038152906040528152506040518263ffffffff1660e01b81526004016104d29190610cd7565b60408051808303815f875af192505050801561050b575060408051601f3d908101601f1916820190925261050891810190610d23565b60015b61032b573d808015610538576040519150601f19603f3d011682016040523d82523d5f602084013e61053d565b606091505b50610570604051806040016040528060088152602001676e6f6d6e6120257360c01b81525061056b8361078b565b6107da565b6103218161078b565b5f5b5f610585836105c1565b90505f805f610593866105fa565b9250925092506105a58784848461042c565b965083156101e1576105b686610635565b95505050505061057b565b5f6105ce60046014610d45565b60146105db600482610d45565b6105e59190610d45565b6105ef9190610d45565b825110159050919050565b5f80806106078482610823565b9250610614846014610887565b905061062c61062560046014610d45565b8590610823565b91509193909250565b60606101f661064660046014610d45565b61065260046014610d45565b845161065e9190610d58565b8491906108e3565b60405163567b660d60e11b81526001600160a01b038481166004830152838116602483015263ffffffff831660448301525f917f00000000000000000000000000000000000000000000000000000000000000009091169063acf6cc1a90606401602060405180830381865afa1580156106e2573d5f803e3d5ffd5b505050506040513d601f19601f820116820180604052508101906107069190610d6b565b90506001600160a01b0381166107545760405162461bcd60e51b815260206004820152600e60248201526d141bdbdb081b9bdd08199bdd5b9960921b60448201526064015b60405180910390fd5b9392505050565b5f6001600160ff1b038211156107875760405163123baf0360e11b81526004810183905260240161074b565b5090565b5f81516020036107ae57818060200190518101906107a99190610d86565b6101f6565b5f92915050565b5f8082121561078757604051635467221960e11b81526004810183905260240161074b565b61081f82826040516024016107f0929190610d9d565b60408051601f198184030181529190526020810180516001600160e01b0316632d839cb360e21b1790526109ef565b5050565b5f61082f826014610d45565b835110156108775760405162461bcd60e51b8152602060048201526015602482015274746f416464726573735f6f75744f66426f756e647360581b604482015260640161074b565b500160200151600160601b900490565b5f610893826004610d45565b835110156108da5760405162461bcd60e51b8152602060048201526014602482015273746f55696e7433325f6f75744f66426f756e647360601b604482015260640161074b565b50016004015190565b6060816108f181601f610d45565b10156109305760405162461bcd60e51b815260206004820152600e60248201526d736c6963655f6f766572666c6f7760901b604482015260640161074b565b61093a8284610d45565b8451101561097e5760405162461bcd60e51b8152602060048201526011602482015270736c6963655f6f75744f66426f756e647360781b604482015260640161074b565b60608215801561099c5760405191505f8252602082016040526109e6565b6040519150601f8416801560200281840101858101878315602002848b0101015b818310156109d55780518352602092830192016109bd565b5050858452601f01601f1916604052505b50949350505050565b6109f8816109fb565b50565b5f6a636f6e736f6c652e6c6f6790505f80835160208501845afa505050565b634e487b7160e01b5f52604160045260245ffd5b5f8060408385031215610a3f575f80fd5b82359150602083013567ffffffffffffffff80821115610a5d575f80fd5b818501915085601f830112610a70575f80fd5b813581811115610a8257610a82610a1a565b604051601f8201601f19908116603f01168101908382118183101715610aaa57610aaa610a1a565b81604052828152886020848701011115610ac2575f80fd5b826020860160208301375f6020848301015280955050505050509250929050565b6001600160a01b03811681146109f8575f80fd5b803563ffffffff81168114610b0a575f80fd5b919050565b5f805f8060808587031215610b22575f80fd5b843593506020850135610b3481610ae3565b92506040850135610b4481610ae3565b9150610b5260608601610af7565b905092959194509250565b5f805f805f60a08688031215610b71575f80fd5b8535610b7c81610ae3565b94506020860135610b8c81610ae3565b9350610b9a60408701610af7565b94979396509394606081013594506080013592915050565b5f805f8060608587031215610bc5575f80fd5b8435935060208501359250604085013567ffffffffffffffff80821115610bea575f80fd5b818701915087601f830112610bfd575f80fd5b813581811115610c0b575f80fd5b886020828501011115610c1c575f80fd5b95989497505060200194505050565b634e487b7160e01b5f52601160045260245ffd5b5f600160ff1b8201610c5357610c53610c2b565b505f0390565b606093841b6bffffffffffffffffffffffff19908116825260e09390931b6001600160e01b0319166014820152921b166018820152602c0190565b5f81518084525f5b81811015610cb857602081850181015186830182015201610c9c565b505f602082860101526020601f19601f83011685010191505092915050565b60208152815160208201526020820151604082015260408201511515606082015260018060a01b0360608301511660808201525f608083015160a08084015261033060c0840182610c94565b5f8060408385031215610d34575f80fd5b505080516020909101519092909150565b808201808211156101f6576101f6610c2b565b818103818111156101f6576101f6610c2b565b5f60208284031215610d7b575f80fd5b815161075481610ae3565b5f60208284031215610d96575f80fd5b5051919050565b604081525f610daf6040830185610c94565b9050826020830152939250505056fea26469706673582212203bd002007eddc41059c93360e9a33ca53434ca59890ae7cf6fc9231c4b517a8764736f6c63430008170033",
    "sourcePath": "c:/Users/tucuo/OneDrive/Desktop/CiSwap.Contracts/contracts/Quoter.sol",
    "compiler": {
        "name": "solc",
        "version": "0.8.23+commit.f704f362"
    },
    "functionHashes": {
        "WETH10()": "3fe96d94",
        "factory()": "c45a0155",
        "quoteAddLiquidity(address,address,uint32,uint256,uint256)": "7f71bc60",
        "quoteExactInput(uint256,bytes)": "b4f7fad5",
        "quoteExactInputSingle(uint256,address,address,uint32)": "90e67e1b",
        "quoteExactOutput(uint256,bytes)": "5a28888a",
        "quoteExactOutputSingle(uint256,address,address,uint32)": "762ae17e",
        "quoteRemoveLiquidity(uint256,address,address,uint32)": "6c6e4b4c",
        "swapCall(int256,int256,bytes)": "8d4a8419"
    },
    "gasEstimates": {
        "creation": {
            "codeDepositCost": "714400",
            "executionCost": "infinite",
            "totalCost": "infinite"
        },
        "external": {
            "WETH10()": "infinite",
            "factory()": "infinite",
            "quoteAddLiquidity(address,address,uint32,uint256,uint256)": "infinite",
            "quoteExactInput(uint256,bytes)": "infinite",
            "quoteExactInputSingle(uint256,address,address,uint32)": "infinite",
            "quoteExactOutput(uint256,bytes)": "infinite",
            "quoteExactOutputSingle(uint256,address,address,uint32)": "infinite",
            "quoteRemoveLiquidity(uint256,address,address,uint32)": "infinite",
            "swapCall(int256,int256,bytes)": "infinite"
        },
        "internal": {
            "_parseRevertReason(bytes memory)": "infinite"
        }
    }
}