{
    "contractName": "Quoter",
    "abi": [
        {
            "inputs": [
                {
                    "internalType": "address",
                    "name": "_factory",
                    "type": "address"
                },
                {
                    "internalType": "address",
                    "name": "_WETH10",
                    "type": "address"
                }
            ],
            "stateMutability": "nonpayable",
            "type": "constructor"
        },
        {
            "inputs": [
                {
                    "internalType": "address",
                    "name": "target",
                    "type": "address"
                }
            ],
            "name": "AddressEmptyCode",
            "type": "error"
        },
        {
            "inputs": [],
            "name": "FailedInnerCall",
            "type": "error"
        },
        {
            "inputs": [],
            "name": "MathOverflowedMulDiv",
            "type": "error"
        },
        {
            "inputs": [
                {
                    "internalType": "int256",
                    "name": "value",
                    "type": "int256"
                }
            ],
            "name": "SafeCastOverflowedIntToUint",
            "type": "error"
        },
        {
            "inputs": [
                {
                    "internalType": "uint256",
                    "name": "value",
                    "type": "uint256"
                }
            ],
            "name": "SafeCastOverflowedUintToInt",
            "type": "error"
        },
        {
            "inputs": [],
            "name": "WETH10",
            "outputs": [
                {
                    "internalType": "address",
                    "name": "",
                    "type": "address"
                }
            ],
            "stateMutability": "view",
            "type": "function"
        },
        {
            "inputs": [],
            "name": "factory",
            "outputs": [
                {
                    "internalType": "address",
                    "name": "",
                    "type": "address"
                }
            ],
            "stateMutability": "view",
            "type": "function"
        },
        {
            "inputs": [
                {
                    "internalType": "bytes[]",
                    "name": "data",
                    "type": "bytes[]"
                }
            ],
            "name": "multicall",
            "outputs": [
                {
                    "internalType": "bytes[]",
                    "name": "results",
                    "type": "bytes[]"
                }
            ],
            "stateMutability": "nonpayable",
            "type": "function"
        },
        {
            "inputs": [
                {
                    "internalType": "address",
                    "name": "tokenA",
                    "type": "address"
                },
                {
                    "internalType": "address",
                    "name": "tokenB",
                    "type": "address"
                },
                {
                    "internalType": "uint32",
                    "name": "indexPool",
                    "type": "uint32"
                },
                {
                    "internalType": "uint256",
                    "name": "amount0",
                    "type": "uint256"
                },
                {
                    "internalType": "uint256",
                    "name": "amount1",
                    "type": "uint256"
                }
            ],
            "name": "quoteAddLiquidity",
            "outputs": [
                {
                    "internalType": "uint256",
                    "name": "",
                    "type": "uint256"
                }
            ],
            "stateMutability": "nonpayable",
            "type": "function"
        },
        {
            "inputs": [
                {
                    "internalType": "uint256",
                    "name": "amountIn",
                    "type": "uint256"
                },
                {
                    "internalType": "bytes",
                    "name": "path",
                    "type": "bytes"
                }
            ],
            "name": "quoteExactInput",
            "outputs": [
                {
                    "internalType": "uint256",
                    "name": "amountOut",
                    "type": "uint256"
                }
            ],
            "stateMutability": "nonpayable",
            "type": "function"
        },
        {
            "inputs": [
                {
                    "internalType": "uint256",
                    "name": "amountIn",
                    "type": "uint256"
                },
                {
                    "internalType": "address",
                    "name": "tokenIn",
                    "type": "address"
                },
                {
                    "internalType": "address",
                    "name": "tokenOut",
                    "type": "address"
                },
                {
                    "internalType": "uint32",
                    "name": "indexPool",
                    "type": "uint32"
                }
            ],
            "name": "quoteExactInputSingle",
            "outputs": [
                {
                    "internalType": "uint256",
                    "name": "amountOut",
                    "type": "uint256"
                }
            ],
            "stateMutability": "nonpayable",
            "type": "function"
        },
        {
            "inputs": [
                {
                    "internalType": "uint256",
                    "name": "amountOut",
                    "type": "uint256"
                },
                {
                    "internalType": "bytes",
                    "name": "path",
                    "type": "bytes"
                }
            ],
            "name": "quoteExactOutput",
            "outputs": [
                {
                    "internalType": "uint256",
                    "name": "amountIn",
                    "type": "uint256"
                }
            ],
            "stateMutability": "nonpayable",
            "type": "function"
        },
        {
            "inputs": [
                {
                    "internalType": "uint256",
                    "name": "amountOut",
                    "type": "uint256"
                },
                {
                    "internalType": "address",
                    "name": "tokenIn",
                    "type": "address"
                },
                {
                    "internalType": "address",
                    "name": "tokenOut",
                    "type": "address"
                },
                {
                    "internalType": "uint32",
                    "name": "indexPool",
                    "type": "uint32"
                }
            ],
            "name": "quoteExactOutputSingle",
            "outputs": [
                {
                    "internalType": "uint256",
                    "name": "amountIn",
                    "type": "uint256"
                }
            ],
            "stateMutability": "nonpayable",
            "type": "function"
        },
        {
            "inputs": [
                {
                    "internalType": "bytes",
                    "name": "path",
                    "type": "bytes"
                }
            ],
            "name": "quotePriceX96",
            "outputs": [
                {
                    "internalType": "uint256",
                    "name": "priceX96",
                    "type": "uint256"
                }
            ],
            "stateMutability": "view",
            "type": "function"
        },
        {
            "inputs": [
                {
                    "internalType": "uint256",
                    "name": "amount",
                    "type": "uint256"
                },
                {
                    "internalType": "address",
                    "name": "tokenA",
                    "type": "address"
                },
                {
                    "internalType": "address",
                    "name": "tokenB",
                    "type": "address"
                },
                {
                    "internalType": "uint32",
                    "name": "indexPool",
                    "type": "uint32"
                }
            ],
            "name": "quoteRemoveLiquidity",
            "outputs": [
                {
                    "internalType": "uint256",
                    "name": "",
                    "type": "uint256"
                }
            ],
            "stateMutability": "nonpayable",
            "type": "function"
        },
        {
            "inputs": [
                {
                    "internalType": "int256",
                    "name": "amount0Delta",
                    "type": "int256"
                },
                {
                    "internalType": "int256",
                    "name": "amount1Delta",
                    "type": "int256"
                },
                {
                    "internalType": "bytes",
                    "name": "callback",
                    "type": "bytes"
                }
            ],
            "name": "swapCall",
            "outputs": [],
            "stateMutability": "view",
            "type": "function"
        }
    ],
    "bytecode": "60c060405234801561000f575f80fd5b506040516114b13803806114b183398101604081905261002e91610060565b6001600160a01b039182166080521660a052610091565b80516001600160a01b038116811461005b575f80fd5b919050565b5f8060408385031215610071575f80fd5b61007a83610045565b915061008860208401610045565b90509250929050565b60805160a0516113f96100b85f395f60af01525f81816101c4015261091801526113f95ff3fe608060405234801561000f575f80fd5b50600436106100a6575f3560e01c80637f71bc601161006e5780637f71bc601461014c5780638d4a84191461016457806390e67e1b14610179578063ac9650d81461018c578063b4f7fad5146101ac578063c45a0155146101bf575f80fd5b80633fe96d94146100aa5780635a28888a146100ee5780635ab4ddb51461010f5780636c6e4b4c14610122578063762ae17e14610139575b5f80fd5b6100d17f000000000000000000000000000000000000000000000000000000000000000081565b6040516001600160a01b0390911681526020015b60405180910390f35b6101016100fc366004610eea565b6101e6565b6040519081526020016100e5565b61010161011d366004610f2e565b610245565b610101610130366004610f87565b5f949350505050565b610101610147366004610f87565b610393565b61010161015a366004610fd5565b5f95945050505050565b61017761017236600461102a565b6104cf565b005b610101610187366004610f87565b6105c3565b61019f61019a3660046110a3565b610710565b6040516100e5919061115f565b6101016101ba366004610eea565b6107f6565b6100d17f000000000000000000000000000000000000000000000000000000000000000081565b5f5b5f6101f28361083e565b90505f805f61020086610877565b92509250925061021287838584610393565b9650831561022a57610223866108b2565b9550610236565b8694505050505061023f565b505050506101e8565b92915050565b600160601b5b5f6102558361083e565b90505f805f61026386610877565b919450925090506001600160a01b03808316908416105f6102858585856108e3565b9050610360826102f457816001600160a01b0316634fa1323d6040518163ffffffff1660e01b8152600401602060405180830381865afa1580156102cb573d5f803e3d5ffd5b505050506040513d601f19601f820116820180604052508101906102ef91906111c1565b610354565b816001600160a01b031663c806a79e6040518163ffffffff1660e01b8152600401602060405180830381865afa158015610330573d5f803e3d5ffd5b505050506040513d601f19601f8201168201806040525081019061035491906111c1565b8890600160601b6109d8565b9650851561037857610371886108b2565b9750610383565b505050505050919050565b50505050505061024b565b919050565b5f6001600160a01b0380841690851610816103af8686866108e3565b9050806001600160a01b03166325a12ac16040518060a001604052806103d48b610a97565b6103dd906111ec565b81526020015f1981526020018515158152602001306001600160a01b0316815260200188888b60405160200161041593929190611206565b6040516020818303038152906040528152506040518263ffffffff1660e01b81526004016104439190611241565b60408051808303815f875af192505050801561047c575060408051601f3d908101601f191682019092526104799181019061128d565b60015b6104c2573d8080156104a9576040519150601f19603f3d011682016040523d82523d5f602084013e6104ae565b606091505b506104b881610ac7565b93505050506104c7565b505050505b949350505050565b5f8413806104dc57505f83135b6104e4575f80fd5b5f805f61052585858080601f0160208091040260200160405190810160405280939291908181526020018383808284375f9201919091525061087792505050565b9250925092506105368383836108e3565b505f805f808a1261057657856001600160a01b0316856001600160a01b0316106105688a610563906111ec565b610af1565b6105718c610af1565b6105a1565b846001600160a01b0316866001600160a01b0316106105988b610563906111ec565b6105a18b610af1565b92509250925082156105b857604051818152602081fd5b604051828152602081fd5b5f6001600160a01b0380841690851610816105df8686866108e3565b9050806001600160a01b03166325a12ac16040518060a001604052806106048b610a97565b81526020015f81526020018515158152602001306001600160a01b0316815260200189888a60405160200161063b93929190611206565b6040516020818303038152906040528152506040518263ffffffff1660e01b81526004016106699190611241565b60408051808303815f875af19250505080156106a2575060408051601f3d908101601f1916820190925261069f9181019061128d565b60015b6104c2573d8080156106cf576040519150601f19603f3d011682016040523d82523d5f602084013e6106d4565b606091505b50610707604051806040016040528060088152602001676e6f6d6e6120257360c01b81525061070283610ac7565b610b16565b6104b881610ac7565b604080515f8152602081019091526060908267ffffffffffffffff81111561073a5761073a610e4d565b60405190808252806020026020018201604052801561076d57816020015b60608152602001906001900390816107585790505b5091505f5b838110156107ee576107c930868684818110610790576107906112c2565b90506020028101906107a291906112d6565b856040516020016107b593929190611320565b604051602081830303815290604052610b5f565b8382815181106107db576107db6112c2565b6020908102919091010152600101610772565b505092915050565b5f5b5f6108028361083e565b90505f805f61081086610877565b925092509250610822878484846105c3565b9650831561022a57610833866108b2565b9550505050506107f8565b5f61084b60046014611345565b6014610858600482611345565b6108629190611345565b61086c9190611345565b825110159050919050565b5f80806108848482610bd1565b9250610891846014610c35565b90506108a96108a260046014611345565b8590610bd1565b91509193909250565b606061023f6108c360046014611345565b6108cf60046014611345565b84516108db91906112af565b849190610c91565b60405163567b660d60e11b81526001600160a01b038481166004830152838116602483015263ffffffff831660448301525f917f00000000000000000000000000000000000000000000000000000000000000009091169063acf6cc1a90606401602060405180830381865afa15801561095f573d5f803e3d5ffd5b505050506040513d601f19601f820116820180604052508101906109839190611358565b90506001600160a01b0381166109d15760405162461bcd60e51b815260206004820152600e60248201526d141bdbdb081b9bdd08199bdd5b9960921b60448201526064015b60405180910390fd5b9392505050565b5f838302815f1985870982811083820303915050805f03610a0c57838281610a0257610a02611373565b04925050506109d1565b808411610a2c5760405163227bc15360e01b815260040160405180910390fd5b5f848688095f868103871696879004966002600389028118808a02820302808a02820302808a02820302808a02820302808a02820302808a02909103029181900381900460010186841190950394909402919094039290920491909117919091029150509392505050565b5f6001600160ff1b03821115610ac35760405163123baf0360e11b8152600481018390526024016109c8565b5090565b5f8151602003610aea5781806020019051810190610ae591906111c1565b61023f565b5f92915050565b5f80821215610ac357604051635467221960e11b8152600481018390526024016109c8565b610b5b8282604051602401610b2c929190611387565b60408051601f198184030181529190526020810180516001600160e01b0316632d839cb360e21b179052610d9d565b5050565b60605f80846001600160a01b031684604051610b7b91906113a8565b5f60405180830381855af49150503d805f8114610bb3576040519150601f19603f3d011682016040523d82523d5f602084013e610bb8565b606091505b5091509150610bc8858383610da9565b95945050505050565b5f610bdd826014611345565b83511015610c255760405162461bcd60e51b8152602060048201526015602482015274746f416464726573735f6f75744f66426f756e647360581b60448201526064016109c8565b500160200151600160601b900490565b5f610c41826004611345565b83511015610c885760405162461bcd60e51b8152602060048201526014602482015273746f55696e7433325f6f75744f66426f756e647360601b60448201526064016109c8565b50016004015190565b606081610c9f81601f611345565b1015610cde5760405162461bcd60e51b815260206004820152600e60248201526d736c6963655f6f766572666c6f7760901b60448201526064016109c8565b610ce88284611345565b84511015610d2c5760405162461bcd60e51b8152602060048201526011602482015270736c6963655f6f75744f66426f756e647360781b60448201526064016109c8565b606082158015610d4a5760405191505f825260208201604052610d94565b6040519150601f8416801560200281840101858101878315602002848b0101015b81831015610d83578051835260209283019201610d6b565b5050858452601f01601f1916604052505b50949350505050565b610da681610e05565b50565b606082610dbe57610db982610e24565b6109d1565b8151158015610dd557506001600160a01b0384163b155b15610dfe57604051639996b31560e01b81526001600160a01b03851660048201526024016109c8565b50806109d1565b5f6a636f6e736f6c652e6c6f6790505f80835160208501845afa505050565b805115610e345780518082602001fd5b604051630a12f52160e11b815260040160405180910390fd5b634e487b7160e01b5f52604160045260245ffd5b5f82601f830112610e70575f80fd5b813567ffffffffffffffff80821115610e8b57610e8b610e4d565b604051601f8301601f19908116603f01168101908282118183101715610eb357610eb3610e4d565b81604052838152866020858801011115610ecb575f80fd5b836020870160208301375f602085830101528094505050505092915050565b5f8060408385031215610efb575f80fd5b82359150602083013567ffffffffffffffff811115610f18575f80fd5b610f2485828601610e61565b9150509250929050565b5f60208284031215610f3e575f80fd5b813567ffffffffffffffff811115610f54575f80fd5b6104c784828501610e61565b6001600160a01b0381168114610da6575f80fd5b803563ffffffff8116811461038e575f80fd5b5f805f8060808587031215610f9a575f80fd5b843593506020850135610fac81610f60565b92506040850135610fbc81610f60565b9150610fca60608601610f74565b905092959194509250565b5f805f805f60a08688031215610fe9575f80fd5b8535610ff481610f60565b9450602086013561100481610f60565b935061101260408701610f74565b94979396509394606081013594506080013592915050565b5f805f806060858703121561103d575f80fd5b8435935060208501359250604085013567ffffffffffffffff80821115611062575f80fd5b818701915087601f830112611075575f80fd5b813581811115611083575f80fd5b886020828501011115611094575f80fd5b95989497505060200194505050565b5f80602083850312156110b4575f80fd5b823567ffffffffffffffff808211156110cb575f80fd5b818501915085601f8301126110de575f80fd5b8135818111156110ec575f80fd5b8660208260051b8501011115611100575f80fd5b60209290920196919550909350505050565b5f5b8381101561112c578181015183820152602001611114565b50505f910152565b5f815180845261114b816020860160208601611112565b601f01601f19169290920160200192915050565b5f60208083016020845280855180835260408601915060408160051b8701019250602087015f5b828110156111b457603f198886030184526111a2858351611134565b94509285019290850190600101611186565b5092979650505050505050565b5f602082840312156111d1575f80fd5b5051919050565b634e487b7160e01b5f52601160045260245ffd5b5f600160ff1b8201611200576112006111d8565b505f0390565b606093841b6bffffffffffffffffffffffff19908116825260e09390931b6001600160e01b0319166014820152921b166018820152602c0190565b60208152815160208201526020820151604082015260408201511515606082015260018060a01b0360608301511660808201525f608083015160a0808401526104c760c0840182611134565b5f806040838503121561129e575f80fd5b505080516020909101519092909150565b8181038181111561023f5761023f6111d8565b634e487b7160e01b5f52603260045260245ffd5b5f808335601e198436030181126112eb575f80fd5b83018035915067ffffffffffffffff821115611305575f80fd5b602001915036819003821315611319575f80fd5b9250929050565b828482375f8382015f8152835161133b818360208801611112565b0195945050505050565b8082018082111561023f5761023f6111d8565b5f60208284031215611368575f80fd5b81516109d181610f60565b634e487b7160e01b5f52601260045260245ffd5b604081525f6113996040830185611134565b90508260208301529392505050565b5f82516113b9818460208701611112565b919091019291505056fea2646970667358221220f813aaa3961552911df648cdcd4ec5e84472b8c2985cffda76cc947c10c9138264736f6c63430008170033",
    "sourcePath": "c:/Users/tucuo/OneDrive/Desktop/CiSwap.Contracts/contracts/Quoter.sol",
    "compiler": {
        "name": "solc",
        "version": "0.8.23+commit.f704f362"
    },
    "functionHashes": {
        "WETH10()": "3fe96d94",
        "factory()": "c45a0155",
        "multicall(bytes[])": "ac9650d8",
        "quoteAddLiquidity(address,address,uint32,uint256,uint256)": "7f71bc60",
        "quoteExactInput(uint256,bytes)": "b4f7fad5",
        "quoteExactInputSingle(uint256,address,address,uint32)": "90e67e1b",
        "quoteExactOutput(uint256,bytes)": "5a28888a",
        "quoteExactOutputSingle(uint256,address,address,uint32)": "762ae17e",
        "quotePriceX96(bytes)": "5ab4ddb5",
        "quoteRemoveLiquidity(uint256,address,address,uint32)": "6c6e4b4c",
        "swapCall(int256,int256,bytes)": "8d4a8419"
    },
    "gasEstimates": {
        "creation": {
            "codeDepositCost": "1022600",
            "executionCost": "infinite",
            "totalCost": "infinite"
        },
        "external": {
            "WETH10()": "infinite",
            "factory()": "infinite",
            "multicall(bytes[])": "infinite",
            "quoteAddLiquidity(address,address,uint32,uint256,uint256)": "infinite",
            "quoteExactInput(uint256,bytes)": "infinite",
            "quoteExactInputSingle(uint256,address,address,uint32)": "infinite",
            "quoteExactOutput(uint256,bytes)": "infinite",
            "quoteExactOutputSingle(uint256,address,address,uint32)": "infinite",
            "quotePriceX96(bytes)": "infinite",
            "quoteRemoveLiquidity(uint256,address,address,uint32)": "infinite",
            "swapCall(int256,int256,bytes)": "infinite"
        },
        "internal": {
            "_parseRevertReason(bytes memory)": "infinite"
        }
    }
}