{
    "contractName": "Router",
    "abi": [
        {
            "inputs": [
                {
                    "internalType": "address",
                    "name": "_factory",
                    "type": "address"
                },
                {
                    "internalType": "address",
                    "name": "_WETH10",
                    "type": "address"
                }
            ],
            "stateMutability": "nonpayable",
            "type": "constructor"
        },
        {
            "inputs": [
                {
                    "internalType": "address",
                    "name": "target",
                    "type": "address"
                }
            ],
            "name": "AddressEmptyCode",
            "type": "error"
        },
        {
            "inputs": [
                {
                    "internalType": "address",
                    "name": "account",
                    "type": "address"
                }
            ],
            "name": "AddressInsufficientBalance",
            "type": "error"
        },
        {
            "inputs": [],
            "name": "FailedInnerCall",
            "type": "error"
        },
        {
            "inputs": [
                {
                    "internalType": "int256",
                    "name": "value",
                    "type": "int256"
                }
            ],
            "name": "SafeCastOverflowedIntToUint",
            "type": "error"
        },
        {
            "inputs": [
                {
                    "internalType": "uint256",
                    "name": "value",
                    "type": "uint256"
                }
            ],
            "name": "SafeCastOverflowedUintToInt",
            "type": "error"
        },
        {
            "inputs": [
                {
                    "internalType": "address",
                    "name": "token",
                    "type": "address"
                }
            ],
            "name": "SafeERC20FailedOperation",
            "type": "error"
        },
        {
            "inputs": [],
            "name": "WETH10",
            "outputs": [
                {
                    "internalType": "address",
                    "name": "",
                    "type": "address"
                }
            ],
            "stateMutability": "view",
            "type": "function"
        },
        {
            "inputs": [
                {
                    "components": [
                        {
                            "internalType": "address",
                            "name": "tokenA",
                            "type": "address"
                        },
                        {
                            "internalType": "address",
                            "name": "tokenB",
                            "type": "address"
                        },
                        {
                            "internalType": "uint32",
                            "name": "indexPool",
                            "type": "uint32"
                        },
                        {
                            "internalType": "uint256",
                            "name": "amountA",
                            "type": "uint256"
                        },
                        {
                            "internalType": "uint256",
                            "name": "amountB",
                            "type": "uint256"
                        },
                        {
                            "internalType": "uint256",
                            "name": "amountMin",
                            "type": "uint256"
                        },
                        {
                            "internalType": "address",
                            "name": "recipient",
                            "type": "address"
                        },
                        {
                            "internalType": "uint32",
                            "name": "deadline",
                            "type": "uint32"
                        }
                    ],
                    "internalType": "struct IRouter.AddLiquidityParams",
                    "name": "params",
                    "type": "tuple"
                }
            ],
            "name": "addLiquidity",
            "outputs": [
                {
                    "internalType": "uint256",
                    "name": "amount",
                    "type": "uint256"
                }
            ],
            "stateMutability": "payable",
            "type": "function"
        },
        {
            "inputs": [
                {
                    "components": [
                        {
                            "internalType": "uint256",
                            "name": "amountIn",
                            "type": "uint256"
                        },
                        {
                            "internalType": "uint256",
                            "name": "amountOutMin",
                            "type": "uint256"
                        },
                        {
                            "internalType": "address",
                            "name": "recipient",
                            "type": "address"
                        },
                        {
                            "internalType": "bytes",
                            "name": "path",
                            "type": "bytes"
                        },
                        {
                            "internalType": "uint32",
                            "name": "deadline",
                            "type": "uint32"
                        }
                    ],
                    "internalType": "struct IRouter.ExactInputParams",
                    "name": "params",
                    "type": "tuple"
                }
            ],
            "name": "exactInput",
            "outputs": [
                {
                    "internalType": "uint256",
                    "name": "amountOut",
                    "type": "uint256"
                }
            ],
            "stateMutability": "payable",
            "type": "function"
        },
        {
            "inputs": [
                {
                    "components": [
                        {
                            "internalType": "uint256",
                            "name": "amountIn",
                            "type": "uint256"
                        },
                        {
                            "internalType": "uint256",
                            "name": "amountOutMin",
                            "type": "uint256"
                        },
                        {
                            "internalType": "address",
                            "name": "recipient",
                            "type": "address"
                        },
                        {
                            "internalType": "address",
                            "name": "tokenIn",
                            "type": "address"
                        },
                        {
                            "internalType": "address",
                            "name": "tokenOut",
                            "type": "address"
                        },
                        {
                            "internalType": "uint32",
                            "name": "indexPool",
                            "type": "uint32"
                        },
                        {
                            "internalType": "uint32",
                            "name": "deadline",
                            "type": "uint32"
                        }
                    ],
                    "internalType": "struct IRouter.ExactInputSingleParams",
                    "name": "params",
                    "type": "tuple"
                }
            ],
            "name": "exactInputSingle",
            "outputs": [
                {
                    "internalType": "uint256",
                    "name": "amountOut",
                    "type": "uint256"
                }
            ],
            "stateMutability": "payable",
            "type": "function"
        },
        {
            "inputs": [
                {
                    "components": [
                        {
                            "internalType": "uint256",
                            "name": "amountOut",
                            "type": "uint256"
                        },
                        {
                            "internalType": "uint256",
                            "name": "amountInMax",
                            "type": "uint256"
                        },
                        {
                            "internalType": "address",
                            "name": "recipient",
                            "type": "address"
                        },
                        {
                            "internalType": "bytes",
                            "name": "path",
                            "type": "bytes"
                        },
                        {
                            "internalType": "uint32",
                            "name": "deadline",
                            "type": "uint32"
                        }
                    ],
                    "internalType": "struct IRouter.ExactOutputParams",
                    "name": "params",
                    "type": "tuple"
                }
            ],
            "name": "exactOutput",
            "outputs": [
                {
                    "internalType": "uint256",
                    "name": "amountIn",
                    "type": "uint256"
                }
            ],
            "stateMutability": "payable",
            "type": "function"
        },
        {
            "inputs": [
                {
                    "components": [
                        {
                            "internalType": "uint256",
                            "name": "amountOut",
                            "type": "uint256"
                        },
                        {
                            "internalType": "uint256",
                            "name": "amountInMax",
                            "type": "uint256"
                        },
                        {
                            "internalType": "address",
                            "name": "recipient",
                            "type": "address"
                        },
                        {
                            "internalType": "address",
                            "name": "tokenIn",
                            "type": "address"
                        },
                        {
                            "internalType": "address",
                            "name": "tokenOut",
                            "type": "address"
                        },
                        {
                            "internalType": "uint32",
                            "name": "indexPool",
                            "type": "uint32"
                        },
                        {
                            "internalType": "uint32",
                            "name": "deadline",
                            "type": "uint32"
                        }
                    ],
                    "internalType": "struct IRouter.ExactOutputSingleParams",
                    "name": "params",
                    "type": "tuple"
                }
            ],
            "name": "exactOutputSingle",
            "outputs": [
                {
                    "internalType": "uint256",
                    "name": "amountIn",
                    "type": "uint256"
                }
            ],
            "stateMutability": "payable",
            "type": "function"
        },
        {
            "inputs": [],
            "name": "factory",
            "outputs": [
                {
                    "internalType": "address",
                    "name": "",
                    "type": "address"
                }
            ],
            "stateMutability": "view",
            "type": "function"
        },
        {
            "inputs": [
                {
                    "internalType": "bytes[]",
                    "name": "data",
                    "type": "bytes[]"
                }
            ],
            "name": "multicall",
            "outputs": [
                {
                    "internalType": "bytes[]",
                    "name": "results",
                    "type": "bytes[]"
                }
            ],
            "stateMutability": "nonpayable",
            "type": "function"
        },
        {
            "inputs": [
                {
                    "internalType": "bytes[]",
                    "name": "data",
                    "type": "bytes[]"
                }
            ],
            "name": "multicall2",
            "outputs": [
                {
                    "internalType": "bytes[]",
                    "name": "results",
                    "type": "bytes[]"
                }
            ],
            "stateMutability": "payable",
            "type": "function"
        },
        {
            "inputs": [],
            "name": "refundETH",
            "outputs": [],
            "stateMutability": "payable",
            "type": "function"
        },
        {
            "inputs": [
                {
                    "components": [
                        {
                            "internalType": "address",
                            "name": "tokenA",
                            "type": "address"
                        },
                        {
                            "internalType": "address",
                            "name": "tokenB",
                            "type": "address"
                        },
                        {
                            "internalType": "uint32",
                            "name": "indexPool",
                            "type": "uint32"
                        },
                        {
                            "internalType": "uint256",
                            "name": "amount",
                            "type": "uint256"
                        },
                        {
                            "internalType": "uint256",
                            "name": "amountAMin",
                            "type": "uint256"
                        },
                        {
                            "internalType": "uint256",
                            "name": "amountBMin",
                            "type": "uint256"
                        },
                        {
                            "internalType": "address",
                            "name": "recipient",
                            "type": "address"
                        },
                        {
                            "internalType": "uint32",
                            "name": "deadline",
                            "type": "uint32"
                        }
                    ],
                    "internalType": "struct IRouter.RemoveLiquidityParams",
                    "name": "params",
                    "type": "tuple"
                }
            ],
            "name": "removeLiquidity",
            "outputs": [
                {
                    "internalType": "uint256",
                    "name": "amount0",
                    "type": "uint256"
                },
                {
                    "internalType": "uint256",
                    "name": "amount1",
                    "type": "uint256"
                }
            ],
            "stateMutability": "payable",
            "type": "function"
        },
        {
            "inputs": [
                {
                    "internalType": "int256",
                    "name": "amount0Delta",
                    "type": "int256"
                },
                {
                    "internalType": "int256",
                    "name": "amount1Delta",
                    "type": "int256"
                },
                {
                    "internalType": "bytes",
                    "name": "callback",
                    "type": "bytes"
                }
            ],
            "name": "swapCall",
            "outputs": [],
            "stateMutability": "nonpayable",
            "type": "function"
        },
        {
            "inputs": [
                {
                    "internalType": "uint256",
                    "name": "amountMinimum",
                    "type": "uint256"
                },
                {
                    "internalType": "address",
                    "name": "recipient",
                    "type": "address"
                }
            ],
            "name": "unwrapWETH10",
            "outputs": [],
            "stateMutability": "payable",
            "type": "function"
        },
        {
            "stateMutability": "payable",
            "type": "receive"
        }
    ],
    "bytecode": "60c06040525f195f5534801562000014575f80fd5b50604051620021b4380380620021b483398101604081905262000037916200006b565b6001600160a01b039182166080521660a052620000a1565b80516001600160a01b038116811462000066575f80fd5b919050565b5f80604083850312156200007d575f80fd5b62000088836200004f565b915062000098602084016200004f565b90509250929050565b60805160a0516120c1620000f35f395f818160ca0152818161015301528181610ae301528181610bb8015281816112cc0152818161131201526113a301525f8181610235015261106701526120c15ff3fe6080604052600436106100c2575f3560e01c80638d4a84191161007c578063c36c9e6e11610057578063c36c9e6e14610211578063c45a015514610224578063de45551e14610257578063e452f7de1461027f575f80fd5b80638d4a8419146101b3578063ac9650d8146101d2578063b4033668146101fe575f80fd5b806306da5b791461010157806312210e8a146101275780631c40cf271461012f5780633fe96d9414610142578063407bfcc61461018d57806356088892146101a0575f80fd5b366100fd57337f00000000000000000000000000000000000000000000000000000000000000006001600160a01b0316146100fb575f80fd5b005b5f80fd5b61011461010f3660046119a5565b610292565b6040519081526020015b60405180910390f35b6100fb6103bc565b61011461013d3660046119d0565b610419565b34801561014d575f80fd5b506101757f000000000000000000000000000000000000000000000000000000000000000081565b6040516001600160a01b03909116815260200161011e565b61011461019b3660046119eb565b610584565b6101146101ae3660046119a5565b610690565b3480156101be575f80fd5b506100fb6101cd366004611a22565b6107a1565b3480156101dd575f80fd5b506101f16101ec366004611a9b565b6108cc565b60405161011e9190611b57565b61011461020c366004611cab565b6109b3565b6100fb61021f366004611d4b565b610acc565b34801561022f575f80fd5b506101757f000000000000000000000000000000000000000000000000000000000000000081565b61026a6102653660046119d0565b610c79565b6040805192835260208301919091520161011e565b6101f161028d366004611a9b565b610de0565b5f6102a360e0830160c08401611d79565b428163ffffffff1610156102d25760405162461bcd60e51b81526004016102c990611d92565b60405180910390fd5b61036083356102e76060860160408701611dbf565b60405180604001604052806102f93390565b6001600160a01b031681526020016103176080890160608a01611dbf565b61032760c08a0160a08b01611d79565b61033760a08b0160808c01611dbf565b60405160200161034993929190611dda565b604051602081830303815290604052815250610ec8565b915082602001358210156103b65760405162461bcd60e51b815260206004820152601a60248201527f496e73756666696369656e74206f757470757420616d6f756e7400000000000060448201526064016102c9565b50919050565b478015610416576040515f90339083908381818185875af1925050503d805f8114610402576040519150601f19603f3d011682016040523d82523d5f602084013e610407565b606091505b5050905080610414575f80fd5b505b50565b5f61042b610100830160e08401611d79565b428163ffffffff1610156104515760405162461bcd60e51b81526004016102c990611d92565b5f80806104796104646020880188611dbf565b6104746040890160208a01611dbf565b610ffb565b919450925090505f61049b848461049660608b0160408c01611d79565b611032565b90505f80836104b357886080013589606001356104be565b886060013589608001355b915091506104d4866104cd3390565b8585611122565b6104e085338584611122565b6001600160a01b038316636a6278426104ff60e08c0160c08d01611dbf565b6040516001600160e01b031960e084901b1681526001600160a01b0390911660048201526024016020604051808303815f875af1158015610542573d5f803e3d5ffd5b505050506040513d601f19601f820116820180604052508101906105669190611e15565b97508860a00135881015610578575f80fd5b50505050505050919050565b5f61059560a0830160808401611d79565b428163ffffffff1610156105bb5760405162461bcd60e51b81526004016102c990611d92565b61063783356105d06060860160408701611dbf565b60405180604001604052806105e23390565b6001600160a01b031681526020016105fd6060890189611e2c565b8080601f0160208091040260200160405190810160405280939291908181526020018383808284375f920191909152505050915250611137565b505f54915060208301358211156106865760405162461bcd60e51b8152602060048201526013602482015272115e18d95959081a5b9c1d5d08185b5bdd5b9d606a1b60448201526064016102c9565b505f195f55919050565b5f6106a160e0830160c08401611d79565b428163ffffffff1610156106c75760405162461bcd60e51b81526004016102c990611d92565b61075583356106dc6060860160408701611dbf565b60405180604001604052806106ee3390565b6001600160a01b0316815260200161070c60a0890160808a01611dbf565b61071c60c08a0160a08b01611d79565b61072c60808b0160608c01611dbf565b60405160200161073e93929190611dda565b604051602081830303815290604052815250611137565b915082602001358211156106865760405162461bcd60e51b8152602060048201526013602482015272115e18d95959081a5b9c1d5d08185b5bdd5b9d606a1b60448201526064016102c9565b5f8413806107ae57505f83135b6107b6575f80fd5b5f6107c382840184611e76565b90505f805f6107d58460200151611266565b9250925092506107e6838383611032565b505f805f8a1261081c57836001600160a01b0316856001600160a01b0316116108178a61081290611f1b565b6112a1565b61083e565b836001600160a01b0316856001600160a01b03161061083e8b61081290611f1b565b91509150811561085d578551610858908690335b846112ca565b6108c0565b61086a8660200151611440565b156108ae575f61087d8760200151611479565b90506108a78233604080518082019091528a516001600160a01b0316815260208101859052611137565b50506108c0565b5f81905585516108c090859033610852565b50505050505050505050565b604080515f8152602081019091526060908267ffffffffffffffff8111156108f6576108f6611bb9565b60405190808252806020026020018201604052801561092957816020015b60608152602001906001900390816109145790505b5091505f5b838110156109aa576109853086868481811061094c5761094c611f48565b905060200281019061095e9190611e2c565b8560405160200161097193929190611f5c565b6040516020818303038152906040526114aa565b83828151811061099757610997611f48565b602090810291909101015260010161092e565b50505b92915050565b5f8160800151428163ffffffff1610156109df5760405162461bcd60e51b81526004016102c990611d92565b335b5f6109ef8560600151611440565b90506109fa8161151c565b8451610a3f9082610a0f578660400151610a11565b305b6040518060400160405280866001600160a01b03168152602001610a388a6060015161155d565b9052610ec8565b85528015610a6157309150610a578560600151611479565b6060860152610a6b565b5083519250610a71565b506109e1565b8360200151831015610ac55760405162461bcd60e51b815260206004820152601a60248201527f496e73756666696369656e74206f757470757420616d6f756e7400000000000060448201526064016102c9565b5050919050565b6040516370a0823160e01b81523060048201525f907f00000000000000000000000000000000000000000000000000000000000000006001600160a01b0316906370a0823190602401602060405180830381865afa158015610b30573d5f803e3d5ffd5b505050506040513d601f19601f82011682018060405250810190610b549190611e15565b905082811015610b9c5760405162461bcd60e51b81526020600482015260136024820152720496e73756666696369656e742057455448313606c1b60448201526064016102c9565b8015610c7457604051632e1a7d4d60e01b8152600481018290527f00000000000000000000000000000000000000000000000000000000000000006001600160a01b031690632e1a7d4d906024015f604051808303815f87803b158015610c01575f80fd5b505af1158015610c13573d5f803e3d5ffd5b505050505f826001600160a01b0316826040515f6040518083038185875af1925050503d805f8114610c60576040519150601f19603f3d011682016040523d82523d5f602084013e610c65565b606091505b5050905080610c72575f80fd5b505b505050565b5f80610c8c610100840160e08501611d79565b428163ffffffff161015610cb25760405162461bcd60e51b81526004016102c990611d92565b5f8080610cd5610cc56020890189611dbf565b61047460408a0160208b01611dbf565b9250925092505f8082610cf1578860a001358960800135610cfc565b88608001358960a001355b90925090505f610d17868661049660608e0160408f01611d79565b9050610d298133308d60600135611122565b6001600160a01b038116639dc29fac610d4860e08d0160c08e01611dbf565b6040516001600160e01b031960e084901b1681526001600160a01b03909116600482015260608d0135602482015260440160408051808303815f875af1158015610d94573d5f803e3d5ffd5b505050506040513d601f19601f82011682018060405250810190610db89190611f81565b9099509750828910801590610dcc57508188115b610dd4575f80fd5b50505050505050915091565b60608167ffffffffffffffff811115610dfb57610dfb611bb9565b604051908082528060200260200182016040528015610e2e57816020015b6060815260200190600190039081610e195790505b5090505f5b82811015610ec157610e9c30858584818110610e5157610e51611f48565b9050602002810190610e639190611e2c565b8080601f0160208091040260200160405190810160405280939291908181526020018383808284375f920191909152506114aa92505050565b828281518110610eae57610eae611f48565b6020908102919091010152600101610e33565b5092915050565b5f805f80610ed98560200151611266565b9250925092505f610eeb848484611032565b90505f836001600160a01b0316856001600160a01b03161090505f80836001600160a01b03166325a12ac16040518060a00160405280610f2a8f61157a565b81526020015f815260200186151581526020018d6001600160a01b031681526020018c604051602001610f5d9190611fa3565b6040516020818303038152906040528152506040518263ffffffff1660e01b8152600401610f8b9190611fd7565b60408051808303815f875af1158015610fa6573d5f803e3d5ffd5b505050506040513d601f19601f82011682018060405250810190610fca9190611f81565b915091505f8213610fe357610fde816112a1565b610fec565b610fec826112a1565b9b9a5050505050505050505050565b5f805f836001600160a01b0316856001600160a01b03161061101f5783855f611024565b848460015b919790965090945092505050565b60405163567b660d60e11b81526001600160a01b038481166004830152838116602483015263ffffffff831660448301525f917f00000000000000000000000000000000000000000000000000000000000000009091169063acf6cc1a90606401602060405180830381865afa1580156110ae573d5f803e3d5ffd5b505050506040513d601f19601f820116820180604052508101906110d29190612023565b90506001600160a01b03811661111b5760405162461bcd60e51b815260206004820152600e60248201526d141bdbdb081b9bdd08199bdd5b9960921b60448201526064016102c9565b9392505050565b610c726001600160a01b0385168484846115a6565b5f805f806111488560200151611266565b9250925092505f61115a838584611032565b90505f846001600160a01b0316846001600160a01b03161090505f80836001600160a01b03166325a12ac16040518060a001604052806111998f61157a565b6111a290611f1b565b81526020015f19815260200186151581526020018d6001600160a01b031681526020018c6040516020016111d69190611fa3565b6040516020818303038152906040528152506040518263ffffffff1660e01b81526004016112049190611fd7565b60408051808303815f875af115801561121f573d5f803e3d5ffd5b505050506040513d601f19601f820116820180604052508101906112439190611f81565b915091505f821261125a57610fde61081282611f1b565b610fec61081283611f1b565b5f8080611273848261160d565b9250611280846014611671565b90506112986112916004601461203e565b859061160d565b91509193909250565b5f808212156112c657604051635467221960e11b8152600481018390526024016102c9565b5090565b7f00000000000000000000000000000000000000000000000000000000000000006001600160a01b0316846001600160a01b031614801561130b5750804710155b15611417577f00000000000000000000000000000000000000000000000000000000000000006001600160a01b031663d0e30db0826040518263ffffffff1660e01b81526004015f604051808303818588803b158015611369575f80fd5b505af115801561137b573d5f803e3d5ffd5b505060405163a9059cbb60e01b81526001600160a01b038681166004830152602482018690527f000000000000000000000000000000000000000000000000000000000000000016935063a9059cbb925060440190506020604051808303815f875af11580156113ed573d5f803e3d5ffd5b505050506040513d601f19601f820116820180604052508101906114119190612051565b50610c72565b306001600160a01b038416036111225761143b6001600160a01b03851683836116cd565b610c72565b5f61144d6004601461203e565b601461145a60048261203e565b611464919061203e565b61146e919061203e565b825110159050919050565b60606109ad61148a6004601461203e565b6114966004601461203e565b84516114a29190611f35565b8491906116fe565b60605f80846001600160a01b0316846040516114c69190612070565b5f60405180830381855af49150503d805f81146114fe576040519150601f19603f3d011682016040523d82523d5f602084013e611503565b606091505b509150915061151385838361180a565b95945050505050565b60405181151560248201526104169060440160408051601f198184030181529190526020810180516001600160e01b03166332458eed60e01b179052611866565b60606109ad5f601461157060048261203e565b6114a2919061203e565b5f6001600160ff1b038211156112c65760405163123baf0360e11b8152600481018390526024016102c9565b6040516001600160a01b038481166024830152838116604483015260648201839052610c729186918216906323b872dd906084015b604051602081830303815290604052915060e01b6020820180516001600160e01b03838183161783525050505061186f565b5f61161982601461203e565b835110156116615760405162461bcd60e51b8152602060048201526015602482015274746f416464726573735f6f75744f66426f756e647360581b60448201526064016102c9565b500160200151600160601b900490565b5f61167d82600461203e565b835110156116c45760405162461bcd60e51b8152602060048201526014602482015273746f55696e7433325f6f75744f66426f756e647360601b60448201526064016102c9565b50016004015190565b6040516001600160a01b03838116602483015260448201839052610c7491859182169063a9059cbb906064016115db565b60608161170c81601f61203e565b101561174b5760405162461bcd60e51b815260206004820152600e60248201526d736c6963655f6f766572666c6f7760901b60448201526064016102c9565b611755828461203e565b845110156117995760405162461bcd60e51b8152602060048201526011602482015270736c6963655f6f75744f66426f756e647360781b60448201526064016102c9565b6060821580156117b75760405191505f825260208201604052611801565b6040519150601f8416801560200281840101858101878315602002848b0101015b818310156117f05780518352602092830192016117d8565b5050858452601f01601f1916604052505b50949350505050565b60608261181f5761181a826118d0565b61111b565b815115801561183657506001600160a01b0384163b155b1561185f57604051639996b31560e01b81526001600160a01b03851660048201526024016102c9565b508061111b565b610416816118f9565b5f6118836001600160a01b03841683611918565b905080515f141580156118a75750808060200190518101906118a59190612051565b155b15610c7457604051635274afe760e01b81526001600160a01b03841660048201526024016102c9565b8051156118e05780518082602001fd5b604051630a12f52160e11b815260040160405180910390fd5b5f6a636f6e736f6c652e6c6f6790505f80835160208501845afa505050565b606061111b83835f845f80856001600160a01b0316848660405161193c9190612070565b5f6040518083038185875af1925050503d805f8114611976576040519150601f19603f3d011682016040523d82523d5f602084013e61197b565b606091505b509150915061198b86838361180a565b9695505050505050565b5f60e082840312156103b6575f80fd5b5f60e082840312156119b5575f80fd5b61111b8383611995565b5f61010082840312156103b6575f80fd5b5f61010082840312156119e1575f80fd5b61111b83836119bf565b5f602082840312156119fb575f80fd5b813567ffffffffffffffff811115611a11575f80fd5b820160a0818503121561111b575f80fd5b5f805f8060608587031215611a35575f80fd5b8435935060208501359250604085013567ffffffffffffffff80821115611a5a575f80fd5b818701915087601f830112611a6d575f80fd5b813581811115611a7b575f80fd5b886020828501011115611a8c575f80fd5b95989497505060200194505050565b5f8060208385031215611aac575f80fd5b823567ffffffffffffffff80821115611ac3575f80fd5b818501915085601f830112611ad6575f80fd5b813581811115611ae4575f80fd5b8660208260051b8501011115611af8575f80fd5b60209290920196919550909350505050565b5f5b83811015611b24578181015183820152602001611b0c565b50505f910152565b5f8151808452611b43816020860160208601611b0a565b601f01601f19169290920160200192915050565b5f60208083016020845280855180835260408601915060408160051b8701019250602087015f5b82811015611bac57603f19888603018452611b9a858351611b2c565b94509285019290850190600101611b7e565b5092979650505050505050565b634e487b7160e01b5f52604160045260245ffd5b60405160a0810167ffffffffffffffff81118282101715611bf057611bf0611bb9565b60405290565b6001600160a01b0381168114610416575f80fd5b5f82601f830112611c19575f80fd5b813567ffffffffffffffff80821115611c3457611c34611bb9565b604051601f8301601f19908116603f01168101908282118183101715611c5c57611c5c611bb9565b81604052838152866020858801011115611c74575f80fd5b836020870160208301375f602085830101528094505050505092915050565b803563ffffffff81168114611ca6575f80fd5b919050565b5f60208284031215611cbb575f80fd5b813567ffffffffffffffff80821115611cd2575f80fd5b9083019060a08286031215611ce5575f80fd5b611ced611bcd565b82358152602083013560208201526040830135611d0981611bf6565b6040820152606083013582811115611d1f575f80fd5b611d2b87828601611c0a565b606083015250611d3d60808401611c93565b608082015295945050505050565b5f8060408385031215611d5c575f80fd5b823591506020830135611d6e81611bf6565b809150509250929050565b5f60208284031215611d89575f80fd5b61111b82611c93565b602080825260139082015272151c985b9cd858dd1a5bdb881d1bdbc81bdb19606a1b604082015260600190565b5f60208284031215611dcf575f80fd5b813561111b81611bf6565b606093841b6bffffffffffffffffffffffff19908116825260e09390931b6001600160e01b0319166014820152921b166018820152602c0190565b5f60208284031215611e25575f80fd5b5051919050565b5f808335601e19843603018112611e41575f80fd5b83018035915067ffffffffffffffff821115611e5b575f80fd5b602001915036819003821315611e6f575f80fd5b9250929050565b5f60208284031215611e86575f80fd5b813567ffffffffffffffff80821115611e9d575f80fd5b9083019060408286031215611eb0575f80fd5b604051604081018181108382111715611ecb57611ecb611bb9565b6040528235611ed981611bf6565b8152602083013582811115611eec575f80fd5b611ef887828601611c0a565b60208301525095945050505050565b634e487b7160e01b5f52601160045260245ffd5b5f600160ff1b8201611f2f57611f2f611f07565b505f0390565b818103818111156109ad576109ad611f07565b634e487b7160e01b5f52603260045260245ffd5b828482375f8382015f81528351611f77818360208801611b0a565b0195945050505050565b5f8060408385031215611f92575f80fd5b505080516020909101519092909150565b602080825282516001600160a01b0316828201528201516040808301525f90611fcf6060840182611b2c565b949350505050565b60208152815160208201526020820151604082015260408201511515606082015260018060a01b0360608301511660808201525f608083015160a080840152611fcf60c0840182611b2c565b5f60208284031215612033575f80fd5b815161111b81611bf6565b808201808211156109ad576109ad611f07565b5f60208284031215612061575f80fd5b8151801515811461111b575f80fd5b5f8251612081818460208701611b0a565b919091019291505056fea26469706673582212206b5a287ffbd4712586770ee69cec28a09a1bf51314e84c1ae6390633d19559cf64736f6c63430008170033",
    "sourcePath": "c:/Users/tucuo/OneDrive/Desktop/CiSwap.Contracts/contracts/Router.sol",
    "compiler": {
        "name": "solc",
        "version": "0.8.23+commit.f704f362"
    },
    "functionHashes": {
        "WETH10()": "3fe96d94",
        "addLiquidity((address,address,uint32,uint256,uint256,uint256,address,uint32))": "1c40cf27",
        "exactInput((uint256,uint256,address,bytes,uint32))": "b4033668",
        "exactInputSingle((uint256,uint256,address,address,address,uint32,uint32))": "06da5b79",
        "exactOutput((uint256,uint256,address,bytes,uint32))": "407bfcc6",
        "exactOutputSingle((uint256,uint256,address,address,address,uint32,uint32))": "56088892",
        "factory()": "c45a0155",
        "multicall(bytes[])": "ac9650d8",
        "multicall2(bytes[])": "e452f7de",
        "refundETH()": "12210e8a",
        "removeLiquidity((address,address,uint32,uint256,uint256,uint256,address,uint32))": "de45551e",
        "swapCall(int256,int256,bytes)": "8d4a8419",
        "unwrapWETH10(uint256,address)": "c36c9e6e"
    },
    "gasEstimates": {
        "creation": {
            "codeDepositCost": "1677000",
            "executionCost": "infinite",
            "totalCost": "infinite"
        },
        "external": {
            "WETH10()": "infinite",
            "addLiquidity((address,address,uint32,uint256,uint256,uint256,address,uint32))": "infinite",
            "exactInput((uint256,uint256,address,bytes,uint32))": "infinite",
            "exactInputSingle((uint256,uint256,address,address,address,uint32,uint32))": "infinite",
            "exactOutput((uint256,uint256,address,bytes,uint32))": "infinite",
            "exactOutputSingle((uint256,uint256,address,address,address,uint32,uint32))": "infinite",
            "factory()": "infinite",
            "multicall(bytes[])": "infinite",
            "multicall2(bytes[])": "infinite",
            "refundETH()": "infinite",
            "removeLiquidity((address,address,uint32,uint256,uint256,uint256,address,uint32))": "infinite",
            "swapCall(int256,int256,bytes)": "infinite",
            "unwrapWETH10(uint256,address)": "infinite"
        },
        "internal": {
            "_exactInputInternal(uint256,address,struct Router.SwapCallbackData memory)": "infinite",
            "_exactOutputInternal(uint256,address,struct Router.SwapCallbackData memory)": "infinite"
        }
    }
}