{
    "contractName": "Pool",
    "abi": [
        {
            "inputs": [],
            "stateMutability": "nonpayable",
            "type": "constructor"
        },
        {
            "inputs": [
                {
                    "internalType": "address",
                    "name": "target",
                    "type": "address"
                }
            ],
            "name": "AddressEmptyCode",
            "type": "error"
        },
        {
            "inputs": [
                {
                    "internalType": "address",
                    "name": "account",
                    "type": "address"
                }
            ],
            "name": "AddressInsufficientBalance",
            "type": "error"
        },
        {
            "inputs": [
                {
                    "internalType": "address",
                    "name": "spender",
                    "type": "address"
                },
                {
                    "internalType": "uint256",
                    "name": "allowance",
                    "type": "uint256"
                },
                {
                    "internalType": "uint256",
                    "name": "needed",
                    "type": "uint256"
                }
            ],
            "name": "ERC20InsufficientAllowance",
            "type": "error"
        },
        {
            "inputs": [
                {
                    "internalType": "address",
                    "name": "sender",
                    "type": "address"
                },
                {
                    "internalType": "uint256",
                    "name": "balance",
                    "type": "uint256"
                },
                {
                    "internalType": "uint256",
                    "name": "needed",
                    "type": "uint256"
                }
            ],
            "name": "ERC20InsufficientBalance",
            "type": "error"
        },
        {
            "inputs": [
                {
                    "internalType": "address",
                    "name": "approver",
                    "type": "address"
                }
            ],
            "name": "ERC20InvalidApprover",
            "type": "error"
        },
        {
            "inputs": [
                {
                    "internalType": "address",
                    "name": "receiver",
                    "type": "address"
                }
            ],
            "name": "ERC20InvalidReceiver",
            "type": "error"
        },
        {
            "inputs": [
                {
                    "internalType": "address",
                    "name": "sender",
                    "type": "address"
                }
            ],
            "name": "ERC20InvalidSender",
            "type": "error"
        },
        {
            "inputs": [
                {
                    "internalType": "address",
                    "name": "spender",
                    "type": "address"
                }
            ],
            "name": "ERC20InvalidSpender",
            "type": "error"
        },
        {
            "inputs": [],
            "name": "FailedInnerCall",
            "type": "error"
        },
        {
            "inputs": [],
            "name": "MathOverflowedMulDiv",
            "type": "error"
        },
        {
            "inputs": [
                {
                    "internalType": "address",
                    "name": "owner",
                    "type": "address"
                }
            ],
            "name": "OwnableInvalidOwner",
            "type": "error"
        },
        {
            "inputs": [
                {
                    "internalType": "address",
                    "name": "account",
                    "type": "address"
                }
            ],
            "name": "OwnableUnauthorizedAccount",
            "type": "error"
        },
        {
            "inputs": [
                {
                    "internalType": "int256",
                    "name": "value",
                    "type": "int256"
                }
            ],
            "name": "SafeCastOverflowedIntToUint",
            "type": "error"
        },
        {
            "inputs": [
                {
                    "internalType": "uint256",
                    "name": "value",
                    "type": "uint256"
                }
            ],
            "name": "SafeCastOverflowedUintToInt",
            "type": "error"
        },
        {
            "inputs": [
                {
                    "internalType": "address",
                    "name": "token",
                    "type": "address"
                }
            ],
            "name": "SafeERC20FailedOperation",
            "type": "error"
        },
        {
            "anonymous": false,
            "inputs": [
                {
                    "indexed": true,
                    "internalType": "address",
                    "name": "owner",
                    "type": "address"
                },
                {
                    "indexed": true,
                    "internalType": "address",
                    "name": "spender",
                    "type": "address"
                },
                {
                    "indexed": false,
                    "internalType": "uint256",
                    "name": "value",
                    "type": "uint256"
                }
            ],
            "name": "Approval",
            "type": "event"
        },
        {
            "anonymous": false,
            "inputs": [
                {
                    "indexed": true,
                    "internalType": "address",
                    "name": "sender",
                    "type": "address"
                },
                {
                    "indexed": false,
                    "internalType": "uint256",
                    "name": "amount",
                    "type": "uint256"
                },
                {
                    "indexed": false,
                    "internalType": "uint256",
                    "name": "amount0",
                    "type": "uint256"
                },
                {
                    "indexed": false,
                    "internalType": "uint256",
                    "name": "amount1",
                    "type": "uint256"
                },
                {
                    "indexed": true,
                    "internalType": "address",
                    "name": "recipient",
                    "type": "address"
                }
            ],
            "name": "Burn",
            "type": "event"
        },
        {
            "anonymous": false,
            "inputs": [
                {
                    "indexed": true,
                    "internalType": "address",
                    "name": "sender",
                    "type": "address"
                },
                {
                    "indexed": false,
                    "internalType": "uint256",
                    "name": "amount0",
                    "type": "uint256"
                },
                {
                    "indexed": false,
                    "internalType": "uint256",
                    "name": "amount1",
                    "type": "uint256"
                },
                {
                    "indexed": false,
                    "internalType": "uint256",
                    "name": "paid0",
                    "type": "uint256"
                },
                {
                    "indexed": false,
                    "internalType": "uint256",
                    "name": "paid1",
                    "type": "uint256"
                },
                {
                    "indexed": true,
                    "internalType": "address",
                    "name": "recipient",
                    "type": "address"
                }
            ],
            "name": "Flash",
            "type": "event"
        },
        {
            "anonymous": false,
            "inputs": [],
            "name": "Initialized",
            "type": "event"
        },
        {
            "anonymous": false,
            "inputs": [
                {
                    "indexed": true,
                    "internalType": "address",
                    "name": "sender",
                    "type": "address"
                },
                {
                    "indexed": false,
                    "internalType": "uint256",
                    "name": "amount",
                    "type": "uint256"
                },
                {
                    "indexed": false,
                    "internalType": "uint256",
                    "name": "feeToOwner",
                    "type": "uint256"
                },
                {
                    "indexed": false,
                    "internalType": "uint256",
                    "name": "amount0",
                    "type": "uint256"
                },
                {
                    "indexed": false,
                    "internalType": "uint256",
                    "name": "amount1",
                    "type": "uint256"
                },
                {
                    "indexed": true,
                    "internalType": "address",
                    "name": "recipient",
                    "type": "address"
                }
            ],
            "name": "Mint",
            "type": "event"
        },
        {
            "anonymous": false,
            "inputs": [
                {
                    "indexed": true,
                    "internalType": "address",
                    "name": "previousOwner",
                    "type": "address"
                },
                {
                    "indexed": true,
                    "internalType": "address",
                    "name": "newOwner",
                    "type": "address"
                }
            ],
            "name": "OwnershipTransferred",
            "type": "event"
        },
        {
            "anonymous": false,
            "inputs": [
                {
                    "indexed": true,
                    "internalType": "address",
                    "name": "sender",
                    "type": "address"
                },
                {
                    "indexed": false,
                    "internalType": "int256",
                    "name": "amount0",
                    "type": "int256"
                },
                {
                    "indexed": false,
                    "internalType": "int256",
                    "name": "amount1",
                    "type": "int256"
                },
                {
                    "indexed": true,
                    "internalType": "address",
                    "name": "recipient",
                    "type": "address"
                }
            ],
            "name": "Swap",
            "type": "event"
        },
        {
            "anonymous": false,
            "inputs": [
                {
                    "indexed": false,
                    "internalType": "uint256",
                    "name": "reserve0",
                    "type": "uint256"
                },
                {
                    "indexed": false,
                    "internalType": "uint256",
                    "name": "reserve1",
                    "type": "uint256"
                }
            ],
            "name": "Sync",
            "type": "event"
        },
        {
            "anonymous": false,
            "inputs": [
                {
                    "indexed": true,
                    "internalType": "address",
                    "name": "from",
                    "type": "address"
                },
                {
                    "indexed": true,
                    "internalType": "address",
                    "name": "to",
                    "type": "address"
                },
                {
                    "indexed": false,
                    "internalType": "uint256",
                    "name": "value",
                    "type": "uint256"
                }
            ],
            "name": "Transfer",
            "type": "event"
        },
        {
            "inputs": [
                {
                    "internalType": "address",
                    "name": "owner",
                    "type": "address"
                },
                {
                    "internalType": "address",
                    "name": "spender",
                    "type": "address"
                }
            ],
            "name": "allowance",
            "outputs": [
                {
                    "internalType": "uint256",
                    "name": "",
                    "type": "uint256"
                }
            ],
            "stateMutability": "view",
            "type": "function"
        },
        {
            "inputs": [
                {
                    "internalType": "address",
                    "name": "spender",
                    "type": "address"
                },
                {
                    "internalType": "uint256",
                    "name": "value",
                    "type": "uint256"
                }
            ],
            "name": "approve",
            "outputs": [
                {
                    "internalType": "bool",
                    "name": "",
                    "type": "bool"
                }
            ],
            "stateMutability": "nonpayable",
            "type": "function"
        },
        {
            "inputs": [
                {
                    "internalType": "address",
                    "name": "account",
                    "type": "address"
                }
            ],
            "name": "balanceOf",
            "outputs": [
                {
                    "internalType": "uint256",
                    "name": "",
                    "type": "uint256"
                }
            ],
            "stateMutability": "view",
            "type": "function"
        },
        {
            "inputs": [
                {
                    "internalType": "address",
                    "name": "recipient",
                    "type": "address"
                },
                {
                    "internalType": "uint256",
                    "name": "amount",
                    "type": "uint256"
                }
            ],
            "name": "burn",
            "outputs": [
                {
                    "internalType": "uint256",
                    "name": "amount0",
                    "type": "uint256"
                },
                {
                    "internalType": "uint256",
                    "name": "amount1",
                    "type": "uint256"
                }
            ],
            "stateMutability": "nonpayable",
            "type": "function"
        },
        {
            "inputs": [],
            "name": "config",
            "outputs": [
                {
                    "internalType": "address",
                    "name": "tokenA",
                    "type": "address"
                },
                {
                    "internalType": "address",
                    "name": "tokenB",
                    "type": "address"
                },
                {
                    "internalType": "uint256",
                    "name": "amountA",
                    "type": "uint256"
                },
                {
                    "internalType": "uint256",
                    "name": "amountB",
                    "type": "uint256"
                },
                {
                    "internalType": "uint256",
                    "name": "basePriceAX96",
                    "type": "uint256"
                },
                {
                    "internalType": "uint256",
                    "name": "maxPriceAX96",
                    "type": "uint256"
                }
            ],
            "stateMutability": "view",
            "type": "function"
        },
        {
            "inputs": [],
            "name": "constant0",
            "outputs": [
                {
                    "internalType": "uint256",
                    "name": "",
                    "type": "uint256"
                }
            ],
            "stateMutability": "view",
            "type": "function"
        },
        {
            "inputs": [],
            "name": "constant1",
            "outputs": [
                {
                    "internalType": "uint256",
                    "name": "",
                    "type": "uint256"
                }
            ],
            "stateMutability": "view",
            "type": "function"
        },
        {
            "inputs": [],
            "name": "decimals",
            "outputs": [
                {
                    "internalType": "uint8",
                    "name": "",
                    "type": "uint8"
                }
            ],
            "stateMutability": "view",
            "type": "function"
        },
        {
            "inputs": [],
            "name": "factory",
            "outputs": [
                {
                    "internalType": "address",
                    "name": "",
                    "type": "address"
                }
            ],
            "stateMutability": "view",
            "type": "function"
        },
        {
            "inputs": [],
            "name": "fee",
            "outputs": [
                {
                    "internalType": "uint24",
                    "name": "",
                    "type": "uint24"
                }
            ],
            "stateMutability": "view",
            "type": "function"
        },
        {
            "inputs": [
                {
                    "internalType": "address",
                    "name": "recipient",
                    "type": "address"
                },
                {
                    "internalType": "uint256",
                    "name": "amount0",
                    "type": "uint256"
                },
                {
                    "internalType": "uint256",
                    "name": "amount1",
                    "type": "uint256"
                },
                {
                    "internalType": "bytes",
                    "name": "callback",
                    "type": "bytes"
                }
            ],
            "name": "flash",
            "outputs": [
                {
                    "internalType": "uint256",
                    "name": "paid0",
                    "type": "uint256"
                },
                {
                    "internalType": "uint256",
                    "name": "paid1",
                    "type": "uint256"
                }
            ],
            "stateMutability": "nonpayable",
            "type": "function"
        },
        {
            "inputs": [],
            "name": "initialize",
            "outputs": [],
            "stateMutability": "nonpayable",
            "type": "function"
        },
        {
            "inputs": [
                {
                    "internalType": "address",
                    "name": "recipient",
                    "type": "address"
                }
            ],
            "name": "mint",
            "outputs": [
                {
                    "internalType": "uint256",
                    "name": "amount",
                    "type": "uint256"
                },
                {
                    "internalType": "uint256",
                    "name": "feeToOwner",
                    "type": "uint256"
                }
            ],
            "stateMutability": "nonpayable",
            "type": "function"
        },
        {
            "inputs": [],
            "name": "name",
            "outputs": [
                {
                    "internalType": "string",
                    "name": "",
                    "type": "string"
                }
            ],
            "stateMutability": "view",
            "type": "function"
        },
        {
            "inputs": [
                {
                    "internalType": "uint256",
                    "name": "",
                    "type": "uint256"
                }
            ],
            "name": "observations",
            "outputs": [
                {
                    "internalType": "uint256",
                    "name": "blockTimestamp",
                    "type": "uint256"
                },
                {
                    "internalType": "uint256",
                    "name": "reserve0Cumulative",
                    "type": "uint256"
                },
                {
                    "internalType": "uint256",
                    "name": "reserve1Cumulative",
                    "type": "uint256"
                }
            ],
            "stateMutability": "view",
            "type": "function"
        },
        {
            "inputs": [
                {
                    "internalType": "uint256[]",
                    "name": "secondAgos",
                    "type": "uint256[]"
                }
            ],
            "name": "observe",
            "outputs": [
                {
                    "internalType": "uint256[]",
                    "name": "reserve0Cumulatives",
                    "type": "uint256[]"
                },
                {
                    "internalType": "uint256[]",
                    "name": "reserve1Cumulatives",
                    "type": "uint256[]"
                }
            ],
            "stateMutability": "view",
            "type": "function"
        },
        {
            "inputs": [],
            "name": "owner",
            "outputs": [
                {
                    "internalType": "address",
                    "name": "",
                    "type": "address"
                }
            ],
            "stateMutability": "view",
            "type": "function"
        },
        {
            "inputs": [],
            "name": "renounceOwnership",
            "outputs": [],
            "stateMutability": "nonpayable",
            "type": "function"
        },
        {
            "inputs": [],
            "name": "slot0",
            "outputs": [
                {
                    "internalType": "uint256",
                    "name": "reserve0",
                    "type": "uint256"
                },
                {
                    "internalType": "uint256",
                    "name": "reserve1",
                    "type": "uint256"
                },
                {
                    "internalType": "uint256",
                    "name": "observationCardinality",
                    "type": "uint256"
                },
                {
                    "internalType": "bool",
                    "name": "unlocked",
                    "type": "bool"
                }
            ],
            "stateMutability": "view",
            "type": "function"
        },
        {
            "inputs": [
                {
                    "components": [
                        {
                            "internalType": "int256",
                            "name": "amountSpecified",
                            "type": "int256"
                        },
                        {
                            "internalType": "uint256",
                            "name": "limitAmountCalculated",
                            "type": "uint256"
                        },
                        {
                            "internalType": "bool",
                            "name": "zeroForOne",
                            "type": "bool"
                        },
                        {
                            "internalType": "address",
                            "name": "recipient",
                            "type": "address"
                        },
                        {
                            "internalType": "bytes",
                            "name": "callback",
                            "type": "bytes"
                        }
                    ],
                    "internalType": "struct IPoolActions.SwapParams",
                    "name": "params",
                    "type": "tuple"
                }
            ],
            "name": "swap",
            "outputs": [
                {
                    "internalType": "int256",
                    "name": "amount0",
                    "type": "int256"
                },
                {
                    "internalType": "int256",
                    "name": "amount1",
                    "type": "int256"
                }
            ],
            "stateMutability": "nonpayable",
            "type": "function"
        },
        {
            "inputs": [],
            "name": "symbol",
            "outputs": [
                {
                    "internalType": "string",
                    "name": "",
                    "type": "string"
                }
            ],
            "stateMutability": "view",
            "type": "function"
        },
        {
            "inputs": [],
            "name": "token0",
            "outputs": [
                {
                    "internalType": "address",
                    "name": "",
                    "type": "address"
                }
            ],
            "stateMutability": "view",
            "type": "function"
        },
        {
            "inputs": [],
            "name": "token1",
            "outputs": [
                {
                    "internalType": "address",
                    "name": "",
                    "type": "address"
                }
            ],
            "stateMutability": "view",
            "type": "function"
        },
        {
            "inputs": [],
            "name": "totalSupply",
            "outputs": [
                {
                    "internalType": "uint256",
                    "name": "",
                    "type": "uint256"
                }
            ],
            "stateMutability": "view",
            "type": "function"
        },
        {
            "inputs": [
                {
                    "internalType": "address",
                    "name": "to",
                    "type": "address"
                },
                {
                    "internalType": "uint256",
                    "name": "value",
                    "type": "uint256"
                }
            ],
            "name": "transfer",
            "outputs": [
                {
                    "internalType": "bool",
                    "name": "",
                    "type": "bool"
                }
            ],
            "stateMutability": "nonpayable",
            "type": "function"
        },
        {
            "inputs": [
                {
                    "internalType": "address",
                    "name": "from",
                    "type": "address"
                },
                {
                    "internalType": "address",
                    "name": "to",
                    "type": "address"
                },
                {
                    "internalType": "uint256",
                    "name": "value",
                    "type": "uint256"
                }
            ],
            "name": "transferFrom",
            "outputs": [
                {
                    "internalType": "bool",
                    "name": "",
                    "type": "bool"
                }
            ],
            "stateMutability": "nonpayable",
            "type": "function"
        },
        {
            "inputs": [
                {
                    "internalType": "address",
                    "name": "newOwner",
                    "type": "address"
                }
            ],
            "name": "transferOwnership",
            "outputs": [],
            "stateMutability": "nonpayable",
            "type": "function"
        }
    ],
    "bytecode": "61016060405234801562000011575f80fd5b506040518060400160405280601881526020017f4c69717569646974792050726f766964657220546f6b656e0000000000000000815250604051806040016040528060088152602001672628102a37b5b2b760c11b815250620000796200020b60201b60201c565b6001600160a01b038116620000a757604051631e4fbdf760e01b81525f600482015260240160405180910390fd5b620000b2816200020f565b506004620000c18382620006df565b506005620000d08282620006df565b50503060805250336001600160a01b031663f3778fd86040518163ffffffff1660e01b815260040161010060405180830381865afa15801562000115573d5f803e3d5ffd5b505050506040513d601f19601f820116820180604052508101906200013b9190620007c7565b8051600680546001600160a01b039283166001600160a01b03199182168117909255602084015160078054918516919092168117909155604084015160085560608401516009556080840151600a5560a093840151600b5562ffffff90941660c052931690525f91620001ae916200025e565b6001600160a01b0391821661010052911660e052600a54600b546008546009549394505f938493620001e4939092909162000297565b9150915082620001f6578082620001f9565b81815b6101405261012052506200090c915050565b3390565b5f80546001600160a01b038381166001600160a01b0319831681178455604051919092169283917f8be0079c531659141344cd1fd0a4f28419497f9722a3daafe3b4186f6b6457e09190a35050565b5f805f836001600160a01b0316856001600160a01b031610620002845783855f62000289565b848460015b919790965090945092505050565b5f80620002a6868686620002c1565b9150620002b6868386866200033c565b905094509492505050565b5f80620002dd856c0100000000000000000000000086620003a2565b90505f620002eb8262000467565b90505f620002fa8583620008a8565b905066010000000000005f8062000312838662000568565b915091508162000320575f80fd5b6200032c8185620008d6565b96505050505050505b9392505050565b5f6c0100000000000000000000000081806200037c886200035e8989620008f6565b6200036a9190620008a8565b620003768786620008a8565b62000568565b91509150816200038a575f80fd5b620003968382620008d6565b98975050505050505050565b5f838302815f1985870982811083820303915050805f03620003db57838281620003d057620003d0620008c2565b049250505062000335565b808411620003fc5760405163227bc15360e01b815260040160405180910390fd5b5f848688095f868103871696879004966002600389028118808a02820302808a02820302808a02820302808a02820302808a02820302808a02909103029181900381900460010186841190950394909402919094039290920491909117919091029150509392505050565b5f815f036200047757505f919050565b5f600162000485846200058e565b901c6001901b90506001818481620004a157620004a1620008c2565b048201901c90506001818481620004bc57620004bc620008c2565b048201901c90506001818481620004d757620004d7620008c2565b048201901c90506001818481620004f257620004f2620008c2565b048201901c905060018184816200050d576200050d620008c2565b048201901c90506001818481620005285762000528620008c2565b048201901c90506001818481620005435762000543620008c2565b048201901c90506200033581828581620005615762000561620008c2565b046200062a565b5f80838311156200057e57505f90508062000587565b50600190508183035b9250929050565b5f80608083901c15620005a357608092831c92015b604083901c15620005b657604092831c92015b602083901c15620005c957602092831c92015b601083901c15620005dc57601092831c92015b600883901c15620005ef57600892831c92015b600483901c156200060257600492831c92015b600283901c156200061557600292831c92015b600183901c1562000624576001015b92915050565b5f8183106200063a578162000335565b5090919050565b634e487b7160e01b5f52604160045260245ffd5b600181811c908216806200066a57607f821691505b6020821081036200068957634e487b7160e01b5f52602260045260245ffd5b50919050565b601f821115620006da57805f5260205f20601f840160051c81016020851015620006b65750805b601f840160051c820191505b81811015620006d7575f8155600101620006c2565b50505b505050565b81516001600160401b03811115620006fb57620006fb62000641565b62000713816200070c845462000655565b846200068f565b602080601f83116001811462000749575f8415620007315750858301515b5f19600386901b1c1916600185901b178555620007a3565b5f85815260208120601f198616915b82811015620007795788860151825594840194600190910190840162000758565b50858210156200079757878501515f19600388901b60f8161c191681555b505060018460011b0185555b505050505050565b80516001600160a01b0381168114620007c2575f80fd5b919050565b5f805f838503610100811215620007dc575f80fd5b620007e785620007ab565b9350602085015162ffffff81168114620007ff575f80fd5b925060c0603f198201121562000813575f80fd5b5060405160c081016001600160401b038111828210171562000839576200083962000641565b80604052506200084c60408601620007ab565b81526200085c60608601620007ab565b60208201526080850151604082015260a0850151606082015260c0850151608082015260e085015160a0820152809150509250925092565b634e487b7160e01b5f52601160045260245ffd5b808202811582820484141762000624576200062462000894565b634e487b7160e01b5f52601260045260245ffd5b5f82620008f157634e487b7160e01b5f52601260045260245ffd5b500490565b8082018082111562000624576200062462000894565b60805160a05160c05160e051610100516101205161014051612b22620009f15f395f8181610347015281816107dc015281816111cf01526115be01525f81816104f8015281816107b601528181611197015261158501525f818161043d015281816106d20152818161073a01528181610be801528181611160015261188701525f81816101eb015281816106f30152818161071901528181610bbd0152818161113501526117fe01525f818161049c0152818161088a0152818161095b01528181610cba0152610e2101525f81816104160152610f1f01525f6113d80152612b225ff3fe608060405234801561000f575f80fd5b50600436106101a1575f3560e01c806374d96989116100f3578063c45a015511610093578063ddca3f431161006e578063ddca3f4314610497578063dea96b71146104d2578063e6232320146104f3578063f2fde38b1461051a575f80fd5b8063c45a015514610411578063d21220a714610438578063dd62ed3e1461045f575f80fd5b80638da5cb5b116100ce5780638da5cb5b146103d357806395d89b41146103e35780639dc29fac146103eb578063a9059cbb146103fe575f80fd5b806374d969891461034257806379502c55146103695780638129fc1c146103cb575f80fd5b806325a12ac11161015e578063490e6cbc11610139578063490e6cbc146102ea5780636a627842146102fd57806370a0823114610310578063715018a614610338575f80fd5b806325a12ac114610278578063313ce567146102a05780633850c7bd146102af575f80fd5b806306fdde03146101a5578063095ea7b3146101c35780630dfe1681146101e657806318160ddd1461022557806323b872dd14610237578063252c09d71461024a575b5f80fd5b6101ad61052d565b6040516101ba91906125bd565b60405180910390f35b6101d66101d136600461260a565b6105bd565b60405190151581526020016101ba565b61020d7f000000000000000000000000000000000000000000000000000000000000000081565b6040516001600160a01b0390911681526020016101ba565b6003545b6040519081526020016101ba565b6101d6610245366004612632565b6105d6565b61025d61025836600461266b565b6105fb565b604080519384526020840192909252908201526060016101ba565b61028b610286366004612682565b61062c565b604080519283526020830191909152016101ba565b604051601281526020016101ba565b600d54600e54600f546010546102c89392919060ff1684565b60408051948552602085019390935291830152151560608201526080016101ba565b61028b6102f83660046126b9565b610b94565b61028b61030b366004612745565b610d80565b61022961031e366004612745565b6001600160a01b03165f9081526001602052604090205490565b610340610f09565b005b6102297f000000000000000000000000000000000000000000000000000000000000000081565b600654600754600854600954600a54600b54610393956001600160a01b0390811695169392919086565b604080516001600160a01b039788168152969095166020870152938501929092526060840152608083015260a082015260c0016101ba565b610340610f1c565b5f546001600160a01b031661020d565b6101ad611088565b61028b6103f936600461260a565b611097565b6101d661040c36600461260a565b611274565b61020d7f000000000000000000000000000000000000000000000000000000000000000081565b61020d7f000000000000000000000000000000000000000000000000000000000000000081565b61022961046d36600461275e565b6001600160a01b039182165f90815260026020908152604080832093909416825291909152205490565b6104be7f000000000000000000000000000000000000000000000000000000000000000081565b60405162ffffff90911681526020016101ba565b6104e56104e03660046127a3565b611281565b6040516101ba929190612896565b6102297f000000000000000000000000000000000000000000000000000000000000000081565b610340610528366004612745565b6112a1565b60606004805461053c906128ba565b80601f0160208091040260200160405190810160405280929190818152602001828054610568906128ba565b80156105b35780601f1061058a576101008083540402835291602001916105b3565b820191905f5260205f20905b81548152906001019060200180831161059657829003601f168201915b5050505050905090565b5f336105ca8185856112e3565b60019150505b92915050565b5f336105e38582856112f5565b6105ee858585611370565b60019150505b9392505050565b600c818154811061060a575f80fd5b5f91825260209091206003909102018054600182015460029092015490925083565b6010545f90819060ff1661063e575f80fd5b6010805460ff191690556106506113cd565b6040805160808082018352600d548252600e54602080840191909152600f548385015260105460ff1615156060808501919091528451610100810186525f808252928101839052948501829052840181905290830181905260a0830181905260c0830181905260e0830152906106cc60608601604087016128ff565b610717577f00000000000000000000000000000000000000000000000000000000000000007f000000000000000000000000000000000000000000000000000000000000000061075a565b7f00000000000000000000000000000000000000000000000000000000000000007f00000000000000000000000000000000000000000000000000000000000000005b6001600160a01b03908116602084015216815261077d60608601604087016128ff565b61078d5760208201518251610795565b815160208301515b60a083015260808201525f6107b060608701604088016128ff565b6107da577f00000000000000000000000000000000000000000000000000000000000000006107fc565b7f00000000000000000000000000000000000000000000000000000000000000005b90505f86351380156108d1576108128735611401565b8360400181815250506108b66040518060a0016040528089604001602081019061083c91906128ff565b61084a57866020015161084d565b86515b815260200161086260608b0160408c016128ff565b61086d578651610873565b86602001515b8152602001848152602001856040015181526020017f000000000000000000000000000000000000000000000000000000000000000062ffffff1681525061142a565b60608401819052602088013511156108cc575f80fd5b61099d565b6108e36108de883561292e565b611401565b8360600181815250506109876040518060a0016040528089604001602081019061090d91906128ff565b61091b57866020015161091e565b86515b815260200161093360608b0160408c016128ff565b61093e578651610944565b86602001515b8152602001848152602001856060015181526020017f000000000000000000000000000000000000000000000000000000000000000062ffffff168152506114bb565b604084018190526020880135101561099d575f80fd5b60208301516109c0906109b660808a0160608b01612745565b8560600151611542565b6109d060608801604089016128ff565b6109e6576109e18360600151611556565b6109fc565b6109f38360400151611556565b6109fc9061292e565b9550610a0e60608801604089016128ff565b610a2d57610a1f8360400151611556565b610a289061292e565b610a3a565b610a3a8360600151611556565b94505f610a4a6080890189612948565b90501115610ab45733638d4a84198787610a6760808c018c612948565b6040518563ffffffff1660e01b8152600401610a8694939291906129ba565b5f604051808303815f87803b158015610a9d575f80fd5b505af1158015610aaf573d5f803e3d5ffd5b505050505b5f610abd611582565b90505f610ac86115bb565b90505f610adb60608b0160408c016128ff565b610ae55781610ae7565b825b905085604001518660800151610afd91906129d9565b811015610b08575f80fd5b610b1283836115e5565b610b2260808b0160608c01612745565b6001600160a01b0316336001600160a01b03167f86104e7a79e16fb712c2a4133be3187400bdcaf8d7a74c66f7b75718a83f83718b8b604051610b6f929190918252602082015260400190565b60405180910390a350506010805460ff19166001179055509496939550929350505050565b6010545f90819060ff16610ba6575f80fd5b6010805460ff19169055610bb86113cd565b610be37f00000000000000000000000000000000000000000000000000000000000000008888611542565b610c0e7f00000000000000000000000000000000000000000000000000000000000000008887611542565b60405163e83517b560e01b8152339063e83517b590610c379089908990899089906004016129ba565b5f604051808303815f87803b158015610c4e575f80fd5b505af1158015610c60573d5f803e3d5ffd5b505060408051608081018252600d548152600e546020820152600f549181019190915260105460ff161515606082015291505f9050610c9d611582565b90505f610ca86115bb565b9050610cde835f0151846020015184847f000000000000000000000000000000000000000000000000000000000000000061166f565b610ce6575f80fd5b8251610cf290836129ec565b9450826020015181610d0491906129ec565b9350610d1082826115e5565b604080518a8152602081018a90528082018790526060810186905290516001600160a01b038c169133917f1d940843caa7af592ac83e5e979405c98c9cad66a2a99359615008d6c97d5bc39181900360800190a350506010805460ff191660011790555090969095509350505050565b6010545f90819060ff16610d92575f80fd5b6010805460ff19169055610da46113cd565b5f610dae60035490565b60408051608081018252600d548152600e546020820152600f549181019190915260105460ff16151560608201529091505f610de8611582565b90505f610df36115bb565b8351909150821180610e085750826020015181115b610e10575f80fd5b610e4584845f0151856020015185857f00000000000000000000000000000000000000000000000000000000000000006116b5565b9096509450610e548787611721565b610e6e610e685f546001600160a01b031690565b86611721565b610e7882826115e5565b6001600160a01b038716336001600160a01b03167f265ee4cff6cdf714e68c02e61a7864cf66bc04e372a41b6cc425acbb737cd3958888875f015187610ebe91906129ec565b6020890151610ecd90886129ec565b60408051948552602085019390935291830152606082015260800160405180910390a350506010805460ff191660011790555091939092509050565b610f11611759565b610f1a5f611785565b565b337f00000000000000000000000000000000000000000000000000000000000000006001600160a01b031614610f50575f80fd5b5f610f59611582565b90505f610f646115bb565b60408051606080820183524282525f6020808401828152848601838152600c80546001808201835591865296517fdf6966c971051c3d54ec59162606531493a51404a002842f56009d7e5cf4a8c760039098029788015591517fdf6966c971051c3d54ec59162606531493a51404a002842f56009d7e5cf4a8c8870155517fdf6966c971051c3d54ec59162606531493a51404a002842f56009d7e5cf4a8c99095019490945584516080810186528881529081018690529384018390529201819052600d859055600e839055600f8190556010805460ff19168217905591925061104e84846117d4565b905061105a3082611721565b6040517f5daa87a0e9463431830481fd4b6e3403442dfb9a12b9c07597e9f61d50b633c8905f90a150505050565b60606005805461053c906128ba565b6010545f90819060ff166110a9575f80fd5b6010805460ff191690556110bb6113cd565b5f6110c560035490565b90505f84116110d2575f80fd5b60408051608081018252600d548152600e546020820152600f549181019190915260105460ff16151560608201525f6111096117e7565b90505f611114611870565b905061112b8785855f0151866020015186866118be565b909650945061115b7f00000000000000000000000000000000000000000000000000000000000000008988611542565b6111867f00000000000000000000000000000000000000000000000000000000000000008987611542565b611190338861196b565b5f866111bc7f0000000000000000000000000000000000000000000000000000000000000000856129d9565b6111c691906129ec565b90505f866111f47f0000000000000000000000000000000000000000000000000000000000000000856129d9565b6111fe91906129ec565b905061120a82826115e5565b604080518a8152602081018a905280820189905290516001600160a01b038c169133917fd175a80c109434bb89948928ab2475a6647c94244cb70002197896423c8833639181900360600190a350506010805460ff19166001179055509396929550919350505050565b5f336105ca818585611370565b600f54606090819061129890600c9042908661199f565b91509150915091565b6112a9611759565b6001600160a01b0381166112d757604051631e4fbdf760e01b81525f60048201526024015b60405180910390fd5b6112e081611785565b50565b6112f08383836001611b21565b505050565b6001600160a01b038381165f908152600260209081526040808320938616835292905220545f19811461136a578181101561135c57604051637dc7a0d960e11b81526001600160a01b038416600482015260248101829052604481018390526064016112ce565b61136a84848484035f611b21565b50505050565b6001600160a01b03831661139957604051634b637e8f60e11b81525f60048201526024016112ce565b6001600160a01b0382166113c25760405163ec442f0560e01b81525f60048201526024016112ce565b6112f0838383611bf3565b306001600160a01b037f00000000000000000000000000000000000000000000000000000000000000001614610f1a575f80fd5b5f8082121561142657604051635467221960e11b8152600481018390526024016112ce565b5090565b5f81606001515f0361143a575f80fd5b602082015182515f9161144c916129ff565b90505f8360600151845f015161146291906129d9565b90505f61146f8284612a2a565b90508460400151811015611481575f80fd5b5f81866020015161149291906129ec565b90506114b18660800151620186a06114aa9190612a3d565b8290611d19565b9695505050505050565b5f81606001515f036114cb575f80fd5b5f6114ed8360800151620186a06114e29190612a3d565b606085015190611d2d565b90505f8360200151845f015161150391906129ff565b90505f82856020015161151691906129ec565b90508460400151811015611528575f80fd5b5f6115338383611d41565b86519091506114b190826129ec565b6112f06001600160a01b0384168383611d71565b5f6001600160ff1b038211156114265760405163123baf0360e11b8152600481018390526024016112ce565b5f7f00000000000000000000000000000000000000000000000000000000000000006115ac6117e7565b6115b691906129d9565b905090565b5f7f00000000000000000000000000000000000000000000000000000000000000006115ac611870565b600d829055600e8190556040805160808101825283815260208101839052600f5491810182905260105460ff16151560608201529061162990600c90428686611dc3565b600f55805160208083015160408051938452918301527fcf2aa50876cdfbb541206f89af0ee78d44a2abf8d328e37fa4917f982149848a910160405180910390a1505050565b5f8061167b87876117d4565b90505f61168886866117d4565b90505f6116a261169b86620186a0612a3d565b8390611d19565b9290921015925050505b95945050505050565b5f805f6116c288886117d4565b90505f6116cf87876117d4565b90508181116116dc575f80fd5b5f6116f38b846116ec81866129ec565b9190611ede565b90506117056114aa87620186a0612a3d565b945061171185826129ec565b9350505050965096945050505050565b6001600160a01b03821661174a5760405163ec442f0560e01b81525f60048201526024016112ce565b6117555f8383611bf3565b5050565b5f546001600160a01b03163314610f1a5760405163118cdaa760e01b81523360048201526024016112ce565b5f80546001600160a01b038381166001600160a01b0319831681178455604051919092169283917f8be0079c531659141344cd1fd0a4f28419497f9722a3daafe3b4186f6b6457e09190a35050565b5f6105f46117e283856129ff565b611f9d565b6040516370a0823160e01b81523060048201525f907f00000000000000000000000000000000000000000000000000000000000000006001600160a01b0316906370a08231906024015b602060405180830381865afa15801561184c573d5f803e3d5ffd5b505050506040513d601f19601f820116820180604052508101906115b69190612a60565b6040516370a0823160e01b81523060048201525f907f00000000000000000000000000000000000000000000000000000000000000006001600160a01b0316906370a0823190602401611831565b5f806118cb868989611ede565b91506118d8858989611ede565b90505f6118e582876129ec565b6118ef84896129ec565b6118f991906129ff565b90508483111561192f578492505f61191184896129ec565b61191b9083612a2a565b905061192781886129ec565b92505061195f565b8382111561195f578391505f61194583886129ec565b61194f9083612a2a565b905061195b81896129ec565b9350505b50965096945050505050565b6001600160a01b03821661199457604051634b637e8f60e11b81525f60048201526024016112ce565b611755825f83611bf3565b805160609081908067ffffffffffffffff8111156119bf576119bf61278f565b6040519080825280602002602001820160405280156119e8578160200160208202803683370190505b5092508067ffffffffffffffff811115611a0457611a0461278f565b604051908082528060200260200182016040528015611a2d578160200160208202803683370190505b5091505f87805480602002602001604051908101604052809291908181526020015f905b82821015611a9e578382905f5260205f2090600302016040518060600160405290815f82015481526020016001820154815260200160028201548152505081526020019060010190611a51565b5050505090505f5b82811015611b1557611ad3828989898581518110611ac657611ac6612a77565b6020026020010151612081565b868381518110611ae557611ae5612a77565b60200260200101868481518110611afe57611afe612a77565b602090810291909101019190915252600101611aa6565b50505094509492505050565b6001600160a01b038416611b4a5760405163e602df0560e01b81525f60048201526024016112ce565b6001600160a01b038316611b7357604051634a1406b160e11b81525f60048201526024016112ce565b6001600160a01b038085165f908152600260209081526040808320938716835292905220829055801561136a57826001600160a01b0316846001600160a01b03167f8c5be1e5ebec7d5bd14f71427d1e84f3dd0314c0f7b2291e5b200ac8c7c3b92584604051611be591815260200190565b60405180910390a350505050565b6001600160a01b038316611c1d578060035f828254611c1291906129d9565b90915550611c8d9050565b6001600160a01b0383165f9081526001602052604090205481811015611c6f5760405163391434e360e21b81526001600160a01b038516600482015260248101829052604481018390526064016112ce565b6001600160a01b0384165f9081526001602052604090209082900390555b6001600160a01b038216611ca957600380548290039055611cc7565b6001600160a01b0382165f9081526001602052604090208054820190555b816001600160a01b0316836001600160a01b03167fddf252ad1be2c89b69c2b068fc378daa952ba7f163c4a11628f55a4df523b3ef83604051611d0c91815260200190565b60405180910390a3505050565b5f6105f48362ffffff8416620186a0611ede565b5f6105f483620186a08462ffffff16612149565b5f611d4c8284612a2a565b90505f611d598385612a8b565b11156105d05780611d6981612a9e565b949350505050565b604080516001600160a01b038416602482015260448082018490528251808303909101815260649091019091526020810180516001600160e01b031663a9059cbb60e01b1790526112f0908490612179565b5f8086611dd16001886129ec565b81548110611de157611de1612a77565b905f5260205f2090600302016040518060600160405290815f8201548152602001600182015481526020016002820154815250509050805f01518503611e7d57611e2d818686866121da565b87611e396001896129ec565b81548110611e4957611e49612a77565b905f5260205f2090600302015f820151815f01556020820151816001015560408201518160020155905050859150506116ac565b611e89818686866121da565b878781548110611e9b57611e9b612a77565b905f5260205f2090600302015f820151815f01556020820151816001015560408201518160020155905050856001611ed391906129d9565b979650505050505050565b5f838302815f1985870982811083820303915050805f03611f1257838281611f0857611f08612a16565b04925050506105f4565b808411611f325760405163227bc15360e01b815260040160405180910390fd5b5f848688095f868103871696879004966002600389028118808a02820302808a02820302808a02820302808a02820302808a02820302808a02909103029181900381900460010186841190950394909402919094039290920491909117919091029150509392505050565b5f815f03611fac57505f919050565b5f6001611fb884612261565b901c6001901b90506001818481611fd157611fd1612a16565b048201901c90506001818481611fe957611fe9612a16565b048201901c9050600181848161200157612001612a16565b048201901c9050600181848161201957612019612a16565b048201901c9050600181848161203157612031612a16565b048201901c9050600181848161204957612049612a16565b048201901c9050600181848161206157612061612a16565b048201901c90506105f48182858161207b5761207b612a16565b046122f4565b5f808061208e84876129ec565b90505f8061209d898489612309565b8051825192945090925090036120c3578060200151816040015194509450505050612140565b81515f906120d190856129ec565b835183519192505f916120e491906129ec565b90506120ff8282866020015186602001516116ec91906129ec565b846020015161210e91906129d9565b6121278383876040015187604001516116ec91906129ec565b856040015161213691906129d9565b9650965050505050505b94509492505050565b5f612155848484611ede565b90505f828061216657612166612a16565b84860911156105f457806116ac81612a9e565b5f61218d6001600160a01b03841683612465565b905080515f141580156121b15750808060200190518101906121af9190612ab6565b155b156112f057604051635274afe760e01b81526001600160a01b03841660048201526024016112ce565b6121fb60405180606001604052805f81526020015f81526020015f81525090565b84515f9061220990866129ec565b90506040518060600160405280868152602001828661222891906129ff565b886020015161223791906129d9565b815260200161224683866129ff565b886040015161225591906129d9565b90529695505050505050565b5f80608083901c1561227557608092831c92015b604083901c1561228757604092831c92015b602083901c1561229957602092831c92015b601083901c156122ab57601092831c92015b600883901c156122bd57600892831c92015b600483901c156122cf57600492831c92015b600283901c156122e157600292831c92015b600183901c156105d05760010192915050565b5f81831061230257816105f4565b5090919050565b61232a60405180606001604052805f81526020015f81526020015f81525090565b61234b60405180606001604052805f81526020015f81526020015f81525090565b600285511015612359575f80fd5b5f855f8151811061236c5761236c612a77565b602002602001015190505f8660018661238591906129ec565b8151811061239557612395612a77565b60200260200101519050805f01518611156123b657925082915061245d9050565b8151861061245a575f806123cb6001886129ec565b90505f5b6123d98383612472565b90508981815181106123ed576123ed612a77565b6020026020010151965088875f015111156124145761240d8160016129d9565b92506123cf565b896124208260016129d9565b8151811061243057612430612a77565b6020026020010151955088865f0151116124565761244f6001826129ec565b91506123cf565b5050505b50505b935093915050565b60606105f483835f61248c565b5f6124806002848418612a2a565b6105f4908484166129d9565b6060814710156124b15760405163cd78605960e01b81523060048201526024016112ce565b5f80856001600160a01b031684866040516124cc9190612ad1565b5f6040518083038185875af1925050503d805f8114612506576040519150601f19603f3d011682016040523d82523d5f602084013e61250b565b606091505b50915091506114b186838360608261252b5761252682612572565b6105f4565b815115801561254257506001600160a01b0384163b155b1561256b57604051639996b31560e01b81526001600160a01b03851660048201526024016112ce565b50806105f4565b8051156125825780518082602001fd5b604051630a12f52160e11b815260040160405180910390fd5b5f5b838110156125b557818101518382015260200161259d565b50505f910152565b602081525f82518060208401526125db81604085016020870161259b565b601f01601f19169190910160400192915050565b80356001600160a01b0381168114612605575f80fd5b919050565b5f806040838503121561261b575f80fd5b612624836125ef565b946020939093013593505050565b5f805f60608486031215612644575f80fd5b61264d846125ef565b925061265b602085016125ef565b9150604084013590509250925092565b5f6020828403121561267b575f80fd5b5035919050565b5f60208284031215612692575f80fd5b813567ffffffffffffffff8111156126a8575f80fd5b820160a081850312156105f4575f80fd5b5f805f805f608086880312156126cd575f80fd5b6126d6866125ef565b94506020860135935060408601359250606086013567ffffffffffffffff80821115612700575f80fd5b818801915088601f830112612713575f80fd5b813581811115612721575f80fd5b896020828501011115612732575f80fd5b9699959850939650602001949392505050565b5f60208284031215612755575f80fd5b6105f4826125ef565b5f806040838503121561276f575f80fd5b612778836125ef565b9150612786602084016125ef565b90509250929050565b634e487b7160e01b5f52604160045260245ffd5b5f60208083850312156127b4575f80fd5b823567ffffffffffffffff808211156127cb575f80fd5b818501915085601f8301126127de575f80fd5b8135818111156127f0576127f061278f565b8060051b604051601f19603f830116810181811085821117156128155761281561278f565b604052918252848201925083810185019188831115612832575f80fd5b938501935b8285101561285057843584529385019392850192612837565b98975050505050505050565b5f815180845260208085019450602084015f5b8381101561288b5781518752958201959082019060010161286f565b509495945050505050565b604081525f6128a8604083018561285c565b82810360208401526116ac818561285c565b600181811c908216806128ce57607f821691505b6020821081036128ec57634e487b7160e01b5f52602260045260245ffd5b50919050565b80151581146112e0575f80fd5b5f6020828403121561290f575f80fd5b81356105f4816128f2565b634e487b7160e01b5f52601160045260245ffd5b5f600160ff1b82016129425761294261291a565b505f0390565b5f808335601e1984360301811261295d575f80fd5b83018035915067ffffffffffffffff821115612977575f80fd5b60200191503681900382131561298b575f80fd5b9250929050565b81835281816020850137505f828201602090810191909152601f909101601f19169091010190565b848152836020820152606060408201525f6114b1606083018486612992565b808201808211156105d0576105d061291a565b818103818111156105d0576105d061291a565b80820281158282048414176105d0576105d061291a565b634e487b7160e01b5f52601260045260245ffd5b5f82612a3857612a38612a16565b500490565b62ffffff828116828216039080821115612a5957612a5961291a565b5092915050565b5f60208284031215612a70575f80fd5b5051919050565b634e487b7160e01b5f52603260045260245ffd5b5f82612a9957612a99612a16565b500690565b5f60018201612aaf57612aaf61291a565b5060010190565b5f60208284031215612ac6575f80fd5b81516105f4816128f2565b5f8251612ae281846020870161259b565b919091019291505056fea26469706673582212207bf532fea207282de166330769aae32d589efb302744067ff3eedcd91b5d3f7364736f6c63430008170033",
    "sourcePath": "c:/Users/tucuo/OneDrive/Desktop/CiSwap.Contracts/contracts/main/core/Pool.sol",
    "compiler": {
        "name": "solc",
        "version": "0.8.23+commit.f704f362"
    },
    "functionHashes": {
        "allowance(address,address)": "dd62ed3e",
        "approve(address,uint256)": "095ea7b3",
        "balanceOf(address)": "70a08231",
        "burn(address,uint256)": "9dc29fac",
        "config()": "79502c55",
        "constant0()": "e6232320",
        "constant1()": "74d96989",
        "decimals()": "313ce567",
        "factory()": "c45a0155",
        "fee()": "ddca3f43",
        "flash(address,uint256,uint256,bytes)": "490e6cbc",
        "initialize()": "8129fc1c",
        "mint(address)": "6a627842",
        "name()": "06fdde03",
        "observations(uint256)": "252c09d7",
        "observe(uint256[])": "dea96b71",
        "owner()": "8da5cb5b",
        "renounceOwnership()": "715018a6",
        "slot0()": "3850c7bd",
        "swap((int256,uint256,bool,address,bytes))": "25a12ac1",
        "symbol()": "95d89b41",
        "token0()": "0dfe1681",
        "token1()": "d21220a7",
        "totalSupply()": "18160ddd",
        "transfer(address,uint256)": "a9059cbb",
        "transferFrom(address,address,uint256)": "23b872dd",
        "transferOwnership(address)": "f2fde38b"
    },
    "gasEstimates": {
        "creation": {
            "codeDepositCost": "2208400",
            "executionCost": "infinite",
            "totalCost": "infinite"
        },
        "external": {
            "allowance(address,address)": "infinite",
            "approve(address,uint256)": "24758",
            "balanceOf(address)": "2623",
            "burn(address,uint256)": "infinite",
            "config()": "13042",
            "constant0()": "infinite",
            "constant1()": "infinite",
            "decimals()": "244",
            "factory()": "infinite",
            "fee()": "infinite",
            "flash(address,uint256,uint256,bytes)": "infinite",
            "initialize()": "infinite",
            "mint(address)": "infinite",
            "name()": "infinite",
            "observations(uint256)": "8989",
            "observe(uint256[])": "infinite",
            "owner()": "2374",
            "renounceOwnership()": "infinite",
            "slot0()": "8774",
            "swap((int256,uint256,bool,address,bytes))": "infinite",
            "symbol()": "infinite",
            "token0()": "infinite",
            "token1()": "infinite",
            "totalSupply()": "2370",
            "transfer(address,uint256)": "51318",
            "transferFrom(address,address,uint256)": "infinite",
            "transferOwnership(address)": "28439"
        },
        "internal": {
            "_adjusted0()": "infinite",
            "_adjusted1()": "infinite",
            "_balance0()": "infinite",
            "_balance1()": "infinite",
            "_update(uint256,uint256)": "infinite"
        }
    }
}