{
    "contractName": "OracleAggregator",
    "abi": [
        {
            "inputs": [
                {
                    "internalType": "address",
                    "name": "_factory",
                    "type": "address"
                },
                {
                    "internalType": "address",
                    "name": "_WETH10",
                    "type": "address"
                }
            ],
            "stateMutability": "nonpayable",
            "type": "constructor"
        },
        {
            "inputs": [],
            "name": "WETH10",
            "outputs": [
                {
                    "internalType": "address",
                    "name": "",
                    "type": "address"
                }
            ],
            "stateMutability": "view",
            "type": "function"
        },
        {
            "inputs": [
                {
                    "internalType": "uint256",
                    "name": "secondOffset",
                    "type": "uint256"
                },
                {
                    "internalType": "uint16",
                    "name": "numberOfSnapshots",
                    "type": "uint16"
                },
                {
                    "internalType": "bytes",
                    "name": "path",
                    "type": "bytes"
                }
            ],
            "name": "aggregatePriceX96",
            "outputs": [
                {
                    "internalType": "uint256[]",
                    "name": "priceX96s",
                    "type": "uint256[]"
                }
            ],
            "stateMutability": "view",
            "type": "function"
        },
        {
            "inputs": [],
            "name": "factory",
            "outputs": [
                {
                    "internalType": "address",
                    "name": "",
                    "type": "address"
                }
            ],
            "stateMutability": "view",
            "type": "function"
        }
    ],
    "bytecode": "60c060405234801561000f575f80fd5b50604051610c1e380380610c1e83398101604081905261002e91610060565b6001600160a01b039182166080521660a052610091565b80516001600160a01b038116811461005b575f80fd5b919050565b5f8060408385031215610071575f80fd5b61007a83610045565b915061008860208401610045565b90509250929050565b60805160a051610b676100b75f395f607101525f818160b001526105390152610b675ff3fe608060405234801561000f575f80fd5b506004361061003f575f3560e01c806336d56c48146100435780633fe96d941461006c578063c45a0155146100ab575b5f80fd5b610056610051366004610841565b6100d2565b60405161006391906108f1565b60405180910390f35b6100937f000000000000000000000000000000000000000000000000000000000000000081565b6040516001600160a01b039091168152602001610063565b6100937f000000000000000000000000000000000000000000000000000000000000000081565b60608261ffff1667ffffffffffffffff8111156100f1576100f16107fc565b60405190808252806020026020018201604052801561011a578160200160208202803683370190505b5090505f5b8361ffff168161ffff16101561049e575b610139836104a6565b15610496575f805f61014a866104c9565b919450925090506001600160a01b03808316908416105f61016c858585610504565b90505f816001600160a01b031663ddca3f436040518163ffffffff1660e01b8152600401602060405180830381865afa1580156101ab573d5f803e3d5ffd5b505050506040513d601f19601f820116820180604052508101906101cf9190610934565b90508661ffff165f036102cd578261024657816001600160a01b031663c806a79e6040518163ffffffff1660e01b8152600401602060405180830381865afa15801561021d573d5f803e3d5ffd5b505050506040513d601f19601f820116820180604052508101906102419190610956565b6102a6565b816001600160a01b0316634fa1323d6040518163ffffffff1660e01b8152600401602060405180830381865afa158015610282573d5f803e3d5ffd5b505050506040513d601f19601f820116820180604052508101906102a69190610956565b888861ffff16815181106102bc576102bc61096d565b602002602001018181525050610480565b6040805160028082526060820183525f926020830190803683370190505090508b6102f960018a610995565b61ffff1661030791906109b7565b8c6103138a60016109ce565b61ffff1661032191906109b7565b825f815181106103335761033361096d565b602002602001018360018151811061034d5761034d61096d565b60209081029190910101919091525260405163dea96b7160e01b81525f9081906001600160a01b0386169063dea96b719061038c9086906004016108f1565b5f60405180830381865afa1580156103a6573d5f803e3d5ffd5b505050506040513d5f823e601f3d908101601f191682016040526103cd9190810190610a66565b90925090505f6103de8f60026109b7565b90505f81846001815181106103f5576103f561096d565b6020026020010151855f8151811061040f5761040f61096d565b60200260200101516104219190610ac6565b61042b9190610ad9565b90505f82846001815181106104425761044261096d565b6020026020010151855f8151811061045c5761045c61096d565b602002602001015161046e9190610ac6565b6104789190610ad9565b505050505050505b610489896105f9565b9850505050505050610130565b60010161011f565b509392505050565b5f60146104b4600482610af8565b6104be9190610af8565b825110159050919050565b5f80806104d68482610630565b92506104e3846014610694565b90506104fb6104f460046014610af8565b8590610630565b91509193909250565b60405163567b660d60e11b81526001600160a01b038481166004830152838116602483015263ffffffff831660448301525f917f00000000000000000000000000000000000000000000000000000000000000009091169063acf6cc1a90606401602060405180830381865afa158015610580573d5f803e3d5ffd5b505050506040513d601f19601f820116820180604052508101906105a49190610b0b565b90506001600160a01b0381166105f25760405162461bcd60e51b815260206004820152600e60248201526d141bdbdb081b9bdd08199bdd5b9960921b60448201526064015b60405180910390fd5b9392505050565b606061062a61060a60046014610af8565b61061660046014610af8565b84516106229190610ac6565b8491906106f0565b92915050565b5f61063c826014610af8565b835110156106845760405162461bcd60e51b8152602060048201526015602482015274746f416464726573735f6f75744f66426f756e647360581b60448201526064016105e9565b500160200151600160601b900490565b5f6106a0826004610af8565b835110156106e75760405162461bcd60e51b8152602060048201526014602482015273746f55696e7433325f6f75744f66426f756e647360601b60448201526064016105e9565b50016004015190565b6060816106fe81601f610af8565b101561073d5760405162461bcd60e51b815260206004820152600e60248201526d736c6963655f6f766572666c6f7760901b60448201526064016105e9565b6107478284610af8565b8451101561078b5760405162461bcd60e51b8152602060048201526011602482015270736c6963655f6f75744f66426f756e647360781b60448201526064016105e9565b6060821580156107a95760405191505f8252602082016040526107f3565b6040519150601f8416801560200281840101858101878315602002848b0101015b818310156107e25780518352602092830192016107ca565b5050858452601f01601f1916604052505b50949350505050565b634e487b7160e01b5f52604160045260245ffd5b604051601f8201601f1916810167ffffffffffffffff81118282101715610839576108396107fc565b604052919050565b5f805f60608486031215610853575f80fd5b8335925060208085013561ffff8116811461086c575f80fd5b9250604085013567ffffffffffffffff80821115610888575f80fd5b818701915087601f83011261089b575f80fd5b8135818111156108ad576108ad6107fc565b6108bf601f8201601f19168501610810565b915080825288848285010111156108d4575f80fd5b80848401858401375f848284010152508093505050509250925092565b602080825282518282018190525f9190848201906040850190845b818110156109285783518352928401929184019160010161090c565b50909695505050505050565b5f60208284031215610944575f80fd5b815162ffffff811681146105f2575f80fd5b5f60208284031215610966575f80fd5b5051919050565b634e487b7160e01b5f52603260045260245ffd5b634e487b7160e01b5f52601160045260245ffd5b61ffff8281168282160390808211156109b0576109b0610981565b5092915050565b808202811582820484141761062a5761062a610981565b61ffff8181168382160190808211156109b0576109b0610981565b5f82601f8301126109f8575f80fd5b8151602067ffffffffffffffff821115610a1457610a146107fc565b8160051b610a23828201610810565b9283528481018201928281019087851115610a3c575f80fd5b83870192505b84831015610a5b57825182529183019190830190610a42565b979650505050505050565b5f8060408385031215610a77575f80fd5b825167ffffffffffffffff80821115610a8e575f80fd5b610a9a868387016109e9565b93506020850151915080821115610aaf575f80fd5b50610abc858286016109e9565b9150509250929050565b8181038181111561062a5761062a610981565b5f82610af357634e487b7160e01b5f52601260045260245ffd5b500490565b8082018082111561062a5761062a610981565b5f60208284031215610b1b575f80fd5b81516001600160a01b03811681146105f2575f80fdfea264697066735822122041312b3e0ccb88283300276d7201ccea752dc53b4a8e5c9ec376f3a54e4af06c64736f6c63430008170033",
    "sourcePath": "c:/Users/tucuo/OneDrive/Desktop/CiSwap.Contracts/contracts/periphery/OracleAggregator.sol",
    "compiler": {
        "name": "solc",
        "version": "0.8.23+commit.f704f362"
    },
    "functionHashes": {
        "WETH10()": "3fe96d94",
        "aggregatePriceX96(uint256,uint16,bytes)": "36d56c48",
        "factory()": "c45a0155"
    },
    "gasEstimates": {
        "creation": {
            "codeDepositCost": "583800",
            "executionCost": "infinite",
            "totalCost": "infinite"
        },
        "external": {
            "WETH10()": "infinite",
            "aggregatePriceX96(uint256,uint16,bytes)": "infinite",
            "factory()": "infinite"
        }
    }
}