{
    "contractName": "Quoter",
    "abi": [
        {
            "inputs": [
                {
                    "internalType": "address",
                    "name": "_factory",
                    "type": "address"
                },
                {
                    "internalType": "address",
                    "name": "_WETH10",
                    "type": "address"
                }
            ],
            "stateMutability": "nonpayable",
            "type": "constructor"
        },
        {
            "inputs": [
                {
                    "internalType": "int256",
                    "name": "value",
                    "type": "int256"
                }
            ],
            "name": "SafeCastOverflowedIntToUint",
            "type": "error"
        },
        {
            "inputs": [
                {
                    "internalType": "uint256",
                    "name": "value",
                    "type": "uint256"
                }
            ],
            "name": "SafeCastOverflowedUintToInt",
            "type": "error"
        },
        {
            "inputs": [],
            "name": "WETH10",
            "outputs": [
                {
                    "internalType": "address",
                    "name": "",
                    "type": "address"
                }
            ],
            "stateMutability": "view",
            "type": "function"
        },
        {
            "inputs": [],
            "name": "factory",
            "outputs": [
                {
                    "internalType": "address",
                    "name": "",
                    "type": "address"
                }
            ],
            "stateMutability": "view",
            "type": "function"
        },
        {
            "inputs": [
                {
                    "internalType": "bytes",
                    "name": "path",
                    "type": "bytes"
                },
                {
                    "internalType": "uint256",
                    "name": "amountIn",
                    "type": "uint256"
                }
            ],
            "name": "quoteExactInput",
            "outputs": [
                {
                    "internalType": "uint256",
                    "name": "amountOut",
                    "type": "uint256"
                }
            ],
            "stateMutability": "nonpayable",
            "type": "function"
        },
        {
            "inputs": [
                {
                    "internalType": "address",
                    "name": "tokenIn",
                    "type": "address"
                },
                {
                    "internalType": "address",
                    "name": "tokenOut",
                    "type": "address"
                },
                {
                    "internalType": "uint32",
                    "name": "indexPool",
                    "type": "uint32"
                },
                {
                    "internalType": "uint256",
                    "name": "amountIn",
                    "type": "uint256"
                }
            ],
            "name": "quoteExactInputSingle",
            "outputs": [
                {
                    "internalType": "uint256",
                    "name": "amountOut",
                    "type": "uint256"
                }
            ],
            "stateMutability": "nonpayable",
            "type": "function"
        },
        {
            "inputs": [
                {
                    "internalType": "bytes",
                    "name": "path",
                    "type": "bytes"
                },
                {
                    "internalType": "uint256",
                    "name": "amountOut",
                    "type": "uint256"
                }
            ],
            "name": "quoteExactOutput",
            "outputs": [
                {
                    "internalType": "uint256",
                    "name": "amountIn",
                    "type": "uint256"
                }
            ],
            "stateMutability": "nonpayable",
            "type": "function"
        },
        {
            "inputs": [
                {
                    "internalType": "address",
                    "name": "tokenIn",
                    "type": "address"
                },
                {
                    "internalType": "address",
                    "name": "tokenOut",
                    "type": "address"
                },
                {
                    "internalType": "uint32",
                    "name": "indexPool",
                    "type": "uint32"
                },
                {
                    "internalType": "uint256",
                    "name": "amountOut",
                    "type": "uint256"
                }
            ],
            "name": "quoteExactOutputSingle",
            "outputs": [
                {
                    "internalType": "uint256",
                    "name": "amountIn",
                    "type": "uint256"
                }
            ],
            "stateMutability": "nonpayable",
            "type": "function"
        },
        {
            "inputs": [
                {
                    "internalType": "int256",
                    "name": "amount0Delta",
                    "type": "int256"
                },
                {
                    "internalType": "int256",
                    "name": "amount1Delta",
                    "type": "int256"
                },
                {
                    "internalType": "bytes",
                    "name": "callback",
                    "type": "bytes"
                }
            ],
            "name": "swapCall",
            "outputs": [],
            "stateMutability": "view",
            "type": "function"
        }
    ],
    "bytecode": "60c060405234801561000f575f80fd5b50604051610ee6380380610ee683398101604081905261002e91610060565b6001600160a01b039182166080521660a052610091565b80516001600160a01b038116811461005b575f80fd5b919050565b5f8060408385031215610071575f80fd5b61007a83610045565b915061008860208401610045565b90509250929050565b60805160a051610e2e6100b85f395f60a901525f818161011001526106560152610e2e5ff3fe608060405234801561000f575f80fd5b506004361061007a575f3560e01c80638ff62d55116100585780638ff62d55146100f8578063c45a01551461010b578063cdca175314610132578063d0ebe05814610145575f80fd5b80632f80bb1d1461007e5780633fe96d94146100a45780638d4a8419146100e3575b5f80fd5b61009161008c366004610a78565b610158565b6040519081526020015b60405180910390f35b6100cb7f000000000000000000000000000000000000000000000000000000000000000081565b6040516001600160a01b03909116815260200161009b565b6100f66100f1366004610af4565b6101b7565b005b610091610106366004610b81565b6102ab565b6100cb7f000000000000000000000000000000000000000000000000000000000000000081565b610091610140366004610a78565b61040f565b610091610153366004610b81565b610457565b5f5b5f6101648461057c565b90505f805f610172876105b5565b92509250925061018482848389610457565b9550831561019c57610195876105f0565b96506101a8565b859450505050506101b1565b5050505061015a565b92915050565b5f8413806101c457505f83135b6101cc575f80fd5b5f805f61020d85858080601f0160208091040260200160405190810160405280939291908181526020018383808284375f920191909152506105b592505050565b92509250925061021e838383610621565b505f805f808a1261025e57856001600160a01b0316856001600160a01b0316106102508a61024b90610beb565b6106dc565b6102598c6106dc565b610289565b846001600160a01b0316866001600160a01b0316106102808b61024b90610beb565b6102898b6106dc565b92509250925082156102a057604051818152602081fd5b604051828152602081fd5b5f6001600160a01b0380851690861610816102c7878787610621565b9050806001600160a01b03166325a12ac16040518060a001604052806102ec8861070a565b81526020015f81526020018515158152602001306001600160a01b031681526020018a898b60405160200161032393929190610c05565b6040516020818303038152906040528152506040518263ffffffff1660e01b81526004016103519190610c8d565b60408051808303815f875af192505050801561038a575060408051601f3d908101601f1916820190925261038791810190610cd9565b60015b610402573d8080156103b7576040519150601f19603f3d011682016040523d82523d5f602084013e6103bc565b606091505b506103ef604051806040016040528060088152602001676e6f6d6e6120257360c01b8152506103ea83610736565b6107cc565b6103f881610736565b9350505050610407565b505050505b949350505050565b5f5b5f61041b8461057c565b90505f805f610429876105b5565b92509250925061043b838383896102ab565b9550831561019c5761044c876105f0565b965050505050610411565b5f6001600160a01b038085169086161081610473878787610621565b9050806001600160a01b03166325a12ac16040518060a001604052806104988861070a565b6104a190610beb565b81526020015f1981526020018515158152602001306001600160a01b0316815260200189898c6040516020016104d993929190610c05565b6040516020818303038152906040528152506040518263ffffffff1660e01b81526004016105079190610c8d565b60408051808303815f875af1925050508015610540575060408051601f3d908101601f1916820190925261053d91810190610cd9565b60015b610402573d80801561056d576040519150601f19603f3d011682016040523d82523d5f602084013e610572565b606091505b506103f881610736565b5f61058960046014610cfb565b6014610596600482610cfb565b6105a09190610cfb565b6105aa9190610cfb565b825110159050919050565b5f80806105c28482610815565b92506105cf846014610879565b90506105e76105e060046014610cfb565b8590610815565b91509193909250565b60606101b161060160046014610cfb565b61060d60046014610cfb565b84516106199190610d0e565b8491906108d5565b60405163567b660d60e11b81526001600160a01b038481166004830152838116602483015263ffffffff831660448301525f917f00000000000000000000000000000000000000000000000000000000000000009091169063acf6cc1a90606401602060405180830381865afa15801561069d573d5f803e3d5ffd5b505050506040513d601f19601f820116820180604052508101906106c19190610d21565b90506001600160a01b0381166106d5575f80fd5b9392505050565b5f8082121561070657604051635467221960e11b8152600481018390526024015b60405180910390fd5b5090565b5f6001600160ff1b038211156107065760405163123baf0360e11b8152600481018390526024016106fd565b5f81516020146107b8576044825110156107855760405162461bcd60e51b815260206004820152601060248201526f2ab732bc3832b1ba32b21032b93937b960811b60448201526064016106fd565b6004820191508180602001905181019061079f9190610d3c565b60405162461bcd60e51b81526004016106fd9190610dae565b818060200190518101906101b19190610dc0565b61081182826040516024016107e2929190610dd7565b60408051601f198184030181529190526020810180516001600160e01b0316632d839cb360e21b1790526109e1565b5050565b5f610821826014610cfb565b835110156108695760405162461bcd60e51b8152602060048201526015602482015274746f416464726573735f6f75744f66426f756e647360581b60448201526064016106fd565b500160200151600160601b900490565b5f610885826004610cfb565b835110156108cc5760405162461bcd60e51b8152602060048201526014602482015273746f55696e7433325f6f75744f66426f756e647360601b60448201526064016106fd565b50016004015190565b6060816108e381601f610cfb565b10156109225760405162461bcd60e51b815260206004820152600e60248201526d736c6963655f6f766572666c6f7760901b60448201526064016106fd565b61092c8284610cfb565b845110156109705760405162461bcd60e51b8152602060048201526011602482015270736c6963655f6f75744f66426f756e647360781b60448201526064016106fd565b60608215801561098e5760405191505f8252602082016040526109d8565b6040519150601f8416801560200281840101858101878315602002848b0101015b818310156109c75780518352602092830192016109af565b5050858452601f01601f1916604052505b50949350505050565b6109ea816109ed565b50565b5f6a636f6e736f6c652e6c6f6790505f80835160208501845afa505050565b634e487b7160e01b5f52604160045260245ffd5b604051601f8201601f1916810167ffffffffffffffff81118282101715610a4957610a49610a0c565b604052919050565b5f67ffffffffffffffff821115610a6a57610a6a610a0c565b50601f01601f191660200190565b5f8060408385031215610a89575f80fd5b823567ffffffffffffffff811115610a9f575f80fd5b8301601f81018513610aaf575f80fd5b8035610ac2610abd82610a51565b610a20565b818152866020838501011115610ad6575f80fd5b816020840160208301375f6020928201830152969401359450505050565b5f805f8060608587031215610b07575f80fd5b8435935060208501359250604085013567ffffffffffffffff80821115610b2c575f80fd5b818701915087601f830112610b3f575f80fd5b813581811115610b4d575f80fd5b886020828501011115610b5e575f80fd5b95989497505060200194505050565b6001600160a01b03811681146109ea575f80fd5b5f805f8060808587031215610b94575f80fd5b8435610b9f81610b6d565b93506020850135610baf81610b6d565b9250604085013563ffffffff81168114610bc7575f80fd5b9396929550929360600135925050565b634e487b7160e01b5f52601160045260245ffd5b5f600160ff1b8201610bff57610bff610bd7565b505f0390565b606093841b6bffffffffffffffffffffffff19908116825260e09390931b6001600160e01b0319166014820152921b166018820152602c0190565b5f5b83811015610c5a578181015183820152602001610c42565b50505f910152565b5f8151808452610c79816020860160208601610c40565b601f01601f19169290920160200192915050565b60208152815160208201526020820151604082015260408201511515606082015260018060a01b0360608301511660808201525f608083015160a08084015261040760c0840182610c62565b5f8060408385031215610cea575f80fd5b505080516020909101519092909150565b808201808211156101b1576101b1610bd7565b818103818111156101b1576101b1610bd7565b5f60208284031215610d31575f80fd5b81516106d581610b6d565b5f60208284031215610d4c575f80fd5b815167ffffffffffffffff811115610d62575f80fd5b8201601f81018413610d72575f80fd5b8051610d80610abd82610a51565b818152856020838501011115610d94575f80fd5b610da5826020830160208601610c40565b95945050505050565b602081525f6106d56020830184610c62565b5f60208284031215610dd0575f80fd5b5051919050565b604081525f610de96040830185610c62565b9050826020830152939250505056fea26469706673582212203544c78c75c2e7f44e44f807657b87ca83cd0237041ec223e6db7c68fc0a660864736f6c63430008170033",
    "sourcePath": "c:/Users/tucuo/OneDrive/Desktop/CiSwap.Contracts/contracts/periphery/Quoter.sol",
    "compiler": {
        "name": "solc",
        "version": "0.8.23+commit.f704f362"
    },
    "functionHashes": {
        "WETH10()": "3fe96d94",
        "factory()": "c45a0155",
        "quoteExactInput(bytes,uint256)": "cdca1753",
        "quoteExactInputSingle(address,address,uint32,uint256)": "8ff62d55",
        "quoteExactOutput(bytes,uint256)": "2f80bb1d",
        "quoteExactOutputSingle(address,address,uint32,uint256)": "d0ebe058",
        "swapCall(int256,int256,bytes)": "8d4a8419"
    },
    "gasEstimates": {
        "creation": {
            "codeDepositCost": "726000",
            "executionCost": "infinite",
            "totalCost": "infinite"
        },
        "external": {
            "WETH10()": "infinite",
            "factory()": "infinite",
            "quoteExactInput(bytes,uint256)": "infinite",
            "quoteExactInputSingle(address,address,uint32,uint256)": "infinite",
            "quoteExactOutput(bytes,uint256)": "infinite",
            "quoteExactOutputSingle(address,address,uint32,uint256)": "infinite",
            "swapCall(int256,int256,bytes)": "infinite"
        },
        "internal": {
            "_parseRevertReason(bytes memory)": "infinite"
        }
    }
}