{
    "contractName": "Quoter",
    "abi": [
        {
            "inputs": [
                {
                    "internalType": "address",
                    "name": "_factory",
                    "type": "address"
                },
                {
                    "internalType": "address",
                    "name": "_WETH10",
                    "type": "address"
                }
            ],
            "stateMutability": "nonpayable",
            "type": "constructor"
        },
        {
            "inputs": [
                {
                    "internalType": "int256",
                    "name": "value",
                    "type": "int256"
                }
            ],
            "name": "SafeCastOverflowedIntToUint",
            "type": "error"
        },
        {
            "inputs": [
                {
                    "internalType": "uint256",
                    "name": "value",
                    "type": "uint256"
                }
            ],
            "name": "SafeCastOverflowedUintToInt",
            "type": "error"
        },
        {
            "inputs": [],
            "name": "WETH10",
            "outputs": [
                {
                    "internalType": "address",
                    "name": "",
                    "type": "address"
                }
            ],
            "stateMutability": "view",
            "type": "function"
        },
        {
            "inputs": [],
            "name": "factory",
            "outputs": [
                {
                    "internalType": "address",
                    "name": "",
                    "type": "address"
                }
            ],
            "stateMutability": "view",
            "type": "function"
        },
        {
            "inputs": [
                {
                    "internalType": "bytes",
                    "name": "path",
                    "type": "bytes"
                },
                {
                    "internalType": "uint256",
                    "name": "amountIn",
                    "type": "uint256"
                }
            ],
            "name": "quoteExactInput",
            "outputs": [
                {
                    "internalType": "uint256",
                    "name": "amountOut",
                    "type": "uint256"
                }
            ],
            "stateMutability": "nonpayable",
            "type": "function"
        },
        {
            "inputs": [
                {
                    "internalType": "address",
                    "name": "tokenIn",
                    "type": "address"
                },
                {
                    "internalType": "address",
                    "name": "tokenOut",
                    "type": "address"
                },
                {
                    "internalType": "uint32",
                    "name": "indexPool",
                    "type": "uint32"
                },
                {
                    "internalType": "uint256",
                    "name": "amountIn",
                    "type": "uint256"
                }
            ],
            "name": "quoteExactInputSingle",
            "outputs": [
                {
                    "internalType": "uint256",
                    "name": "amountOut",
                    "type": "uint256"
                }
            ],
            "stateMutability": "nonpayable",
            "type": "function"
        },
        {
            "inputs": [
                {
                    "internalType": "bytes",
                    "name": "path",
                    "type": "bytes"
                },
                {
                    "internalType": "uint256",
                    "name": "amountOut",
                    "type": "uint256"
                }
            ],
            "name": "quoteExactOutput",
            "outputs": [
                {
                    "internalType": "uint256",
                    "name": "amountIn",
                    "type": "uint256"
                }
            ],
            "stateMutability": "nonpayable",
            "type": "function"
        },
        {
            "inputs": [
                {
                    "internalType": "address",
                    "name": "tokenIn",
                    "type": "address"
                },
                {
                    "internalType": "address",
                    "name": "tokenOut",
                    "type": "address"
                },
                {
                    "internalType": "uint32",
                    "name": "indexPool",
                    "type": "uint32"
                },
                {
                    "internalType": "uint256",
                    "name": "amountOut",
                    "type": "uint256"
                }
            ],
            "name": "quoteExactOutputSingle",
            "outputs": [
                {
                    "internalType": "uint256",
                    "name": "amountIn",
                    "type": "uint256"
                }
            ],
            "stateMutability": "nonpayable",
            "type": "function"
        },
        {
            "inputs": [
                {
                    "internalType": "int256",
                    "name": "amount0Delta",
                    "type": "int256"
                },
                {
                    "internalType": "int256",
                    "name": "amount1Delta",
                    "type": "int256"
                },
                {
                    "internalType": "bytes",
                    "name": "callback",
                    "type": "bytes"
                }
            ],
            "name": "swapCall",
            "outputs": [],
            "stateMutability": "view",
            "type": "function"
        }
    ],
    "bytecode": "60c060405234801561000f575f80fd5b50604051610f1b380380610f1b83398101604081905261002e91610060565b6001600160a01b039182166080521660a052610091565b80516001600160a01b038116811461005b575f80fd5b919050565b5f8060408385031215610071575f80fd5b61007a83610045565b915061008860208401610045565b90509250929050565b60805160a051610e636100b85f395f60a901525f818161011001526106560152610e635ff3fe608060405234801561000f575f80fd5b506004361061007a575f3560e01c80638ff62d55116100585780638ff62d55146100f8578063c45a01551461010b578063cdca175314610132578063d0ebe05814610145575f80fd5b80632f80bb1d1461007e5780633fe96d94146100a45780638d4a8419146100e3575b5f80fd5b61009161008c366004610aad565b610158565b6040519081526020015b60405180910390f35b6100cb7f000000000000000000000000000000000000000000000000000000000000000081565b6040516001600160a01b03909116815260200161009b565b6100f66100f1366004610b29565b6101b7565b005b610091610106366004610bb6565b6102ab565b6100cb7f000000000000000000000000000000000000000000000000000000000000000081565b610091610140366004610aad565b61040f565b610091610153366004610bb6565b610457565b5f5b5f6101648461057c565b90505f805f610172876105b5565b92509250925061018482848389610457565b9550831561019c57610195876105f0565b96506101a8565b859450505050506101b1565b5050505061015a565b92915050565b5f8413806101c457505f83135b6101cc575f80fd5b5f805f61020d85858080601f0160208091040260200160405190810160405280939291908181526020018383808284375f920191909152506105b592505050565b92509250925061021e838383610621565b505f805f808a1261025e57856001600160a01b0316856001600160a01b0316106102508a61024b90610c20565b610716565b6102598c610716565b610289565b846001600160a01b0316866001600160a01b0316106102808b61024b90610c20565b6102898b610716565b92509250925082156102a057604051818152602081fd5b604051828152602081fd5b5f6001600160a01b0380851690861610816102c7878787610621565b9050806001600160a01b03166325a12ac16040518060a001604052806102ec8861073f565b81526020015f81526020018515158152602001306001600160a01b031681526020018a898b60405160200161032393929190610c3a565b6040516020818303038152906040528152506040518263ffffffff1660e01b81526004016103519190610cc2565b60408051808303815f875af192505050801561038a575060408051601f3d908101601f1916820190925261038791810190610d0e565b60015b610402573d8080156103b7576040519150601f19603f3d011682016040523d82523d5f602084013e6103bc565b606091505b506103ef604051806040016040528060088152602001676e6f6d6e6120257360c01b8152506103ea8361076b565b610801565b6103f88161076b565b9350505050610407565b505050505b949350505050565b5f5b5f61041b8461057c565b90505f805f610429876105b5565b92509250925061043b838383896102ab565b9550831561019c5761044c876105f0565b965050505050610411565b5f6001600160a01b038085169086161081610473878787610621565b9050806001600160a01b03166325a12ac16040518060a001604052806104988861073f565b6104a190610c20565b81526020015f1981526020018515158152602001306001600160a01b0316815260200189898c6040516020016104d993929190610c3a565b6040516020818303038152906040528152506040518263ffffffff1660e01b81526004016105079190610cc2565b60408051808303815f875af1925050508015610540575060408051601f3d908101601f1916820190925261053d91810190610d0e565b60015b610402573d80801561056d576040519150601f19603f3d011682016040523d82523d5f602084013e610572565b606091505b506103f88161076b565b5f61058960046014610d30565b6014610596600482610d30565b6105a09190610d30565b6105aa9190610d30565b825110159050919050565b5f80806105c2848261084a565b92506105cf8460146108ae565b90506105e76105e060046014610d30565b859061084a565b91509193909250565b60606101b161060160046014610d30565b61060d60046014610d30565b84516106199190610d43565b84919061090a565b60405163567b660d60e11b81526001600160a01b038481166004830152838116602483015263ffffffff831660448301525f917f00000000000000000000000000000000000000000000000000000000000000009091169063acf6cc1a90606401602060405180830381865afa15801561069d573d5f803e3d5ffd5b505050506040513d601f19601f820116820180604052508101906106c19190610d56565b90506001600160a01b03811661070f5760405162461bcd60e51b815260206004820152600e60248201526d141bdbdb081b9bdd08199bdd5b9960921b60448201526064015b60405180910390fd5b9392505050565b5f8082121561073b57604051635467221960e11b815260048101839052602401610706565b5090565b5f6001600160ff1b0382111561073b5760405163123baf0360e11b815260048101839052602401610706565b5f81516020146107ed576044825110156107ba5760405162461bcd60e51b815260206004820152601060248201526f2ab732bc3832b1ba32b21032b93937b960811b6044820152606401610706565b600482019150818060200190518101906107d49190610d71565b60405162461bcd60e51b81526004016107069190610de3565b818060200190518101906101b19190610df5565b6108468282604051602401610817929190610e0c565b60408051601f198184030181529190526020810180516001600160e01b0316632d839cb360e21b179052610a16565b5050565b5f610856826014610d30565b8351101561089e5760405162461bcd60e51b8152602060048201526015602482015274746f416464726573735f6f75744f66426f756e647360581b6044820152606401610706565b500160200151600160601b900490565b5f6108ba826004610d30565b835110156109015760405162461bcd60e51b8152602060048201526014602482015273746f55696e7433325f6f75744f66426f756e647360601b6044820152606401610706565b50016004015190565b60608161091881601f610d30565b10156109575760405162461bcd60e51b815260206004820152600e60248201526d736c6963655f6f766572666c6f7760901b6044820152606401610706565b6109618284610d30565b845110156109a55760405162461bcd60e51b8152602060048201526011602482015270736c6963655f6f75744f66426f756e647360781b6044820152606401610706565b6060821580156109c35760405191505f825260208201604052610a0d565b6040519150601f8416801560200281840101858101878315602002848b0101015b818310156109fc5780518352602092830192016109e4565b5050858452601f01601f1916604052505b50949350505050565b610a1f81610a22565b50565b5f6a636f6e736f6c652e6c6f6790505f80835160208501845afa505050565b634e487b7160e01b5f52604160045260245ffd5b604051601f8201601f1916810167ffffffffffffffff81118282101715610a7e57610a7e610a41565b604052919050565b5f67ffffffffffffffff821115610a9f57610a9f610a41565b50601f01601f191660200190565b5f8060408385031215610abe575f80fd5b823567ffffffffffffffff811115610ad4575f80fd5b8301601f81018513610ae4575f80fd5b8035610af7610af282610a86565b610a55565b818152866020838501011115610b0b575f80fd5b816020840160208301375f6020928201830152969401359450505050565b5f805f8060608587031215610b3c575f80fd5b8435935060208501359250604085013567ffffffffffffffff80821115610b61575f80fd5b818701915087601f830112610b74575f80fd5b813581811115610b82575f80fd5b886020828501011115610b93575f80fd5b95989497505060200194505050565b6001600160a01b0381168114610a1f575f80fd5b5f805f8060808587031215610bc9575f80fd5b8435610bd481610ba2565b93506020850135610be481610ba2565b9250604085013563ffffffff81168114610bfc575f80fd5b9396929550929360600135925050565b634e487b7160e01b5f52601160045260245ffd5b5f600160ff1b8201610c3457610c34610c0c565b505f0390565b606093841b6bffffffffffffffffffffffff19908116825260e09390931b6001600160e01b0319166014820152921b166018820152602c0190565b5f5b83811015610c8f578181015183820152602001610c77565b50505f910152565b5f8151808452610cae816020860160208601610c75565b601f01601f19169290920160200192915050565b60208152815160208201526020820151604082015260408201511515606082015260018060a01b0360608301511660808201525f608083015160a08084015261040760c0840182610c97565b5f8060408385031215610d1f575f80fd5b505080516020909101519092909150565b808201808211156101b1576101b1610c0c565b818103818111156101b1576101b1610c0c565b5f60208284031215610d66575f80fd5b815161070f81610ba2565b5f60208284031215610d81575f80fd5b815167ffffffffffffffff811115610d97575f80fd5b8201601f81018413610da7575f80fd5b8051610db5610af282610a86565b818152856020838501011115610dc9575f80fd5b610dda826020830160208601610c75565b95945050505050565b602081525f61070f6020830184610c97565b5f60208284031215610e05575f80fd5b5051919050565b604081525f610e1e6040830185610c97565b9050826020830152939250505056fea26469706673582212204dba046a927886b13a061c825704faef6a60bc3c8f5854261afa1efd95d1365564736f6c63430008170033",
    "sourcePath": "c:/Users/tucuo/OneDrive/Desktop/CiSwap.Contracts/contracts/periphery/Quoter.sol",
    "compiler": {
        "name": "solc",
        "version": "0.8.23+commit.f704f362"
    },
    "functionHashes": {
        "WETH10()": "3fe96d94",
        "factory()": "c45a0155",
        "quoteExactInput(bytes,uint256)": "cdca1753",
        "quoteExactInputSingle(address,address,uint32,uint256)": "8ff62d55",
        "quoteExactOutput(bytes,uint256)": "2f80bb1d",
        "quoteExactOutputSingle(address,address,uint32,uint256)": "d0ebe058",
        "swapCall(int256,int256,bytes)": "8d4a8419"
    },
    "gasEstimates": {
        "creation": {
            "codeDepositCost": "736600",
            "executionCost": "infinite",
            "totalCost": "infinite"
        },
        "external": {
            "WETH10()": "infinite",
            "factory()": "infinite",
            "quoteExactInput(bytes,uint256)": "infinite",
            "quoteExactInputSingle(address,address,uint32,uint256)": "infinite",
            "quoteExactOutput(bytes,uint256)": "infinite",
            "quoteExactOutputSingle(address,address,uint32,uint256)": "infinite",
            "swapCall(int256,int256,bytes)": "infinite"
        },
        "internal": {
            "_parseRevertReason(bytes memory)": "infinite"
        }
    }
}