{
    "contractName": "Router",
    "abi": [
        {
            "inputs": [
                {
                    "internalType": "address",
                    "name": "_factory",
                    "type": "address"
                },
                {
                    "internalType": "address",
                    "name": "_WETH10",
                    "type": "address"
                }
            ],
            "stateMutability": "nonpayable",
            "type": "constructor"
        },
        {
            "inputs": [
                {
                    "internalType": "address",
                    "name": "target",
                    "type": "address"
                }
            ],
            "name": "AddressEmptyCode",
            "type": "error"
        },
        {
            "inputs": [
                {
                    "internalType": "address",
                    "name": "account",
                    "type": "address"
                }
            ],
            "name": "AddressInsufficientBalance",
            "type": "error"
        },
        {
            "inputs": [],
            "name": "FailedInnerCall",
            "type": "error"
        },
        {
            "inputs": [
                {
                    "internalType": "int256",
                    "name": "value",
                    "type": "int256"
                }
            ],
            "name": "SafeCastOverflowedIntToUint",
            "type": "error"
        },
        {
            "inputs": [
                {
                    "internalType": "uint256",
                    "name": "value",
                    "type": "uint256"
                }
            ],
            "name": "SafeCastOverflowedUintToInt",
            "type": "error"
        },
        {
            "inputs": [
                {
                    "internalType": "address",
                    "name": "token",
                    "type": "address"
                }
            ],
            "name": "SafeERC20FailedOperation",
            "type": "error"
        },
        {
            "inputs": [],
            "name": "WETH10",
            "outputs": [
                {
                    "internalType": "address",
                    "name": "",
                    "type": "address"
                }
            ],
            "stateMutability": "view",
            "type": "function"
        },
        {
            "inputs": [
                {
                    "components": [
                        {
                            "internalType": "address",
                            "name": "tokenA",
                            "type": "address"
                        },
                        {
                            "internalType": "address",
                            "name": "tokenB",
                            "type": "address"
                        },
                        {
                            "internalType": "uint32",
                            "name": "indexPool",
                            "type": "uint32"
                        },
                        {
                            "internalType": "uint256",
                            "name": "amountA",
                            "type": "uint256"
                        },
                        {
                            "internalType": "uint256",
                            "name": "amountB",
                            "type": "uint256"
                        },
                        {
                            "internalType": "uint256",
                            "name": "amountMin",
                            "type": "uint256"
                        },
                        {
                            "internalType": "address",
                            "name": "recipient",
                            "type": "address"
                        },
                        {
                            "internalType": "uint32",
                            "name": "deadline",
                            "type": "uint32"
                        }
                    ],
                    "internalType": "struct IRouter.AddLiquidityParams",
                    "name": "params",
                    "type": "tuple"
                }
            ],
            "name": "addLiquidity",
            "outputs": [
                {
                    "internalType": "uint256",
                    "name": "amount",
                    "type": "uint256"
                }
            ],
            "stateMutability": "payable",
            "type": "function"
        },
        {
            "inputs": [
                {
                    "components": [
                        {
                            "internalType": "uint256",
                            "name": "amountIn",
                            "type": "uint256"
                        },
                        {
                            "internalType": "uint256",
                            "name": "amountOutMin",
                            "type": "uint256"
                        },
                        {
                            "internalType": "address",
                            "name": "recipient",
                            "type": "address"
                        },
                        {
                            "internalType": "bytes",
                            "name": "path",
                            "type": "bytes"
                        },
                        {
                            "internalType": "uint32",
                            "name": "deadline",
                            "type": "uint32"
                        }
                    ],
                    "internalType": "struct IRouter.ExactInputParams",
                    "name": "params",
                    "type": "tuple"
                }
            ],
            "name": "exactInput",
            "outputs": [
                {
                    "internalType": "uint256",
                    "name": "amountOut",
                    "type": "uint256"
                }
            ],
            "stateMutability": "payable",
            "type": "function"
        },
        {
            "inputs": [
                {
                    "components": [
                        {
                            "internalType": "uint256",
                            "name": "amountIn",
                            "type": "uint256"
                        },
                        {
                            "internalType": "uint256",
                            "name": "amountOutMin",
                            "type": "uint256"
                        },
                        {
                            "internalType": "address",
                            "name": "recipient",
                            "type": "address"
                        },
                        {
                            "internalType": "address",
                            "name": "tokenIn",
                            "type": "address"
                        },
                        {
                            "internalType": "address",
                            "name": "tokenOut",
                            "type": "address"
                        },
                        {
                            "internalType": "uint32",
                            "name": "indexPool",
                            "type": "uint32"
                        },
                        {
                            "internalType": "uint32",
                            "name": "deadline",
                            "type": "uint32"
                        }
                    ],
                    "internalType": "struct IRouter.ExactInputSingleParams",
                    "name": "params",
                    "type": "tuple"
                }
            ],
            "name": "exactInputSingle",
            "outputs": [
                {
                    "internalType": "uint256",
                    "name": "amountOut",
                    "type": "uint256"
                }
            ],
            "stateMutability": "payable",
            "type": "function"
        },
        {
            "inputs": [
                {
                    "components": [
                        {
                            "internalType": "uint256",
                            "name": "amountOut",
                            "type": "uint256"
                        },
                        {
                            "internalType": "uint256",
                            "name": "amountInMax",
                            "type": "uint256"
                        },
                        {
                            "internalType": "address",
                            "name": "recipient",
                            "type": "address"
                        },
                        {
                            "internalType": "bytes",
                            "name": "path",
                            "type": "bytes"
                        },
                        {
                            "internalType": "uint32",
                            "name": "deadline",
                            "type": "uint32"
                        }
                    ],
                    "internalType": "struct IRouter.ExactOutputParams",
                    "name": "params",
                    "type": "tuple"
                }
            ],
            "name": "exactOutput",
            "outputs": [
                {
                    "internalType": "uint256",
                    "name": "amountIn",
                    "type": "uint256"
                }
            ],
            "stateMutability": "payable",
            "type": "function"
        },
        {
            "inputs": [
                {
                    "components": [
                        {
                            "internalType": "uint256",
                            "name": "amountOut",
                            "type": "uint256"
                        },
                        {
                            "internalType": "uint256",
                            "name": "amountInMax",
                            "type": "uint256"
                        },
                        {
                            "internalType": "address",
                            "name": "recipient",
                            "type": "address"
                        },
                        {
                            "internalType": "address",
                            "name": "tokenIn",
                            "type": "address"
                        },
                        {
                            "internalType": "address",
                            "name": "tokenOut",
                            "type": "address"
                        },
                        {
                            "internalType": "uint32",
                            "name": "indexPool",
                            "type": "uint32"
                        },
                        {
                            "internalType": "uint32",
                            "name": "deadline",
                            "type": "uint32"
                        }
                    ],
                    "internalType": "struct IRouter.ExactOutputSingleParams",
                    "name": "params",
                    "type": "tuple"
                }
            ],
            "name": "exactOutputSingle",
            "outputs": [
                {
                    "internalType": "uint256",
                    "name": "amountIn",
                    "type": "uint256"
                }
            ],
            "stateMutability": "payable",
            "type": "function"
        },
        {
            "inputs": [],
            "name": "factory",
            "outputs": [
                {
                    "internalType": "address",
                    "name": "",
                    "type": "address"
                }
            ],
            "stateMutability": "view",
            "type": "function"
        },
        {
            "inputs": [
                {
                    "internalType": "bytes[]",
                    "name": "data",
                    "type": "bytes[]"
                }
            ],
            "name": "multicall",
            "outputs": [
                {
                    "internalType": "bytes[]",
                    "name": "results",
                    "type": "bytes[]"
                }
            ],
            "stateMutability": "nonpayable",
            "type": "function"
        },
        {
            "inputs": [
                {
                    "internalType": "bytes[]",
                    "name": "data",
                    "type": "bytes[]"
                }
            ],
            "name": "multicall2",
            "outputs": [
                {
                    "internalType": "bytes[]",
                    "name": "results",
                    "type": "bytes[]"
                }
            ],
            "stateMutability": "payable",
            "type": "function"
        },
        {
            "inputs": [],
            "name": "refundETH",
            "outputs": [],
            "stateMutability": "payable",
            "type": "function"
        },
        {
            "inputs": [
                {
                    "components": [
                        {
                            "internalType": "address",
                            "name": "tokenA",
                            "type": "address"
                        },
                        {
                            "internalType": "address",
                            "name": "tokenB",
                            "type": "address"
                        },
                        {
                            "internalType": "uint32",
                            "name": "indexPool",
                            "type": "uint32"
                        },
                        {
                            "internalType": "uint256",
                            "name": "amount",
                            "type": "uint256"
                        },
                        {
                            "internalType": "uint256",
                            "name": "amountAMin",
                            "type": "uint256"
                        },
                        {
                            "internalType": "uint256",
                            "name": "amountBMin",
                            "type": "uint256"
                        },
                        {
                            "internalType": "address",
                            "name": "recipient",
                            "type": "address"
                        },
                        {
                            "internalType": "uint32",
                            "name": "deadline",
                            "type": "uint32"
                        }
                    ],
                    "internalType": "struct IRouter.RemoveLiquidityParams",
                    "name": "params",
                    "type": "tuple"
                }
            ],
            "name": "removeLiquidity",
            "outputs": [
                {
                    "internalType": "uint256",
                    "name": "amount0",
                    "type": "uint256"
                },
                {
                    "internalType": "uint256",
                    "name": "amount1",
                    "type": "uint256"
                }
            ],
            "stateMutability": "payable",
            "type": "function"
        },
        {
            "inputs": [
                {
                    "internalType": "int256",
                    "name": "amount0Delta",
                    "type": "int256"
                },
                {
                    "internalType": "int256",
                    "name": "amount1Delta",
                    "type": "int256"
                },
                {
                    "internalType": "bytes",
                    "name": "callback",
                    "type": "bytes"
                }
            ],
            "name": "swapCall",
            "outputs": [],
            "stateMutability": "nonpayable",
            "type": "function"
        },
        {
            "inputs": [
                {
                    "internalType": "uint256",
                    "name": "amountMinimum",
                    "type": "uint256"
                },
                {
                    "internalType": "address",
                    "name": "recipient",
                    "type": "address"
                }
            ],
            "name": "unwrapWETH10",
            "outputs": [],
            "stateMutability": "payable",
            "type": "function"
        },
        {
            "stateMutability": "payable",
            "type": "receive"
        }
    ],
    "bytecode": "60c060405234801562000010575f80fd5b50604051620021be380380620021be833981016040819052620000339162000067565b6001600160a01b039182166080521660a0526200009d565b80516001600160a01b038116811462000062575f80fd5b919050565b5f806040838503121562000079575f80fd5b62000084836200004b565b915062000094602084016200004b565b90509250929050565b60805160a0516120cf620000ef5f395f818160ca0152818161015301528181610aef01528181610bc4015281816113070152818161134d01526113de01525f818161023501526110d701526120cf5ff3fe6080604052600436106100c2575f3560e01c80638d4a84191161007c578063c36c9e6e11610057578063c36c9e6e14610211578063c45a015514610224578063de45551e14610257578063e452f7de1461027f575f80fd5b80638d4a8419146101b3578063ac9650d8146101d2578063b4033668146101fe575f80fd5b806306da5b791461010157806312210e8a146101275780631c40cf271461012f5780633fe96d9414610142578063407bfcc61461018d57806356088892146101a0575f80fd5b366100fd57337f00000000000000000000000000000000000000000000000000000000000000006001600160a01b0316146100fb575f80fd5b005b5f80fd5b61011461010f3660046119e0565b610292565b6040519081526020015b60405180910390f35b6100fb6103e3565b61011461013d366004611a0b565b610440565b34801561014d575f80fd5b506101757f000000000000000000000000000000000000000000000000000000000000000081565b6040516001600160a01b03909116815260200161011e565b61011461019b366004611a26565b6105ed565b6101146101ae3660046119e0565b6106f3565b3480156101be575f80fd5b506100fb6101cd366004611a5d565b6107a4565b3480156101dd575f80fd5b506101f16101ec366004611ad6565b6108f5565b60405161011e9190611b92565b61011461020c366004611ce6565b6109dc565b6100fb61021f366004611d86565b610ad8565b34801561022f575f80fd5b506101757f000000000000000000000000000000000000000000000000000000000000000081565b61026a610265366004611a0b565b610c85565b6040805192835260208301919091520161011e565b6101f161028d366004611ad6565b610e50565b5f6102a360e0830160c08401611db4565b428163ffffffff1610156102b5575f80fd5b61034383356102ca6060860160408701611dcd565b60405180604001604052806102dc3390565b6001600160a01b031681526020016102fa6080890160608a01611dcd565b61030a60c08a0160a08b01611db4565b61031a60a08b0160808c01611dcd565b60405160200161032c93929190611de8565b604051602081830303815290604052815250610f38565b915082602001358210156103dd5760405162461bcd60e51b815260206004820152605060248201527f546865206f757470757420616d6f756e74206d7573742062652067726561746560448201527f72207468616e206f7220657175616c20746f20746865206d696e696d756d207360648201526f3832b1b4b334b2b21030b6b7bab73a1760811b608482015260a4015b60405180910390fd5b50919050565b47801561043d576040515f90339083908381818185875af1925050503d805f8114610429576040519150601f19603f3d011682016040523d82523d5f602084013e61042e565b606091505b505090508061043b575f80fd5b505b50565b5f610452610100830160e08401611db4565b428163ffffffff161015610464575f80fd5b6040805160a0810182525f808252602082018190529181018290526060810182905260808101919091526104b361049e6020860186611dcd565b6104ae6040870160208801611dcd565b61106b565b15156040808501919091526001600160a01b0391821660208501819052929091168084525f926104f2926104ed9060608a01908a01611db4565b6110a2565b9050816040015161050c5784608001358560600135610517565b846060013585608001355b608084015260608301528151610533903383856060015161115d565b61054d82602001516105423390565b83856080015161115d565b6001600160a01b038116636a62784261056c60e0880160c08901611dcd565b6040516001600160e01b031960e084901b1681526001600160a01b03909116600482015260240160408051808303815f875af11580156105ae573d5f803e3d5ffd5b505050506040513d601f19601f820116820180604052508101906105d29190611e23565b50935060a08501358410156105e5575f80fd5b505050919050565b5f6105fe60a0830160808401611db4565b428163ffffffff161015610610575f80fd5b61068c83356106256060860160408701611dcd565b60405180604001604052806106373390565b6001600160a01b031681526020016106526060890189611e45565b8080601f0160208091040260200160405190810160405280939291908181526020018383808284375f920191909152505050915250611172565b915082602001358211156103dd5760405162461bcd60e51b815260206004820152602860248201527f4578636565646564206d6178696d756d20616c6c6f7761626c6520696e7075746044820152671030b6b7bab73a1760c11b60648201526084016103d4565b5f61070460e0830160c08401611db4565b428163ffffffff161015610716575f80fd5b61068c833561072b6060860160408701611dcd565b604051806040016040528061073d3390565b6001600160a01b0316815260200161075b60a0890160808a01611dcd565b61076b60c08a0160a08b01611db4565b61077b60808b0160608c01611dcd565b60405160200161078d93929190611de8565b604051602081830303815290604052815250611172565b5f8413806107b157505f83135b6107e35760405162461bcd60e51b815260206004820152600360248201526217171760e91b60448201526064016103d4565b5f6107f082840184611e8f565b90505f805f61080284602001516112a1565b9250925092506108138383836110a2565b505f805f8a1261084957836001600160a01b0316856001600160a01b0316116108448a61083f90611f34565b6112dc565b61086b565b836001600160a01b0316856001600160a01b03161061086b8b61083f90611f34565b91509150811561088a578551610885908690335b84611305565b6108e9565b610897866020015161147b565b156108db575f6108aa87602001516114b4565b90506108d48233604080518082019091528a516001600160a01b0316815260208101859052611172565b50506108e9565b85516108e99085903361087f565b50505050505050505050565b604080515f8152602081019091526060908267ffffffffffffffff81111561091f5761091f611bf4565b60405190808252806020026020018201604052801561095257816020015b606081526020019060019003908161093d5790505b5091505f5b838110156109d3576109ae3086868481811061097557610975611f61565b90506020028101906109879190611e45565b8560405160200161099a93929190611f75565b6040516020818303038152906040526114e5565b8382815181106109c0576109c0611f61565b6020908102919091010152600101610957565b50505b92915050565b5f8160800151428163ffffffff1610156109f4575f80fd5b335b5f610a04856060015161147b565b9050610a0f81611557565b8451610a549082610a24578660400151610a26565b305b6040518060400160405280866001600160a01b03168152602001610a4d8a60600151611598565b9052610f38565b85528015610a7657309150610a6c85606001516114b4565b6060860152610a80565b5083519250610a86565b506109f6565b8360200151831015610ad15760405162461bcd60e51b81526020600482015260146024820152732a37b7903634ba3a3632903932b1b2b4bb32b21760611b60448201526064016103d4565b5050919050565b6040516370a0823160e01b81523060048201525f907f00000000000000000000000000000000000000000000000000000000000000006001600160a01b0316906370a0823190602401602060405180830381865afa158015610b3c573d5f803e3d5ffd5b505050506040513d601f19601f82011682018060405250810190610b609190611f9a565b905082811015610ba85760405162461bcd60e51b81526020600482015260136024820152720496e73756666696369656e742057455448313606c1b60448201526064016103d4565b8015610c8057604051632e1a7d4d60e01b8152600481018290527f00000000000000000000000000000000000000000000000000000000000000006001600160a01b031690632e1a7d4d906024015f604051808303815f87803b158015610c0d575f80fd5b505af1158015610c1f573d5f803e3d5ffd5b505050505f826001600160a01b0316826040515f6040518083038185875af1925050503d805f8114610c6c576040519150601f19603f3d011682016040523d82523d5f602084013e610c71565b606091505b5050905080610c7e575f80fd5b505b505050565b5f80610c98610100840160e08501611db4565b428163ffffffff161015610caa575f80fd5b5f8080610ccd610cbd6020890189611dcd565b6104ae60408a0160208b01611dcd565b9250925092505f8082610ce9578860a001358960800135610cf4565b88608001358960a001355b90925090505f610d0f86866104ed60608e0160408f01611db4565b90506001600160a01b0381166323b872dd336040516001600160e01b031960e084901b1681526001600160a01b03909116600482015230602482015260608d013560448201526064016020604051808303815f875af1158015610d74573d5f803e3d5ffd5b505050506040513d601f19601f82011682018060405250810190610d989190611fb1565b506001600160a01b038116639dc29fac610db860e08d0160c08e01611dcd565b6040516001600160e01b031960e084901b1681526001600160a01b03909116600482015260608d0135602482015260440160408051808303815f875af1158015610e04573d5f803e3d5ffd5b505050506040513d601f19601f82011682018060405250810190610e289190611e23565b9099509750828910801590610e3c57508188115b610e44575f80fd5b50505050505050915091565b60608167ffffffffffffffff811115610e6b57610e6b611bf4565b604051908082528060200260200182016040528015610e9e57816020015b6060815260200190600190039081610e895790505b5090505f5b82811015610f3157610f0c30858584818110610ec157610ec1611f61565b9050602002810190610ed39190611e45565b8080601f0160208091040260200160405190810160405280939291908181526020018383808284375f920191909152506114e592505050565b828281518110610f1e57610f1e611f61565b6020908102919091010152600101610ea3565b5092915050565b5f805f80610f4985602001516112a1565b9250925092505f610f5b8484846110a2565b90505f836001600160a01b0316856001600160a01b03161090505f80836001600160a01b03166325a12ac16040518060a00160405280610f9a8f6115b5565b81526020015f815260200186151581526020018d6001600160a01b031681526020018c604051602001610fcd9190611fd0565b6040516020818303038152906040528152506040518263ffffffff1660e01b8152600401610ffb9190612004565b60408051808303815f875af1158015611016573d5f803e3d5ffd5b505050506040513d601f19601f8201168201806040525081019061103a9190611e23565b915091505f82136110535761104e816112dc565b61105c565b61105c826112dc565b9b9a5050505050505050505050565b5f805f836001600160a01b0316856001600160a01b03161061108f5783855f611094565b848460015b919790965090945092505050565b60405163567b660d60e11b81526001600160a01b038481166004830152838116602483015263ffffffff831660448301525f917f00000000000000000000000000000000000000000000000000000000000000009091169063acf6cc1a90606401602060405180830381865afa15801561111e573d5f803e3d5ffd5b505050506040513d601f19601f820116820180604052508101906111429190612050565b90506001600160a01b038116611156575f80fd5b9392505050565b610c7e6001600160a01b0385168484846115e1565b5f805f8061118385602001516112a1565b9250925092505f6111958385846110a2565b90505f846001600160a01b0316846001600160a01b03161090505f80836001600160a01b03166325a12ac16040518060a001604052806111d48f6115b5565b6111dd90611f34565b81526020015f19815260200186151581526020018d6001600160a01b031681526020018c6040516020016112119190611fd0565b6040516020818303038152906040528152506040518263ffffffff1660e01b815260040161123f9190612004565b60408051808303815f875af115801561125a573d5f803e3d5ffd5b505050506040513d601f19601f8201168201806040525081019061127e9190611e23565b915091505f82126112955761104e61083f82611f34565b61105c61083f83611f34565b5f80806112ae8482611648565b92506112bb8460146116ac565b90506112d36112cc6004601461206b565b8590611648565b91509193909250565b5f8082121561130157604051635467221960e11b8152600481018390526024016103d4565b5090565b7f00000000000000000000000000000000000000000000000000000000000000006001600160a01b0316846001600160a01b03161480156113465750804710155b15611452577f00000000000000000000000000000000000000000000000000000000000000006001600160a01b031663d0e30db0826040518263ffffffff1660e01b81526004015f604051808303818588803b1580156113a4575f80fd5b505af11580156113b6573d5f803e3d5ffd5b505060405163a9059cbb60e01b81526001600160a01b038681166004830152602482018690527f000000000000000000000000000000000000000000000000000000000000000016935063a9059cbb925060440190506020604051808303815f875af1158015611428573d5f803e3d5ffd5b505050506040513d601f19601f8201168201806040525081019061144c9190611fb1565b50610c7e565b306001600160a01b0384160361115d576114766001600160a01b0385168383611708565b610c7e565b5f6114886004601461206b565b601461149560048261206b565b61149f919061206b565b6114a9919061206b565b825110159050919050565b60606109d66114c56004601461206b565b6114d16004601461206b565b84516114dd9190611f4e565b849190611739565b60605f80846001600160a01b031684604051611501919061207e565b5f60405180830381855af49150503d805f8114611539576040519150601f19603f3d011682016040523d82523d5f602084013e61153e565b606091505b509150915061154e858383611845565b95945050505050565b604051811515602482015261043d9060440160408051601f198184030181529190526020810180516001600160e01b03166332458eed60e01b1790526118a1565b60606109d65f60146115ab60048261206b565b6114dd919061206b565b5f6001600160ff1b038211156113015760405163123baf0360e11b8152600481018390526024016103d4565b6040516001600160a01b038481166024830152838116604483015260648201839052610c7e9186918216906323b872dd906084015b604051602081830303815290604052915060e01b6020820180516001600160e01b0383818316178352505050506118aa565b5f61165482601461206b565b8351101561169c5760405162461bcd60e51b8152602060048201526015602482015274746f416464726573735f6f75744f66426f756e647360581b60448201526064016103d4565b500160200151600160601b900490565b5f6116b882600461206b565b835110156116ff5760405162461bcd60e51b8152602060048201526014602482015273746f55696e7433325f6f75744f66426f756e647360601b60448201526064016103d4565b50016004015190565b6040516001600160a01b03838116602483015260448201839052610c8091859182169063a9059cbb90606401611616565b60608161174781601f61206b565b10156117865760405162461bcd60e51b815260206004820152600e60248201526d736c6963655f6f766572666c6f7760901b60448201526064016103d4565b611790828461206b565b845110156117d45760405162461bcd60e51b8152602060048201526011602482015270736c6963655f6f75744f66426f756e647360781b60448201526064016103d4565b6060821580156117f25760405191505f82526020820160405261183c565b6040519150601f8416801560200281840101858101878315602002848b0101015b8183101561182b578051835260209283019201611813565b5050858452601f01601f1916604052505b50949350505050565b60608261185a576118558261190b565b611156565b815115801561187157506001600160a01b0384163b155b1561189a57604051639996b31560e01b81526001600160a01b03851660048201526024016103d4565b5080611156565b61043d81611934565b5f6118be6001600160a01b03841683611953565b905080515f141580156118e25750808060200190518101906118e09190611fb1565b155b15610c8057604051635274afe760e01b81526001600160a01b03841660048201526024016103d4565b80511561191b5780518082602001fd5b604051630a12f52160e11b815260040160405180910390fd5b5f6a636f6e736f6c652e6c6f6790505f80835160208501845afa505050565b606061115683835f845f80856001600160a01b03168486604051611977919061207e565b5f6040518083038185875af1925050503d805f81146119b1576040519150601f19603f3d011682016040523d82523d5f602084013e6119b6565b606091505b50915091506119c6868383611845565b9695505050505050565b5f60e082840312156103dd575f80fd5b5f60e082840312156119f0575f80fd5b61115683836119d0565b5f61010082840312156103dd575f80fd5b5f6101008284031215611a1c575f80fd5b61115683836119fa565b5f60208284031215611a36575f80fd5b813567ffffffffffffffff811115611a4c575f80fd5b820160a08185031215611156575f80fd5b5f805f8060608587031215611a70575f80fd5b8435935060208501359250604085013567ffffffffffffffff80821115611a95575f80fd5b818701915087601f830112611aa8575f80fd5b813581811115611ab6575f80fd5b886020828501011115611ac7575f80fd5b95989497505060200194505050565b5f8060208385031215611ae7575f80fd5b823567ffffffffffffffff80821115611afe575f80fd5b818501915085601f830112611b11575f80fd5b813581811115611b1f575f80fd5b8660208260051b8501011115611b33575f80fd5b60209290920196919550909350505050565b5f5b83811015611b5f578181015183820152602001611b47565b50505f910152565b5f8151808452611b7e816020860160208601611b45565b601f01601f19169290920160200192915050565b5f60208083016020845280855180835260408601915060408160051b8701019250602087015f5b82811015611be757603f19888603018452611bd5858351611b67565b94509285019290850190600101611bb9565b5092979650505050505050565b634e487b7160e01b5f52604160045260245ffd5b60405160a0810167ffffffffffffffff81118282101715611c2b57611c2b611bf4565b60405290565b6001600160a01b038116811461043d575f80fd5b5f82601f830112611c54575f80fd5b813567ffffffffffffffff80821115611c6f57611c6f611bf4565b604051601f8301601f19908116603f01168101908282118183101715611c9757611c97611bf4565b81604052838152866020858801011115611caf575f80fd5b836020870160208301375f602085830101528094505050505092915050565b803563ffffffff81168114611ce1575f80fd5b919050565b5f60208284031215611cf6575f80fd5b813567ffffffffffffffff80821115611d0d575f80fd5b9083019060a08286031215611d20575f80fd5b611d28611c08565b82358152602083013560208201526040830135611d4481611c31565b6040820152606083013582811115611d5a575f80fd5b611d6687828601611c45565b606083015250611d7860808401611cce565b608082015295945050505050565b5f8060408385031215611d97575f80fd5b823591506020830135611da981611c31565b809150509250929050565b5f60208284031215611dc4575f80fd5b61115682611cce565b5f60208284031215611ddd575f80fd5b813561115681611c31565b606093841b6bffffffffffffffffffffffff19908116825260e09390931b6001600160e01b0319166014820152921b166018820152602c0190565b5f8060408385031215611e34575f80fd5b505080516020909101519092909150565b5f808335601e19843603018112611e5a575f80fd5b83018035915067ffffffffffffffff821115611e74575f80fd5b602001915036819003821315611e88575f80fd5b9250929050565b5f60208284031215611e9f575f80fd5b813567ffffffffffffffff80821115611eb6575f80fd5b9083019060408286031215611ec9575f80fd5b604051604081018181108382111715611ee457611ee4611bf4565b6040528235611ef281611c31565b8152602083013582811115611f05575f80fd5b611f1187828601611c45565b60208301525095945050505050565b634e487b7160e01b5f52601160045260245ffd5b5f600160ff1b8201611f4857611f48611f20565b505f0390565b818103818111156109d6576109d6611f20565b634e487b7160e01b5f52603260045260245ffd5b828482375f8382015f81528351611f90818360208801611b45565b0195945050505050565b5f60208284031215611faa575f80fd5b5051919050565b5f60208284031215611fc1575f80fd5b81518015158114611156575f80fd5b602080825282516001600160a01b0316828201528201516040808301525f90611ffc6060840182611b67565b949350505050565b60208152815160208201526020820151604082015260408201511515606082015260018060a01b0360608301511660808201525f608083015160a080840152611ffc60c0840182611b67565b5f60208284031215612060575f80fd5b815161115681611c31565b808201808211156109d6576109d6611f20565b5f825161208f818460208701611b45565b919091019291505056fea26469706673582212201cfc1b7aa684a435015e22e039e587a148b9a325603bfe6ce67d554f3205e6b964736f6c63430008170033",
    "sourcePath": "c:/Users/tucuo/OneDrive/Desktop/CiSwap.Contracts/contracts/periphery/Router.sol",
    "compiler": {
        "name": "solc",
        "version": "0.8.23+commit.f704f362"
    },
    "functionHashes": {
        "WETH10()": "3fe96d94",
        "addLiquidity((address,address,uint32,uint256,uint256,uint256,address,uint32))": "1c40cf27",
        "exactInput((uint256,uint256,address,bytes,uint32))": "b4033668",
        "exactInputSingle((uint256,uint256,address,address,address,uint32,uint32))": "06da5b79",
        "exactOutput((uint256,uint256,address,bytes,uint32))": "407bfcc6",
        "exactOutputSingle((uint256,uint256,address,address,address,uint32,uint32))": "56088892",
        "factory()": "c45a0155",
        "multicall(bytes[])": "ac9650d8",
        "multicall2(bytes[])": "e452f7de",
        "refundETH()": "12210e8a",
        "removeLiquidity((address,address,uint32,uint256,uint256,uint256,address,uint32))": "de45551e",
        "swapCall(int256,int256,bytes)": "8d4a8419",
        "unwrapWETH10(uint256,address)": "c36c9e6e"
    },
    "gasEstimates": {
        "creation": {
            "codeDepositCost": "1679800",
            "executionCost": "infinite",
            "totalCost": "infinite"
        },
        "external": {
            "WETH10()": "infinite",
            "addLiquidity((address,address,uint32,uint256,uint256,uint256,address,uint32))": "infinite",
            "exactInput((uint256,uint256,address,bytes,uint32))": "infinite",
            "exactInputSingle((uint256,uint256,address,address,address,uint32,uint32))": "infinite",
            "exactOutput((uint256,uint256,address,bytes,uint32))": "infinite",
            "exactOutputSingle((uint256,uint256,address,address,address,uint32,uint32))": "infinite",
            "factory()": "infinite",
            "multicall(bytes[])": "infinite",
            "multicall2(bytes[])": "infinite",
            "refundETH()": "infinite",
            "removeLiquidity((address,address,uint32,uint256,uint256,uint256,address,uint32))": "infinite",
            "swapCall(int256,int256,bytes)": "infinite",
            "unwrapWETH10(uint256,address)": "infinite"
        },
        "internal": {
            "_exactInputInternal(uint256,address,struct Router.SwapCallbackData memory)": "infinite",
            "_exactOutputInternal(uint256,address,struct Router.SwapCallbackData memory)": "infinite"
        }
    }
}