{
    "contractName": "ExtendERC20",
    "abi": [
        {
            "inputs": [
                {
                    "internalType": "string",
                    "name": "tokenName",
                    "type": "string"
                },
                {
                    "internalType": "string",
                    "name": "tokenSymbol",
                    "type": "string"
                }
            ],
            "stateMutability": "nonpayable",
            "type": "constructor"
        },
        {
            "inputs": [
                {
                    "internalType": "address",
                    "name": "spender",
                    "type": "address"
                },
                {
                    "internalType": "uint256",
                    "name": "allowance",
                    "type": "uint256"
                },
                {
                    "internalType": "uint256",
                    "name": "needed",
                    "type": "uint256"
                }
            ],
            "name": "ERC20InsufficientAllowance",
            "type": "error"
        },
        {
            "inputs": [
                {
                    "internalType": "address",
                    "name": "sender",
                    "type": "address"
                },
                {
                    "internalType": "uint256",
                    "name": "balance",
                    "type": "uint256"
                },
                {
                    "internalType": "uint256",
                    "name": "needed",
                    "type": "uint256"
                }
            ],
            "name": "ERC20InsufficientBalance",
            "type": "error"
        },
        {
            "inputs": [
                {
                    "internalType": "address",
                    "name": "approver",
                    "type": "address"
                }
            ],
            "name": "ERC20InvalidApprover",
            "type": "error"
        },
        {
            "inputs": [
                {
                    "internalType": "address",
                    "name": "receiver",
                    "type": "address"
                }
            ],
            "name": "ERC20InvalidReceiver",
            "type": "error"
        },
        {
            "inputs": [
                {
                    "internalType": "address",
                    "name": "sender",
                    "type": "address"
                }
            ],
            "name": "ERC20InvalidSender",
            "type": "error"
        },
        {
            "inputs": [
                {
                    "internalType": "address",
                    "name": "spender",
                    "type": "address"
                }
            ],
            "name": "ERC20InvalidSpender",
            "type": "error"
        },
        {
            "inputs": [
                {
                    "internalType": "address",
                    "name": "owner",
                    "type": "address"
                }
            ],
            "name": "OwnableInvalidOwner",
            "type": "error"
        },
        {
            "inputs": [
                {
                    "internalType": "address",
                    "name": "account",
                    "type": "address"
                }
            ],
            "name": "OwnableUnauthorizedAccount",
            "type": "error"
        },
        {
            "anonymous": false,
            "inputs": [
                {
                    "indexed": true,
                    "internalType": "address",
                    "name": "owner",
                    "type": "address"
                },
                {
                    "indexed": true,
                    "internalType": "address",
                    "name": "spender",
                    "type": "address"
                },
                {
                    "indexed": false,
                    "internalType": "uint256",
                    "name": "value",
                    "type": "uint256"
                }
            ],
            "name": "Approval",
            "type": "event"
        },
        {
            "anonymous": false,
            "inputs": [
                {
                    "indexed": true,
                    "internalType": "address",
                    "name": "previousOwner",
                    "type": "address"
                },
                {
                    "indexed": true,
                    "internalType": "address",
                    "name": "newOwner",
                    "type": "address"
                }
            ],
            "name": "OwnershipTransferred",
            "type": "event"
        },
        {
            "anonymous": false,
            "inputs": [
                {
                    "indexed": true,
                    "internalType": "address",
                    "name": "from",
                    "type": "address"
                },
                {
                    "indexed": true,
                    "internalType": "address",
                    "name": "to",
                    "type": "address"
                },
                {
                    "indexed": false,
                    "internalType": "uint256",
                    "name": "value",
                    "type": "uint256"
                }
            ],
            "name": "Transfer",
            "type": "event"
        },
        {
            "inputs": [
                {
                    "internalType": "address",
                    "name": "owner",
                    "type": "address"
                },
                {
                    "internalType": "address",
                    "name": "spender",
                    "type": "address"
                }
            ],
            "name": "allowance",
            "outputs": [
                {
                    "internalType": "uint256",
                    "name": "",
                    "type": "uint256"
                }
            ],
            "stateMutability": "view",
            "type": "function"
        },
        {
            "inputs": [
                {
                    "internalType": "address",
                    "name": "spender",
                    "type": "address"
                },
                {
                    "internalType": "uint256",
                    "name": "value",
                    "type": "uint256"
                }
            ],
            "name": "approve",
            "outputs": [
                {
                    "internalType": "bool",
                    "name": "",
                    "type": "bool"
                }
            ],
            "stateMutability": "nonpayable",
            "type": "function"
        },
        {
            "inputs": [
                {
                    "internalType": "address",
                    "name": "account",
                    "type": "address"
                }
            ],
            "name": "balanceOf",
            "outputs": [
                {
                    "internalType": "uint256",
                    "name": "",
                    "type": "uint256"
                }
            ],
            "stateMutability": "view",
            "type": "function"
        },
        {
            "inputs": [
                {
                    "internalType": "address",
                    "name": "account",
                    "type": "address"
                },
                {
                    "internalType": "uint256",
                    "name": "amount",
                    "type": "uint256"
                }
            ],
            "name": "burn",
            "outputs": [],
            "stateMutability": "nonpayable",
            "type": "function"
        },
        {
            "inputs": [],
            "name": "decimals",
            "outputs": [
                {
                    "internalType": "uint8",
                    "name": "",
                    "type": "uint8"
                }
            ],
            "stateMutability": "view",
            "type": "function"
        },
        {
            "inputs": [
                {
                    "internalType": "address",
                    "name": "account",
                    "type": "address"
                },
                {
                    "internalType": "uint256",
                    "name": "amount",
                    "type": "uint256"
                }
            ],
            "name": "mint",
            "outputs": [],
            "stateMutability": "nonpayable",
            "type": "function"
        },
        {
            "inputs": [],
            "name": "name",
            "outputs": [
                {
                    "internalType": "string",
                    "name": "",
                    "type": "string"
                }
            ],
            "stateMutability": "view",
            "type": "function"
        },
        {
            "inputs": [],
            "name": "owner",
            "outputs": [
                {
                    "internalType": "address",
                    "name": "",
                    "type": "address"
                }
            ],
            "stateMutability": "view",
            "type": "function"
        },
        {
            "inputs": [],
            "name": "renounceOwnership",
            "outputs": [],
            "stateMutability": "nonpayable",
            "type": "function"
        },
        {
            "inputs": [],
            "name": "symbol",
            "outputs": [
                {
                    "internalType": "string",
                    "name": "",
                    "type": "string"
                }
            ],
            "stateMutability": "view",
            "type": "function"
        },
        {
            "inputs": [],
            "name": "totalSupply",
            "outputs": [
                {
                    "internalType": "uint256",
                    "name": "",
                    "type": "uint256"
                }
            ],
            "stateMutability": "view",
            "type": "function"
        },
        {
            "inputs": [
                {
                    "internalType": "address",
                    "name": "to",
                    "type": "address"
                },
                {
                    "internalType": "uint256",
                    "name": "value",
                    "type": "uint256"
                }
            ],
            "name": "transfer",
            "outputs": [
                {
                    "internalType": "bool",
                    "name": "",
                    "type": "bool"
                }
            ],
            "stateMutability": "nonpayable",
            "type": "function"
        },
        {
            "inputs": [
                {
                    "internalType": "address",
                    "name": "from",
                    "type": "address"
                },
                {
                    "internalType": "address",
                    "name": "to",
                    "type": "address"
                },
                {
                    "internalType": "uint256",
                    "name": "value",
                    "type": "uint256"
                }
            ],
            "name": "transferFrom",
            "outputs": [
                {
                    "internalType": "bool",
                    "name": "",
                    "type": "bool"
                }
            ],
            "stateMutability": "nonpayable",
            "type": "function"
        },
        {
            "inputs": [
                {
                    "internalType": "address",
                    "name": "newOwner",
                    "type": "address"
                }
            ],
            "name": "transferOwnership",
            "outputs": [],
            "stateMutability": "nonpayable",
            "type": "function"
        }
    ],
    "bytecode": "608060405234801562000010575f80fd5b5060405162000c9a38038062000c9a8339810160408190526200003391620001aa565b33828260036200004483826200029a565b5060046200005382826200029a565b5050506001600160a01b0381166200008457604051631e4fbdf760e01b81525f600482015260240160405180910390fd5b6200008f8162000098565b50505062000366565b600580546001600160a01b038381166001600160a01b0319831681179093556040519116919082907f8be0079c531659141344cd1fd0a4f28419497f9722a3daafe3b4186f6b6457e0905f90a35050565b634e487b7160e01b5f52604160045260245ffd5b5f82601f8301126200010d575f80fd5b81516001600160401b03808211156200012a576200012a620000e9565b604051601f8301601f19908116603f01168101908282118183101715620001555762000155620000e9565b816040528381526020925086602085880101111562000172575f80fd5b5f91505b8382101562000195578582018301518183018401529082019062000176565b5f602085830101528094505050505092915050565b5f8060408385031215620001bc575f80fd5b82516001600160401b0380821115620001d3575f80fd5b620001e186838701620000fd565b93506020850151915080821115620001f7575f80fd5b506200020685828601620000fd565b9150509250929050565b600181811c908216806200022557607f821691505b6020821081036200024457634e487b7160e01b5f52602260045260245ffd5b50919050565b601f8211156200029557805f5260205f20601f840160051c81016020851015620002715750805b601f840160051c820191505b8181101562000292575f81556001016200027d565b50505b505050565b81516001600160401b03811115620002b657620002b6620000e9565b620002ce81620002c7845462000210565b846200024a565b602080601f83116001811462000304575f8415620002ec5750858301515b5f19600386901b1c1916600185901b1785556200035e565b5f85815260208120601f198616915b82811015620003345788860151825594840194600190910190840162000313565b50858210156200035257878501515f19600388901b60f8161c191681555b505060018460011b0185555b505050505050565b61092680620003745f395ff3fe608060405234801561000f575f80fd5b50600436106100e5575f3560e01c8063715018a6116100885780639dc29fac116100635780639dc29fac146101c6578063a9059cbb146101d9578063dd62ed3e146101ec578063f2fde38b14610224575f80fd5b8063715018a61461019b5780638da5cb5b146101a357806395d89b41146101be575f80fd5b806323b872dd116100c357806323b872dd1461013c578063313ce5671461014f57806340c10f191461015e57806370a0823114610173575f80fd5b806306fdde03146100e9578063095ea7b31461010757806318160ddd1461012a575b5f80fd5b6100f1610237565b6040516100fe9190610780565b60405180910390f35b61011a6101153660046107e7565b6102c7565b60405190151581526020016100fe565b6002545b6040519081526020016100fe565b61011a61014a36600461080f565b6102e0565b604051601281526020016100fe565b61017161016c3660046107e7565b610303565b005b61012e610181366004610848565b6001600160a01b03165f9081526020819052604090205490565b610171610327565b6005546040516001600160a01b0390911681526020016100fe565b6100f161033a565b6101716101d43660046107e7565b610349565b61011a6101e73660046107e7565b610369565b61012e6101fa366004610868565b6001600160a01b039182165f90815260016020908152604080832093909416825291909152205490565b610171610232366004610848565b610376565b60606003805461024690610899565b80601f016020809104026020016040519081016040528092919081815260200182805461027290610899565b80156102bd5780601f10610294576101008083540402835291602001916102bd565b820191905f5260205f20905b8154815290600101906020018083116102a057829003601f168201915b5050505050905090565b5f336102d48185856103b8565b60019150505b92915050565b5f336102ed8582856103ca565b6102f8858585610445565b506001949350505050565b6005546001600160a01b03163314610319575f80fd5b61032382826104a2565b5050565b61032f6104d6565b6103385f610503565b565b60606004805461024690610899565b6005546001600160a01b0316331461035f575f80fd5b6103238282610554565b5f336102d4818585610445565b61037e6104d6565b6001600160a01b0381166103ac57604051631e4fbdf760e01b81525f60048201526024015b60405180910390fd5b6103b581610503565b50565b6103c58383836001610588565b505050565b6001600160a01b038381165f908152600160209081526040808320938616835292905220545f19811461043f578181101561043157604051637dc7a0d960e11b81526001600160a01b038416600482015260248101829052604481018390526064016103a3565b61043f84848484035f610588565b50505050565b6001600160a01b03831661046e57604051634b637e8f60e11b81525f60048201526024016103a3565b6001600160a01b0382166104975760405163ec442f0560e01b81525f60048201526024016103a3565b6103c583838361065a565b6001600160a01b0382166104cb5760405163ec442f0560e01b81525f60048201526024016103a3565b6103235f838361065a565b6005546001600160a01b031633146103385760405163118cdaa760e01b81523360048201526024016103a3565b600580546001600160a01b038381166001600160a01b0319831681179093556040519116919082907f8be0079c531659141344cd1fd0a4f28419497f9722a3daafe3b4186f6b6457e0905f90a35050565b6001600160a01b03821661057d57604051634b637e8f60e11b81525f60048201526024016103a3565b610323825f8361065a565b6001600160a01b0384166105b15760405163e602df0560e01b81525f60048201526024016103a3565b6001600160a01b0383166105da57604051634a1406b160e11b81525f60048201526024016103a3565b6001600160a01b038085165f908152600160209081526040808320938716835292905220829055801561043f57826001600160a01b0316846001600160a01b03167f8c5be1e5ebec7d5bd14f71427d1e84f3dd0314c0f7b2291e5b200ac8c7c3b9258460405161064c91815260200190565b60405180910390a350505050565b6001600160a01b038316610684578060025f82825461067991906108d1565b909155506106f49050565b6001600160a01b0383165f90815260208190526040902054818110156106d65760405163391434e360e21b81526001600160a01b038516600482015260248101829052604481018390526064016103a3565b6001600160a01b0384165f9081526020819052604090209082900390555b6001600160a01b0382166107105760028054829003905561072e565b6001600160a01b0382165f9081526020819052604090208054820190555b816001600160a01b0316836001600160a01b03167fddf252ad1be2c89b69c2b068fc378daa952ba7f163c4a11628f55a4df523b3ef8360405161077391815260200190565b60405180910390a3505050565b5f602080835283518060208501525f5b818110156107ac57858101830151858201604001528201610790565b505f604082860101526040601f19601f8301168501019250505092915050565b80356001600160a01b03811681146107e2575f80fd5b919050565b5f80604083850312156107f8575f80fd5b610801836107cc565b946020939093013593505050565b5f805f60608486031215610821575f80fd5b61082a846107cc565b9250610838602085016107cc565b9150604084013590509250925092565b5f60208284031215610858575f80fd5b610861826107cc565b9392505050565b5f8060408385031215610879575f80fd5b610882836107cc565b9150610890602084016107cc565b90509250929050565b600181811c908216806108ad57607f821691505b6020821081036108cb57634e487b7160e01b5f52602260045260245ffd5b50919050565b808201808211156102da57634e487b7160e01b5f52601160045260245ffdfea264697066735822122023c8832cca4cfb68bf9bd30dc3dfd0e2566c424edc12a81c0a076fe7a297a12664736f6c63430008170033",
    "sourcePath": "c:/Users/tucuo/OneDrive/Desktop/CiSwap.Contracts/contracts/main/tokens/ExtendERC20.sol",
    "compiler": {
        "name": "solc",
        "version": "0.8.23+commit.f704f362"
    },
    "functionHashes": {
        "allowance(address,address)": "dd62ed3e",
        "approve(address,uint256)": "095ea7b3",
        "balanceOf(address)": "70a08231",
        "burn(address,uint256)": "9dc29fac",
        "decimals()": "313ce567",
        "mint(address,uint256)": "40c10f19",
        "name()": "06fdde03",
        "owner()": "8da5cb5b",
        "renounceOwnership()": "715018a6",
        "symbol()": "95d89b41",
        "totalSupply()": "18160ddd",
        "transfer(address,uint256)": "a9059cbb",
        "transferFrom(address,address,uint256)": "23b872dd",
        "transferOwnership(address)": "f2fde38b"
    },
    "gasEstimates": {
        "creation": {
            "codeDepositCost": "468400",
            "executionCost": "infinite",
            "totalCost": "infinite"
        },
        "external": {
            "allowance(address,address)": "infinite",
            "approve(address,uint256)": "24758",
            "balanceOf(address)": "2626",
            "burn(address,uint256)": "infinite",
            "decimals()": "221",
            "mint(address,uint256)": "infinite",
            "name()": "infinite",
            "owner()": "2345",
            "renounceOwnership()": "infinite",
            "symbol()": "infinite",
            "totalSupply()": "2348",
            "transfer(address,uint256)": "51260",
            "transferFrom(address,address,uint256)": "infinite",
            "transferOwnership(address)": "28421"
        }
    }
}