{
    "contractName": "WETH10",
    "abi": [
        {
            "inputs": [
                {
                    "internalType": "string",
                    "name": "_name",
                    "type": "string"
                },
                {
                    "internalType": "string",
                    "name": "_symbol",
                    "type": "string"
                }
            ],
            "stateMutability": "nonpayable",
            "type": "constructor"
        },
        {
            "anonymous": false,
            "inputs": [
                {
                    "indexed": true,
                    "internalType": "address",
                    "name": "owner",
                    "type": "address"
                },
                {
                    "indexed": true,
                    "internalType": "address",
                    "name": "spender",
                    "type": "address"
                },
                {
                    "indexed": false,
                    "internalType": "uint256",
                    "name": "value",
                    "type": "uint256"
                }
            ],
            "name": "Approval",
            "type": "event"
        },
        {
            "anonymous": false,
            "inputs": [
                {
                    "indexed": true,
                    "internalType": "address",
                    "name": "from",
                    "type": "address"
                },
                {
                    "indexed": true,
                    "internalType": "address",
                    "name": "to",
                    "type": "address"
                },
                {
                    "indexed": false,
                    "internalType": "uint256",
                    "name": "value",
                    "type": "uint256"
                }
            ],
            "name": "Transfer",
            "type": "event"
        },
        {
            "inputs": [],
            "name": "CALLBACK_SUCCESS",
            "outputs": [
                {
                    "internalType": "bytes32",
                    "name": "",
                    "type": "bytes32"
                }
            ],
            "stateMutability": "view",
            "type": "function"
        },
        {
            "inputs": [],
            "name": "DOMAIN_SEPARATOR",
            "outputs": [
                {
                    "internalType": "bytes32",
                    "name": "",
                    "type": "bytes32"
                }
            ],
            "stateMutability": "view",
            "type": "function"
        },
        {
            "inputs": [],
            "name": "PERMIT_TYPEHASH",
            "outputs": [
                {
                    "internalType": "bytes32",
                    "name": "",
                    "type": "bytes32"
                }
            ],
            "stateMutability": "view",
            "type": "function"
        },
        {
            "inputs": [
                {
                    "internalType": "address",
                    "name": "",
                    "type": "address"
                },
                {
                    "internalType": "address",
                    "name": "",
                    "type": "address"
                }
            ],
            "name": "allowance",
            "outputs": [
                {
                    "internalType": "uint256",
                    "name": "",
                    "type": "uint256"
                }
            ],
            "stateMutability": "view",
            "type": "function"
        },
        {
            "inputs": [
                {
                    "internalType": "address",
                    "name": "spender",
                    "type": "address"
                },
                {
                    "internalType": "uint256",
                    "name": "value",
                    "type": "uint256"
                }
            ],
            "name": "approve",
            "outputs": [
                {
                    "internalType": "bool",
                    "name": "",
                    "type": "bool"
                }
            ],
            "stateMutability": "nonpayable",
            "type": "function"
        },
        {
            "inputs": [
                {
                    "internalType": "address",
                    "name": "spender",
                    "type": "address"
                },
                {
                    "internalType": "uint256",
                    "name": "value",
                    "type": "uint256"
                },
                {
                    "internalType": "bytes",
                    "name": "data",
                    "type": "bytes"
                }
            ],
            "name": "approveAndCall",
            "outputs": [
                {
                    "internalType": "bool",
                    "name": "",
                    "type": "bool"
                }
            ],
            "stateMutability": "nonpayable",
            "type": "function"
        },
        {
            "inputs": [
                {
                    "internalType": "address",
                    "name": "",
                    "type": "address"
                }
            ],
            "name": "balanceOf",
            "outputs": [
                {
                    "internalType": "uint256",
                    "name": "",
                    "type": "uint256"
                }
            ],
            "stateMutability": "view",
            "type": "function"
        },
        {
            "inputs": [],
            "name": "decimals",
            "outputs": [
                {
                    "internalType": "uint8",
                    "name": "",
                    "type": "uint8"
                }
            ],
            "stateMutability": "view",
            "type": "function"
        },
        {
            "inputs": [],
            "name": "deploymentChainId",
            "outputs": [
                {
                    "internalType": "uint256",
                    "name": "",
                    "type": "uint256"
                }
            ],
            "stateMutability": "view",
            "type": "function"
        },
        {
            "inputs": [],
            "name": "deposit",
            "outputs": [],
            "stateMutability": "payable",
            "type": "function"
        },
        {
            "inputs": [
                {
                    "internalType": "address",
                    "name": "to",
                    "type": "address"
                }
            ],
            "name": "depositTo",
            "outputs": [],
            "stateMutability": "payable",
            "type": "function"
        },
        {
            "inputs": [
                {
                    "internalType": "address",
                    "name": "to",
                    "type": "address"
                },
                {
                    "internalType": "bytes",
                    "name": "data",
                    "type": "bytes"
                }
            ],
            "name": "depositToAndCall",
            "outputs": [
                {
                    "internalType": "bool",
                    "name": "success",
                    "type": "bool"
                }
            ],
            "stateMutability": "payable",
            "type": "function"
        },
        {
            "inputs": [
                {
                    "internalType": "address",
                    "name": "token",
                    "type": "address"
                },
                {
                    "internalType": "uint256",
                    "name": "",
                    "type": "uint256"
                }
            ],
            "name": "flashFee",
            "outputs": [
                {
                    "internalType": "uint256",
                    "name": "",
                    "type": "uint256"
                }
            ],
            "stateMutability": "view",
            "type": "function"
        },
        {
            "inputs": [
                {
                    "internalType": "contract IERC3156FlashBorrower",
                    "name": "receiver",
                    "type": "address"
                },
                {
                    "internalType": "address",
                    "name": "token",
                    "type": "address"
                },
                {
                    "internalType": "uint256",
                    "name": "value",
                    "type": "uint256"
                },
                {
                    "internalType": "bytes",
                    "name": "data",
                    "type": "bytes"
                }
            ],
            "name": "flashLoan",
            "outputs": [
                {
                    "internalType": "bool",
                    "name": "",
                    "type": "bool"
                }
            ],
            "stateMutability": "nonpayable",
            "type": "function"
        },
        {
            "inputs": [],
            "name": "flashMinted",
            "outputs": [
                {
                    "internalType": "uint256",
                    "name": "",
                    "type": "uint256"
                }
            ],
            "stateMutability": "view",
            "type": "function"
        },
        {
            "inputs": [
                {
                    "internalType": "address",
                    "name": "token",
                    "type": "address"
                }
            ],
            "name": "maxFlashLoan",
            "outputs": [
                {
                    "internalType": "uint256",
                    "name": "",
                    "type": "uint256"
                }
            ],
            "stateMutability": "view",
            "type": "function"
        },
        {
            "inputs": [],
            "name": "name",
            "outputs": [
                {
                    "internalType": "string",
                    "name": "",
                    "type": "string"
                }
            ],
            "stateMutability": "view",
            "type": "function"
        },
        {
            "inputs": [
                {
                    "internalType": "address",
                    "name": "",
                    "type": "address"
                }
            ],
            "name": "nonces",
            "outputs": [
                {
                    "internalType": "uint256",
                    "name": "",
                    "type": "uint256"
                }
            ],
            "stateMutability": "view",
            "type": "function"
        },
        {
            "inputs": [
                {
                    "internalType": "address",
                    "name": "owner",
                    "type": "address"
                },
                {
                    "internalType": "address",
                    "name": "spender",
                    "type": "address"
                },
                {
                    "internalType": "uint256",
                    "name": "value",
                    "type": "uint256"
                },
                {
                    "internalType": "uint256",
                    "name": "deadline",
                    "type": "uint256"
                },
                {
                    "internalType": "uint8",
                    "name": "v",
                    "type": "uint8"
                },
                {
                    "internalType": "bytes32",
                    "name": "r",
                    "type": "bytes32"
                },
                {
                    "internalType": "bytes32",
                    "name": "s",
                    "type": "bytes32"
                }
            ],
            "name": "permit",
            "outputs": [],
            "stateMutability": "nonpayable",
            "type": "function"
        },
        {
            "inputs": [],
            "name": "symbol",
            "outputs": [
                {
                    "internalType": "string",
                    "name": "",
                    "type": "string"
                }
            ],
            "stateMutability": "view",
            "type": "function"
        },
        {
            "inputs": [],
            "name": "totalSupply",
            "outputs": [
                {
                    "internalType": "uint256",
                    "name": "",
                    "type": "uint256"
                }
            ],
            "stateMutability": "view",
            "type": "function"
        },
        {
            "inputs": [
                {
                    "internalType": "address",
                    "name": "to",
                    "type": "address"
                },
                {
                    "internalType": "uint256",
                    "name": "value",
                    "type": "uint256"
                }
            ],
            "name": "transfer",
            "outputs": [
                {
                    "internalType": "bool",
                    "name": "",
                    "type": "bool"
                }
            ],
            "stateMutability": "nonpayable",
            "type": "function"
        },
        {
            "inputs": [
                {
                    "internalType": "address",
                    "name": "to",
                    "type": "address"
                },
                {
                    "internalType": "uint256",
                    "name": "value",
                    "type": "uint256"
                },
                {
                    "internalType": "bytes",
                    "name": "data",
                    "type": "bytes"
                }
            ],
            "name": "transferAndCall",
            "outputs": [
                {
                    "internalType": "bool",
                    "name": "",
                    "type": "bool"
                }
            ],
            "stateMutability": "nonpayable",
            "type": "function"
        },
        {
            "inputs": [
                {
                    "internalType": "address",
                    "name": "from",
                    "type": "address"
                },
                {
                    "internalType": "address",
                    "name": "to",
                    "type": "address"
                },
                {
                    "internalType": "uint256",
                    "name": "value",
                    "type": "uint256"
                }
            ],
            "name": "transferFrom",
            "outputs": [
                {
                    "internalType": "bool",
                    "name": "",
                    "type": "bool"
                }
            ],
            "stateMutability": "nonpayable",
            "type": "function"
        },
        {
            "inputs": [
                {
                    "internalType": "uint256",
                    "name": "value",
                    "type": "uint256"
                }
            ],
            "name": "withdraw",
            "outputs": [],
            "stateMutability": "nonpayable",
            "type": "function"
        },
        {
            "inputs": [
                {
                    "internalType": "address",
                    "name": "from",
                    "type": "address"
                },
                {
                    "internalType": "address payable",
                    "name": "to",
                    "type": "address"
                },
                {
                    "internalType": "uint256",
                    "name": "value",
                    "type": "uint256"
                }
            ],
            "name": "withdrawFrom",
            "outputs": [],
            "stateMutability": "nonpayable",
            "type": "function"
        },
        {
            "inputs": [
                {
                    "internalType": "address payable",
                    "name": "to",
                    "type": "address"
                },
                {
                    "internalType": "uint256",
                    "name": "value",
                    "type": "uint256"
                }
            ],
            "name": "withdrawTo",
            "outputs": [],
            "stateMutability": "nonpayable",
            "type": "function"
        },
        {
            "stateMutability": "payable",
            "type": "receive"
        }
    ],
    "bytecode": "6101006040527f439148f0bbc682ca079e46d6e2c2f0c1e3b820f1a291b069d8882abf8cf18dd96080527f6e71edae12b1b97f4d1f60370fef10105fa2faae0126114a169c64845d6126c960a05234801562000059575f80fd5b506040516200255b3803806200255b8339810160408190526200007c916200022a565b5f6200008983826200031a565b5060016200009882826200031a565b504660c0819052620000aa81620000b7565b60e0525062000460915050565b5f7f8b73c3c69bb8fe3d512ecc4cf759cc79239f7b179b0ffacaa9a75d522b39400f5f604051620000e99190620003e6565b60408051918290038220828201825260018352603160f81b6020938401528151928301939093528101919091527fc89efdaa54c0f20c7adf612882df0950f5a951637e0307cdcb4c672f298b8bc66060820152608081018390523060a082015260c001604051602081830303815290604052805190602001209050919050565b634e487b7160e01b5f52604160045260245ffd5b5f82601f8301126200018d575f80fd5b81516001600160401b0380821115620001aa57620001aa62000169565b604051601f8301601f19908116603f01168101908282118183101715620001d557620001d562000169565b8160405283815260209250866020858801011115620001f2575f80fd5b5f91505b83821015620002155785820183015181830184015290820190620001f6565b5f602085830101528094505050505092915050565b5f80604083850312156200023c575f80fd5b82516001600160401b038082111562000253575f80fd5b62000261868387016200017d565b9350602085015191508082111562000277575f80fd5b5062000286858286016200017d565b9150509250929050565b600181811c90821680620002a557607f821691505b602082108103620002c457634e487b7160e01b5f52602260045260245ffd5b50919050565b601f8211156200031557805f5260205f20601f840160051c81016020851015620002f15750805b601f840160051c820191505b8181101562000312575f8155600101620002fd565b50505b505050565b81516001600160401b0381111562000336576200033662000169565b6200034e8162000347845462000290565b84620002ca565b602080601f83116001811462000384575f84156200036c5750858301515b5f19600386901b1c1916600185901b178555620003de565b5f85815260208120601f198616915b82811015620003b45788860151825594840194600190910190840162000393565b5085821015620003d257878501515f19600388901b60f8161c191681555b505060018460011b0185555b505050505050565b5f808354620003f58162000290565b60018281168015620004105760018114620004265762000454565b60ff198416875282151583028701945062000454565b875f526020805f205f5b858110156200044b5781548a82015290840190820162000430565b50505082870194505b50929695505050505050565b60805160a05160c05160e0516120a4620004b75f395f8181610afd01526117ae01525f81816104d401528181610ac8015261177901525f81816102d501526116f201525f81816104080152610eb801526120a45ff3fe608060405260043610610198575f3560e01c806370a08231116100e7578063b760faf911610087578063d0e30db011610062578063d0e30db0146104f6578063d505accf146104fe578063d9d98ce41461051d578063dd62ed3e1461053c575f80fd5b8063b760faf914610491578063cae9ca51146104a4578063cd0d0096146104c3575f80fd5b80638b28d32f116100c25780638b28d32f1461042a5780639555a9421461043f57806395d89b411461045e578063a9059cbb14610472575f80fd5b806370a08231146103a15780637ecebe00146103cc5780638237e538146103f7575f80fd5b806330adf81f116101525780634000aea01161012d5780634000aea0146103315780635cffe9de146103505780635ddb7d7e1461036f578063613255ab14610382575f80fd5b806330adf81f146102c4578063313ce567146102f75780633644e5151461031d575f80fd5b806306fdde03146101ea578063095ea7b31461021457806318160ddd14610243578063205c28781461026557806323b872dd146102865780632e1a7d4d146102a5575f80fd5b366101e657335f90815260026020526040812080543492906101bb908490611a49565b909155505060405134815233905f905f8051602061202f8339815191529060200160405180910390a3005b5f80fd5b3480156101f5575f80fd5b506101fe610572565b60405161020b9190611a5c565b60405180910390f35b34801561021f575f80fd5b5061023361022e366004611abf565b6105fd565b604051901515815260200161020b565b34801561024e575f80fd5b50610257610656565b60405190815260200161020b565b348015610270575f80fd5b5061028461027f366004611abf565b61066a565b005b348015610291575f80fd5b506102336102a0366004611ae9565b61075a565b3480156102b0575f80fd5b506102846102bf366004611b27565b6109e8565b3480156102cf575f80fd5b506102577f000000000000000000000000000000000000000000000000000000000000000081565b348015610302575f80fd5b5061030b601281565b60405160ff909116815260200161020b565b348015610328575f80fd5b50610257610ac4565b34801561033c575f80fd5b5061023361034b366004611b83565b610b23565b34801561035b575f80fd5b5061023361036a366004611bdb565b610d2b565b61023361037d366004611c49565b6110d2565b34801561038d575f80fd5b5061025761039c366004611c9a565b6111a7565b3480156103ac575f80fd5b506102576103bb366004611c9a565b60026020525f908152604090205481565b3480156103d7575f80fd5b506102576103e6366004611c9a565b60036020525f908152604090205481565b348015610402575f80fd5b506102577f000000000000000000000000000000000000000000000000000000000000000081565b348015610435575f80fd5b5061025760055481565b34801561044a575f80fd5b50610284610459366004611ae9565b6111d2565b348015610469575f80fd5b506101fe6113af565b34801561047d575f80fd5b5061023361048c366004611abf565b6113bc565b61028461049f366004611c9a565b611569565b3480156104af575f80fd5b506102336104be366004611b83565b6115c5565b3480156104ce575f80fd5b506102577f000000000000000000000000000000000000000000000000000000000000000081565b610284611644565b348015610509575f80fd5b50610284610518366004611cbc565b61168d565b348015610528575f80fd5b50610257610537366004611abf565b611924565b348015610547575f80fd5b50610257610556366004611d2d565b600460209081525f928352604080842090915290825290205481565b5f805461057e90611d64565b80601f01602080910402602001604051908101604052809291908181526020018280546105aa90611d64565b80156105f55780601f106105cc576101008083540402835291602001916105f5565b820191905f5260205f20905b8154815290600101906020018083116105d857829003601f168201915b505050505081565b335f8181526004602090815260408083206001600160a01b038716808552925280832085905551919290915f8051602061204f833981519152906106449086815260200190565b60405180910390a35060015b92915050565b5f600554476106659190611a49565b905090565b335f90815260026020526040902054818110156106a25760405162461bcd60e51b815260040161069990611d9c565b60405180910390fd5b6106ac8282611ddd565b335f818152600260205260408082209390935591515f8051602061202f833981519152906106dd9086815260200190565b60405180910390a35f836001600160a01b0316836040515f6040518083038185875af1925050503d805f811461072e576040519150601f19603f3d011682016040523d82523d5f602084013e610733565b606091505b50509050806107545760405162461bcd60e51b815260040161069990611df0565b50505050565b5f6001600160a01b038416331461080e576001600160a01b0384165f9081526004602090815260408083203384529091529020545f19811461080c57828110156107b65760405162461bcd60e51b815260040161069990611e27565b5f6107c18483611ddd565b6001600160a01b0387165f81815260046020908152604080832033808552908352928190208590555184815293945090925f8051602061204f833981519152910160405180910390a3505b505b6001600160a01b0383161580159061082f57506001600160a01b0383163014155b156108f2576001600160a01b0384165f908152600260205260409020548281101561086c5760405162461bcd60e51b815260040161069990611e5e565b6108768382611ddd565b6001600160a01b038087165f9081526002602052604080822093909355908616815290812080548592906108ab908490611a49565b92505081905550836001600160a01b0316856001600160a01b03165f8051602061202f833981519152856040516108e491815260200190565b60405180910390a3506109de565b6001600160a01b0384165f908152600260205260409020548281101561092a5760405162461bcd60e51b815260040161069990611d9c565b6109348382611ddd565b6001600160a01b0386165f818152600260205260408082209390935591515f8051602061202f8339815191529061096e9087815260200190565b60405180910390a36040515f90339085908381818185875af1925050503d805f81146109b5576040519150601f19603f3d011682016040523d82523d5f602084013e6109ba565b606091505b50509050806109db5760405162461bcd60e51b815260040161069990611df0565b50505b5060019392505050565b335f9081526002602052604090205481811015610a175760405162461bcd60e51b815260040161069990611d9c565b610a218282611ddd565b335f818152600260205260408082209390935591515f8051602061202f83398151915290610a529086815260200190565b60405180910390a36040515f90339084908381818185875af1925050503d805f8114610a99576040519150601f19603f3d011682016040523d82523d5f602084013e610a9e565b606091505b5050905080610abf5760405162461bcd60e51b815260040161069990611df0565b505050565b5f467f00000000000000000000000000000000000000000000000000000000000000008114610afb57610af681611985565b610b1d565b7f00000000000000000000000000000000000000000000000000000000000000005b91505090565b5f6001600160a01b03851615610bd657335f9081526002602052604090205484811015610b625760405162461bcd60e51b815260040161069990611e5e565b610b6c8582611ddd565b335f90815260026020526040808220929092556001600160a01b03881681529081208054879290610b9e908490611a49565b90915550506040518581526001600160a01b0387169033905f8051602061202f8339815191529060200160405180910390a350610cb0565b335f9081526002602052604090205484811015610c055760405162461bcd60e51b815260040161069990611d9c565b610c0f8582611ddd565b335f818152600260205260408082209390935591515f8051602061202f83398151915290610c409089815260200190565b60405180910390a36040515f90339087908381818185875af1925050503d805f8114610c87576040519150601f19603f3d011682016040523d82523d5f602084013e610c8c565b606091505b5050905080610cad5760405162461bcd60e51b815260040161069990611df0565b50505b604051635260769b60e11b81526001600160a01b0386169063a4c0ed3690610ce2903390889088908890600401611ecb565b6020604051808303815f875af1158015610cfe573d5f803e3d5ffd5b505050506040513d601f19601f82011682018060405250810190610d229190611efc565b95945050505050565b5f6001600160a01b0385163014610d845760405162461bcd60e51b815260206004820152601c60248201527f574554483a20666c617368206d696e74206f6e6c7920574554483130000000006044820152606401610699565b6001600160701b03841115610de75760405162461bcd60e51b8152602060048201526024808201527f574554483a20696e646976696475616c206c6f616e206c696d697420657863656044820152631959195960e21b6064820152608401610699565b83600554610df59190611a49565b60058190556001600160701b031015610e505760405162461bcd60e51b815260206004820152601f60248201527f574554483a20746f74616c206c6f616e206c696d6974206578636565646564006044820152606401610699565b6001600160a01b0386165f9081526002602052604081208054869290610e77908490611a49565b90915550506040518481526001600160a01b038716905f905f8051602061202f8339815191529060200160405180910390a36040516323e30c8b60e01b81527f0000000000000000000000000000000000000000000000000000000000000000906001600160a01b038816906323e30c8b90610f0190339030908a905f908b908b90600401611f1b565b6020604051808303815f875af1158015610f1d573d5f803e3d5ffd5b505050506040513d601f19601f82011682018060405250810190610f419190611f61565b14610f8e5760405162461bcd60e51b815260206004820152601760248201527f574554483a20666c617368206c6f616e206661696c65640000000000000000006044820152606401610699565b6001600160a01b0386165f9081526004602090815260408083203084529091529020545f19811461102f5784811015610fd95760405162461bcd60e51b815260040161069990611e27565b5f610fe48683611ddd565b6001600160a01b0389165f81815260046020908152604080832030808552908352928190208590555184815293945090925f8051602061204f833981519152910160405180910390a3505b6001600160a01b0387165f90815260026020526040902054858110156110675760405162461bcd60e51b815260040161069990611d9c565b6110718682611ddd565b6001600160a01b0389165f818152600260205260408082209390935591515f8051602061202f833981519152906110ab908a815260200190565b60405180910390a3856005546110c19190611ddd565b600555506001979650505050505050565b6001600160a01b0383165f908152600260205260408120805434919083906110fb908490611a49565b90915550506040513481526001600160a01b038516905f905f8051602061202f8339815191529060200160405180910390a3604051635260769b60e11b81526001600160a01b0385169063a4c0ed369061115f903390349088908890600401611ecb565b6020604051808303815f875af115801561117b573d5f803e3d5ffd5b505050506040513d601f19601f8201168201806040525081019061119f9190611efc565b949350505050565b5f6001600160a01b03821630146111be575f610650565b600554610650906001600160701b03611ddd565b6001600160a01b0383163314611285576001600160a01b0383165f9081526004602090815260408083203384529091529020545f198114611283578181101561122d5760405162461bcd60e51b815260040161069990611e27565b5f6112388383611ddd565b6001600160a01b0386165f81815260046020908152604080832033808552908352928190208590555184815293945090925f8051602061204f833981519152910160405180910390a3505b505b6001600160a01b0383165f90815260026020526040902054818110156112bd5760405162461bcd60e51b815260040161069990611d9c565b6112c78282611ddd565b6001600160a01b0385165f818152600260205260408082209390935591515f8051602061202f833981519152906113019086815260200190565b60405180910390a35f836001600160a01b0316836040515f6040518083038185875af1925050503d805f8114611352576040519150601f19603f3d011682016040523d82523d5f602084013e611357565b606091505b50509050806113a85760405162461bcd60e51b815260206004820152601b60248201527f574554483a204574686572207472616e73666572206661696c656400000000006044820152606401610699565b5050505050565b6001805461057e90611d64565b5f6001600160a01b038316158015906113de57506001600160a01b0383163014155b1561148657335f90815260026020526040902054828110156114125760405162461bcd60e51b815260040161069990611e5e565b61141c8382611ddd565b335f90815260026020526040808220929092556001600160a01b0386168152908120805485929061144e908490611a49565b90915550506040518381526001600160a01b0385169033905f8051602061202f8339815191529060200160405180910390a350611560565b335f90815260026020526040902054828110156114b55760405162461bcd60e51b815260040161069990611d9c565b6114bf8382611ddd565b335f818152600260205260408082209390935591515f8051602061202f833981519152906114f09087815260200190565b60405180910390a36040515f90339085908381818185875af1925050503d805f8114611537576040519150601f19603f3d011682016040523d82523d5f602084013e61153c565b606091505b505090508061155d5760405162461bcd60e51b815260040161069990611df0565b50505b50600192915050565b6001600160a01b0381165f9081526002602052604081208054349290611590908490611a49565b90915550506040513481526001600160a01b038216905f905f8051602061202f8339815191529060200160405180910390a350565b335f8181526004602090815260408083206001600160a01b038916808552925280832087905551919290915f8051602061204f8339815191529061160c9088815260200190565b60405180910390a360405162ba451f60e01b81526001600160a01b0386169062ba451f90610ce2903390889088908890600401611ecb565b335f9081526002602052604081208054349290611662908490611a49565b909155505060405134815233905f905f8051602061202f8339815191529060200160405180910390a3565b834211156116d45760405162461bcd60e51b815260206004820152601460248201527315d155120e88115e1c1a5c9959081c195c9b5a5d60621b6044820152606401610699565b6001600160a01b0387165f90815260036020526040812080544692917f0000000000000000000000000000000000000000000000000000000000000000918b918b918b918661172283611f78565b909155506040805160208101969096526001600160a01b0394851690860152929091166060840152608083015260a082015260c0810187905260e0016040516020818303038152906040528051906020012090505f7f000000000000000000000000000000000000000000000000000000000000000083146117ac576117a783611985565b6117ce565b7f00000000000000000000000000000000000000000000000000000000000000005b60405161190160f01b602082015260228101919091526042810183905260620160408051601f1981840301815282825280516020918201205f80855291840180845281905260ff8a169284019290925260608301889052608083018790529092509060019060a0016020604051602081039080840390855afa158015611856573d5f803e3d5ffd5b5050604051601f1901519150506001600160a01b0381161580159061188c57508a6001600160a01b0316816001600160a01b0316145b6118cf5760405162461bcd60e51b815260206004820152601460248201527315d155120e881a5b9d985b1a59081c195c9b5a5d60621b6044820152606401610699565b6001600160a01b038b81165f818152600460209081526040808320948f16808452948252918290208d905590518c81525f8051602061204f833981519152910160405180910390a35050505050505050505050565b5f6001600160a01b038316301461197d5760405162461bcd60e51b815260206004820152601c60248201527f574554483a20666c617368206d696e74206f6e6c7920574554483130000000006044820152606401610699565b505f92915050565b5f7f8b73c3c69bb8fe3d512ecc4cf759cc79239f7b179b0ffacaa9a75d522b39400f5f6040516119b59190611f90565b60408051918290038220828201825260018352603160f81b6020938401528151928301939093528101919091527fc89efdaa54c0f20c7adf612882df0950f5a951637e0307cdcb4c672f298b8bc66060820152608081018390523060a082015260c001604051602081830303815290604052805190602001209050919050565b634e487b7160e01b5f52601160045260245ffd5b8082018082111561065057610650611a35565b5f602080835283518060208501525f5b81811015611a8857858101830151858201604001528201611a6c565b505f604082860101526040601f19601f8301168501019250505092915050565b6001600160a01b0381168114611abc575f80fd5b50565b5f8060408385031215611ad0575f80fd5b8235611adb81611aa8565b946020939093013593505050565b5f805f60608486031215611afb575f80fd5b8335611b0681611aa8565b92506020840135611b1681611aa8565b929592945050506040919091013590565b5f60208284031215611b37575f80fd5b5035919050565b5f8083601f840112611b4e575f80fd5b50813567ffffffffffffffff811115611b65575f80fd5b602083019150836020828501011115611b7c575f80fd5b9250929050565b5f805f8060608587031215611b96575f80fd5b8435611ba181611aa8565b935060208501359250604085013567ffffffffffffffff811115611bc3575f80fd5b611bcf87828801611b3e565b95989497509550505050565b5f805f805f60808688031215611bef575f80fd5b8535611bfa81611aa8565b94506020860135611c0a81611aa8565b935060408601359250606086013567ffffffffffffffff811115611c2c575f80fd5b611c3888828901611b3e565b969995985093965092949392505050565b5f805f60408486031215611c5b575f80fd5b8335611c6681611aa8565b9250602084013567ffffffffffffffff811115611c81575f80fd5b611c8d86828701611b3e565b9497909650939450505050565b5f60208284031215611caa575f80fd5b8135611cb581611aa8565b9392505050565b5f805f805f805f60e0888a031215611cd2575f80fd5b8735611cdd81611aa8565b96506020880135611ced81611aa8565b95506040880135945060608801359350608088013560ff81168114611d10575f80fd5b9699959850939692959460a0840135945060c09093013592915050565b5f8060408385031215611d3e575f80fd5b8235611d4981611aa8565b91506020830135611d5981611aa8565b809150509250929050565b600181811c90821680611d7857607f821691505b602082108103611d9657634e487b7160e01b5f52602260045260245ffd5b50919050565b60208082526021908201527f574554483a206275726e20616d6f756e7420657863656564732062616c616e636040820152606560f81b606082015260800190565b8181038181111561065057610650611a35565b60208082526019908201527f574554483a20455448207472616e73666572206661696c656400000000000000604082015260600190565b6020808252601f908201527f574554483a2072657175657374206578636565647320616c6c6f77616e636500604082015260600190565b60208082526025908201527f574554483a207472616e7366657220616d6f756e7420657863656564732062616040820152646c616e636560d81b606082015260800190565b81835281816020850137505f828201602090810191909152601f909101601f19169091010190565b60018060a01b0385168152836020820152606060408201525f611ef2606083018486611ea3565b9695505050505050565b5f60208284031215611f0c575f80fd5b81518015158114611cb5575f80fd5b6001600160a01b03878116825286166020820152604081018590526060810184905260a0608082018190525f90611f559083018486611ea3565b98975050505050505050565b5f60208284031215611f71575f80fd5b5051919050565b5f60018201611f8957611f89611a35565b5060010190565b5f8083545f60018260011c91506001831680611fad57607f831692505b60208084108203611fcc57634e487b7160e01b5f52602260045260245ffd5b818015611fe05760018114611ff557612020565b60ff1986168952841515850289019650612020565b5f8a8152602090205f5b868110156120185781548b820152908501908301611fff565b505084890196505b50949897505050505050505056feddf252ad1be2c89b69c2b068fc378daa952ba7f163c4a11628f55a4df523b3ef8c5be1e5ebec7d5bd14f71427d1e84f3dd0314c0f7b2291e5b200ac8c7c3b925a2646970667358221220a682ee1ac2a59a0dd5f86466ab141cb9b2a7189764e6097383804a86565dce6264736f6c63430008170033",
    "sourcePath": "c:/Users/tucuo/OneDrive/Desktop/CiSwap.Contracts/contracts/main/tokens/WETH10.sol",
    "compiler": {
        "name": "solc",
        "version": "0.8.23+commit.f704f362"
    },
    "functionHashes": {
        "CALLBACK_SUCCESS()": "8237e538",
        "DOMAIN_SEPARATOR()": "3644e515",
        "PERMIT_TYPEHASH()": "30adf81f",
        "allowance(address,address)": "dd62ed3e",
        "approve(address,uint256)": "095ea7b3",
        "approveAndCall(address,uint256,bytes)": "cae9ca51",
        "balanceOf(address)": "70a08231",
        "decimals()": "313ce567",
        "deploymentChainId()": "cd0d0096",
        "deposit()": "d0e30db0",
        "depositTo(address)": "b760faf9",
        "depositToAndCall(address,bytes)": "5ddb7d7e",
        "flashFee(address,uint256)": "d9d98ce4",
        "flashLoan(address,address,uint256,bytes)": "5cffe9de",
        "flashMinted()": "8b28d32f",
        "maxFlashLoan(address)": "613255ab",
        "name()": "06fdde03",
        "nonces(address)": "7ecebe00",
        "permit(address,address,uint256,uint256,uint8,bytes32,bytes32)": "d505accf",
        "symbol()": "95d89b41",
        "totalSupply()": "18160ddd",
        "transfer(address,uint256)": "a9059cbb",
        "transferAndCall(address,uint256,bytes)": "4000aea0",
        "transferFrom(address,address,uint256)": "23b872dd",
        "withdraw(uint256)": "2e1a7d4d",
        "withdrawFrom(address,address,uint256)": "9555a942",
        "withdrawTo(address,uint256)": "205c2878"
    },
    "gasEstimates": {
        "creation": {
            "codeDepositCost": "1671200",
            "executionCost": "infinite",
            "totalCost": "infinite"
        },
        "external": {
            "CALLBACK_SUCCESS()": "infinite",
            "DOMAIN_SEPARATOR()": "infinite",
            "PERMIT_TYPEHASH()": "infinite",
            "allowance(address,address)": "infinite",
            "approve(address,uint256)": "infinite",
            "approveAndCall(address,uint256,bytes)": "infinite",
            "balanceOf(address)": "2556",
            "decimals()": "271",
            "deploymentChainId()": "infinite",
            "deposit()": "infinite",
            "depositTo(address)": "infinite",
            "depositToAndCall(address,bytes)": "infinite",
            "flashFee(address,uint256)": "552",
            "flashLoan(address,address,uint256,bytes)": "infinite",
            "flashMinted()": "2339",
            "maxFlashLoan(address)": "infinite",
            "name()": "infinite",
            "nonces(address)": "2578",
            "permit(address,address,uint256,uint256,uint8,bytes32,bytes32)": "infinite",
            "symbol()": "infinite",
            "totalSupply()": "2461",
            "transfer(address,uint256)": "infinite",
            "transferAndCall(address,uint256,bytes)": "infinite",
            "transferFrom(address,address,uint256)": "infinite",
            "withdraw(uint256)": "infinite",
            "withdrawFrom(address,address,uint256)": "infinite",
            "withdrawTo(address,uint256)": "infinite"
        },
        "internal": {
            "_calculateDomainSeparator(uint256)": "infinite"
        }
    }
}