{
    "contractName": "Factory",
    "abi": [
        {
            "inputs": [],
            "stateMutability": "nonpayable",
            "type": "constructor"
        },
        {
            "inputs": [
                {
                    "internalType": "address",
                    "name": "target",
                    "type": "address"
                }
            ],
            "name": "AddressEmptyCode",
            "type": "error"
        },
        {
            "inputs": [
                {
                    "internalType": "address",
                    "name": "account",
                    "type": "address"
                }
            ],
            "name": "AddressInsufficientBalance",
            "type": "error"
        },
        {
            "inputs": [],
            "name": "FailedInnerCall",
            "type": "error"
        },
        {
            "inputs": [
                {
                    "internalType": "address",
                    "name": "owner",
                    "type": "address"
                }
            ],
            "name": "OwnableInvalidOwner",
            "type": "error"
        },
        {
            "inputs": [
                {
                    "internalType": "address",
                    "name": "account",
                    "type": "address"
                }
            ],
            "name": "OwnableUnauthorizedAccount",
            "type": "error"
        },
        {
            "inputs": [
                {
                    "internalType": "address",
                    "name": "token",
                    "type": "address"
                }
            ],
            "name": "SafeERC20FailedOperation",
            "type": "error"
        },
        {
            "anonymous": false,
            "inputs": [
                {
                    "indexed": true,
                    "internalType": "uint24",
                    "name": "fee",
                    "type": "uint24"
                }
            ],
            "name": "FeeAmountEnabled",
            "type": "event"
        },
        {
            "anonymous": false,
            "inputs": [
                {
                    "indexed": true,
                    "internalType": "address",
                    "name": "previousOwner",
                    "type": "address"
                },
                {
                    "indexed": true,
                    "internalType": "address",
                    "name": "newOwner",
                    "type": "address"
                }
            ],
            "name": "OwnershipTransferred",
            "type": "event"
        },
        {
            "anonymous": false,
            "inputs": [
                {
                    "indexed": true,
                    "internalType": "address",
                    "name": "sender",
                    "type": "address"
                },
                {
                    "components": [
                        {
                            "internalType": "address",
                            "name": "tokenA",
                            "type": "address"
                        },
                        {
                            "internalType": "address",
                            "name": "tokenB",
                            "type": "address"
                        },
                        {
                            "internalType": "uint256",
                            "name": "amountA",
                            "type": "uint256"
                        },
                        {
                            "internalType": "uint256",
                            "name": "amountB",
                            "type": "uint256"
                        },
                        {
                            "internalType": "uint256",
                            "name": "basePriceAX96",
                            "type": "uint256"
                        },
                        {
                            "internalType": "uint256",
                            "name": "maxPriceAX96",
                            "type": "uint256"
                        }
                    ],
                    "indexed": false,
                    "internalType": "struct IPoolDeployer.BootstrapConfig",
                    "name": "config",
                    "type": "tuple"
                },
                {
                    "indexed": false,
                    "internalType": "address",
                    "name": "pool",
                    "type": "address"
                }
            ],
            "name": "PoolCreated",
            "type": "event"
        },
        {
            "inputs": [
                {
                    "components": [
                        {
                            "internalType": "uint24",
                            "name": "fee",
                            "type": "uint24"
                        },
                        {
                            "components": [
                                {
                                    "internalType": "address",
                                    "name": "tokenA",
                                    "type": "address"
                                },
                                {
                                    "internalType": "address",
                                    "name": "tokenB",
                                    "type": "address"
                                },
                                {
                                    "internalType": "uint256",
                                    "name": "amountA",
                                    "type": "uint256"
                                },
                                {
                                    "internalType": "uint256",
                                    "name": "amountB",
                                    "type": "uint256"
                                },
                                {
                                    "internalType": "uint256",
                                    "name": "basePriceAX96",
                                    "type": "uint256"
                                },
                                {
                                    "internalType": "uint256",
                                    "name": "maxPriceAX96",
                                    "type": "uint256"
                                }
                            ],
                            "internalType": "struct IPoolDeployer.BootstrapConfig",
                            "name": "config",
                            "type": "tuple"
                        }
                    ],
                    "internalType": "struct IFactory.CreatePoolParams",
                    "name": "params",
                    "type": "tuple"
                }
            ],
            "name": "createPool",
            "outputs": [
                {
                    "internalType": "address",
                    "name": "pool",
                    "type": "address"
                }
            ],
            "stateMutability": "nonpayable",
            "type": "function"
        },
        {
            "inputs": [],
            "name": "deployParams",
            "outputs": [
                {
                    "internalType": "address",
                    "name": "factory",
                    "type": "address"
                },
                {
                    "internalType": "uint24",
                    "name": "fee",
                    "type": "uint24"
                },
                {
                    "components": [
                        {
                            "internalType": "address",
                            "name": "tokenA",
                            "type": "address"
                        },
                        {
                            "internalType": "address",
                            "name": "tokenB",
                            "type": "address"
                        },
                        {
                            "internalType": "uint256",
                            "name": "amountA",
                            "type": "uint256"
                        },
                        {
                            "internalType": "uint256",
                            "name": "amountB",
                            "type": "uint256"
                        },
                        {
                            "internalType": "uint256",
                            "name": "basePriceAX96",
                            "type": "uint256"
                        },
                        {
                            "internalType": "uint256",
                            "name": "maxPriceAX96",
                            "type": "uint256"
                        }
                    ],
                    "internalType": "struct IPoolDeployer.BootstrapConfig",
                    "name": "config",
                    "type": "tuple"
                }
            ],
            "stateMutability": "view",
            "type": "function"
        },
        {
            "inputs": [
                {
                    "internalType": "uint24",
                    "name": "",
                    "type": "uint24"
                }
            ],
            "name": "getFeeAmountEnabled",
            "outputs": [
                {
                    "internalType": "bool",
                    "name": "",
                    "type": "bool"
                }
            ],
            "stateMutability": "view",
            "type": "function"
        },
        {
            "inputs": [
                {
                    "internalType": "address",
                    "name": "",
                    "type": "address"
                },
                {
                    "internalType": "address",
                    "name": "",
                    "type": "address"
                },
                {
                    "internalType": "uint256",
                    "name": "",
                    "type": "uint256"
                }
            ],
            "name": "getPool",
            "outputs": [
                {
                    "internalType": "address",
                    "name": "",
                    "type": "address"
                }
            ],
            "stateMutability": "view",
            "type": "function"
        },
        {
            "inputs": [],
            "name": "owner",
            "outputs": [
                {
                    "internalType": "address",
                    "name": "",
                    "type": "address"
                }
            ],
            "stateMutability": "view",
            "type": "function"
        },
        {
            "inputs": [
                {
                    "internalType": "uint256",
                    "name": "",
                    "type": "uint256"
                }
            ],
            "name": "pools",
            "outputs": [
                {
                    "internalType": "address",
                    "name": "",
                    "type": "address"
                }
            ],
            "stateMutability": "view",
            "type": "function"
        },
        {
            "inputs": [],
            "name": "renounceOwnership",
            "outputs": [],
            "stateMutability": "nonpayable",
            "type": "function"
        },
        {
            "inputs": [
                {
                    "internalType": "address",
                    "name": "newOwner",
                    "type": "address"
                }
            ],
            "name": "transferOwnership",
            "outputs": [],
            "stateMutability": "nonpayable",
            "type": "function"
        }
    ],
    "bytecode": "608060405234801561000f575f80fd5b50338061003557604051631e4fbdf760e01b81525f600482015260240160405180910390fd5b61003e81610173565b5060fa5f81815260086020527f4082a7ed6e4023b607cb660042d5c12d2c6f0586ae187b8e792ac8955d9fd4e2805460ff191660011790556040515f80516020611d168339815191529190a26101f45f81815260086020527f0236ac8b33b887d9cc23d3c9dee131431f2d92d6188905e4684dfbab4c7e1d55805460ff191660011790556040515f80516020611d168339815191529190a26103e85f81815260086020527fe1c377011d4987ac72cbf51f1c83356f63a2c44a37c1d1d5fa30e140ee782cf4805460ff191660011790556040515f80516020611d168339815191529190a26109c45f81815260086020527f441502246354bb880824a47b8a4686a6dab18dafb6cc2d4df7deb2b345e809fb805460ff191660011790556040515f80516020611d168339815191529190a26101c2565b5f80546001600160a01b038381166001600160a01b0319831681178455604051919092169283917f8be0079c531659141344cd1fd0a4f28419497f9722a3daafe3b4186f6b6457e09190a35050565b611b47806101cf5f395ff3fe608060405234801562000010575f80fd5b506004361062000090575f3560e01c8063b2222e9e116200005f578063b2222e9e14620000f7578063f2fde38b146200010e578063f3778fd81462000125578063f65443fa14620001f7575f80fd5b8063715018a614620000945780638da5cb5b14620000a0578063ac4afa3814620000c9578063acf6cc1a14620000e0575b5f80fd5b6200009e6200022d565b005b5f546001600160a01b03165b6040516001600160a01b0390911681526020015b60405180910390f35b620000ac620000da36600462000a40565b62000244565b620000ac620000f136600462000a74565b6200026d565b620000ac6200010836600462000ab2565b620002ad565b6200009e6200011f36600462000ac9565b6200061f565b6001546040805160c0810182526002546001600160a01b03908116825260035481166020830152600454928201929092526005546060820152600654608082015260075460a0820152620001879291821691600160a01b900462ffffff169083565b604051620000c0939291905f6101008201905060018060a01b03808616835262ffffff851660208401528084511660408401528060208501511660608401525060408301516080830152606083015160a0830152608083015160c083015260a083015160e0830152949350505050565b6200021c6200020836600462000ae5565b60086020525f908152604090205460ff1681565b6040519015158152602001620000c0565b6200023762000666565b620002425f62000694565b565b600a818154811062000254575f80fd5b5f918252602090912001546001600160a01b0316905081565b6009602052825f5260405f20602052815f5260405f20818154811062000291575f80fd5b5f918252602090912001546001600160a01b0316925083915050565b5f620002c0606083016040840162000ac9565b6001600160a01b0316620002db604084016020850162000ac9565b6001600160a01b031603620002ee575f80fd5b60c082013560a08301351062000302575f80fd5b60085f62000314602085018562000ae5565b62ffffff16815260208101919091526040015f205460ff1662000335575f80fd5b604080516060810190915230815262000384906020808201906200035c9086018662000ae5565b62ffffff168152602001846020018036038101906200037c919062000b09565b9052620006e3565b600a80546001810182555f9182527fc65a7bb8d6351c1cf70c95a316cc6a92839c986682d98bc35f958f4883f9d2a80180546001600160a01b0319166001600160a01b038416179055909150808062000400620003e8604087016020880162000ac9565b620003fa606088016040890162000ac9565b620007d8565b9250925092505f80826200041e576080870135606088013562000429565b606087013560808801355b9150915062000442856200043a3390565b888562000811565b620004508433888462000811565b6001600160a01b03861663f2fde38b336040516001600160e01b031960e084901b1681526001600160a01b0390911660048201526024015f604051808303815f87803b1580156200049f575f80fd5b505af1158015620004b2573d5f803e3d5ffd5b5050505060095f866001600160a01b03166001600160a01b031681526020019081526020015f205f856001600160a01b03166001600160a01b031681526020019081526020015f2086908060018154018082558091505060019003905f5260205f20015f9091909190916101000a8154816001600160a01b0302191690836001600160a01b0316021790555060095f856001600160a01b03166001600160a01b031681526020019081526020015f205f866001600160a01b03166001600160a01b031681526020019081526020015f2086908060018154018082558091505060019003905f5260205f20015f9091909190916101000a8154816001600160a01b0302191690836001600160a01b03160217905550620005ce3390565b6001600160a01b03167f9e75797b5e00b4e156c1e86fd03703f61c3f543da9fb2fd4ae58da3a9664874088602001886040516200060d92919062000b9f565b60405180910390a25050505050919050565b6200062962000666565b6001600160a01b0381166200065857604051631e4fbdf760e01b81525f60048201526024015b60405180910390fd5b620006638162000694565b50565b5f546001600160a01b03163314620002425760405163118cdaa760e01b81523360048201526024016200064f565b5f80546001600160a01b038381166001600160a01b0319831681178455604051919092169283917f8be0079c531659141344cd1fd0a4f28419497f9722a3daafe3b4186f6b6457e09190a35050565b80516001805460208085015162ffffff16600160a01b026001600160b81b03199092166001600160a01b0394851617919091179091556040808401518051600280549186166001600160a01b0319928316179055928101516003805491909516931692909217909255808201516004556060810151600555608081015160065560a00151600755515f90620007789062000a32565b604051809103905ff08015801562000792573d5f803e3d5ffd5b50600180546001600160b81b0319169055600280546001600160a01b03199081169091556003805490911690555f60048190556005819055600681905560075592915050565b5f805f836001600160a01b0316856001600160a01b031610620007fe5783855f62000803565b848460015b919790965090945092505050565b620008286001600160a01b0385168484846200082e565b50505050565b604080516001600160a01b038581166024830152848116604483015260648083018590528351808403909101815260849092019092526020810180516001600160e01b03166323b872dd60e01b17905262000828918691905f906200089690841683620008ed565b905080515f14158015620008bd575080806020019051810190620008bb919062000c07565b155b15620008e857604051635274afe760e01b81526001600160a01b03841660048201526024016200064f565b505050565b6060620008fc83835f62000903565b9392505050565b6060814710156200092a5760405163cd78605960e01b81523060048201526024016200064f565b5f80856001600160a01b0316848660405162000947919062000c28565b5f6040518083038185875af1925050503d805f811462000983576040519150601f19603f3d011682016040523d82523d5f602084013e62000988565b606091505b50915091506200099a868383620009a4565b9695505050505050565b606082620009bd57620009b78262000a08565b620008fc565b8151158015620009d557506001600160a01b0384163b155b1562000a0057604051639996b31560e01b81526001600160a01b03851660048201526024016200064f565b5080620008fc565b80511562000a195780518082602001fd5b604051630a12f52160e11b815260040160405180910390fd5b610ebb8062000c5783390190565b5f6020828403121562000a51575f80fd5b5035919050565b80356001600160a01b038116811462000a6f575f80fd5b919050565b5f805f6060848603121562000a87575f80fd5b62000a928462000a58565b925062000aa26020850162000a58565b9150604084013590509250925092565b5f60e0828403121562000ac3575f80fd5b50919050565b5f6020828403121562000ada575f80fd5b620008fc8262000a58565b5f6020828403121562000af6575f80fd5b813562ffffff81168114620008fc575f80fd5b5f60c0828403121562000b1a575f80fd5b60405160c0810181811067ffffffffffffffff8211171562000b4a57634e487b7160e01b5f52604160045260245ffd5b60405262000b588362000a58565b815262000b686020840162000a58565b602082015260408301356040820152606083013560608201526080830135608082015260a083013560a08201528091505092915050565b60e081016001600160a01b038062000bb78662000a58565b1683528062000bc96020870162000a58565b16602084015260408501356040840152606085013560608401526080850135608084015260a085013560a084015280841660c0840152509392505050565b5f6020828403121562000c18575f80fd5b81518015158114620008fc575f80fd5b5f82515f5b8181101562000c49576020818601810151858301520162000c2d565b505f92019182525091905056fe61014060405234801562000011575f80fd5b5033806200003957604051631e4fbdf760e01b81525f60048201526024015b60405180910390fd5b620000448162000219565b50336001600160a01b031663f3778fd86040518163ffffffff1660e01b815260040161010060405180830381865afa15801562000083573d5f803e3d5ffd5b505050506040513d601f19601f82011682018060405250810190620000a99190620006f0565b8051600180546001600160a01b039283166001600160a01b031991821681179092556020840151600280549185169190921681179091556040840151600355606084015160045560808085015160055560a09485015160065562ffffff90951690935293169091525f916200011e9162000268565b6001600160a01b0391821660e052911660c0526005546006546003546004549394505f938493620001539390929091620002a1565b91509150826200016557808262000168565b81815b61012052610100525f808462000184576004546003546200018b565b6003546004545b90925090505f6200019e600742620002cb565b905060405180608001604052808461010051620001bc9190620007db565b81526020018361012051620001d29190620007db565b8152602080820193909352600160409182015281516008559181015160095590810151600a5560600151600b805460ff1916911515919091179055506200083f9350505050565b5f80546001600160a01b038381166001600160a01b0319831681178455604051919092169283917f8be0079c531659141344cd1fd0a4f28419497f9722a3daafe3b4186f6b6457e09190a35050565b5f805f836001600160a01b0316856001600160a01b0316106200028e5783855f62000293565b848460015b919790965090945092505050565b5f80620002b086868662000319565b9150620002c086838686620003b2565b905094509492505050565b604080516060810182528281525f6020808301828152938301828152865460018181018955888552929093209351600390930290930191825592518184015590516002909101555b92915050565b5f8062000335856c010000000000000000000000008662000436565b90505f6200034382620004fb565b90505f620003528583620007f1565b905066010000000000005f806200036a8386620005fc565b9150915081620003965760405162461bcd60e51b8152602060048201525f602482015260440162000030565b620003a281856200081f565b96505050505050505b9392505050565b5f6c010000000000000000000000008180620003f288620003d48989620007db565b620003e09190620007f1565b620003ec8786620007f1565b620005fc565b91509150816200041e5760405162461bcd60e51b8152602060048201525f602482015260440162000030565b6200042a83826200081f565b98975050505050505050565b5f838302815f1985870982811083820303915050805f036200046f578382816200046457620004646200080b565b0492505050620003ab565b808411620004905760405163227bc15360e01b815260040160405180910390fd5b5f848688095f868103871696879004966002600389028118808a02820302808a02820302808a02820302808a02820302808a02820302808a02909103029181900381900460010186841190950394909402919094039290920491909117919091029150509392505050565b5f815f036200050b57505f919050565b5f6001620005198462000622565b901c6001901b905060018184816200053557620005356200080b565b048201901c905060018184816200055057620005506200080b565b048201901c905060018184816200056b576200056b6200080b565b048201901c905060018184816200058657620005866200080b565b048201901c90506001818481620005a157620005a16200080b565b048201901c90506001818481620005bc57620005bc6200080b565b048201901c90506001818481620005d757620005d76200080b565b048201901c9050620003ab81828581620005f557620005f56200080b565b04620006bd565b5f80838311156200061257505f9050806200061b565b50600190508183035b9250929050565b5f80608083901c156200063757608092831c92015b604083901c156200064a57604092831c92015b602083901c156200065d57602092831c92015b601083901c156200067057601092831c92015b600883901c156200068357600892831c92015b600483901c156200069657600492831c92015b600283901c15620006a957600292831c92015b600183901c15620003135760010192915050565b5f818310620006cd5781620003ab565b5090919050565b80516001600160a01b0381168114620006eb575f80fd5b919050565b5f805f83850361010081121562000705575f80fd5b6200071085620006d4565b9350602085015162ffffff8116811462000728575f80fd5b925060c0603f19820112156200073c575f80fd5b5060405160c081016001600160401b03811182821017156200076c57634e487b7160e01b5f52604160045260245ffd5b80604052506200077f60408601620006d4565b81526200078f60608601620006d4565b60208201526080850151604082015260a0850151606082015260c0850151608082015260e085015160a0820152809150509250925092565b634e487b7160e01b5f52601160045260245ffd5b80820180821115620003135762000313620007c7565b8082028115828204841417620003135762000313620007c7565b634e487b7160e01b5f52601260045260245ffd5b5f826200083a57634e487b7160e01b5f52601260045260245ffd5b500490565b60805160a05160c05160e0516101005161012051610634620008875f395f61022301525f61035b01525f6102f901525f61010401525f61032001525f6102d201526106345ff3fe608060405234801561000f575f80fd5b50600436106100fb575f3560e01c806379502c5511610093578063d21220a711610063578063d21220a7146102f4578063ddca3f431461031b578063e623232014610356578063f2fde38b1461037d575f80fd5b806379502c55146102455780638da5cb5b146102a75780639dc29fac146102b7578063c45a0155146102cd575f80fd5b80633850c7bd116100ce5780633850c7bd146101bf578063490e6cbc146101fa578063715018a61461021457806374d969891461021e575f80fd5b80630dfe1681146100ff578063156e29f614610143578063252c09d71461016757806325a12ac114610195575b5f80fd5b6101267f000000000000000000000000000000000000000000000000000000000000000081565b6040516001600160a01b0390911681526020015b60405180910390f35b6101596101513660046104ac565b5f9392505050565b60405190815260200161013a565b61017a6101753660046104dc565b610390565b6040805193845260208401929092529082015260600161013a565b6101aa6101a33660046104f3565b5f80915091565b6040805192835260208301919091520161013a565b600854600954600a54600b546101d89392919060ff1684565b604080519485526020850193909352918301521515606082015260800161013a565b6101aa610208366004610531565b5f809550959350505050565b61021c6103c1565b005b6101597f000000000000000000000000000000000000000000000000000000000000000081565b60015460025460035460045460055460065461026f956001600160a01b0390811695169392919086565b604080516001600160a01b039788168152969095166020870152938501929092526060840152608083015260a082015260c00161013a565b5f546001600160a01b0316610126565b6101aa6102c53660046105bd565b505f91829150565b6101267f000000000000000000000000000000000000000000000000000000000000000081565b6101267f000000000000000000000000000000000000000000000000000000000000000081565b6103427f000000000000000000000000000000000000000000000000000000000000000081565b60405162ffffff909116815260200161013a565b6101597f000000000000000000000000000000000000000000000000000000000000000081565b61021c61038b3660046105e5565b6103d4565b6007818154811061039f575f80fd5b5f91825260209091206003909102018054600182015460029092015490925083565b6103c9610416565b6103d25f610442565b565b6103dc610416565b6001600160a01b03811661040a57604051631e4fbdf760e01b81525f60048201526024015b60405180910390fd5b61041381610442565b50565b5f546001600160a01b031633146103d25760405163118cdaa760e01b8152336004820152602401610401565b5f80546001600160a01b038381166001600160a01b0319831681178455604051919092169283917f8be0079c531659141344cd1fd0a4f28419497f9722a3daafe3b4186f6b6457e09190a35050565b80356001600160a01b03811681146104a7575f80fd5b919050565b5f805f606084860312156104be575f80fd5b6104c784610491565b95602085013595506040909401359392505050565b5f602082840312156104ec575f80fd5b5035919050565b5f60208284031215610503575f80fd5b813567ffffffffffffffff811115610519575f80fd5b820160a0818503121561052a575f80fd5b9392505050565b5f805f805f60808688031215610545575f80fd5b61054e86610491565b94506020860135935060408601359250606086013567ffffffffffffffff80821115610578575f80fd5b818801915088601f83011261058b575f80fd5b813581811115610599575f80fd5b8960208285010111156105aa575f80fd5b9699959850939650602001949392505050565b5f80604083850312156105ce575f80fd5b6105d783610491565b946020939093013593505050565b5f602082840312156105f5575f80fd5b61052a8261049156fea26469706673582212209d88358dd0035b5860b8977043151cccdfb9e3533248de35c1d25ecdff5f919264736f6c63430008170033a2646970667358221220cb315fc335bb951ffdab74d2ff4c749384806cb4486d32fcce143e08291c0ed564736f6c634300081700331f17e6f377d5868060fb453803126244f4e60e4c862eaa32ee28a9fac946ba88",
    "sourcePath": "c:/Users/tucuo/OneDrive/Desktop/CiSwap.Contracts/contracts/core/Factory.sol",
    "compiler": {
        "name": "solc",
        "version": "0.8.23+commit.f704f362"
    },
    "functionHashes": {
        "createPool((uint24,(address,address,uint256,uint256,uint256,uint256)))": "b2222e9e",
        "deployParams()": "f3778fd8",
        "getFeeAmountEnabled(uint24)": "f65443fa",
        "getPool(address,address,uint256)": "acf6cc1a",
        "owner()": "8da5cb5b",
        "pools(uint256)": "ac4afa38",
        "renounceOwnership()": "715018a6",
        "transferOwnership(address)": "f2fde38b"
    },
    "gasEstimates": {
        "creation": {
            "codeDepositCost": "1396600",
            "executionCost": "128994",
            "totalCost": "1525594"
        },
        "external": {
            "createPool((uint24,(address,address,uint256,uint256,uint256,uint256)))": "infinite",
            "deployParams()": "15395",
            "getFeeAmountEnabled(uint24)": "2547",
            "getPool(address,address,uint256)": "infinite",
            "owner()": "2330",
            "pools(uint256)": "4645",
            "renounceOwnership()": "infinite",
            "transferOwnership(address)": "28351"
        }
    }
}