{
    "contractName": "Pool",
    "abi": [
        {
            "inputs": [],
            "stateMutability": "nonpayable",
            "type": "constructor"
        },
        {
            "inputs": [
                {
                    "internalType": "address",
                    "name": "target",
                    "type": "address"
                }
            ],
            "name": "AddressEmptyCode",
            "type": "error"
        },
        {
            "inputs": [
                {
                    "internalType": "address",
                    "name": "account",
                    "type": "address"
                }
            ],
            "name": "AddressInsufficientBalance",
            "type": "error"
        },
        {
            "inputs": [
                {
                    "internalType": "address",
                    "name": "spender",
                    "type": "address"
                },
                {
                    "internalType": "uint256",
                    "name": "allowance",
                    "type": "uint256"
                },
                {
                    "internalType": "uint256",
                    "name": "needed",
                    "type": "uint256"
                }
            ],
            "name": "ERC20InsufficientAllowance",
            "type": "error"
        },
        {
            "inputs": [
                {
                    "internalType": "address",
                    "name": "sender",
                    "type": "address"
                },
                {
                    "internalType": "uint256",
                    "name": "balance",
                    "type": "uint256"
                },
                {
                    "internalType": "uint256",
                    "name": "needed",
                    "type": "uint256"
                }
            ],
            "name": "ERC20InsufficientBalance",
            "type": "error"
        },
        {
            "inputs": [
                {
                    "internalType": "address",
                    "name": "approver",
                    "type": "address"
                }
            ],
            "name": "ERC20InvalidApprover",
            "type": "error"
        },
        {
            "inputs": [
                {
                    "internalType": "address",
                    "name": "receiver",
                    "type": "address"
                }
            ],
            "name": "ERC20InvalidReceiver",
            "type": "error"
        },
        {
            "inputs": [
                {
                    "internalType": "address",
                    "name": "sender",
                    "type": "address"
                }
            ],
            "name": "ERC20InvalidSender",
            "type": "error"
        },
        {
            "inputs": [
                {
                    "internalType": "address",
                    "name": "spender",
                    "type": "address"
                }
            ],
            "name": "ERC20InvalidSpender",
            "type": "error"
        },
        {
            "inputs": [],
            "name": "FailedInnerCall",
            "type": "error"
        },
        {
            "inputs": [],
            "name": "MathOverflowedMulDiv",
            "type": "error"
        },
        {
            "inputs": [
                {
                    "internalType": "address",
                    "name": "owner",
                    "type": "address"
                }
            ],
            "name": "OwnableInvalidOwner",
            "type": "error"
        },
        {
            "inputs": [
                {
                    "internalType": "address",
                    "name": "account",
                    "type": "address"
                }
            ],
            "name": "OwnableUnauthorizedAccount",
            "type": "error"
        },
        {
            "inputs": [
                {
                    "internalType": "int256",
                    "name": "value",
                    "type": "int256"
                }
            ],
            "name": "SafeCastOverflowedIntToUint",
            "type": "error"
        },
        {
            "inputs": [
                {
                    "internalType": "uint256",
                    "name": "value",
                    "type": "uint256"
                }
            ],
            "name": "SafeCastOverflowedUintToInt",
            "type": "error"
        },
        {
            "inputs": [
                {
                    "internalType": "address",
                    "name": "token",
                    "type": "address"
                }
            ],
            "name": "SafeERC20FailedOperation",
            "type": "error"
        },
        {
            "anonymous": false,
            "inputs": [
                {
                    "indexed": true,
                    "internalType": "address",
                    "name": "owner",
                    "type": "address"
                },
                {
                    "indexed": true,
                    "internalType": "address",
                    "name": "spender",
                    "type": "address"
                },
                {
                    "indexed": false,
                    "internalType": "uint256",
                    "name": "value",
                    "type": "uint256"
                }
            ],
            "name": "Approval",
            "type": "event"
        },
        {
            "anonymous": false,
            "inputs": [
                {
                    "indexed": true,
                    "internalType": "address",
                    "name": "sender",
                    "type": "address"
                },
                {
                    "indexed": false,
                    "internalType": "uint256",
                    "name": "amount",
                    "type": "uint256"
                },
                {
                    "indexed": false,
                    "internalType": "uint256",
                    "name": "amount0",
                    "type": "uint256"
                },
                {
                    "indexed": false,
                    "internalType": "uint256",
                    "name": "amount1",
                    "type": "uint256"
                },
                {
                    "indexed": true,
                    "internalType": "address",
                    "name": "recipient",
                    "type": "address"
                }
            ],
            "name": "Burn",
            "type": "event"
        },
        {
            "anonymous": false,
            "inputs": [
                {
                    "indexed": true,
                    "internalType": "address",
                    "name": "sender",
                    "type": "address"
                },
                {
                    "indexed": false,
                    "internalType": "uint256",
                    "name": "amount0",
                    "type": "uint256"
                },
                {
                    "indexed": false,
                    "internalType": "uint256",
                    "name": "amount1",
                    "type": "uint256"
                },
                {
                    "indexed": false,
                    "internalType": "uint256",
                    "name": "paid0",
                    "type": "uint256"
                },
                {
                    "indexed": false,
                    "internalType": "uint256",
                    "name": "paid1",
                    "type": "uint256"
                },
                {
                    "indexed": true,
                    "internalType": "address",
                    "name": "recipient",
                    "type": "address"
                }
            ],
            "name": "Flash",
            "type": "event"
        },
        {
            "anonymous": false,
            "inputs": [
                {
                    "indexed": true,
                    "internalType": "address",
                    "name": "sender",
                    "type": "address"
                },
                {
                    "indexed": false,
                    "internalType": "uint256",
                    "name": "amount",
                    "type": "uint256"
                },
                {
                    "indexed": false,
                    "internalType": "uint256",
                    "name": "amount0",
                    "type": "uint256"
                },
                {
                    "indexed": false,
                    "internalType": "uint256",
                    "name": "amount1",
                    "type": "uint256"
                },
                {
                    "indexed": true,
                    "internalType": "address",
                    "name": "recipient",
                    "type": "address"
                }
            ],
            "name": "Mint",
            "type": "event"
        },
        {
            "anonymous": false,
            "inputs": [
                {
                    "indexed": true,
                    "internalType": "address",
                    "name": "previousOwner",
                    "type": "address"
                },
                {
                    "indexed": true,
                    "internalType": "address",
                    "name": "newOwner",
                    "type": "address"
                }
            ],
            "name": "OwnershipTransferred",
            "type": "event"
        },
        {
            "anonymous": false,
            "inputs": [
                {
                    "indexed": true,
                    "internalType": "address",
                    "name": "sender",
                    "type": "address"
                },
                {
                    "indexed": false,
                    "internalType": "int256",
                    "name": "amount0",
                    "type": "int256"
                },
                {
                    "indexed": false,
                    "internalType": "int256",
                    "name": "amount1",
                    "type": "int256"
                },
                {
                    "indexed": true,
                    "internalType": "address",
                    "name": "recipient",
                    "type": "address"
                }
            ],
            "name": "Swap",
            "type": "event"
        },
        {
            "anonymous": false,
            "inputs": [
                {
                    "indexed": false,
                    "internalType": "uint256",
                    "name": "reserve0",
                    "type": "uint256"
                },
                {
                    "indexed": false,
                    "internalType": "uint256",
                    "name": "reserve1",
                    "type": "uint256"
                }
            ],
            "name": "Sync",
            "type": "event"
        },
        {
            "anonymous": false,
            "inputs": [
                {
                    "indexed": true,
                    "internalType": "address",
                    "name": "from",
                    "type": "address"
                },
                {
                    "indexed": true,
                    "internalType": "address",
                    "name": "to",
                    "type": "address"
                },
                {
                    "indexed": false,
                    "internalType": "uint256",
                    "name": "value",
                    "type": "uint256"
                }
            ],
            "name": "Transfer",
            "type": "event"
        },
        {
            "inputs": [
                {
                    "internalType": "address",
                    "name": "owner",
                    "type": "address"
                },
                {
                    "internalType": "address",
                    "name": "spender",
                    "type": "address"
                }
            ],
            "name": "allowance",
            "outputs": [
                {
                    "internalType": "uint256",
                    "name": "",
                    "type": "uint256"
                }
            ],
            "stateMutability": "view",
            "type": "function"
        },
        {
            "inputs": [
                {
                    "internalType": "address",
                    "name": "spender",
                    "type": "address"
                },
                {
                    "internalType": "uint256",
                    "name": "value",
                    "type": "uint256"
                }
            ],
            "name": "approve",
            "outputs": [
                {
                    "internalType": "bool",
                    "name": "",
                    "type": "bool"
                }
            ],
            "stateMutability": "nonpayable",
            "type": "function"
        },
        {
            "inputs": [
                {
                    "internalType": "address",
                    "name": "account",
                    "type": "address"
                }
            ],
            "name": "balanceOf",
            "outputs": [
                {
                    "internalType": "uint256",
                    "name": "",
                    "type": "uint256"
                }
            ],
            "stateMutability": "view",
            "type": "function"
        },
        {
            "inputs": [
                {
                    "internalType": "address",
                    "name": "recipient",
                    "type": "address"
                },
                {
                    "internalType": "uint256",
                    "name": "amount",
                    "type": "uint256"
                }
            ],
            "name": "burn",
            "outputs": [
                {
                    "internalType": "uint256",
                    "name": "amount0",
                    "type": "uint256"
                },
                {
                    "internalType": "uint256",
                    "name": "amount1",
                    "type": "uint256"
                }
            ],
            "stateMutability": "nonpayable",
            "type": "function"
        },
        {
            "inputs": [],
            "name": "config",
            "outputs": [
                {
                    "internalType": "address",
                    "name": "tokenA",
                    "type": "address"
                },
                {
                    "internalType": "address",
                    "name": "tokenB",
                    "type": "address"
                },
                {
                    "internalType": "uint256",
                    "name": "amountA",
                    "type": "uint256"
                },
                {
                    "internalType": "uint256",
                    "name": "amountB",
                    "type": "uint256"
                },
                {
                    "internalType": "uint256",
                    "name": "basePriceAX96",
                    "type": "uint256"
                },
                {
                    "internalType": "uint256",
                    "name": "maxPriceAX96",
                    "type": "uint256"
                }
            ],
            "stateMutability": "view",
            "type": "function"
        },
        {
            "inputs": [],
            "name": "constant0",
            "outputs": [
                {
                    "internalType": "uint256",
                    "name": "",
                    "type": "uint256"
                }
            ],
            "stateMutability": "view",
            "type": "function"
        },
        {
            "inputs": [],
            "name": "constant1",
            "outputs": [
                {
                    "internalType": "uint256",
                    "name": "",
                    "type": "uint256"
                }
            ],
            "stateMutability": "view",
            "type": "function"
        },
        {
            "inputs": [],
            "name": "decimals",
            "outputs": [
                {
                    "internalType": "uint8",
                    "name": "",
                    "type": "uint8"
                }
            ],
            "stateMutability": "view",
            "type": "function"
        },
        {
            "inputs": [],
            "name": "factory",
            "outputs": [
                {
                    "internalType": "address",
                    "name": "",
                    "type": "address"
                }
            ],
            "stateMutability": "view",
            "type": "function"
        },
        {
            "inputs": [],
            "name": "fee",
            "outputs": [
                {
                    "internalType": "uint24",
                    "name": "",
                    "type": "uint24"
                }
            ],
            "stateMutability": "view",
            "type": "function"
        },
        {
            "inputs": [
                {
                    "internalType": "address",
                    "name": "recipient",
                    "type": "address"
                },
                {
                    "internalType": "uint256",
                    "name": "amount0",
                    "type": "uint256"
                },
                {
                    "internalType": "uint256",
                    "name": "amount1",
                    "type": "uint256"
                },
                {
                    "internalType": "bytes",
                    "name": "callback",
                    "type": "bytes"
                }
            ],
            "name": "flash",
            "outputs": [
                {
                    "internalType": "uint256",
                    "name": "paid0",
                    "type": "uint256"
                },
                {
                    "internalType": "uint256",
                    "name": "paid1",
                    "type": "uint256"
                }
            ],
            "stateMutability": "nonpayable",
            "type": "function"
        },
        {
            "inputs": [
                {
                    "internalType": "address",
                    "name": "recipient",
                    "type": "address"
                }
            ],
            "name": "mint",
            "outputs": [
                {
                    "internalType": "uint256",
                    "name": "amount",
                    "type": "uint256"
                }
            ],
            "stateMutability": "nonpayable",
            "type": "function"
        },
        {
            "inputs": [],
            "name": "name",
            "outputs": [
                {
                    "internalType": "string",
                    "name": "",
                    "type": "string"
                }
            ],
            "stateMutability": "view",
            "type": "function"
        },
        {
            "inputs": [
                {
                    "internalType": "uint256",
                    "name": "",
                    "type": "uint256"
                }
            ],
            "name": "observations",
            "outputs": [
                {
                    "internalType": "uint256",
                    "name": "blockTimestamp",
                    "type": "uint256"
                },
                {
                    "internalType": "uint256",
                    "name": "reserve0Cumulative",
                    "type": "uint256"
                },
                {
                    "internalType": "uint256",
                    "name": "reserve1Cumulative",
                    "type": "uint256"
                }
            ],
            "stateMutability": "view",
            "type": "function"
        },
        {
            "inputs": [],
            "name": "owner",
            "outputs": [
                {
                    "internalType": "address",
                    "name": "",
                    "type": "address"
                }
            ],
            "stateMutability": "view",
            "type": "function"
        },
        {
            "inputs": [],
            "name": "renounceOwnership",
            "outputs": [],
            "stateMutability": "nonpayable",
            "type": "function"
        },
        {
            "inputs": [],
            "name": "slot0",
            "outputs": [
                {
                    "internalType": "uint256",
                    "name": "reserve0",
                    "type": "uint256"
                },
                {
                    "internalType": "uint256",
                    "name": "reserve1",
                    "type": "uint256"
                },
                {
                    "internalType": "uint256",
                    "name": "observationCardinality",
                    "type": "uint256"
                },
                {
                    "internalType": "bool",
                    "name": "unlocked",
                    "type": "bool"
                }
            ],
            "stateMutability": "view",
            "type": "function"
        },
        {
            "inputs": [
                {
                    "components": [
                        {
                            "internalType": "int256",
                            "name": "amountSpecified",
                            "type": "int256"
                        },
                        {
                            "internalType": "uint256",
                            "name": "limitAmountCalculated",
                            "type": "uint256"
                        },
                        {
                            "internalType": "bool",
                            "name": "zeroForOne",
                            "type": "bool"
                        },
                        {
                            "internalType": "address",
                            "name": "recipient",
                            "type": "address"
                        },
                        {
                            "internalType": "bytes",
                            "name": "callback",
                            "type": "bytes"
                        }
                    ],
                    "internalType": "struct IPoolActions.SwapParams",
                    "name": "params",
                    "type": "tuple"
                }
            ],
            "name": "swap",
            "outputs": [
                {
                    "internalType": "int256",
                    "name": "amount0",
                    "type": "int256"
                },
                {
                    "internalType": "int256",
                    "name": "amount1",
                    "type": "int256"
                }
            ],
            "stateMutability": "nonpayable",
            "type": "function"
        },
        {
            "inputs": [],
            "name": "symbol",
            "outputs": [
                {
                    "internalType": "string",
                    "name": "",
                    "type": "string"
                }
            ],
            "stateMutability": "view",
            "type": "function"
        },
        {
            "inputs": [],
            "name": "token0",
            "outputs": [
                {
                    "internalType": "address",
                    "name": "",
                    "type": "address"
                }
            ],
            "stateMutability": "view",
            "type": "function"
        },
        {
            "inputs": [],
            "name": "token1",
            "outputs": [
                {
                    "internalType": "address",
                    "name": "",
                    "type": "address"
                }
            ],
            "stateMutability": "view",
            "type": "function"
        },
        {
            "inputs": [],
            "name": "totalSupply",
            "outputs": [
                {
                    "internalType": "uint256",
                    "name": "",
                    "type": "uint256"
                }
            ],
            "stateMutability": "view",
            "type": "function"
        },
        {
            "inputs": [
                {
                    "internalType": "address",
                    "name": "to",
                    "type": "address"
                },
                {
                    "internalType": "uint256",
                    "name": "value",
                    "type": "uint256"
                }
            ],
            "name": "transfer",
            "outputs": [
                {
                    "internalType": "bool",
                    "name": "",
                    "type": "bool"
                }
            ],
            "stateMutability": "nonpayable",
            "type": "function"
        },
        {
            "inputs": [
                {
                    "internalType": "address",
                    "name": "from",
                    "type": "address"
                },
                {
                    "internalType": "address",
                    "name": "to",
                    "type": "address"
                },
                {
                    "internalType": "uint256",
                    "name": "value",
                    "type": "uint256"
                }
            ],
            "name": "transferFrom",
            "outputs": [
                {
                    "internalType": "bool",
                    "name": "",
                    "type": "bool"
                }
            ],
            "stateMutability": "nonpayable",
            "type": "function"
        },
        {
            "inputs": [
                {
                    "internalType": "address",
                    "name": "newOwner",
                    "type": "address"
                }
            ],
            "name": "transferOwnership",
            "outputs": [],
            "stateMutability": "nonpayable",
            "type": "function"
        }
    ],
    "bytecode": "61016060405234801562000011575f80fd5b506040518060400160405280601881526020017f4c69717569646974792050726f766964657220546f6b656e0000000000000000815250604051806040016040528060088152602001672628102a37b5b2b760c11b81525062000079620002aa60201b60201c565b6001600160a01b038116620000a757604051631e4fbdf760e01b81525f600482015260240160405180910390fd5b620000b281620002ae565b506004620000c18382620007cb565b506005620000d08282620007cb565b50503060805250336001600160a01b031663f3778fd86040518163ffffffff1660e01b815260040161010060405180830381865afa15801562000115573d5f803e3d5ffd5b505050506040513d601f19601f820116820180604052508101906200013b9190620008b3565b8051600680546001600160a01b039283166001600160a01b03199182168117909255602084015160078054918516919092168117909155604084015160085560608401516009556080840151600a5560a093840151600b5562ffffff90941660c052931690525f91620001ae91620002fd565b6001600160a01b0391821661010052911660e052600a54600b546008546009549394505f938493620001e4939092909162000336565b9150915082620001f6578082620001f9565b81815b61014052610120525f808462000215576009546008546200021c565b6008546009545b90925090505f6200022f600c4262000360565b9050604051806080016040528084610120516200024d919062000994565b8152602001836101405162000263919062000994565b815260208082019390935260016040918201528151600d5591810151600e5590810151600f55606001516010805460ff191691151591909117905550620009f89350505050565b3390565b5f80546001600160a01b038381166001600160a01b0319831681178455604051919092169283917f8be0079c531659141344cd1fd0a4f28419497f9722a3daafe3b4186f6b6457e09190a35050565b5f805f836001600160a01b0316856001600160a01b031610620003235783855f62000328565b848460015b919790965090945092505050565b5f8062000345868686620003ae565b9150620003558683868662000429565b905094509492505050565b604080516060810182528281525f6020808301828152938301828152865460018181018955888552929093209351600390930290930191825592518184015590516002909101555b92915050565b5f80620003ca856c01000000000000000000000000866200048f565b90505f620003d88262000554565b90505f620003e78583620009aa565b905066010000000000005f80620003ff838662000655565b91509150816200040d575f80fd5b620004198185620009d8565b96505050505050505b9392505050565b5f6c01000000000000000000000000818062000469886200044b898962000994565b620004579190620009aa565b620004638786620009aa565b62000655565b915091508162000477575f80fd5b620004838382620009d8565b98975050505050505050565b5f838302815f1985870982811083820303915050805f03620004c857838281620004bd57620004bd620009c4565b049250505062000422565b808411620004e95760405163227bc15360e01b815260040160405180910390fd5b5f848688095f868103871696879004966002600389028118808a02820302808a02820302808a02820302808a02820302808a02820302808a02909103029181900381900460010186841190950394909402919094039290920491909117919091029150509392505050565b5f815f036200056457505f919050565b5f600162000572846200067b565b901c6001901b905060018184816200058e576200058e620009c4565b048201901c90506001818481620005a957620005a9620009c4565b048201901c90506001818481620005c457620005c4620009c4565b048201901c90506001818481620005df57620005df620009c4565b048201901c90506001818481620005fa57620005fa620009c4565b048201901c90506001818481620006155762000615620009c4565b048201901c90506001818481620006305762000630620009c4565b048201901c905062000422818285816200064e576200064e620009c4565b0462000716565b5f80838311156200066b57505f90508062000674565b50600190508183035b9250929050565b5f80608083901c156200069057608092831c92015b604083901c15620006a357604092831c92015b602083901c15620006b657602092831c92015b601083901c15620006c957601092831c92015b600883901c15620006dc57600892831c92015b600483901c15620006ef57600492831c92015b600283901c156200070257600292831c92015b600183901c15620003a85760010192915050565b5f81831062000726578162000422565b5090919050565b634e487b7160e01b5f52604160045260245ffd5b600181811c908216806200075657607f821691505b6020821081036200077557634e487b7160e01b5f52602260045260245ffd5b50919050565b601f821115620007c657805f5260205f20601f840160051c81016020851015620007a25750805b601f840160051c820191505b81811015620007c3575f8155600101620007ae565b50505b505050565b81516001600160401b03811115620007e757620007e76200072d565b620007ff81620007f8845462000741565b846200077b565b602080601f83116001811462000835575f84156200081d5750858301515b5f19600386901b1c1916600185901b1785556200088f565b5f85815260208120601f198616915b82811015620008655788860151825594840194600190910190840162000844565b50858210156200088357878501515f19600388901b60f8161c191681555b505060018460011b0185555b505050505050565b80516001600160a01b0381168114620008ae575f80fd5b919050565b5f805f838503610100811215620008c8575f80fd5b620008d38562000897565b9350602085015162ffffff81168114620008eb575f80fd5b925060c0603f1982011215620008ff575f80fd5b5060405160c081016001600160401b03811182821017156200092557620009256200072d565b8060405250620009386040860162000897565b8152620009486060860162000897565b60208201526080850151604082015260a0850151606082015260c0850151608082015260e085015160a0820152809150509250925092565b634e487b7160e01b5f52601160045260245ffd5b80820180821115620003a857620003a862000980565b8082028115828204841417620003a857620003a862000980565b634e487b7160e01b5f52601260045260245ffd5b5f82620009f357634e487b7160e01b5f52601260045260245ffd5b500490565b60805160a05160c05160e05161010051610120516101405161242c62000ad65f395f81816103130152818161077f01528181610fd701526113a601525f818161049b0152818161075901528181610f9f015261136d01525f818161040101528181610675015281816106dd01528181610b8b01528181610f68015261163901525f81816101b701528181610696015281816106bc01528181610b6001528181610f3d01526115b001525f81816104600152818161082d015281816108fe01528181610c5d0152610f0f01525f6103da01525f6111c0015261242c5ff3fe608060405234801561000f575f80fd5b506004361061016d575f3560e01c8063715018a6116100d9578063a9059cbb11610093578063dd62ed3e1161006e578063dd62ed3e14610423578063ddca3f431461045b578063e623232014610496578063f2fde38b146104bd575f80fd5b8063a9059cbb146103c2578063c45a0155146103d5578063d21220a7146103fc575f80fd5b8063715018a61461030457806374d969891461030e57806379502c55146103355780638da5cb5b1461039757806395d89b41146103a75780639dc29fac146103af575f80fd5b806325a12ac11161012a57806325a12ac114610244578063313ce5671461026c5780633850c7bd1461027b578063490e6cbc146102b65780636a627842146102c957806370a08231146102dc575f80fd5b806306fdde0314610171578063095ea7b31461018f5780630dfe1681146101b257806318160ddd146101f157806323b872dd14610203578063252c09d714610216575b5f80fd5b6101796104d0565b6040516101869190611ff2565b60405180910390f35b6101a261019d36600461203f565b610560565b6040519015158152602001610186565b6101d97f000000000000000000000000000000000000000000000000000000000000000081565b6040516001600160a01b039091168152602001610186565b6003545b604051908152602001610186565b6101a2610211366004612067565b610579565b6102296102243660046120a0565b61059e565b60408051938452602084019290925290820152606001610186565b6102576102523660046120b7565b6105cf565b60408051928352602083019190915201610186565b60405160128152602001610186565b600d54600e54600f546010546102949392919060ff1684565b6040805194855260208501939093529183015215156060820152608001610186565b6102576102c43660046120ee565b610b37565b6101f56102d736600461217a565b610d23565b6101f56102ea36600461217a565b6001600160a01b03165f9081526001602052604090205490565b61030c610e5c565b005b6101f57f000000000000000000000000000000000000000000000000000000000000000081565b600654600754600854600954600a54600b5461035f956001600160a01b0390811695169392919086565b604080516001600160a01b039788168152969095166020870152938501929092526060840152608083015260a082015260c001610186565b5f546001600160a01b03166101d9565b610179610e6f565b6102576103bd36600461203f565b610e7e565b6101a26103d036600461203f565b61107c565b6101d97f000000000000000000000000000000000000000000000000000000000000000081565b6101d97f000000000000000000000000000000000000000000000000000000000000000081565b6101f5610431366004612193565b6001600160a01b039182165f90815260026020908152604080832093909416825291909152205490565b6104827f000000000000000000000000000000000000000000000000000000000000000081565b60405162ffffff9091168152602001610186565b6101f57f000000000000000000000000000000000000000000000000000000000000000081565b61030c6104cb36600461217a565b611089565b6060600480546104df906121c4565b80601f016020809104026020016040519081016040528092919081815260200182805461050b906121c4565b80156105565780601f1061052d57610100808354040283529160200191610556565b820191905f5260205f20905b81548152906001019060200180831161053957829003601f168201915b5050505050905090565b5f3361056d8185856110cb565b60019150505b92915050565b5f336105868582856110dd565b610591858585611158565b60019150505b9392505050565b600c81815481106105ad575f80fd5b5f91825260209091206003909102018054600182015460029092015490925083565b6010545f90819060ff166105e1575f80fd5b6010805460ff191690556105f36111b5565b6040805160808082018352600d548252600e54602080840191909152600f548385015260105460ff1615156060808501919091528451610100810186525f808252928101839052948501829052840181905290830181905260a0830181905260c0830181905260e08301529061066f6060860160408701612209565b6106ba577f00000000000000000000000000000000000000000000000000000000000000007f00000000000000000000000000000000000000000000000000000000000000006106fd565b7f00000000000000000000000000000000000000000000000000000000000000007f00000000000000000000000000000000000000000000000000000000000000005b6001600160a01b0390811660208401521681526107206060860160408701612209565b6107305760208201518251610738565b815160208301515b60a083015260808201525f6107536060870160408801612209565b61077d577f000000000000000000000000000000000000000000000000000000000000000061079f565b7f00000000000000000000000000000000000000000000000000000000000000005b90505f8635138015610874576107b587356111e9565b8360400181815250506108596040518060a001604052808960400160208101906107df9190612209565b6107ed5786602001516107f0565b86515b815260200161080560608b0160408c01612209565b610810578651610816565b86602001515b8152602001848152602001856040015181526020017f000000000000000000000000000000000000000000000000000000000000000062ffffff16815250611212565b606084018190526020880135111561086f575f80fd5b610940565b6108866108818835612238565b6111e9565b83606001818152505061092a6040518060a001604052808960400160208101906108b09190612209565b6108be5786602001516108c1565b86515b81526020016108d660608b0160408c01612209565b6108e15786516108e7565b86602001515b8152602001848152602001856060015181526020017f000000000000000000000000000000000000000000000000000000000000000062ffffff168152506112a3565b6040840181905260208801351015610940575f80fd5b60208301516109639061095960808a0160608b0161217a565b856060015161132a565b6109736060880160408901612209565b61098957610984836060015161133e565b61099f565b610996836040015161133e565b61099f90612238565b95506109b16060880160408901612209565b6109d0576109c2836040015161133e565b6109cb90612238565b6109dd565b6109dd836060015161133e565b94505f6109ed6080890189612252565b90501115610a575733638d4a84198787610a0a60808c018c612252565b6040518563ffffffff1660e01b8152600401610a2994939291906122c4565b5f604051808303815f87803b158015610a40575f80fd5b505af1158015610a52573d5f803e3d5ffd5b505050505b5f610a6061136a565b90505f610a6b6113a3565b90505f610a7e60608b0160408c01612209565b610a885781610a8a565b825b905085604001518660800151610aa091906122e3565b811015610aab575f80fd5b610ab583836113cd565b610ac560808b0160608c0161217a565b6001600160a01b0316336001600160a01b03167f86104e7a79e16fb712c2a4133be3187400bdcaf8d7a74c66f7b75718a83f83718b8b604051610b12929190918252602082015260400190565b60405180910390a350506010805460ff19166001179055509496939550929350505050565b6010545f90819060ff16610b49575f80fd5b6010805460ff19169055610b5b6111b5565b610b867f0000000000000000000000000000000000000000000000000000000000000000888861132a565b610bb17f0000000000000000000000000000000000000000000000000000000000000000888761132a565b60405163e83517b560e01b8152339063e83517b590610bda9089908990899089906004016122c4565b5f604051808303815f87803b158015610bf1575f80fd5b505af1158015610c03573d5f803e3d5ffd5b505060408051608081018252600d548152600e546020820152600f549181019190915260105460ff161515606082015291505f9050610c4061136a565b90505f610c4b6113a3565b9050610c81835f0151846020015184847f0000000000000000000000000000000000000000000000000000000000000000611458565b610c89575f80fd5b8251610c9590836122f6565b9450826020015181610ca791906122f6565b9350610cb382826113cd565b604080518a8152602081018a90528082018790526060810186905290516001600160a01b038c169133917f1d940843caa7af592ac83e5e979405c98c9cad66a2a99359615008d6c97d5bc39181900360800190a350506010805460ff191660011790555090969095509350505050565b6010545f9060ff16610d33575f80fd5b6010805460ff19169055610d456111b5565b5f610d4f60035490565b60408051608081018252600d548152600e546020820152600f549181019190915260105460ff16151560608201529091505f610d8961136a565b90505f610d946113a3565b8351909150821180610da95750826020015181115b610db1575f80fd5b610dc584845f01518560200151858561149e565b9450610dd186866114e6565b610ddb82826113cd565b82516001600160a01b0387169033907fa8137fff86647d8a402117b9c5dbda627f721d3773338fb9678c83e54ed39080908890610e1890876122f6565b6020880151610e2790876122f6565b6040805193845260208401929092529082015260600160405180910390a350506010805460ff19166001179055509092915050565b610e6461151e565b610e6d5f61154a565b565b6060600580546104df906121c4565b6010545f90819060ff16610e90575f80fd5b6010805460ff19169055610ea26111b5565b5f610eac60035490565b90505f8411610eb9575f80fd5b60408051608081018252600d548152600e546020820152600f549181019190915260105460ff16151560608201525f610ef0611599565b90505f610efb611622565b9050610f338785855f0151866020015186867f0000000000000000000000000000000000000000000000000000000000000000611670565b9096509450610f637f0000000000000000000000000000000000000000000000000000000000000000898861132a565b610f8e7f0000000000000000000000000000000000000000000000000000000000000000898761132a565b610f98338861174d565b5f86610fc47f0000000000000000000000000000000000000000000000000000000000000000856122e3565b610fce91906122f6565b90505f86610ffc7f0000000000000000000000000000000000000000000000000000000000000000856122e3565b61100691906122f6565b905061101282826113cd565b604080518a8152602081018a905280820189905290516001600160a01b038c169133917fd175a80c109434bb89948928ab2475a6647c94244cb70002197896423c8833639181900360600190a350506010805460ff19166001179055509396929550919350505050565b5f3361056d818585611158565b61109161151e565b6001600160a01b0381166110bf57604051631e4fbdf760e01b81525f60048201526024015b60405180910390fd5b6110c88161154a565b50565b6110d88383836001611781565b505050565b6001600160a01b038381165f908152600260209081526040808320938616835292905220545f198114611152578181101561114457604051637dc7a0d960e11b81526001600160a01b038416600482015260248101829052604481018390526064016110b6565b61115284848484035f611781565b50505050565b6001600160a01b03831661118157604051634b637e8f60e11b81525f60048201526024016110b6565b6001600160a01b0382166111aa5760405163ec442f0560e01b81525f60048201526024016110b6565b6110d8838383611853565b306001600160a01b037f00000000000000000000000000000000000000000000000000000000000000001614610e6d575f80fd5b5f8082121561120e57604051635467221960e11b8152600481018390526024016110b6565b5090565b5f81606001515f03611222575f80fd5b602082015182515f9161123491612309565b90505f8360600151845f015161124a91906122e3565b90505f6112578284612334565b90508460400151811015611269575f80fd5b5f81866020015161127a91906122f6565b90506112998660800151620186a06112929190612347565b8290611979565b9695505050505050565b5f81606001515f036112b3575f80fd5b5f6112d58360800151620186a06112ca9190612347565b60608501519061198d565b90505f8360200151845f01516112eb9190612309565b90505f8285602001516112fe91906122f6565b90508460400151811015611310575f80fd5b5f61131b83836119a1565b865190915061129990826122f6565b6110d86001600160a01b03841683836119d1565b5f6001600160ff1b0382111561120e5760405163123baf0360e11b8152600481018390526024016110b6565b5f7f0000000000000000000000000000000000000000000000000000000000000000611394611599565b61139e91906122e3565b905090565b5f7f0000000000000000000000000000000000000000000000000000000000000000611394611622565b60408051608081018252600d54808252600e5460208301819052600f5493830184905260105460ff1615156060840152919261140d92600c924291611a23565b600f55600d839055600e82905560408051848152602081018490527fcf2aa50876cdfbb541206f89af0ee78d44a2abf8d328e37fa4917f982149848a910160405180910390a1505050565b5f806114648787611b3e565b90505f6114718686611b3e565b90505f61148b61148486620186a0612347565b8390611979565b9290921015925050505b95945050505050565b5f806114aa8686611b3e565b90505f6114b78585611b3e565b90508181116114c4575f80fd5b6114da88836114d381856122f6565b9190611b51565b98975050505050505050565b6001600160a01b03821661150f5760405163ec442f0560e01b81525f60048201526024016110b6565b61151a5f8383611853565b5050565b5f546001600160a01b03163314610e6d5760405163118cdaa760e01b81523360048201526024016110b6565b5f80546001600160a01b038381166001600160a01b0319831681178455604051919092169283917f8be0079c531659141344cd1fd0a4f28419497f9722a3daafe3b4186f6b6457e09190a35050565b6040516370a0823160e01b81523060048201525f907f00000000000000000000000000000000000000000000000000000000000000006001600160a01b0316906370a08231906024015b602060405180830381865afa1580156115fe573d5f803e3d5ffd5b505050506040513d601f19601f8201168201806040525081019061139e919061236a565b6040516370a0823160e01b81523060048201525f907f00000000000000000000000000000000000000000000000000000000000000006001600160a01b0316906370a08231906024016115e3565b5f808061167e888b8b611b51565b90505f61168c888c8c611b51565b90505f611699828a6122f6565b6116a3848c6122f6565b6116ad9190612309565b9050878311156116e3578792505f6116c5848c6122f6565b6116cf9083612334565b90506116db818b6122f6565b925050611713565b86821115611713578691505f6116f9838b6122f6565b6117039083612334565b905061170f818c6122f6565b9350505b61172a61172387620186a0612347565b8490611979565b945061173c61148487620186a0612347565b935050505097509795505050505050565b6001600160a01b03821661177657604051634b637e8f60e11b81525f60048201526024016110b6565b61151a825f83611853565b6001600160a01b0384166117aa5760405163e602df0560e01b81525f60048201526024016110b6565b6001600160a01b0383166117d357604051634a1406b160e11b81525f60048201526024016110b6565b6001600160a01b038085165f908152600260209081526040808320938716835292905220829055801561115257826001600160a01b0316846001600160a01b03167f8c5be1e5ebec7d5bd14f71427d1e84f3dd0314c0f7b2291e5b200ac8c7c3b9258460405161184591815260200190565b60405180910390a350505050565b6001600160a01b03831661187d578060035f82825461187291906122e3565b909155506118ed9050565b6001600160a01b0383165f90815260016020526040902054818110156118cf5760405163391434e360e21b81526001600160a01b038516600482015260248101829052604481018390526064016110b6565b6001600160a01b0384165f9081526001602052604090209082900390555b6001600160a01b03821661190957600380548290039055611927565b6001600160a01b0382165f9081526001602052604090208054820190555b816001600160a01b0316836001600160a01b03167fddf252ad1be2c89b69c2b068fc378daa952ba7f163c4a11628f55a4df523b3ef8360405161196c91815260200190565b60405180910390a3505050565b5f6105978362ffffff8416620186a0611b51565b5f61059783620186a08462ffffff16611c10565b5f6119ac8284612334565b90505f6119b98385612381565b111561057357806119c981612394565b949350505050565b604080516001600160a01b038416602482015260448082018490528251808303909101815260649091019091526020810180516001600160e01b031663a9059cbb60e01b1790526110d8908490611c40565b5f8086611a316001886122f6565b81548110611a4157611a416123ac565b905f5260205f2090600302016040518060600160405290815f8201548152602001600182015481526020016002820154815250509050805f01518503611add57611a8d81868686611ca1565b87611a996001896122f6565b81548110611aa957611aa96123ac565b905f5260205f2090600302015f820151815f0155602082015181600101556040820151816002015590505085915050611495565b611ae981868686611ca1565b878781548110611afb57611afb6123ac565b905f5260205f2090600302015f820151815f01556020820151816001015560408201518160020155905050856001611b3391906122e3565b979650505050505050565b5f610597611b4c8385612309565b611d28565b5f838302815f1985870982811083820303915050805f03611b8557838281611b7b57611b7b612320565b0492505050610597565b808411611ba55760405163227bc15360e01b815260040160405180910390fd5b5f848688095f868103871696879004966002600389028118808a02820302808a02820302808a02820302808a02820302808a02820302808a02909103029181900381900460010186841190950394909402919094039290920491909117919091029150509392505050565b5f611c1c848484611b51565b90505f8280611c2d57611c2d612320565b8486091115610597578061149581612394565b5f611c546001600160a01b03841683611e0c565b905080515f14158015611c78575080806020019051810190611c7691906123c0565b155b156110d857604051635274afe760e01b81526001600160a01b03841660048201526024016110b6565b611cc260405180606001604052805f81526020015f81526020015f81525090565b84515f90611cd090866122f6565b905060405180606001604052808681526020018286611cef9190612309565b8860200151611cfe91906122e3565b8152602001611d0d8386612309565b8860400151611d1c91906122e3565b90529695505050505050565b5f815f03611d3757505f919050565b5f6001611d4384611e19565b901c6001901b90506001818481611d5c57611d5c612320565b048201901c90506001818481611d7457611d74612320565b048201901c90506001818481611d8c57611d8c612320565b048201901c90506001818481611da457611da4612320565b048201901c90506001818481611dbc57611dbc612320565b048201901c90506001818481611dd457611dd4612320565b048201901c90506001818481611dec57611dec612320565b048201901c905061059781828581611e0657611e06612320565b04611eac565b606061059783835f611ec1565b5f80608083901c15611e2d57608092831c92015b604083901c15611e3f57604092831c92015b602083901c15611e5157602092831c92015b601083901c15611e6357601092831c92015b600883901c15611e7557600892831c92015b600483901c15611e8757600492831c92015b600283901c15611e9957600292831c92015b600183901c156105735760010192915050565b5f818310611eba5781610597565b5090919050565b606081471015611ee65760405163cd78605960e01b81523060048201526024016110b6565b5f80856001600160a01b03168486604051611f0191906123db565b5f6040518083038185875af1925050503d805f8114611f3b576040519150601f19603f3d011682016040523d82523d5f602084013e611f40565b606091505b5091509150611299868383606082611f6057611f5b82611fa7565b610597565b8151158015611f7757506001600160a01b0384163b155b15611fa057604051639996b31560e01b81526001600160a01b03851660048201526024016110b6565b5080610597565b805115611fb75780518082602001fd5b604051630a12f52160e11b815260040160405180910390fd5b5f5b83811015611fea578181015183820152602001611fd2565b50505f910152565b602081525f8251806020840152612010816040850160208701611fd0565b601f01601f19169190910160400192915050565b80356001600160a01b038116811461203a575f80fd5b919050565b5f8060408385031215612050575f80fd5b61205983612024565b946020939093013593505050565b5f805f60608486031215612079575f80fd5b61208284612024565b925061209060208501612024565b9150604084013590509250925092565b5f602082840312156120b0575f80fd5b5035919050565b5f602082840312156120c7575f80fd5b813567ffffffffffffffff8111156120dd575f80fd5b820160a08185031215610597575f80fd5b5f805f805f60808688031215612102575f80fd5b61210b86612024565b94506020860135935060408601359250606086013567ffffffffffffffff80821115612135575f80fd5b818801915088601f830112612148575f80fd5b813581811115612156575f80fd5b896020828501011115612167575f80fd5b9699959850939650602001949392505050565b5f6020828403121561218a575f80fd5b61059782612024565b5f80604083850312156121a4575f80fd5b6121ad83612024565b91506121bb60208401612024565b90509250929050565b600181811c908216806121d857607f821691505b6020821081036121f657634e487b7160e01b5f52602260045260245ffd5b50919050565b80151581146110c8575f80fd5b5f60208284031215612219575f80fd5b8135610597816121fc565b634e487b7160e01b5f52601160045260245ffd5b5f600160ff1b820161224c5761224c612224565b505f0390565b5f808335601e19843603018112612267575f80fd5b83018035915067ffffffffffffffff821115612281575f80fd5b602001915036819003821315612295575f80fd5b9250929050565b81835281816020850137505f828201602090810191909152601f909101601f19169091010190565b848152836020820152606060408201525f61129960608301848661229c565b8082018082111561057357610573612224565b8181038181111561057357610573612224565b808202811582820484141761057357610573612224565b634e487b7160e01b5f52601260045260245ffd5b5f8261234257612342612320565b500490565b62ffffff82811682821603908082111561236357612363612224565b5092915050565b5f6020828403121561237a575f80fd5b5051919050565b5f8261238f5761238f612320565b500690565b5f600182016123a5576123a5612224565b5060010190565b634e487b7160e01b5f52603260045260245ffd5b5f602082840312156123d0575f80fd5b8151610597816121fc565b5f82516123ec818460208701611fd0565b919091019291505056fea264697066735822122098274976111e45ee0f2c11ebb2053fbfa30baf9d2d61af4cf2cc62c4dba24f0864736f6c63430008170033",
    "sourcePath": "c:/Users/tucuo/OneDrive/Desktop/CiSwap.Contracts/contracts/core/Pool.sol",
    "compiler": {
        "name": "solc",
        "version": "0.8.23+commit.f704f362"
    },
    "functionHashes": {
        "allowance(address,address)": "dd62ed3e",
        "approve(address,uint256)": "095ea7b3",
        "balanceOf(address)": "70a08231",
        "burn(address,uint256)": "9dc29fac",
        "config()": "79502c55",
        "constant0()": "e6232320",
        "constant1()": "74d96989",
        "decimals()": "313ce567",
        "factory()": "c45a0155",
        "fee()": "ddca3f43",
        "flash(address,uint256,uint256,bytes)": "490e6cbc",
        "mint(address)": "6a627842",
        "name()": "06fdde03",
        "observations(uint256)": "252c09d7",
        "owner()": "8da5cb5b",
        "renounceOwnership()": "715018a6",
        "slot0()": "3850c7bd",
        "swap((int256,uint256,bool,address,bytes))": "25a12ac1",
        "symbol()": "95d89b41",
        "token0()": "0dfe1681",
        "token1()": "d21220a7",
        "totalSupply()": "18160ddd",
        "transfer(address,uint256)": "a9059cbb",
        "transferFrom(address,address,uint256)": "23b872dd",
        "transferOwnership(address)": "f2fde38b"
    },
    "gasEstimates": {
        "creation": {
            "codeDepositCost": "1852000",
            "executionCost": "infinite",
            "totalCost": "infinite"
        },
        "external": {
            "allowance(address,address)": "infinite",
            "approve(address,uint256)": "24758",
            "balanceOf(address)": "2667",
            "burn(address,uint256)": "infinite",
            "config()": "13041",
            "constant0()": "infinite",
            "constant1()": "infinite",
            "decimals()": "221",
            "factory()": "infinite",
            "fee()": "infinite",
            "flash(address,uint256,uint256,bytes)": "infinite",
            "mint(address)": "infinite",
            "name()": "infinite",
            "observations(uint256)": "8989",
            "owner()": "2418",
            "renounceOwnership()": "infinite",
            "slot0()": "8751",
            "swap((int256,uint256,bool,address,bytes))": "infinite",
            "symbol()": "infinite",
            "token0()": "infinite",
            "token1()": "infinite",
            "totalSupply()": "2370",
            "transfer(address,uint256)": "51252",
            "transferFrom(address,address,uint256)": "infinite",
            "transferOwnership(address)": "28439"
        },
        "internal": {
            "_adjusted0()": "infinite",
            "_adjusted1()": "infinite",
            "_balance0()": "infinite",
            "_balance1()": "infinite",
            "_update(uint256,uint256)": "infinite"
        }
    }
}