{
    "contractName": "Pool",
    "abi": [
        {
            "inputs": [],
            "stateMutability": "nonpayable",
            "type": "constructor"
        },
        {
            "inputs": [
                {
                    "internalType": "address",
                    "name": "target",
                    "type": "address"
                }
            ],
            "name": "AddressEmptyCode",
            "type": "error"
        },
        {
            "inputs": [
                {
                    "internalType": "address",
                    "name": "account",
                    "type": "address"
                }
            ],
            "name": "AddressInsufficientBalance",
            "type": "error"
        },
        {
            "inputs": [
                {
                    "internalType": "address",
                    "name": "spender",
                    "type": "address"
                },
                {
                    "internalType": "uint256",
                    "name": "allowance",
                    "type": "uint256"
                },
                {
                    "internalType": "uint256",
                    "name": "needed",
                    "type": "uint256"
                }
            ],
            "name": "ERC20InsufficientAllowance",
            "type": "error"
        },
        {
            "inputs": [
                {
                    "internalType": "address",
                    "name": "sender",
                    "type": "address"
                },
                {
                    "internalType": "uint256",
                    "name": "balance",
                    "type": "uint256"
                },
                {
                    "internalType": "uint256",
                    "name": "needed",
                    "type": "uint256"
                }
            ],
            "name": "ERC20InsufficientBalance",
            "type": "error"
        },
        {
            "inputs": [
                {
                    "internalType": "address",
                    "name": "approver",
                    "type": "address"
                }
            ],
            "name": "ERC20InvalidApprover",
            "type": "error"
        },
        {
            "inputs": [
                {
                    "internalType": "address",
                    "name": "receiver",
                    "type": "address"
                }
            ],
            "name": "ERC20InvalidReceiver",
            "type": "error"
        },
        {
            "inputs": [
                {
                    "internalType": "address",
                    "name": "sender",
                    "type": "address"
                }
            ],
            "name": "ERC20InvalidSender",
            "type": "error"
        },
        {
            "inputs": [
                {
                    "internalType": "address",
                    "name": "spender",
                    "type": "address"
                }
            ],
            "name": "ERC20InvalidSpender",
            "type": "error"
        },
        {
            "inputs": [],
            "name": "FailedInnerCall",
            "type": "error"
        },
        {
            "inputs": [],
            "name": "MathOverflowedMulDiv",
            "type": "error"
        },
        {
            "inputs": [
                {
                    "internalType": "address",
                    "name": "owner",
                    "type": "address"
                }
            ],
            "name": "OwnableInvalidOwner",
            "type": "error"
        },
        {
            "inputs": [
                {
                    "internalType": "address",
                    "name": "account",
                    "type": "address"
                }
            ],
            "name": "OwnableUnauthorizedAccount",
            "type": "error"
        },
        {
            "inputs": [
                {
                    "internalType": "int256",
                    "name": "value",
                    "type": "int256"
                }
            ],
            "name": "SafeCastOverflowedIntToUint",
            "type": "error"
        },
        {
            "inputs": [
                {
                    "internalType": "uint256",
                    "name": "value",
                    "type": "uint256"
                }
            ],
            "name": "SafeCastOverflowedUintToInt",
            "type": "error"
        },
        {
            "inputs": [
                {
                    "internalType": "address",
                    "name": "token",
                    "type": "address"
                }
            ],
            "name": "SafeERC20FailedOperation",
            "type": "error"
        },
        {
            "anonymous": false,
            "inputs": [
                {
                    "indexed": true,
                    "internalType": "address",
                    "name": "owner",
                    "type": "address"
                },
                {
                    "indexed": true,
                    "internalType": "address",
                    "name": "spender",
                    "type": "address"
                },
                {
                    "indexed": false,
                    "internalType": "uint256",
                    "name": "value",
                    "type": "uint256"
                }
            ],
            "name": "Approval",
            "type": "event"
        },
        {
            "anonymous": false,
            "inputs": [
                {
                    "indexed": true,
                    "internalType": "address",
                    "name": "sender",
                    "type": "address"
                },
                {
                    "indexed": false,
                    "internalType": "uint256",
                    "name": "amount",
                    "type": "uint256"
                },
                {
                    "indexed": false,
                    "internalType": "uint256",
                    "name": "amount0",
                    "type": "uint256"
                },
                {
                    "indexed": false,
                    "internalType": "uint256",
                    "name": "amount1",
                    "type": "uint256"
                },
                {
                    "indexed": true,
                    "internalType": "address",
                    "name": "recipient",
                    "type": "address"
                }
            ],
            "name": "Burn",
            "type": "event"
        },
        {
            "anonymous": false,
            "inputs": [
                {
                    "indexed": true,
                    "internalType": "address",
                    "name": "sender",
                    "type": "address"
                },
                {
                    "indexed": false,
                    "internalType": "uint256",
                    "name": "amount0",
                    "type": "uint256"
                },
                {
                    "indexed": false,
                    "internalType": "uint256",
                    "name": "amount1",
                    "type": "uint256"
                },
                {
                    "indexed": false,
                    "internalType": "uint256",
                    "name": "amountFeeTo0",
                    "type": "uint256"
                },
                {
                    "indexed": false,
                    "internalType": "uint256",
                    "name": "amountFeeTo1",
                    "type": "uint256"
                },
                {
                    "indexed": true,
                    "internalType": "address",
                    "name": "recipient",
                    "type": "address"
                }
            ],
            "name": "CollectProtocol",
            "type": "event"
        },
        {
            "anonymous": false,
            "inputs": [
                {
                    "indexed": true,
                    "internalType": "address",
                    "name": "sender",
                    "type": "address"
                },
                {
                    "indexed": false,
                    "internalType": "uint256",
                    "name": "amount0",
                    "type": "uint256"
                },
                {
                    "indexed": false,
                    "internalType": "uint256",
                    "name": "amount1",
                    "type": "uint256"
                },
                {
                    "indexed": false,
                    "internalType": "uint256",
                    "name": "paid0",
                    "type": "uint256"
                },
                {
                    "indexed": false,
                    "internalType": "uint256",
                    "name": "paid1",
                    "type": "uint256"
                },
                {
                    "indexed": true,
                    "internalType": "address",
                    "name": "recipient",
                    "type": "address"
                }
            ],
            "name": "Flash",
            "type": "event"
        },
        {
            "anonymous": false,
            "inputs": [],
            "name": "Initialized",
            "type": "event"
        },
        {
            "anonymous": false,
            "inputs": [
                {
                    "indexed": true,
                    "internalType": "address",
                    "name": "sender",
                    "type": "address"
                },
                {
                    "indexed": false,
                    "internalType": "uint256",
                    "name": "amount",
                    "type": "uint256"
                },
                {
                    "indexed": false,
                    "internalType": "uint256",
                    "name": "amount0",
                    "type": "uint256"
                },
                {
                    "indexed": false,
                    "internalType": "uint256",
                    "name": "amount1",
                    "type": "uint256"
                },
                {
                    "indexed": true,
                    "internalType": "address",
                    "name": "recipient",
                    "type": "address"
                }
            ],
            "name": "Mint",
            "type": "event"
        },
        {
            "anonymous": false,
            "inputs": [
                {
                    "indexed": true,
                    "internalType": "address",
                    "name": "previousOwner",
                    "type": "address"
                },
                {
                    "indexed": true,
                    "internalType": "address",
                    "name": "newOwner",
                    "type": "address"
                }
            ],
            "name": "OwnershipTransferred",
            "type": "event"
        },
        {
            "anonymous": false,
            "inputs": [
                {
                    "indexed": true,
                    "internalType": "address",
                    "name": "sender",
                    "type": "address"
                },
                {
                    "indexed": false,
                    "internalType": "int256",
                    "name": "amount0",
                    "type": "int256"
                },
                {
                    "indexed": false,
                    "internalType": "int256",
                    "name": "amount1",
                    "type": "int256"
                },
                {
                    "indexed": true,
                    "internalType": "address",
                    "name": "recipient",
                    "type": "address"
                }
            ],
            "name": "Swap",
            "type": "event"
        },
        {
            "anonymous": false,
            "inputs": [
                {
                    "indexed": false,
                    "internalType": "uint256",
                    "name": "reserve0",
                    "type": "uint256"
                },
                {
                    "indexed": false,
                    "internalType": "uint256",
                    "name": "reserve1",
                    "type": "uint256"
                }
            ],
            "name": "Sync",
            "type": "event"
        },
        {
            "anonymous": false,
            "inputs": [
                {
                    "indexed": true,
                    "internalType": "address",
                    "name": "from",
                    "type": "address"
                },
                {
                    "indexed": true,
                    "internalType": "address",
                    "name": "to",
                    "type": "address"
                },
                {
                    "indexed": false,
                    "internalType": "uint256",
                    "name": "value",
                    "type": "uint256"
                }
            ],
            "name": "Transfer",
            "type": "event"
        },
        {
            "inputs": [],
            "name": "FEE_PROTOCOL_RATE",
            "outputs": [
                {
                    "internalType": "uint24",
                    "name": "",
                    "type": "uint24"
                }
            ],
            "stateMutability": "view",
            "type": "function"
        },
        {
            "inputs": [
                {
                    "internalType": "address",
                    "name": "owner",
                    "type": "address"
                },
                {
                    "internalType": "address",
                    "name": "spender",
                    "type": "address"
                }
            ],
            "name": "allowance",
            "outputs": [
                {
                    "internalType": "uint256",
                    "name": "",
                    "type": "uint256"
                }
            ],
            "stateMutability": "view",
            "type": "function"
        },
        {
            "inputs": [
                {
                    "internalType": "address",
                    "name": "spender",
                    "type": "address"
                },
                {
                    "internalType": "uint256",
                    "name": "value",
                    "type": "uint256"
                }
            ],
            "name": "approve",
            "outputs": [
                {
                    "internalType": "bool",
                    "name": "",
                    "type": "bool"
                }
            ],
            "stateMutability": "nonpayable",
            "type": "function"
        },
        {
            "inputs": [
                {
                    "internalType": "address",
                    "name": "account",
                    "type": "address"
                }
            ],
            "name": "balanceOf",
            "outputs": [
                {
                    "internalType": "uint256",
                    "name": "",
                    "type": "uint256"
                }
            ],
            "stateMutability": "view",
            "type": "function"
        },
        {
            "inputs": [
                {
                    "internalType": "address",
                    "name": "recipient",
                    "type": "address"
                },
                {
                    "internalType": "uint256",
                    "name": "amount",
                    "type": "uint256"
                }
            ],
            "name": "burn",
            "outputs": [
                {
                    "internalType": "uint256",
                    "name": "amount0",
                    "type": "uint256"
                },
                {
                    "internalType": "uint256",
                    "name": "amount1",
                    "type": "uint256"
                }
            ],
            "stateMutability": "nonpayable",
            "type": "function"
        },
        {
            "inputs": [
                {
                    "internalType": "address",
                    "name": "recipient",
                    "type": "address"
                },
                {
                    "internalType": "uint256",
                    "name": "amount0Requested",
                    "type": "uint256"
                },
                {
                    "internalType": "uint256",
                    "name": "amount1Requested",
                    "type": "uint256"
                }
            ],
            "name": "collectProtocol",
            "outputs": [
                {
                    "internalType": "uint256",
                    "name": "amount0",
                    "type": "uint256"
                },
                {
                    "internalType": "uint256",
                    "name": "amount1",
                    "type": "uint256"
                },
                {
                    "internalType": "uint256",
                    "name": "amountFeeTo0",
                    "type": "uint256"
                },
                {
                    "internalType": "uint256",
                    "name": "amountFeeTo1",
                    "type": "uint256"
                }
            ],
            "stateMutability": "nonpayable",
            "type": "function"
        },
        {
            "inputs": [],
            "name": "config",
            "outputs": [
                {
                    "internalType": "address",
                    "name": "tokenA",
                    "type": "address"
                },
                {
                    "internalType": "address",
                    "name": "tokenB",
                    "type": "address"
                },
                {
                    "internalType": "uint256",
                    "name": "amountA",
                    "type": "uint256"
                },
                {
                    "internalType": "uint256",
                    "name": "amountB",
                    "type": "uint256"
                },
                {
                    "internalType": "uint256",
                    "name": "priceABaseX96",
                    "type": "uint256"
                },
                {
                    "internalType": "uint256",
                    "name": "priceAMaxX96",
                    "type": "uint256"
                }
            ],
            "stateMutability": "view",
            "type": "function"
        },
        {
            "inputs": [],
            "name": "constant0",
            "outputs": [
                {
                    "internalType": "uint256",
                    "name": "",
                    "type": "uint256"
                }
            ],
            "stateMutability": "view",
            "type": "function"
        },
        {
            "inputs": [],
            "name": "constant1",
            "outputs": [
                {
                    "internalType": "uint256",
                    "name": "",
                    "type": "uint256"
                }
            ],
            "stateMutability": "view",
            "type": "function"
        },
        {
            "inputs": [],
            "name": "decimals",
            "outputs": [
                {
                    "internalType": "uint8",
                    "name": "",
                    "type": "uint8"
                }
            ],
            "stateMutability": "view",
            "type": "function"
        },
        {
            "inputs": [],
            "name": "factory",
            "outputs": [
                {
                    "internalType": "address",
                    "name": "",
                    "type": "address"
                }
            ],
            "stateMutability": "view",
            "type": "function"
        },
        {
            "inputs": [],
            "name": "fee",
            "outputs": [
                {
                    "internalType": "uint24",
                    "name": "",
                    "type": "uint24"
                }
            ],
            "stateMutability": "view",
            "type": "function"
        },
        {
            "inputs": [
                {
                    "internalType": "address",
                    "name": "recipient",
                    "type": "address"
                },
                {
                    "internalType": "uint256",
                    "name": "amount0",
                    "type": "uint256"
                },
                {
                    "internalType": "uint256",
                    "name": "amount1",
                    "type": "uint256"
                },
                {
                    "internalType": "bytes",
                    "name": "callback",
                    "type": "bytes"
                }
            ],
            "name": "flash",
            "outputs": [
                {
                    "internalType": "uint256",
                    "name": "paid0",
                    "type": "uint256"
                },
                {
                    "internalType": "uint256",
                    "name": "paid1",
                    "type": "uint256"
                }
            ],
            "stateMutability": "nonpayable",
            "type": "function"
        },
        {
            "inputs": [],
            "name": "initialize",
            "outputs": [],
            "stateMutability": "nonpayable",
            "type": "function"
        },
        {
            "inputs": [],
            "name": "liquidity",
            "outputs": [
                {
                    "internalType": "uint256",
                    "name": "",
                    "type": "uint256"
                }
            ],
            "stateMutability": "view",
            "type": "function"
        },
        {
            "inputs": [
                {
                    "internalType": "address",
                    "name": "recipient",
                    "type": "address"
                }
            ],
            "name": "mint",
            "outputs": [
                {
                    "internalType": "uint256",
                    "name": "amount",
                    "type": "uint256"
                }
            ],
            "stateMutability": "nonpayable",
            "type": "function"
        },
        {
            "inputs": [],
            "name": "name",
            "outputs": [
                {
                    "internalType": "string",
                    "name": "",
                    "type": "string"
                }
            ],
            "stateMutability": "view",
            "type": "function"
        },
        {
            "inputs": [
                {
                    "internalType": "uint256",
                    "name": "",
                    "type": "uint256"
                }
            ],
            "name": "observations",
            "outputs": [
                {
                    "internalType": "uint256",
                    "name": "blockTimestamp",
                    "type": "uint256"
                },
                {
                    "internalType": "uint256",
                    "name": "reserve0Cumulative",
                    "type": "uint256"
                },
                {
                    "internalType": "uint256",
                    "name": "reserve1Cumulative",
                    "type": "uint256"
                }
            ],
            "stateMutability": "view",
            "type": "function"
        },
        {
            "inputs": [
                {
                    "internalType": "uint256[]",
                    "name": "secondAgos",
                    "type": "uint256[]"
                }
            ],
            "name": "observe",
            "outputs": [
                {
                    "internalType": "uint256[]",
                    "name": "reserve0Cumulatives",
                    "type": "uint256[]"
                },
                {
                    "internalType": "uint256[]",
                    "name": "reserve1Cumulatives",
                    "type": "uint256[]"
                }
            ],
            "stateMutability": "view",
            "type": "function"
        },
        {
            "inputs": [],
            "name": "owner",
            "outputs": [
                {
                    "internalType": "address",
                    "name": "",
                    "type": "address"
                }
            ],
            "stateMutability": "view",
            "type": "function"
        },
        {
            "inputs": [],
            "name": "price0X96",
            "outputs": [
                {
                    "internalType": "uint256",
                    "name": "",
                    "type": "uint256"
                }
            ],
            "stateMutability": "view",
            "type": "function"
        },
        {
            "inputs": [],
            "name": "price1X96",
            "outputs": [
                {
                    "internalType": "uint256",
                    "name": "",
                    "type": "uint256"
                }
            ],
            "stateMutability": "view",
            "type": "function"
        },
        {
            "inputs": [],
            "name": "renounceOwnership",
            "outputs": [],
            "stateMutability": "nonpayable",
            "type": "function"
        },
        {
            "inputs": [],
            "name": "slot0",
            "outputs": [
                {
                    "internalType": "uint256",
                    "name": "reserve0",
                    "type": "uint256"
                },
                {
                    "internalType": "uint256",
                    "name": "reserve1",
                    "type": "uint256"
                },
                {
                    "internalType": "uint256",
                    "name": "observationCardinality",
                    "type": "uint256"
                },
                {
                    "internalType": "bool",
                    "name": "unlocked",
                    "type": "bool"
                },
                {
                    "internalType": "uint256",
                    "name": "feeProtocol0",
                    "type": "uint256"
                },
                {
                    "internalType": "uint256",
                    "name": "feeProtocol1",
                    "type": "uint256"
                }
            ],
            "stateMutability": "view",
            "type": "function"
        },
        {
            "inputs": [
                {
                    "components": [
                        {
                            "internalType": "int256",
                            "name": "amountSpecified",
                            "type": "int256"
                        },
                        {
                            "internalType": "uint256",
                            "name": "limitAmountCalculated",
                            "type": "uint256"
                        },
                        {
                            "internalType": "bool",
                            "name": "zeroForOne",
                            "type": "bool"
                        },
                        {
                            "internalType": "address",
                            "name": "recipient",
                            "type": "address"
                        },
                        {
                            "internalType": "bytes",
                            "name": "callback",
                            "type": "bytes"
                        }
                    ],
                    "internalType": "struct IPoolActions.SwapParams",
                    "name": "params",
                    "type": "tuple"
                }
            ],
            "name": "swap",
            "outputs": [
                {
                    "internalType": "int256",
                    "name": "amount0",
                    "type": "int256"
                },
                {
                    "internalType": "int256",
                    "name": "amount1",
                    "type": "int256"
                }
            ],
            "stateMutability": "nonpayable",
            "type": "function"
        },
        {
            "inputs": [],
            "name": "symbol",
            "outputs": [
                {
                    "internalType": "string",
                    "name": "",
                    "type": "string"
                }
            ],
            "stateMutability": "view",
            "type": "function"
        },
        {
            "inputs": [],
            "name": "token0",
            "outputs": [
                {
                    "internalType": "address",
                    "name": "",
                    "type": "address"
                }
            ],
            "stateMutability": "view",
            "type": "function"
        },
        {
            "inputs": [],
            "name": "token1",
            "outputs": [
                {
                    "internalType": "address",
                    "name": "",
                    "type": "address"
                }
            ],
            "stateMutability": "view",
            "type": "function"
        },
        {
            "inputs": [],
            "name": "totalSupply",
            "outputs": [
                {
                    "internalType": "uint256",
                    "name": "",
                    "type": "uint256"
                }
            ],
            "stateMutability": "view",
            "type": "function"
        },
        {
            "inputs": [
                {
                    "internalType": "address",
                    "name": "to",
                    "type": "address"
                },
                {
                    "internalType": "uint256",
                    "name": "value",
                    "type": "uint256"
                }
            ],
            "name": "transfer",
            "outputs": [
                {
                    "internalType": "bool",
                    "name": "",
                    "type": "bool"
                }
            ],
            "stateMutability": "nonpayable",
            "type": "function"
        },
        {
            "inputs": [
                {
                    "internalType": "address",
                    "name": "from",
                    "type": "address"
                },
                {
                    "internalType": "address",
                    "name": "to",
                    "type": "address"
                },
                {
                    "internalType": "uint256",
                    "name": "value",
                    "type": "uint256"
                }
            ],
            "name": "transferFrom",
            "outputs": [
                {
                    "internalType": "bool",
                    "name": "",
                    "type": "bool"
                }
            ],
            "stateMutability": "nonpayable",
            "type": "function"
        },
        {
            "inputs": [
                {
                    "internalType": "address",
                    "name": "newOwner",
                    "type": "address"
                }
            ],
            "name": "transferOwnership",
            "outputs": [],
            "stateMutability": "nonpayable",
            "type": "function"
        }
    ],
    "bytecode": "61016060405234801562000011575f80fd5b506040518060400160405280601881526020017f4c69717569646974792050726f766964657220546f6b656e0000000000000000815250604051806040016040528060088152602001672628102a37b5b2b760c11b815250620000796200020b60201b60201c565b6001600160a01b038116620000a757604051631e4fbdf760e01b81525f600482015260240160405180910390fd5b620000b2816200020f565b506004620000c18382620006df565b506005620000d08282620006df565b50503060805250336001600160a01b031663f3778fd86040518163ffffffff1660e01b815260040161010060405180830381865afa15801562000115573d5f803e3d5ffd5b505050506040513d601f19601f820116820180604052508101906200013b9190620007c7565b8051600680546001600160a01b039283166001600160a01b03199182168117909255602084015160078054918516919092168117909155604084015160085560608401516009556080840151600a5560a093840151600b5562ffffff90941660c052931690525f91620001ae916200025e565b6001600160a01b0391821661010052911660e052600a54600b546008546009549394505f938493620001e4939092909162000297565b9150915082620001f6578082620001f9565b81815b6101405261012052506200090c915050565b3390565b5f80546001600160a01b038381166001600160a01b0319831681178455604051919092169283917f8be0079c531659141344cd1fd0a4f28419497f9722a3daafe3b4186f6b6457e09190a35050565b5f805f836001600160a01b0316856001600160a01b031610620002845783855f62000289565b848460015b919790965090945092505050565b5f80620002a6868686620002c1565b9150620002b6868386866200033c565b905094509492505050565b5f80620002dd856c0100000000000000000000000086620003a2565b90505f620002eb8262000467565b90505f620002fa8583620008a8565b905066010000000000005f8062000312838662000568565b915091508162000320575f80fd5b6200032c8185620008d6565b96505050505050505b9392505050565b5f6c0100000000000000000000000081806200037c886200035e8989620008f6565b6200036a9190620008a8565b620003768786620008a8565b62000568565b91509150816200038a575f80fd5b620003968382620008d6565b98975050505050505050565b5f838302815f1985870982811083820303915050805f03620003db57838281620003d057620003d0620008c2565b049250505062000335565b808411620003fc5760405163227bc15360e01b815260040160405180910390fd5b5f848688095f868103871696879004966002600389028118808a02820302808a02820302808a02820302808a02820302808a02820302808a02909103029181900381900460010186841190950394909402919094039290920491909117919091029150509392505050565b5f815f036200047757505f919050565b5f600162000485846200058e565b901c6001901b90506001818481620004a157620004a1620008c2565b048201901c90506001818481620004bc57620004bc620008c2565b048201901c90506001818481620004d757620004d7620008c2565b048201901c90506001818481620004f257620004f2620008c2565b048201901c905060018184816200050d576200050d620008c2565b048201901c90506001818481620005285762000528620008c2565b048201901c90506001818481620005435762000543620008c2565b048201901c90506200033581828581620005615762000561620008c2565b046200062a565b5f80838311156200057e57505f90508062000587565b50600190508183035b9250929050565b5f80608083901c15620005a357608092831c92015b604083901c15620005b657604092831c92015b602083901c15620005c957602092831c92015b601083901c15620005dc57601092831c92015b600883901c15620005ef57600892831c92015b600483901c156200060257600492831c92015b600283901c156200061557600292831c92015b600183901c1562000624576001015b92915050565b5f8183106200063a578162000335565b5090919050565b634e487b7160e01b5f52604160045260245ffd5b600181811c908216806200066a57607f821691505b6020821081036200068957634e487b7160e01b5f52602260045260245ffd5b50919050565b601f821115620006da57805f5260205f20601f840160051c81016020851015620006b65750805b601f840160051c820191505b81811015620006d7575f8155600101620006c2565b50505b505050565b81516001600160401b03811115620006fb57620006fb62000641565b62000713816200070c845462000655565b846200068f565b602080601f83116001811462000749575f8415620007315750858301515b5f19600386901b1c1916600185901b178555620007a3565b5f85815260208120601f198616915b82811015620007795788860151825594840194600190910190840162000758565b50858210156200079757878501515f19600388901b60f8161c191681555b505060018460011b0185555b505050505050565b80516001600160a01b0381168114620007c2575f80fd5b919050565b5f805f838503610100811215620007dc575f80fd5b620007e785620007ab565b9350602085015162ffffff81168114620007ff575f80fd5b925060c0603f198201121562000813575f80fd5b5060405160c081016001600160401b038111828210171562000839576200083962000641565b80604052506200084c60408601620007ab565b81526200085c60608601620007ab565b60208201526080850151604082015260a0850151606082015260c0850151608082015260e085015160a0820152809150509250925092565b634e487b7160e01b5f52601160045260245ffd5b808202811582820484141762000624576200062462000894565b634e487b7160e01b5f52601260045260245ffd5b5f82620008f157634e487b7160e01b5f52601260045260245ffd5b500490565b8082018082111562000624576200062462000894565b60805160a05160c05160e05161010051610120516101405161374962000a455f395f81816103b20152818161091801528181610d620152818161105e0152818161136b01528181611532015261182801525f81816105a7015281816108f201528181610cf70152818161101901528181611326015281816114fc01526117f001525f81816104e30152818161080e0152818161087601528181610f57015281816117b901528181611a2101528181611a77015261204c01525f81816102310152818161082f0152818161085501528181610f2c0152818161178e015281816119f601528181611a4c0152611fbe01525f818161055f015281816109c601528181610ad9015281816110ac015281816112790152611b8801525f81816104b4015281816114c8015261194301525f611d9101526137495ff3fe608060405234801561000f575f80fd5b50600436106101e7575f3560e01c806379502c5511610109578063c806a79e1161009e578063ddca3f431161006e578063ddca3f431461055a578063dea96b7114610581578063e6232320146105a2578063f2fde38b146105c9575f80fd5b8063c806a79e146104d6578063d21220a7146104de578063d24c503d14610505578063dd62ed3e14610522575f80fd5b80639dc29fac116100d95780639dc29fac14610456578063a582015714610469578063a9059cbb1461049c578063c45a0155146104af575f80fd5b806379502c55146103d45780638129fc1c146104365780638da5cb5b1461043e57806395d89b411461044e575f80fd5b8063313ce5671161017f5780636a6278421161014f5780636a6278421461036857806370a082311461037b578063715018a6146103a357806374d96989146103ad575f80fd5b8063313ce567146102ee5780633850c7bd146102fd578063490e6cbc1461034d5780634fa1323d14610360575f80fd5b80631a686502116101ba5780631a6865021461027d57806323b872dd14610285578063252c09d71461029857806325a12ac1146102c6575f80fd5b806306fdde03146101eb578063095ea7b3146102095780630dfe16811461022c57806318160ddd1461026b575b5f80fd5b6101f36105dc565b604051610200919061318e565b60405180910390f35b61021c6102173660046131b4565b61066c565b6040519015158152602001610200565b6102537f000000000000000000000000000000000000000000000000000000000000000081565b6040516001600160a01b039091168152602001610200565b6003545b604051908152602001610200565b61026f610685565b61021c6102933660046131de565b6106d8565b6102ab6102a636600461321c565b6106fd565b60408051938452602084019290925290820152606001610200565b6102d96102d4366004613233565b61072e565b60408051928352602083019190915201610200565b60405160128152602001610200565b600d54600e54600f5460105460115460125461031e9594939260ff16919086565b6040805196875260208701959095529385019290925215156060840152608083015260a082015260c001610200565b6102d961035b36600461326a565b610eef565b61026f61122f565b61026f6103763660046132f8565b61129e565b61026f6103893660046132f8565b6001600160a01b03165f9081526001602052604090205490565b6103ab6114b2565b005b61026f7f000000000000000000000000000000000000000000000000000000000000000081565b600654600754600854600954600a54600b546103fe956001600160a01b0390811695169392919086565b604080516001600160a01b039788168152969095166020870152938501929092526060840152608083015260a082015260c001610200565b6103ab6114c5565b5f546001600160a01b0316610253565b6101f36116a1565b6102d96104643660046131b4565b6116b0565b61047c610477366004613313565b6118cd565b604080519485526020850193909352918301526060820152608001610200565b61021c6104aa3660046131b4565b611b31565b6102537f000000000000000000000000000000000000000000000000000000000000000081565b61026f611b3e565b6102537f000000000000000000000000000000000000000000000000000000000000000081565b61050e614e2081565b60405162ffffff9091168152602001610200565b61026f610530366004613345565b6001600160a01b039182165f90815260026020908152604080832093909416825291909152205490565b61050e7f000000000000000000000000000000000000000000000000000000000000000081565b61059461058f36600461337c565b611bae565b604051610200929190613425565b61026f7f000000000000000000000000000000000000000000000000000000000000000081565b6103ab6105d73660046132f8565b611c4c565b6060600480546105eb90613449565b80601f016020809104026020016040519081016040528092919081815260200182805461061790613449565b80156106625780601f1061063957610100808354040283529160200191610662565b820191905f5260205f20905b81548152906001019060200180831161064557829003601f168201915b5050505050905090565b5f33610679818585611c89565b60019150505b92915050565b6040805160c081018252600d54808252600e5460208301819052600f549383019390935260105460ff1615156060830152601154608083015260125460a08301525f926106d29190611c9b565b91505090565b5f336106e5858285611cae565b6106f0858585611d29565b60019150505b9392505050565b600c818154811061070c575f80fd5b5f91825260209091206003909102018054600182015460029092015490925083565b6010545f90819060ff1661075d5760405162461bcd60e51b815260040161075490613481565b60405180910390fd5b6010805460ff1916905561076f611d86565b6040805160c08082018352600d548252600e54602080840191909152600f548385015260105460ff16151560608085019190915260115460808086019190915260125460a0808701919091528651610120810188525f8082529481018590529687018490529186018390528501829052840181905290830181905260e083018190526101008301529061080860608601604087016134ac565b610853577f00000000000000000000000000000000000000000000000000000000000000007f0000000000000000000000000000000000000000000000000000000000000000610896565b7f00000000000000000000000000000000000000000000000000000000000000007f00000000000000000000000000000000000000000000000000000000000000005b6001600160a01b0390811660208401521681526108b960608601604087016134ac565b6108c957602082015182516108d1565b815160208301515b60a083015260808201525f6108ec60608701604088016134ac565b610916577f0000000000000000000000000000000000000000000000000000000000000000610938565b7f00000000000000000000000000000000000000000000000000000000000000005b90505f8635138015610a4f5761094e8735611dba565b8360400181815250506109f26040518060a0016040528089604001602081019061097891906134ac565b610986578660200151610989565b86515b815260200161099e60608b0160408c016134ac565b6109a95786516109af565b86602001515b8152602001848152602001856040015181526020017f000000000000000000000000000000000000000000000000000000000000000062ffffff16815250611de3565b6101008501526060840181905260208801351115610a4a5760405162461bcd60e51b815260206004820152601560248201527413dd5d1c1d5d081b1a5b5a5d08195e18d959591959605a1b6044820152606401610754565b610b5c565b610a61610a5c88356134db565b611dba565b836060018181525050610b056040518060a00160405280896040016020810190610a8b91906134ac565b610a99578660200151610a9c565b86515b8152602001610ab160608b0160408c016134ac565b610abc578651610ac2565b86602001515b8152602001848152602001856060015181526020017f000000000000000000000000000000000000000000000000000000000000000062ffffff16815250611ec0565b6101008501526040840181905260208801351015610b5c5760405162461bcd60e51b8152602060048201526014602482015273125b9c1d5d081b1a5b5a5d08195e18d95959195960621b6044820152606401610754565b6020830151610b7f90610b7560808a0160608b016132f8565b8560600151611f5a565b5f610b8e846101000151611f6e565b9050610ba06060890160408a016134ac565b610bc35780600d6004015f828254610bb891906134f5565b925050819055610bde565b80600d6005015f828254610bd791906134f5565b9250508190555b50610bef6060890160408a016134ac565b610c0557610c008460600151611f7b565b610c1b565b610c128460400151611f7b565b610c1b906134db565b9650610c2d6060890160408a016134ac565b610c4c57610c3e8460400151611f7b565b610c47906134db565b610c59565b610c598460600151611f7b565b95505f610c6960808a018a613508565b90501115610cd35733638d4a84198888610c8660808d018d613508565b6040518563ffffffff1660e01b8152600401610ca59493929190613573565b5f604051808303815f87803b158015610cbc575f80fd5b505af1158015610cce573d5f803e3d5ffd5b505050505b5f610ce460608a0160408b016134ac565b610cee5781610cf0565b5f5b86608001517f0000000000000000000000000000000000000000000000000000000000000000610d1e611fa7565b610d2891906134f5565b610d329190613592565b610d3c9190613592565b90505f610d4f60608b0160408c016134ac565b610d59575f610d5b565b825b8760a001517f0000000000000000000000000000000000000000000000000000000000000000610d89612035565b610d9391906134f5565b610d9d9190613592565b610da79190613592565b90505f610dba60608c0160408d016134ac565b610dc45781610dc6565b825b905086604001518760800151610ddc91906134f5565b811015610e2b5760405162461bcd60e51b815260206004820152601960248201527f496e73756666696369656e7420616d6f756e7420696e707574000000000000006044820152606401610754565b610e626040518060400160405280600c81526020016b696e202573206f757420257360a01b81525088604001518960600151612083565b610e6c83836120ca565b610e7c60808c0160608d016132f8565b6001600160a01b0316336001600160a01b03167f86104e7a79e16fb712c2a4133be3187400bdcaf8d7a74c66f7b75718a83f83718c8c604051610ec9929190918252602082015260400190565b60405180910390a350506010805460ff1916600117905550959794965093945050505050565b6010545f90819060ff16610f155760405162461bcd60e51b815260040161075490613481565b6010805460ff19169055610f27611d86565b610f527f00000000000000000000000000000000000000000000000000000000000000008888611f5a565b610f7d7f00000000000000000000000000000000000000000000000000000000000000008887611f5a565b60405163e83517b560e01b8152339063e83517b590610fa6908990899089908990600401613573565b5f604051808303815f87803b158015610fbd575f80fd5b505af1158015610fcf573d5f803e3d5ffd5b50506040805160c081018252600d548152600e546020820152600f549181019190915260105460ff16151560608201526011546080820181905260125460a08301529092505f91507f0000000000000000000000000000000000000000000000000000000000000000611040611fa7565b61104a91906134f5565b6110549190613592565b90505f8260a001517f0000000000000000000000000000000000000000000000000000000000000000611085612035565b61108f91906134f5565b6110999190613592565b90505f6110d0845f0151856020015185857f000000000000000000000000000000000000000000000000000000000000000061215f565b90508061111f5760405162461bcd60e51b815260206004820152601960248201527f496e73756666696369656e7420616d6f756e74732070616964000000000000006044820152606401610754565b835161112c908b90613592565b6111369084613592565b95508884602001516111489190613592565b6111529083613592565b94505f61115e87611f6e565b90505f61116a87611f6e565b905081600d6004015f82825461118091906134f5565b9091555050601280548291905f906111999084906134f5565b909155506111bb90506111ac8387613592565b6111b68387613592565b6120ca565b604080518d8152602081018d90528082018a90526060810189905290516001600160a01b038f169133917f1d940843caa7af592ac83e5e979405c98c9cad66a2a99359615008d6c97d5bc39181900360800190a350506010805460ff19166001179055509399929850919650505050505050565b6040805160c081018252600d54808252600e5460208301819052600f549383019390935260105460ff1615156060830152601154608083015260125460a08301525f926106d291907f0000000000000000000000000000000000000000000000000000000000000000856121a5565b6010545f9060ff166112c25760405162461bcd60e51b815260040161075490613481565b6010805460ff191690556112d4611d86565b5f6112de60035490565b6040805160c081018252600d548152600e546020820152600f549181019190915260105460ff16151560608201526011546080820181905260125460a0830152919250905f907f000000000000000000000000000000000000000000000000000000000000000061134d611fa7565b61135791906134f5565b6113619190613592565b90505f8260a001517f0000000000000000000000000000000000000000000000000000000000000000611392612035565b61139c91906134f5565b6113a69190613592565b83519091508211806113bb5750826020015181115b6114075760405162461bcd60e51b815260206004820152601f60248201527f496e73756666696369656e7420616d6f756e74207472616e73666572726564006044820152606401610754565b61141b84845f0151856020015185856121f4565b9450611427868661223c565b61143182826120ca565b82516001600160a01b0387169033907fa8137fff86647d8a402117b9c5dbda627f721d3773338fb9678c83e54ed3908090889061146e9087613592565b602088015161147d9087613592565b6040805193845260208401929092529082015260600160405180910390a350506010805460ff19166001179055509092915050565b6114ba612274565b6114c35f6122a0565b565b337f00000000000000000000000000000000000000000000000000000000000000006001600160a01b0316146114f9575f80fd5b5f7f0000000000000000000000000000000000000000000000000000000000000000611523611fa7565b61152d91906134f5565b90505f7f0000000000000000000000000000000000000000000000000000000000000000611559612035565b61156391906134f5565b60408051606080820183524282525f6020808401828152848601838152600c80546001808201835591865296517fdf6966c971051c3d54ec59162606531493a51404a002842f56009d7e5cf4a8c760039098029788015591517fdf6966c971051c3d54ec59162606531493a51404a002842f56009d7e5cf4a8c8870155517fdf6966c971051c3d54ec59162606531493a51404a002842f56009d7e5cf4a8c990950194909455845160c0810186528881529081018690529384018390529083018290526080830181905260a0909201829052600d859055600e839055600f8190556010805460ff191682179055601182905560128290559192506116678484611c9b565b9050611673308261223c565b6040517f5daa87a0e9463431830481fd4b6e3403442dfb9a12b9c07597e9f61d50b633c8905f90a150505050565b6060600580546105eb90613449565b6010545f90819060ff166116d65760405162461bcd60e51b815260040161075490613481565b6010805460ff191690556116e8611d86565b5f6116f260035490565b90505f84116116ff575f80fd5b6040805160c081018252600d548152600e546020820152600f549181019190915260105460ff16151560608201526011546080820181905260125460a08301525f90611749611fa7565b6117539190613592565b90505f8260a00151611763612035565b61176d9190613592565b90506117848785855f0151866020015186866122ef565b90965094506117b47f00000000000000000000000000000000000000000000000000000000000000008988611f5a565b6117df7f00000000000000000000000000000000000000000000000000000000000000008987611f5a565b6117e93388612395565b5f866118157f0000000000000000000000000000000000000000000000000000000000000000856134f5565b61181f9190613592565b90505f8661184d7f0000000000000000000000000000000000000000000000000000000000000000856134f5565b6118579190613592565b905061186382826120ca565b604080518a8152602081018a905280820189905290516001600160a01b038c169133917fd175a80c109434bb89948928ab2475a6647c94244cb70002197896423c8833639181900360600190a350506010805460ff19166001179055509396929550919350505050565b5f805f806118d9612274565b6040805160c081018252600d548152600e546020820152600f549181019190915260105460ff16151560608201526011546080820181905260125460a083015287919082111561192b57806080015191505b60a08101518790811115611940575060a08101515b5f7f00000000000000000000000000000000000000000000000000000000000000006001600160a01b031663017e7e586040518163ffffffff1660e01b8152600401602060405180830381865afa15801561199d573d5f803e3d5ffd5b505050506040513d601f19601f820116820180604052508101906119c191906135a5565b90506119cc84611f6e565b95506119d782611f6e565b94506119e38685613592565b97506119ef8583613592565b9650611a1c7f00000000000000000000000000000000000000000000000000000000000000008c8a611f5a565b611a477f00000000000000000000000000000000000000000000000000000000000000008c89611f5a565b611a727f00000000000000000000000000000000000000000000000000000000000000008288611f5a565b611a9d7f00000000000000000000000000000000000000000000000000000000000000008288611f5a565b83600d6004015f828254611ab19190613592565b9091555050601280548391905f90611aca908490613592565b90915550506040805189815260208101899052908101879052606081018690526001600160a01b038c169081907ffa65a20d0648910458fcef8ddd874cbd1e0323f608236e3b01d8d5d0ddf261eb9060800160405180910390a35050505093509350935093565b5f33610679818585611d29565b6040805160c081018252600d54808252600e5460208301819052600f549383019390935260105460ff1615156060830152601154608083015260125460a08301525f926106d291907f000000000000000000000000000000000000000000000000000000000000000060016121a5565b6040805160c081018252600d54808252600e546020808401829052600f5484860181905260105460ff161515606086810191909152601154608087015260125460a0870152865188840281810185019098528881529096879695611c3f95429591949093909290918c918c918291908501908490808284375f92019190915250600c97969594939250506123c99050565b92509250505b9250929050565b611c54612274565b6001600160a01b038116611c7d57604051631e4fbdf760e01b81525f6004820152602401610754565b611c86816122a0565b50565b611c96838383600161254f565b505050565b5f6106f6611ca983856135c0565b612621565b6001600160a01b038381165f908152600260209081526040808320938616835292905220545f198114611d235781811015611d1557604051637dc7a0d960e11b81526001600160a01b03841660048201526024810182905260448101839052606401610754565b611d2384848484035f61254f565b50505050565b6001600160a01b038316611d5257604051634b637e8f60e11b81525f6004820152602401610754565b6001600160a01b038216611d7b5760405163ec442f0560e01b81525f6004820152602401610754565b611c96838383612705565b306001600160a01b037f000000000000000000000000000000000000000000000000000000000000000016146114c3575f80fd5b5f80821215611ddf57604051635467221960e11b815260048101839052602401610754565b5090565b5f8082606001515f03611df4575f80fd5b602083015183515f91611e06916135c0565b90505f8460600151855f0151611e1c91906134f5565b90505f611e29838361282b565b90508560400151811015611e7f5760405162461bcd60e51b815260206004820152601760248201527f496e73756666696369656e7420616d6f756e74206f75740000000000000000006044820152606401610754565b5f818760200151611e909190613592565b9050611ea987608001518261285b90919063ffffffff16565b9450611eb58582613592565b955050505050915091565b5f8082606001515f03611ed1575f80fd5b5f611ef38460800151620186a0611ee891906135d7565b60608601519061286f565b9050836060015181611f059190613592565b91505f8460200151855f0151611f1b91906135c0565b90505f828660200151611f2e9190613592565b90508560400151811015611f40575f80fd5b5f611f4b838361282b565b8751909150611eb59082613592565b611c966001600160a01b0384168383612883565b5f61067f82614e2061285b565b5f6001600160ff1b03821115611ddf5760405163123baf0360e11b815260048101839052602401610754565b6040516370a0823160e01b81523060048201525f907f00000000000000000000000000000000000000000000000000000000000000006001600160a01b0316906370a08231906024015b602060405180830381865afa15801561200c573d5f803e3d5ffd5b505050506040513d601f19601f8201168201806040525081019061203091906135fa565b905090565b6040516370a0823160e01b81523060048201525f907f00000000000000000000000000000000000000000000000000000000000000006001600160a01b0316906370a0823190602401611ff1565b611c9683838360405160240161209b93929190613611565b60408051601f198184030181529190526020810180516001600160e01b031663ca47c4eb60e01b1790526128d5565b600d829055600e8190556040805160c08101825283815260208101839052600f5491810182905260105460ff1615156060820152601154608082015260125460a08201529061211e90600c904286866128de565b600f5560408051848152602081018490527fcf2aa50876cdfbb541206f89af0ee78d44a2abf8d328e37fa4917f982149848a910160405180910390a1505050565b5f8061216b8787611c9b565b90505f6121788686611c9b565b90505f61219261218b86620186a06135d7565b839061285b565b9290921015925050505b95945050505050565b5f816121d5576121d06121bb84620186a06135d7565b6121ca87600160601b886129ed565b9061285b565b61219c565b61219c6121e584620186a06135d7565b6121ca86600160601b896129ed565b5f806122008686611c9b565b90505f61220d8585611c9b565b905081811161221a575f80fd5b61223088836122298185613592565b91906129ed565b98975050505050505050565b6001600160a01b0382166122655760405163ec442f0560e01b81525f6004820152602401610754565b6122705f8383612705565b5050565b5f546001600160a01b031633146114c35760405163118cdaa760e01b8152336004820152602401610754565b5f80546001600160a01b038381166001600160a01b0319831681178455604051919092169283917f8be0079c531659141344cd1fd0a4f28419497f9722a3daafe3b4186f6b6457e09190a35050565b5f806122fc8689896129ed565b91506123098589896129ed565b90505f6123168287613592565b6123208489613592565b61232a91906135c0565b905084831115612360578492505f61234c612345858a613592565b839061282b565b90506123588188613592565b925050612389565b83821115612389578391505f6123796123458489613592565b90506123858189613592565b9350505b50965096945050505050565b6001600160a01b0382166123be57604051634b637e8f60e11b81525f6004820152602401610754565b612270825f83612705565b805160609081908067ffffffffffffffff8111156123e9576123e9613635565b604051908082528060200260200182016040528015612412578160200160208202803683370190505b5092508067ffffffffffffffff81111561242e5761242e613635565b604051908082528060200260200182016040528015612457578160200160208202803683370190505b5091505f89805480602002602001604051908101604052809291908181526020015f905b828210156124c8578382905f5260205f2090600302016040518060600160405290815f8201548152602001600182015481526020016002820154815250508152602001906001019061247b565b5050505090505f5b82811015612541576124ff828b8b8b8b8b87815181106124f2576124f2613649565b6020026020010151612aac565b86838151811061251157612511613649565b6020026020010186848151811061252a5761252a613649565b6020908102919091010191909152526001016124d0565b505050965096945050505050565b6001600160a01b0384166125785760405163e602df0560e01b81525f6004820152602401610754565b6001600160a01b0383166125a157604051634a1406b160e11b81525f6004820152602401610754565b6001600160a01b038085165f9081526002602090815260408083209387168352929052208290558015611d2357826001600160a01b0316846001600160a01b03167f8c5be1e5ebec7d5bd14f71427d1e84f3dd0314c0f7b2291e5b200ac8c7c3b9258460405161261391815260200190565b60405180910390a350505050565b5f815f0361263057505f919050565b5f600161263c84612b39565b901c6001901b905060018184816126555761265561365d565b048201901c9050600181848161266d5761266d61365d565b048201901c905060018184816126855761268561365d565b048201901c9050600181848161269d5761269d61365d565b048201901c905060018184816126b5576126b561365d565b048201901c905060018184816126cd576126cd61365d565b048201901c905060018184816126e5576126e561365d565b048201901c90506106f6818285816126ff576126ff61365d565b04612bcc565b6001600160a01b03831661272f578060035f82825461272491906134f5565b9091555061279f9050565b6001600160a01b0383165f90815260016020526040902054818110156127815760405163391434e360e21b81526001600160a01b03851660048201526024810182905260448101839052606401610754565b6001600160a01b0384165f9081526001602052604090209082900390555b6001600160a01b0382166127bb576003805482900390556127d9565b6001600160a01b0382165f9081526001602052604090208054820190555b816001600160a01b0316836001600160a01b03167fddf252ad1be2c89b69c2b068fc378daa952ba7f163c4a11628f55a4df523b3ef8360405161281e91815260200190565b60405180910390a3505050565b5f6128368284613671565b90505f6128438385613684565b111561067f578061285381613697565b949350505050565b5f6106f68362ffffff8416620186a06129ed565b5f6106f683620186a08462ffffff16612be1565b604080516001600160a01b038416602482015260448082018490528251808303909101815260649091019091526020810180516001600160e01b031663a9059cbb60e01b179052611c96908490612c11565b611c8681612c72565b5f80866128ec600188613592565b815481106128fc576128fc613649565b905f5260205f2090600302016040518060600160405290815f8201548152602001600182015481526020016002820154815250509050805f015185036129985761294881868686612c91565b87612954600189613592565b8154811061296457612964613649565b905f5260205f2090600302015f820151815f015560208201518160010155604082015181600201559050508591505061219c565b866129a582878787612c91565b8154600181810184555f938452602093849020835160039093020191825592820151818401556040909101516002909101556129e29087906134f5565b979650505050505050565b5f838302815f1985870982811083820303915050805f03612a2157838281612a1757612a1761365d565b04925050506106f6565b808411612a415760405163227bc15360e01b815260040160405180910390fd5b5f848688095f868103871696879004966002600389028118808a02820302808a02820302808a02820302808a02820302808a02820302808a02909103029181900381900460010186841190950394909402919094039290920491909117919091029150509392505050565b5f80612ab783612d18565b5f612ac28489613592565b90505f80612ad18b8489612d5d565b805182519294509092509003612b0d57805115612af757612af4818b8b8b612c91565b90505b8060200151816040015194509450505050612b2e565b5f612b19838386612eff565b90508060200151816040015195509550505050505b965096945050505050565b5f80608083901c15612b4d57608092831c92015b604083901c15612b5f57604092831c92015b602083901c15612b7157602092831c92015b601083901c15612b8357601092831c92015b600883901c15612b9557600892831c92015b600483901c15612ba757600492831c92015b600283901c15612bb957600292831c92015b600183901c1561067f5760010192915050565b5f818310612bda57816106f6565b5090919050565b5f612bed8484846129ed565b90505f8280612bfe57612bfe61365d565b84860911156106f6578061219c81613697565b5f612c256001600160a01b03841683612fb3565b905080515f14158015612c49575080806020019051810190612c4791906136af565b155b15611c9657604051635274afe760e01b81526001600160a01b0384166004820152602401610754565b5f6a636f6e736f6c652e6c6f6790505f80835160208501845afa505050565b612cb260405180606001604052805f81526020015f81526020015f81525090565b84515f90612cc09086613592565b905060405180606001604052808681526020018286612cdf91906135c0565b8860200151612cee91906134f5565b8152602001612cfd83866135c0565b8860400151612d0c91906134f5565b90529695505050505050565b611c8681604051602401612d2e91815260200190565b60408051601f198184030181529190526020810180516001600160e01b031663f82c50f160e01b1790526128d5565b612d7e60405180606001604052805f81526020015f81526020015f81525090565b612d9f60405180606001604052805f81526020015f81526020015f81525090565b600285511015612dad575f80fd5b5f855f81518110612dc057612dc0613649565b602002602001015190505f86600186612dd99190613592565b81518110612de957612de9613649565b60200260200101519050805f01518610612e09579250829150612ef79050565b81518610612ead575f80612e1e600188613592565b90505f5b612e2c8383612fc0565b9050898181518110612e4057612e40613649565b6020026020010151965088875f01511115612e6757612e60600182613592565b9150612e22565b89612e738260016134f5565b81518110612e8357612e83613649565b6020026020010151955088865f015111612ea957612ea28160016134f5565b9250612e22565b5050505b612ef46040518060400160405280601c81526020017f6265666f72652025732074617267657420257320616674657220257300000000815250855f015188865f0151612fda565b50505b935093915050565b612f2060405180606001604052805f81526020015f81526020015f81525090565b83518210801590612f315750825182105b612f39575f80fd5b83515f90612f479084613592565b855185519192505f91612f5a9190613592565b90506040518060600160405280858152602001612f8684848a602001518a602001516122299190613592565b8860200151612f9591906134f5565b8152602001612cfd84848a604001518a604001516122299190613592565b60606106f683835f613023565b5f612fce6002848418613671565b6106f6908484166134f5565b611d2384848484604051602401612ff494939291906136ca565b60408051601f198184030181529190526020810180516001600160e01b031663a7a8785360e01b1790526128d5565b6060814710156130485760405163cd78605960e01b8152306004820152602401610754565b5f80856001600160a01b0316848660405161306391906136f8565b5f6040518083038185875af1925050503d805f811461309d576040519150601f19603f3d011682016040523d82523d5f602084013e6130a2565b606091505b50915091506130b28683836130bc565b9695505050505050565b6060826130d1576130cc82613118565b6106f6565b81511580156130e857506001600160a01b0384163b155b1561311157604051639996b31560e01b81526001600160a01b0385166004820152602401610754565b50806106f6565b8051156131285780518082602001fd5b604051630a12f52160e11b815260040160405180910390fd5b5f5b8381101561315b578181015183820152602001613143565b50505f910152565b5f815180845261317a816020860160208601613141565b601f01601f19169290920160200192915050565b602081525f6106f66020830184613163565b6001600160a01b0381168114611c86575f80fd5b5f80604083850312156131c5575f80fd5b82356131d0816131a0565b946020939093013593505050565b5f805f606084860312156131f0575f80fd5b83356131fb816131a0565b9250602084013561320b816131a0565b929592945050506040919091013590565b5f6020828403121561322c575f80fd5b5035919050565b5f60208284031215613243575f80fd5b813567ffffffffffffffff811115613259575f80fd5b820160a081850312156106f6575f80fd5b5f805f805f6080868803121561327e575f80fd5b8535613289816131a0565b94506020860135935060408601359250606086013567ffffffffffffffff808211156132b3575f80fd5b818801915088601f8301126132c6575f80fd5b8135818111156132d4575f80fd5b8960208285010111156132e5575f80fd5b9699959850939650602001949392505050565b5f60208284031215613308575f80fd5b81356106f6816131a0565b5f805f60608486031215613325575f80fd5b8335613330816131a0565b95602085013595506040909401359392505050565b5f8060408385031215613356575f80fd5b8235613361816131a0565b91506020830135613371816131a0565b809150509250929050565b5f806020838503121561338d575f80fd5b823567ffffffffffffffff808211156133a4575f80fd5b818501915085601f8301126133b7575f80fd5b8135818111156133c5575f80fd5b8660208260051b85010111156133d9575f80fd5b60209290920196919550909350505050565b5f815180845260208085019450602084015f5b8381101561341a578151875295820195908201906001016133fe565b509495945050505050565b604081525f61343760408301856133eb565b828103602084015261219c81856133eb565b600181811c9082168061345d57607f821691505b60208210810361347b57634e487b7160e01b5f52602260045260245ffd5b50919050565b6020808252600490820152634c6f636b60e01b604082015260600190565b8015158114611c86575f80fd5b5f602082840312156134bc575f80fd5b81356106f68161349f565b634e487b7160e01b5f52601160045260245ffd5b5f600160ff1b82016134ef576134ef6134c7565b505f0390565b8082018082111561067f5761067f6134c7565b5f808335601e1984360301811261351d575f80fd5b83018035915067ffffffffffffffff821115613537575f80fd5b602001915036819003821315611c45575f80fd5b81835281816020850137505f828201602090810191909152601f909101601f19169091010190565b848152836020820152606060408201525f6130b260608301848661354b565b8181038181111561067f5761067f6134c7565b5f602082840312156135b5575f80fd5b81516106f6816131a0565b808202811582820484141761067f5761067f6134c7565b62ffffff8281168282160390808211156135f3576135f36134c7565b5092915050565b5f6020828403121561360a575f80fd5b5051919050565b606081525f6136236060830186613163565b60208301949094525060400152919050565b634e487b7160e01b5f52604160045260245ffd5b634e487b7160e01b5f52603260045260245ffd5b634e487b7160e01b5f52601260045260245ffd5b5f8261367f5761367f61365d565b500490565b5f826136925761369261365d565b500690565b5f600182016136a8576136a86134c7565b5060010190565b5f602082840312156136bf575f80fd5b81516106f68161349f565b608081525f6136dc6080830187613163565b6020830195909552506040810192909252606090910152919050565b5f8251613709818460208701613141565b919091019291505056fea2646970667358221220c4390211fa2505181e4b32cabb45f6b9880d0900310869dd911108b34ae1c8ec64736f6c63430008170033",
    "sourcePath": "c:/Users/tucuo/OneDrive/Desktop/CiSwap.Contracts/contracts/core/Pool.sol",
    "compiler": {
        "name": "solc",
        "version": "0.8.23+commit.f704f362"
    },
    "functionHashes": {
        "FEE_PROTOCOL_RATE()": "d24c503d",
        "allowance(address,address)": "dd62ed3e",
        "approve(address,uint256)": "095ea7b3",
        "balanceOf(address)": "70a08231",
        "burn(address,uint256)": "9dc29fac",
        "collectProtocol(address,uint256,uint256)": "a5820157",
        "config()": "79502c55",
        "constant0()": "e6232320",
        "constant1()": "74d96989",
        "decimals()": "313ce567",
        "factory()": "c45a0155",
        "fee()": "ddca3f43",
        "flash(address,uint256,uint256,bytes)": "490e6cbc",
        "initialize()": "8129fc1c",
        "liquidity()": "1a686502",
        "mint(address)": "6a627842",
        "name()": "06fdde03",
        "observations(uint256)": "252c09d7",
        "observe(uint256[])": "dea96b71",
        "owner()": "8da5cb5b",
        "price0X96()": "c806a79e",
        "price1X96()": "4fa1323d",
        "renounceOwnership()": "715018a6",
        "slot0()": "3850c7bd",
        "swap((int256,uint256,bool,address,bytes))": "25a12ac1",
        "symbol()": "95d89b41",
        "token0()": "0dfe1681",
        "token1()": "d21220a7",
        "totalSupply()": "18160ddd",
        "transfer(address,uint256)": "a9059cbb",
        "transferFrom(address,address,uint256)": "23b872dd",
        "transferOwnership(address)": "f2fde38b"
    },
    "gasEstimates": {
        "creation": {
            "codeDepositCost": "2830600",
            "executionCost": "infinite",
            "totalCost": "infinite"
        },
        "external": {
            "FEE_PROTOCOL_RATE()": "292",
            "allowance(address,address)": "infinite",
            "approve(address,uint256)": "24775",
            "balanceOf(address)": "2595",
            "burn(address,uint256)": "infinite",
            "collectProtocol(address,uint256,uint256)": "infinite",
            "config()": "13020",
            "constant0()": "infinite",
            "constant1()": "infinite",
            "decimals()": "222",
            "factory()": "infinite",
            "fee()": "infinite",
            "flash(address,uint256,uint256,bytes)": "infinite",
            "initialize()": "infinite",
            "liquidity()": "infinite",
            "mint(address)": "infinite",
            "name()": "infinite",
            "observations(uint256)": "8945",
            "observe(uint256[])": "infinite",
            "owner()": "2419",
            "price0X96()": "infinite",
            "price1X96()": "infinite",
            "renounceOwnership()": "infinite",
            "slot0()": "13003",
            "swap((int256,uint256,bool,address,bytes))": "infinite",
            "symbol()": "infinite",
            "token0()": "infinite",
            "token1()": "infinite",
            "totalSupply()": "2393",
            "transfer(address,uint256)": "51290",
            "transferFrom(address,address,uint256)": "infinite",
            "transferOwnership(address)": "infinite"
        },
        "internal": {
            "_balance0()": "infinite",
            "_balance1()": "infinite",
            "_computeFeeProtocol(uint256)": "infinite",
            "_update(uint256,uint256)": "infinite"
        }
    }
}