{
    "contractName": "Pool",
    "abi": [
        {
            "inputs": [],
            "stateMutability": "nonpayable",
            "type": "constructor"
        },
        {
            "inputs": [
                {
                    "internalType": "address",
                    "name": "target",
                    "type": "address"
                }
            ],
            "name": "AddressEmptyCode",
            "type": "error"
        },
        {
            "inputs": [
                {
                    "internalType": "address",
                    "name": "account",
                    "type": "address"
                }
            ],
            "name": "AddressInsufficientBalance",
            "type": "error"
        },
        {
            "inputs": [
                {
                    "internalType": "address",
                    "name": "spender",
                    "type": "address"
                },
                {
                    "internalType": "uint256",
                    "name": "allowance",
                    "type": "uint256"
                },
                {
                    "internalType": "uint256",
                    "name": "needed",
                    "type": "uint256"
                }
            ],
            "name": "ERC20InsufficientAllowance",
            "type": "error"
        },
        {
            "inputs": [
                {
                    "internalType": "address",
                    "name": "sender",
                    "type": "address"
                },
                {
                    "internalType": "uint256",
                    "name": "balance",
                    "type": "uint256"
                },
                {
                    "internalType": "uint256",
                    "name": "needed",
                    "type": "uint256"
                }
            ],
            "name": "ERC20InsufficientBalance",
            "type": "error"
        },
        {
            "inputs": [
                {
                    "internalType": "address",
                    "name": "approver",
                    "type": "address"
                }
            ],
            "name": "ERC20InvalidApprover",
            "type": "error"
        },
        {
            "inputs": [
                {
                    "internalType": "address",
                    "name": "receiver",
                    "type": "address"
                }
            ],
            "name": "ERC20InvalidReceiver",
            "type": "error"
        },
        {
            "inputs": [
                {
                    "internalType": "address",
                    "name": "sender",
                    "type": "address"
                }
            ],
            "name": "ERC20InvalidSender",
            "type": "error"
        },
        {
            "inputs": [
                {
                    "internalType": "address",
                    "name": "spender",
                    "type": "address"
                }
            ],
            "name": "ERC20InvalidSpender",
            "type": "error"
        },
        {
            "inputs": [],
            "name": "FailedInnerCall",
            "type": "error"
        },
        {
            "inputs": [],
            "name": "MathOverflowedMulDiv",
            "type": "error"
        },
        {
            "inputs": [
                {
                    "internalType": "address",
                    "name": "owner",
                    "type": "address"
                }
            ],
            "name": "OwnableInvalidOwner",
            "type": "error"
        },
        {
            "inputs": [
                {
                    "internalType": "address",
                    "name": "account",
                    "type": "address"
                }
            ],
            "name": "OwnableUnauthorizedAccount",
            "type": "error"
        },
        {
            "inputs": [
                {
                    "internalType": "int256",
                    "name": "value",
                    "type": "int256"
                }
            ],
            "name": "SafeCastOverflowedIntToUint",
            "type": "error"
        },
        {
            "inputs": [
                {
                    "internalType": "uint256",
                    "name": "value",
                    "type": "uint256"
                }
            ],
            "name": "SafeCastOverflowedUintToInt",
            "type": "error"
        },
        {
            "inputs": [
                {
                    "internalType": "address",
                    "name": "token",
                    "type": "address"
                }
            ],
            "name": "SafeERC20FailedOperation",
            "type": "error"
        },
        {
            "anonymous": false,
            "inputs": [
                {
                    "indexed": true,
                    "internalType": "address",
                    "name": "owner",
                    "type": "address"
                },
                {
                    "indexed": true,
                    "internalType": "address",
                    "name": "spender",
                    "type": "address"
                },
                {
                    "indexed": false,
                    "internalType": "uint256",
                    "name": "value",
                    "type": "uint256"
                }
            ],
            "name": "Approval",
            "type": "event"
        },
        {
            "anonymous": false,
            "inputs": [
                {
                    "indexed": true,
                    "internalType": "address",
                    "name": "sender",
                    "type": "address"
                },
                {
                    "indexed": false,
                    "internalType": "uint256",
                    "name": "amount",
                    "type": "uint256"
                },
                {
                    "indexed": false,
                    "internalType": "uint256",
                    "name": "amount0",
                    "type": "uint256"
                },
                {
                    "indexed": false,
                    "internalType": "uint256",
                    "name": "amount1",
                    "type": "uint256"
                },
                {
                    "indexed": true,
                    "internalType": "address",
                    "name": "recipient",
                    "type": "address"
                }
            ],
            "name": "Burn",
            "type": "event"
        },
        {
            "anonymous": false,
            "inputs": [
                {
                    "indexed": true,
                    "internalType": "address",
                    "name": "sender",
                    "type": "address"
                },
                {
                    "indexed": false,
                    "internalType": "uint256",
                    "name": "amount0",
                    "type": "uint256"
                },
                {
                    "indexed": false,
                    "internalType": "uint256",
                    "name": "amount1",
                    "type": "uint256"
                },
                {
                    "indexed": false,
                    "internalType": "uint256",
                    "name": "amountFeeTo0",
                    "type": "uint256"
                },
                {
                    "indexed": false,
                    "internalType": "uint256",
                    "name": "amountFeeTo1",
                    "type": "uint256"
                },
                {
                    "indexed": true,
                    "internalType": "address",
                    "name": "recipient",
                    "type": "address"
                }
            ],
            "name": "CollectProtocol",
            "type": "event"
        },
        {
            "anonymous": false,
            "inputs": [
                {
                    "indexed": true,
                    "internalType": "address",
                    "name": "sender",
                    "type": "address"
                },
                {
                    "indexed": false,
                    "internalType": "uint256",
                    "name": "amount0",
                    "type": "uint256"
                },
                {
                    "indexed": false,
                    "internalType": "uint256",
                    "name": "amount1",
                    "type": "uint256"
                },
                {
                    "indexed": false,
                    "internalType": "uint256",
                    "name": "paid0",
                    "type": "uint256"
                },
                {
                    "indexed": false,
                    "internalType": "uint256",
                    "name": "paid1",
                    "type": "uint256"
                },
                {
                    "indexed": true,
                    "internalType": "address",
                    "name": "recipient",
                    "type": "address"
                }
            ],
            "name": "Flash",
            "type": "event"
        },
        {
            "anonymous": false,
            "inputs": [],
            "name": "Initialized",
            "type": "event"
        },
        {
            "anonymous": false,
            "inputs": [
                {
                    "indexed": true,
                    "internalType": "address",
                    "name": "sender",
                    "type": "address"
                },
                {
                    "indexed": false,
                    "internalType": "uint256",
                    "name": "amount",
                    "type": "uint256"
                },
                {
                    "indexed": false,
                    "internalType": "uint256",
                    "name": "amount0",
                    "type": "uint256"
                },
                {
                    "indexed": false,
                    "internalType": "uint256",
                    "name": "amount1",
                    "type": "uint256"
                },
                {
                    "indexed": true,
                    "internalType": "address",
                    "name": "recipient",
                    "type": "address"
                }
            ],
            "name": "Mint",
            "type": "event"
        },
        {
            "anonymous": false,
            "inputs": [
                {
                    "indexed": true,
                    "internalType": "address",
                    "name": "previousOwner",
                    "type": "address"
                },
                {
                    "indexed": true,
                    "internalType": "address",
                    "name": "newOwner",
                    "type": "address"
                }
            ],
            "name": "OwnershipTransferred",
            "type": "event"
        },
        {
            "anonymous": false,
            "inputs": [
                {
                    "indexed": true,
                    "internalType": "address",
                    "name": "sender",
                    "type": "address"
                },
                {
                    "indexed": false,
                    "internalType": "int256",
                    "name": "amount0",
                    "type": "int256"
                },
                {
                    "indexed": false,
                    "internalType": "int256",
                    "name": "amount1",
                    "type": "int256"
                },
                {
                    "indexed": true,
                    "internalType": "address",
                    "name": "recipient",
                    "type": "address"
                }
            ],
            "name": "Swap",
            "type": "event"
        },
        {
            "anonymous": false,
            "inputs": [
                {
                    "indexed": false,
                    "internalType": "uint256",
                    "name": "reserve0",
                    "type": "uint256"
                },
                {
                    "indexed": false,
                    "internalType": "uint256",
                    "name": "reserve1",
                    "type": "uint256"
                }
            ],
            "name": "Sync",
            "type": "event"
        },
        {
            "anonymous": false,
            "inputs": [
                {
                    "indexed": true,
                    "internalType": "address",
                    "name": "from",
                    "type": "address"
                },
                {
                    "indexed": true,
                    "internalType": "address",
                    "name": "to",
                    "type": "address"
                },
                {
                    "indexed": false,
                    "internalType": "uint256",
                    "name": "value",
                    "type": "uint256"
                }
            ],
            "name": "Transfer",
            "type": "event"
        },
        {
            "inputs": [],
            "name": "FEE_PROTOCOL_RATE",
            "outputs": [
                {
                    "internalType": "uint24",
                    "name": "",
                    "type": "uint24"
                }
            ],
            "stateMutability": "view",
            "type": "function"
        },
        {
            "inputs": [
                {
                    "internalType": "address",
                    "name": "owner",
                    "type": "address"
                },
                {
                    "internalType": "address",
                    "name": "spender",
                    "type": "address"
                }
            ],
            "name": "allowance",
            "outputs": [
                {
                    "internalType": "uint256",
                    "name": "",
                    "type": "uint256"
                }
            ],
            "stateMutability": "view",
            "type": "function"
        },
        {
            "inputs": [
                {
                    "internalType": "address",
                    "name": "spender",
                    "type": "address"
                },
                {
                    "internalType": "uint256",
                    "name": "value",
                    "type": "uint256"
                }
            ],
            "name": "approve",
            "outputs": [
                {
                    "internalType": "bool",
                    "name": "",
                    "type": "bool"
                }
            ],
            "stateMutability": "nonpayable",
            "type": "function"
        },
        {
            "inputs": [
                {
                    "internalType": "address",
                    "name": "account",
                    "type": "address"
                }
            ],
            "name": "balanceOf",
            "outputs": [
                {
                    "internalType": "uint256",
                    "name": "",
                    "type": "uint256"
                }
            ],
            "stateMutability": "view",
            "type": "function"
        },
        {
            "inputs": [
                {
                    "internalType": "address",
                    "name": "recipient",
                    "type": "address"
                },
                {
                    "internalType": "uint256",
                    "name": "amount",
                    "type": "uint256"
                }
            ],
            "name": "burn",
            "outputs": [
                {
                    "internalType": "uint256",
                    "name": "amount0",
                    "type": "uint256"
                },
                {
                    "internalType": "uint256",
                    "name": "amount1",
                    "type": "uint256"
                }
            ],
            "stateMutability": "nonpayable",
            "type": "function"
        },
        {
            "inputs": [
                {
                    "internalType": "address",
                    "name": "recipient",
                    "type": "address"
                },
                {
                    "internalType": "uint256",
                    "name": "amount0Requested",
                    "type": "uint256"
                },
                {
                    "internalType": "uint256",
                    "name": "amount1Requested",
                    "type": "uint256"
                }
            ],
            "name": "collectProtocol",
            "outputs": [
                {
                    "internalType": "uint256",
                    "name": "amount0",
                    "type": "uint256"
                },
                {
                    "internalType": "uint256",
                    "name": "amount1",
                    "type": "uint256"
                },
                {
                    "internalType": "uint256",
                    "name": "amountFeeTo0",
                    "type": "uint256"
                },
                {
                    "internalType": "uint256",
                    "name": "amountFeeTo1",
                    "type": "uint256"
                }
            ],
            "stateMutability": "nonpayable",
            "type": "function"
        },
        {
            "inputs": [],
            "name": "config",
            "outputs": [
                {
                    "internalType": "address",
                    "name": "tokenA",
                    "type": "address"
                },
                {
                    "internalType": "address",
                    "name": "tokenB",
                    "type": "address"
                },
                {
                    "internalType": "uint256",
                    "name": "amountA",
                    "type": "uint256"
                },
                {
                    "internalType": "uint256",
                    "name": "amountB",
                    "type": "uint256"
                },
                {
                    "internalType": "uint256",
                    "name": "basePriceAX96",
                    "type": "uint256"
                },
                {
                    "internalType": "uint256",
                    "name": "maxPriceAX96",
                    "type": "uint256"
                }
            ],
            "stateMutability": "view",
            "type": "function"
        },
        {
            "inputs": [],
            "name": "constant0",
            "outputs": [
                {
                    "internalType": "uint256",
                    "name": "",
                    "type": "uint256"
                }
            ],
            "stateMutability": "view",
            "type": "function"
        },
        {
            "inputs": [],
            "name": "constant1",
            "outputs": [
                {
                    "internalType": "uint256",
                    "name": "",
                    "type": "uint256"
                }
            ],
            "stateMutability": "view",
            "type": "function"
        },
        {
            "inputs": [],
            "name": "decimals",
            "outputs": [
                {
                    "internalType": "uint8",
                    "name": "",
                    "type": "uint8"
                }
            ],
            "stateMutability": "view",
            "type": "function"
        },
        {
            "inputs": [],
            "name": "factory",
            "outputs": [
                {
                    "internalType": "address",
                    "name": "",
                    "type": "address"
                }
            ],
            "stateMutability": "view",
            "type": "function"
        },
        {
            "inputs": [],
            "name": "fee",
            "outputs": [
                {
                    "internalType": "uint24",
                    "name": "",
                    "type": "uint24"
                }
            ],
            "stateMutability": "view",
            "type": "function"
        },
        {
            "inputs": [
                {
                    "internalType": "address",
                    "name": "recipient",
                    "type": "address"
                },
                {
                    "internalType": "uint256",
                    "name": "amount0",
                    "type": "uint256"
                },
                {
                    "internalType": "uint256",
                    "name": "amount1",
                    "type": "uint256"
                },
                {
                    "internalType": "bytes",
                    "name": "callback",
                    "type": "bytes"
                }
            ],
            "name": "flash",
            "outputs": [
                {
                    "internalType": "uint256",
                    "name": "paid0",
                    "type": "uint256"
                },
                {
                    "internalType": "uint256",
                    "name": "paid1",
                    "type": "uint256"
                }
            ],
            "stateMutability": "nonpayable",
            "type": "function"
        },
        {
            "inputs": [],
            "name": "initialize",
            "outputs": [],
            "stateMutability": "nonpayable",
            "type": "function"
        },
        {
            "inputs": [],
            "name": "liquidity",
            "outputs": [
                {
                    "internalType": "uint256",
                    "name": "",
                    "type": "uint256"
                }
            ],
            "stateMutability": "view",
            "type": "function"
        },
        {
            "inputs": [
                {
                    "internalType": "address",
                    "name": "recipient",
                    "type": "address"
                }
            ],
            "name": "mint",
            "outputs": [
                {
                    "internalType": "uint256",
                    "name": "amount",
                    "type": "uint256"
                }
            ],
            "stateMutability": "nonpayable",
            "type": "function"
        },
        {
            "inputs": [],
            "name": "name",
            "outputs": [
                {
                    "internalType": "string",
                    "name": "",
                    "type": "string"
                }
            ],
            "stateMutability": "view",
            "type": "function"
        },
        {
            "inputs": [
                {
                    "internalType": "uint256",
                    "name": "",
                    "type": "uint256"
                }
            ],
            "name": "observations",
            "outputs": [
                {
                    "internalType": "uint256",
                    "name": "blockTimestamp",
                    "type": "uint256"
                },
                {
                    "internalType": "uint256",
                    "name": "reserve0Cumulative",
                    "type": "uint256"
                },
                {
                    "internalType": "uint256",
                    "name": "reserve1Cumulative",
                    "type": "uint256"
                }
            ],
            "stateMutability": "view",
            "type": "function"
        },
        {
            "inputs": [
                {
                    "internalType": "uint256[]",
                    "name": "secondAgos",
                    "type": "uint256[]"
                }
            ],
            "name": "observe",
            "outputs": [
                {
                    "internalType": "uint256[]",
                    "name": "reserve0Cumulatives",
                    "type": "uint256[]"
                },
                {
                    "internalType": "uint256[]",
                    "name": "reserve1Cumulatives",
                    "type": "uint256[]"
                }
            ],
            "stateMutability": "view",
            "type": "function"
        },
        {
            "inputs": [],
            "name": "owner",
            "outputs": [
                {
                    "internalType": "address",
                    "name": "",
                    "type": "address"
                }
            ],
            "stateMutability": "view",
            "type": "function"
        },
        {
            "inputs": [],
            "name": "price0X96",
            "outputs": [
                {
                    "internalType": "uint256",
                    "name": "",
                    "type": "uint256"
                }
            ],
            "stateMutability": "view",
            "type": "function"
        },
        {
            "inputs": [],
            "name": "price1X96",
            "outputs": [
                {
                    "internalType": "uint256",
                    "name": "",
                    "type": "uint256"
                }
            ],
            "stateMutability": "view",
            "type": "function"
        },
        {
            "inputs": [],
            "name": "renounceOwnership",
            "outputs": [],
            "stateMutability": "nonpayable",
            "type": "function"
        },
        {
            "inputs": [],
            "name": "slot0",
            "outputs": [
                {
                    "internalType": "uint256",
                    "name": "reserve0",
                    "type": "uint256"
                },
                {
                    "internalType": "uint256",
                    "name": "reserve1",
                    "type": "uint256"
                },
                {
                    "internalType": "uint256",
                    "name": "observationCardinality",
                    "type": "uint256"
                },
                {
                    "internalType": "bool",
                    "name": "unlocked",
                    "type": "bool"
                },
                {
                    "internalType": "uint256",
                    "name": "feeProtocol0",
                    "type": "uint256"
                },
                {
                    "internalType": "uint256",
                    "name": "feeProtocol1",
                    "type": "uint256"
                }
            ],
            "stateMutability": "view",
            "type": "function"
        },
        {
            "inputs": [
                {
                    "components": [
                        {
                            "internalType": "int256",
                            "name": "amountSpecified",
                            "type": "int256"
                        },
                        {
                            "internalType": "uint256",
                            "name": "limitAmountCalculated",
                            "type": "uint256"
                        },
                        {
                            "internalType": "bool",
                            "name": "zeroForOne",
                            "type": "bool"
                        },
                        {
                            "internalType": "address",
                            "name": "recipient",
                            "type": "address"
                        },
                        {
                            "internalType": "bytes",
                            "name": "callback",
                            "type": "bytes"
                        }
                    ],
                    "internalType": "struct IPoolActions.SwapParams",
                    "name": "params",
                    "type": "tuple"
                }
            ],
            "name": "swap",
            "outputs": [
                {
                    "internalType": "int256",
                    "name": "amount0",
                    "type": "int256"
                },
                {
                    "internalType": "int256",
                    "name": "amount1",
                    "type": "int256"
                }
            ],
            "stateMutability": "nonpayable",
            "type": "function"
        },
        {
            "inputs": [],
            "name": "symbol",
            "outputs": [
                {
                    "internalType": "string",
                    "name": "",
                    "type": "string"
                }
            ],
            "stateMutability": "view",
            "type": "function"
        },
        {
            "inputs": [],
            "name": "token0",
            "outputs": [
                {
                    "internalType": "address",
                    "name": "",
                    "type": "address"
                }
            ],
            "stateMutability": "view",
            "type": "function"
        },
        {
            "inputs": [],
            "name": "token1",
            "outputs": [
                {
                    "internalType": "address",
                    "name": "",
                    "type": "address"
                }
            ],
            "stateMutability": "view",
            "type": "function"
        },
        {
            "inputs": [],
            "name": "totalSupply",
            "outputs": [
                {
                    "internalType": "uint256",
                    "name": "",
                    "type": "uint256"
                }
            ],
            "stateMutability": "view",
            "type": "function"
        },
        {
            "inputs": [
                {
                    "internalType": "address",
                    "name": "to",
                    "type": "address"
                },
                {
                    "internalType": "uint256",
                    "name": "value",
                    "type": "uint256"
                }
            ],
            "name": "transfer",
            "outputs": [
                {
                    "internalType": "bool",
                    "name": "",
                    "type": "bool"
                }
            ],
            "stateMutability": "nonpayable",
            "type": "function"
        },
        {
            "inputs": [
                {
                    "internalType": "address",
                    "name": "from",
                    "type": "address"
                },
                {
                    "internalType": "address",
                    "name": "to",
                    "type": "address"
                },
                {
                    "internalType": "uint256",
                    "name": "value",
                    "type": "uint256"
                }
            ],
            "name": "transferFrom",
            "outputs": [
                {
                    "internalType": "bool",
                    "name": "",
                    "type": "bool"
                }
            ],
            "stateMutability": "nonpayable",
            "type": "function"
        },
        {
            "inputs": [
                {
                    "internalType": "address",
                    "name": "newOwner",
                    "type": "address"
                }
            ],
            "name": "transferOwnership",
            "outputs": [],
            "stateMutability": "nonpayable",
            "type": "function"
        }
    ],
    "bytecode": "61016060405234801562000011575f80fd5b506040518060400160405280601881526020017f4c69717569646974792050726f766964657220546f6b656e0000000000000000815250604051806040016040528060088152602001672628102a37b5b2b760c11b815250620000796200020b60201b60201c565b6001600160a01b038116620000a757604051631e4fbdf760e01b81525f600482015260240160405180910390fd5b620000b2816200020f565b506004620000c18382620006df565b506005620000d08282620006df565b50503060805250336001600160a01b031663f3778fd86040518163ffffffff1660e01b815260040161010060405180830381865afa15801562000115573d5f803e3d5ffd5b505050506040513d601f19601f820116820180604052508101906200013b9190620007c7565b8051600680546001600160a01b039283166001600160a01b03199182168117909255602084015160078054918516919092168117909155604084015160085560608401516009556080840151600a5560a093840151600b5562ffffff90941660c052931690525f91620001ae916200025e565b6001600160a01b0391821661010052911660e052600a54600b546008546009549394505f938493620001e4939092909162000297565b9150915082620001f6578082620001f9565b81815b6101405261012052506200090c915050565b3390565b5f80546001600160a01b038381166001600160a01b0319831681178455604051919092169283917f8be0079c531659141344cd1fd0a4f28419497f9722a3daafe3b4186f6b6457e09190a35050565b5f805f836001600160a01b0316856001600160a01b031610620002845783855f62000289565b848460015b919790965090945092505050565b5f80620002a6868686620002c1565b9150620002b6868386866200033c565b905094509492505050565b5f80620002dd856c0100000000000000000000000086620003a2565b90505f620002eb8262000467565b90505f620002fa8583620008a8565b905066010000000000005f8062000312838662000568565b915091508162000320575f80fd5b6200032c8185620008d6565b96505050505050505b9392505050565b5f6c0100000000000000000000000081806200037c886200035e8989620008f6565b6200036a9190620008a8565b620003768786620008a8565b62000568565b91509150816200038a575f80fd5b620003968382620008d6565b98975050505050505050565b5f838302815f1985870982811083820303915050805f03620003db57838281620003d057620003d0620008c2565b049250505062000335565b808411620003fc5760405163227bc15360e01b815260040160405180910390fd5b5f848688095f868103871696879004966002600389028118808a02820302808a02820302808a02820302808a02820302808a02820302808a02909103029181900381900460010186841190950394909402919094039290920491909117919091029150509392505050565b5f815f036200047757505f919050565b5f600162000485846200058e565b901c6001901b90506001818481620004a157620004a1620008c2565b048201901c90506001818481620004bc57620004bc620008c2565b048201901c90506001818481620004d757620004d7620008c2565b048201901c90506001818481620004f257620004f2620008c2565b048201901c905060018184816200050d576200050d620008c2565b048201901c90506001818481620005285762000528620008c2565b048201901c90506001818481620005435762000543620008c2565b048201901c90506200033581828581620005615762000561620008c2565b046200062a565b5f80838311156200057e57505f90508062000587565b50600190508183035b9250929050565b5f80608083901c15620005a357608092831c92015b604083901c15620005b657604092831c92015b602083901c15620005c957602092831c92015b601083901c15620005dc57601092831c92015b600883901c15620005ef57600892831c92015b600483901c156200060257600492831c92015b600283901c156200061557600292831c92015b600183901c1562000624576001015b92915050565b5f8183106200063a578162000335565b5090919050565b634e487b7160e01b5f52604160045260245ffd5b600181811c908216806200066a57607f821691505b6020821081036200068957634e487b7160e01b5f52602260045260245ffd5b50919050565b601f821115620006da57805f5260205f20601f840160051c81016020851015620006b65750805b601f840160051c820191505b81811015620006d7575f8155600101620006c2565b50505b505050565b81516001600160401b03811115620006fb57620006fb62000641565b62000713816200070c845462000655565b846200068f565b602080601f83116001811462000749575f8415620007315750858301515b5f19600386901b1c1916600185901b178555620007a3565b5f85815260208120601f198616915b82811015620007795788860151825594840194600190910190840162000758565b50858210156200079757878501515f19600388901b60f8161c191681555b505060018460011b0185555b505050505050565b80516001600160a01b0381168114620007c2575f80fd5b919050565b5f805f838503610100811215620007dc575f80fd5b620007e785620007ab565b9350602085015162ffffff81168114620007ff575f80fd5b925060c0603f198201121562000813575f80fd5b5060405160c081016001600160401b038111828210171562000839576200083962000641565b80604052506200084c60408601620007ab565b81526200085c60608601620007ab565b60208201526080850151604082015260a0850151606082015260c0850151608082015260e085015160a0820152809150509250925092565b634e487b7160e01b5f52601160045260245ffd5b808202811582820484141762000624576200062462000894565b634e487b7160e01b5f52601260045260245ffd5b5f82620008f157634e487b7160e01b5f52601260045260245ffd5b500490565b8082018082111562000624576200062462000894565b60805160a05160c05160e05161010051610120516101405161329462000a225f395f81816103b2015281816108fb015281816115420152611c8201525f81816105a7015281816108d5015281816114ff0152611c4901525f81816104e3015281816107f10152818161085901528181610dec0152818161149401528181611757015281816117bd0152611f9901525f8181610231015281816108120152818161083801528181610dc1015281816114690152818161171c015281816117920152611f1001525f818161055f015281816109a901528181610a8001528181610eeb0152818161104401528181611436015261189c01525f81816104b4015281816111e5015261166901525f611a6301526132945ff3fe608060405234801561000f575f80fd5b50600436106101e7575f3560e01c806379502c5511610109578063c806a79e1161009e578063ddca3f431161006e578063ddca3f431461055a578063dea96b7114610581578063e6232320146105a2578063f2fde38b146105c9575f80fd5b8063c806a79e146104d6578063d21220a7146104de578063d24c503d14610505578063dd62ed3e14610522575f80fd5b80639dc29fac116100d95780639dc29fac14610456578063a582015714610469578063a9059cbb1461049c578063c45a0155146104af575f80fd5b806379502c55146103d45780638129fc1c146104365780638da5cb5b1461043e57806395d89b411461044e575f80fd5b8063313ce5671161017f5780636a6278421161014f5780636a6278421461036857806370a082311461037b578063715018a6146103a357806374d96989146103ad575f80fd5b8063313ce567146102ee5780633850c7bd146102fd578063490e6cbc1461034d5780634fa1323d14610360575f80fd5b80631a686502116101ba5780631a6865021461027d57806323b872dd14610285578063252c09d71461029857806325a12ac1146102c6575f80fd5b806306fdde03146101eb578063095ea7b3146102095780630dfe16811461022c57806318160ddd1461026b575b5f80fd5b6101f36105dc565b6040516102009190612d29565b60405180910390f35b61021c610217366004612d6f565b61066c565b6040519015158152602001610200565b6102537f000000000000000000000000000000000000000000000000000000000000000081565b6040516001600160a01b039091168152602001610200565b6003545b604051908152602001610200565b61026f610685565b61021c610293366004612d99565b6106d8565b6102ab6102a6366004612dd7565b6106fd565b60408051938452602084019290925290820152606001610200565b6102d96102d4366004612dee565b61072e565b60408051928352602083019190915201610200565b60405160128152602001610200565b600d54600e54600f5460105460115460125461031e9594939260ff16919086565b6040805196875260208701959095529385019290925215156060840152608083015260a082015260c001610200565b6102d961035b366004612e25565b610d98565b61026f610ffa565b61026f610376366004612eb3565b611069565b61026f610389366004612eb3565b6001600160a01b03165f9081526001602052604090205490565b6103ab6111cf565b005b61026f7f000000000000000000000000000000000000000000000000000000000000000081565b600654600754600854600954600a54600b546103fe956001600160a01b0390811695169392919086565b604080516001600160a01b039788168152969095166020870152938501929092526060840152608083015260a082015260c001610200565b6103ab6111e2565b5f546001600160a01b0316610253565b6101f3611368565b6102d9610464366004612d6f565b611377565b61047c610477366004612ece565b6115f3565b604080519485526020850193909352918301526060820152608001610200565b61021c6104aa366004612d6f565b611845565b6102537f000000000000000000000000000000000000000000000000000000000000000081565b61026f611852565b6102537f000000000000000000000000000000000000000000000000000000000000000081565b61050e614e2081565b60405162ffffff9091168152602001610200565b61026f610530366004612f00565b6001600160a01b039182165f90815260026020908152604080832093909416825291909152205490565b61050e7f000000000000000000000000000000000000000000000000000000000000000081565b61059461058f366004612f37565b6118c2565b604051610200929190612fe0565b61026f7f000000000000000000000000000000000000000000000000000000000000000081565b6103ab6105d7366004612eb3565b611919565b6060600480546105eb90613004565b80601f016020809104026020016040519081016040528092919081815260200182805461061790613004565b80156106625780601f1061063957610100808354040283529160200191610662565b820191905f5260205f20905b81548152906001019060200180831161064557829003601f168201915b5050505050905090565b5f3361067981858561195b565b60019150505b92915050565b6040805160c081018252600d54808252600e5460208301819052600f549383019390935260105460ff1615156060830152601154608083015260125460a08301525f926106d2919061196d565b91505090565b5f336106e5858285611980565b6106f08585856119fb565b60019150505b9392505050565b600c818154811061070c575f80fd5b5f91825260209091206003909102018054600182015460029092015490925083565b6010545f90819060ff16610740575f80fd5b6010805460ff19169055610752611a58565b6040805160c08082018352600d548252600e54602080840191909152600f548385015260105460ff16151560608085019190915260115460808086019190915260125460a0808701919091528651610120810188525f8082529481018590529687018490529186018390528501829052840181905290830181905260e08301819052610100830152906107eb6060860160408701613049565b610836577f00000000000000000000000000000000000000000000000000000000000000007f0000000000000000000000000000000000000000000000000000000000000000610879565b7f00000000000000000000000000000000000000000000000000000000000000007f00000000000000000000000000000000000000000000000000000000000000005b6001600160a01b03908116602084015216815261089c6060860160408701613049565b6108ac57602082015182516108b4565b815160208301515b60a083015260808201525f6108cf6060870160408801613049565b6108f9577f000000000000000000000000000000000000000000000000000000000000000061091b565b7f00000000000000000000000000000000000000000000000000000000000000005b90505f86351380156109f6576109318735611a8c565b8360400181815250506109d56040518060a0016040528089604001602081019061095b9190613049565b61096957866020015161096c565b86515b815260200161098160608b0160408c01613049565b61098c578651610992565b86602001515b8152602001848152602001856040015181526020017f000000000000000000000000000000000000000000000000000000000000000062ffffff16815250611ab5565b61010085015260608401819052602088013511156109f1575f80fd5b610ac8565b610a08610a038835613078565b611a8c565b836060018181525050610aac6040518060a00160405280896040016020810190610a329190613049565b610a40578660200151610a43565b86515b8152602001610a5860608b0160408c01613049565b610a63578651610a69565b86602001515b8152602001848152602001856060015181526020017f000000000000000000000000000000000000000000000000000000000000000062ffffff16815250611b54565b6101008501526040840181905260208801351015610ac8575f80fd5b6020830151610aeb90610ae160808a0160608b01612eb3565b8560600151611bf9565b610afb6060880160408901613049565b610b2957610b0d836101000151611c0d565b601180545f90610b1e908490613092565b925050819055610b4f565b610b37836101000151611c0d565b601280545f90610b48908490613092565b9250508190555b50610b606060880160408901613049565b610b7657610b718360600151611c1a565b610b8c565b610b838360400151611c1a565b610b8c90613078565b9550610b9e6060880160408901613049565b610bbd57610baf8360400151611c1a565b610bb890613078565b610bca565b610bca8360600151611c1a565b94505f610bda60808901896130a5565b90501115610c445733638d4a84198787610bf760808c018c6130a5565b6040518563ffffffff1660e01b8152600401610c169493929190613110565b5f604051808303815f87803b158015610c2d575f80fd5b505af1158015610c3f573d5f803e3d5ffd5b505050505b5f610c556060890160408a01613049565b610c6457836101000151610c66565b5f5b8560800151610c73611c46565b610c7d919061312f565b610c87919061312f565b90505f610c9a60608a0160408b01613049565b610ca4575f610cab565b8461010001515b8660a00151610cb8611c7f565b610cc2919061312f565b610ccc919061312f565b90505f610cdf60608b0160408c01613049565b610ce95781610ceb565b825b905085604001518660800151610d019190613092565b811015610d0c575f80fd5b610d168383611ca9565b610d2660808b0160608c01612eb3565b6001600160a01b0316336001600160a01b03167f86104e7a79e16fb712c2a4133be3187400bdcaf8d7a74c66f7b75718a83f83718b8b604051610d73929190918252602082015260400190565b60405180910390a350506010805460ff19166001179055509496939550929350505050565b6010545f90819060ff16610daa575f80fd5b6010805460ff19169055610dbc611a58565b610de77f00000000000000000000000000000000000000000000000000000000000000008888611bf9565b610e127f00000000000000000000000000000000000000000000000000000000000000008887611bf9565b60405163e83517b560e01b8152339063e83517b590610e3b908990899089908990600401613110565b5f604051808303815f87803b158015610e52575f80fd5b505af1158015610e64573d5f803e3d5ffd5b50506040805160c081018252600d548152600e546020820152600f549181019190915260105460ff16151560608201526011546080820181905260125460a08301529092505f9150610eb4611c46565b610ebe919061312f565b90505f8260a00151610ece611c7f565b610ed8919061312f565b90505f610f0f845f0151856020015185857f0000000000000000000000000000000000000000000000000000000000000000611d43565b9097509550905080610f1f575f80fd5b5f610f2987611c0d565b90505f610f3587611c0d565b905081600d6004015f828254610f4b9190613092565b9091555050601280548291905f90610f64908490613092565b90915550610f869050610f77838761312f565b610f81838761312f565b611ca9565b604080518d8152602081018d90528082018a90526060810189905290516001600160a01b038f169133917f1d940843caa7af592ac83e5e979405c98c9cad66a2a99359615008d6c97d5bc39181900360800190a350506010805460ff19166001179055509399929850919650505050505050565b6040805160c081018252600d54808252600e5460208301819052600f549383019390935260105460ff1615156060830152601154608083015260125460a08301525f926106d291907f000000000000000000000000000000000000000000000000000000000000000085611da6565b6010545f9060ff16611079575f80fd5b6010805460ff1916905561108b611a58565b5f61109560035490565b6040805160c081018252600d548152600e546020820152600f549181019190915260105460ff16151560608201526011546080820181905260125460a0830152919250905f906110e3611c46565b6110ed919061312f565b90505f8260a001516110fd611c7f565b611107919061312f565b835190915082118061111c5750826020015181115b611124575f80fd5b61113884845f015185602001518585611dfe565b94506111448686611e46565b61114e8282611ca9565b82516001600160a01b0387169033907fa8137fff86647d8a402117b9c5dbda627f721d3773338fb9678c83e54ed3908090889061118b908761312f565b602088015161119a908761312f565b6040805193845260208401929092529082015260600160405180910390a350506010805460ff19166001179055509092915050565b6111d7611e7e565b6111e05f611eaa565b565b337f00000000000000000000000000000000000000000000000000000000000000006001600160a01b031614611216575f80fd5b5f61121f611c46565b90505f61122a611c7f565b60408051606080820183524282525f6020808401828152848601838152600c80546001808201835591865296517fdf6966c971051c3d54ec59162606531493a51404a002842f56009d7e5cf4a8c760039098029788015591517fdf6966c971051c3d54ec59162606531493a51404a002842f56009d7e5cf4a8c8870155517fdf6966c971051c3d54ec59162606531493a51404a002842f56009d7e5cf4a8c990950194909455845160c0810186528881529081018690529384018390529083018290526080830181905260a0909201829052600d859055600e839055600f8190556010805460ff1916821790556011829055601282905591925061132e848461196d565b905061133a3082611e46565b6040517f5daa87a0e9463431830481fd4b6e3403442dfb9a12b9c07597e9f61d50b633c8905f90a150505050565b6060600580546105eb90613004565b6010545f90819060ff16611389575f80fd5b6010805460ff1916905561139b611a58565b5f6113a560035490565b90505f84116113b2575f80fd5b6040805160c081018252600d548152600e546020820152600f549181019190915260105460ff16151560608201526011546080820181905260125460a08301525f906113fc611ef9565b611406919061312f565b90505f8260a00151611416611f82565b611420919061312f565b90505f8061145a8987875f0151886020015188887f0000000000000000000000000000000000000000000000000000000000000000611fd0565b929a509098509250905061148f7f00000000000000000000000000000000000000000000000000000000000000008b8a611bf9565b6114ba7f00000000000000000000000000000000000000000000000000000000000000008b89611bf9565b81600d6004015f8282546114ce9190613092565b9091555050601280548291905f906114e7908490613092565b909155506114f79050338a6120c9565b5f82896115247f000000000000000000000000000000000000000000000000000000000000000088613092565b61152e919061312f565b611538919061312f565b90505f82896115677f000000000000000000000000000000000000000000000000000000000000000088613092565b611571919061312f565b61157b919061312f565b90506115878282611ca9565b604080518c8152602081018c90528082018b905290516001600160a01b038e169133917fd175a80c109434bb89948928ab2475a6647c94244cb70002197896423c8833639181900360600190a350506010805460ff191660011790555095989497509395505050505050565b5f805f806115ff611e7e565b6040805160c081018252600d548152600e546020820152600f549181019190915260105460ff16151560608201526011546080820181905260125460a083015287919082111561165157806080015191505b60a08101518790811115611666575060a08101515b5f7f00000000000000000000000000000000000000000000000000000000000000006001600160a01b031663017e7e586040518163ffffffff1660e01b8152600401602060405180830381865afa1580156116c3573d5f803e3d5ffd5b505050506040513d601f19601f820116820180604052508101906116e79190613142565b90506116f284611c0d565b95506116fd82611c0d565b9450611709868561312f565b9750611715858361312f565b96506117527f000000000000000000000000000000000000000000000000000000000000000061174c5f546001600160a01b031690565b8a611bf9565b61178d7f00000000000000000000000000000000000000000000000000000000000000006117875f546001600160a01b031690565b89611bf9565b6117b87f00000000000000000000000000000000000000000000000000000000000000008288611bf9565b6117e37f00000000000000000000000000000000000000000000000000000000000000008288611bf9565b6040805189815260208101899052908101879052606081018690526001600160a01b038c169081907ffa65a20d0648910458fcef8ddd874cbd1e0323f608236e3b01d8d5d0ddf261eb9060800160405180910390a35050505093509350935093565b5f336106798185856119fb565b6040805160c081018252600d54808252600e5460208301819052600f549383019390935260105460ff1615156060830152601154608083015260125460a08301525f926106d291907f00000000000000000000000000000000000000000000000000000000000000006001611da6565b60608061190d42600d600201548686808060200260200160405190810160405280939291908181526020018383602002808284375f92019190915250600c9594939250506120fd9050565b915091505b9250929050565b611921611e7e565b6001600160a01b03811661194f57604051631e4fbdf760e01b81525f60048201526024015b60405180910390fd5b61195881611eaa565b50565b611968838383600161227f565b505050565b5f6106f661197b838561315d565b612351565b6001600160a01b038381165f908152600260209081526040808320938616835292905220545f1981146119f557818110156119e757604051637dc7a0d960e11b81526001600160a01b03841660048201526024810182905260448101839052606401611946565b6119f584848484035f61227f565b50505050565b6001600160a01b038316611a2457604051634b637e8f60e11b81525f6004820152602401611946565b6001600160a01b038216611a4d5760405163ec442f0560e01b81525f6004820152602401611946565b611968838383612435565b306001600160a01b037f000000000000000000000000000000000000000000000000000000000000000016146111e0575f80fd5b5f80821215611ab157604051635467221960e11b815260048101839052602401611946565b5090565b5f8082606001515f03611ac6575f80fd5b602083015183515f91611ad89161315d565b90505f8460600151855f0151611aee9190613092565b90505f611afb8284613188565b90508560400151811015611b0d575f80fd5b5f818760200151611b1e919061312f565b9050611b3d8760800151620186a0611b36919061319b565b829061255b565b9550611b49868261312f565b945050505050915091565b5f8082606001515f03611b65575f80fd5b5f611b878460800151620186a0611b7c919061319b565b60608601519061256f565b9050836060015181611b99919061312f565b91505f8460200151855f0151611baf919061315d565b90505f828660200151611bc2919061312f565b90508560400151811015611bd4575f80fd5b5f611bdf8383612583565b8751909150611bee908261312f565b955050505050915091565b6119686001600160a01b03841683836125b3565b5f61067f82614e2061255b565b5f6001600160ff1b03821115611ab15760405163123baf0360e11b815260048101839052602401611946565b5f7f0000000000000000000000000000000000000000000000000000000000000000611c70611ef9565b611c7a9190613092565b905090565b5f7f0000000000000000000000000000000000000000000000000000000000000000611c70611f82565b600d829055600e8190556040805160c08101825283815260208101839052600f5491810182905260105460ff1615156060820152601154608082015260125460a082015290611cfd90600c90428686612605565b600f55805160208083015160408051938452918301527fcf2aa50876cdfbb541206f89af0ee78d44a2abf8d328e37fa4917f982149848a910160405180910390a1505050565b5f805f80611d51898961196d565b90505f611d5e888861196d565b90505f611d78611d7188620186a061319b565b839061255b565b8381101596509050611d8a8b8a61312f565b9450611d968a8961312f565b9350505050955095509592505050565b5f81611dd657611dd1611dbc84620186a061319b565b611dcb87600160601b88612720565b9061255b565b611df5565b611df5611de684620186a061319b565b611dcb86600160601b89612720565b95945050505050565b5f80611e0a868661196d565b90505f611e17858561196d565b9050818111611e24575f80fd5b611e3a8883611e33818561312f565b9190612720565b98975050505050505050565b6001600160a01b038216611e6f5760405163ec442f0560e01b81525f6004820152602401611946565b611e7a5f8383612435565b5050565b5f546001600160a01b031633146111e05760405163118cdaa760e01b8152336004820152602401611946565b5f80546001600160a01b038381166001600160a01b0319831681178455604051919092169283917f8be0079c531659141344cd1fd0a4f28419497f9722a3daafe3b4186f6b6457e09190a35050565b6040516370a0823160e01b81523060048201525f907f00000000000000000000000000000000000000000000000000000000000000006001600160a01b0316906370a08231906024015b602060405180830381865afa158015611f5e573d5f803e3d5ffd5b505050506040513d601f19601f82011682018060405250810190611c7a91906131be565b6040516370a0823160e01b81523060048201525f907f00000000000000000000000000000000000000000000000000000000000000006001600160a01b0316906370a0823190602401611f43565b5f80808080611fe08a8d8d612720565b90505f611fee8a8e8e612720565b90505f611ffb828c61312f565b612005848e61312f565b61200f919061315d565b905089831115612045578992505f612027848e61312f565b6120319083613188565b905061203d818d61312f565b925050612075565b88821115612075578891505f61205b838d61312f565b6120659083613188565b9050612071818e61312f565b9350505b61208c61208589620186a061319b565b849061255b565b965061209e611d7189620186a061319b565b95506120aa878461312f565b94506120b6868361312f565b9350505050975097509750979350505050565b6001600160a01b0382166120f257604051634b637e8f60e11b81525f6004820152602401611946565b611e7a825f83612435565b805160609081908067ffffffffffffffff81111561211d5761211d6131d5565b604051908082528060200260200182016040528015612146578160200160208202803683370190505b5092508067ffffffffffffffff811115612162576121626131d5565b60405190808252806020026020018201604052801561218b578160200160208202803683370190505b5091505f87805480602002602001604051908101604052809291908181526020015f905b828210156121fc578382905f5260205f2090600302016040518060600160405290815f820154815260200160018201548152602001600282015481525050815260200190600101906121af565b5050505090505f5b8281101561227357612231828989898581518110612224576122246131e9565b60200260200101516127df565b868381518110612243576122436131e9565b6020026020010186848151811061225c5761225c6131e9565b602090810291909101019190915252600101612204565b50505094509492505050565b6001600160a01b0384166122a85760405163e602df0560e01b81525f6004820152602401611946565b6001600160a01b0383166122d157604051634a1406b160e11b81525f6004820152602401611946565b6001600160a01b038085165f90815260026020908152604080832093871683529290522082905580156119f557826001600160a01b0316846001600160a01b03167f8c5be1e5ebec7d5bd14f71427d1e84f3dd0314c0f7b2291e5b200ac8c7c3b9258460405161234391815260200190565b60405180910390a350505050565b5f815f0361236057505f919050565b5f600161236c846128a7565b901c6001901b9050600181848161238557612385613174565b048201901c9050600181848161239d5761239d613174565b048201901c905060018184816123b5576123b5613174565b048201901c905060018184816123cd576123cd613174565b048201901c905060018184816123e5576123e5613174565b048201901c905060018184816123fd576123fd613174565b048201901c9050600181848161241557612415613174565b048201901c90506106f68182858161242f5761242f613174565b0461293a565b6001600160a01b03831661245f578060035f8282546124549190613092565b909155506124cf9050565b6001600160a01b0383165f90815260016020526040902054818110156124b15760405163391434e360e21b81526001600160a01b03851660048201526024810182905260448101839052606401611946565b6001600160a01b0384165f9081526001602052604090209082900390555b6001600160a01b0382166124eb57600380548290039055612509565b6001600160a01b0382165f9081526001602052604090208054820190555b816001600160a01b0316836001600160a01b03167fddf252ad1be2c89b69c2b068fc378daa952ba7f163c4a11628f55a4df523b3ef8360405161254e91815260200190565b60405180910390a3505050565b5f6106f68362ffffff8416620186a0612720565b5f6106f683620186a08462ffffff1661294f565b5f61258e8284613188565b90505f61259b83856131fd565b111561067f57806125ab81613210565b949350505050565b604080516001600160a01b038416602482015260448082018490528251808303909101815260649091019091526020810180516001600160e01b031663a9059cbb60e01b17905261196890849061297f565b5f808661261360018861312f565b81548110612623576126236131e9565b905f5260205f2090600302016040518060600160405290815f8201548152602001600182015481526020016002820154815250509050805f015185036126bf5761266f818686866129e0565b8761267b60018961312f565b8154811061268b5761268b6131e9565b905f5260205f2090600302015f820151815f0155602082015181600101556040820151816002015590505085915050611df5565b6126cb818686866129e0565b8787815481106126dd576126dd6131e9565b905f5260205f2090600302015f820151815f015560208201518160010155604082015181600201559050508560016127159190613092565b979650505050505050565b5f838302815f1985870982811083820303915050805f036127545783828161274a5761274a613174565b04925050506106f6565b8084116127745760405163227bc15360e01b815260040160405180910390fd5b5f848688095f868103871696879004966002600389028118808a02820302808a02820302808a02820302808a02820302808a02820302808a02909103029181900381900460010186841190950394909402919094039290920491909117919091029150509392505050565b5f80806127ec848761312f565b90505f806127fb898489612a67565b80518251929450909250900361282157806020015181604001519450945050505061289e565b81515f9061282f908561312f565b835183519192505f91612842919061312f565b905061285d828286602001518660200151611e33919061312f565b846020015161286c9190613092565b612885838387604001518760400151611e33919061312f565b85604001516128949190613092565b9650965050505050505b94509492505050565b5f80608083901c156128bb57608092831c92015b604083901c156128cd57604092831c92015b602083901c156128df57602092831c92015b601083901c156128f157601092831c92015b600883901c1561290357600892831c92015b600483901c1561291557600492831c92015b600283901c1561292757600292831c92015b600183901c1561067f5760010192915050565b5f81831061294857816106f6565b5090919050565b5f61295b848484612720565b90505f828061296c5761296c613174565b84860911156106f65780611df581613210565b5f6129936001600160a01b03841683612bc2565b905080515f141580156129b75750808060200190518101906129b59190613228565b155b1561196857604051635274afe760e01b81526001600160a01b0384166004820152602401611946565b612a0160405180606001604052805f81526020015f81526020015f81525090565b84515f90612a0f908661312f565b905060405180606001604052808681526020018286612a2e919061315d565b8860200151612a3d9190613092565b8152602001612a4c838661315d565b8860400151612a5b9190613092565b90529695505050505050565b612a8860405180606001604052805f81526020015f81526020015f81525090565b612aa960405180606001604052805f81526020015f81526020015f81525090565b600285511015612ab7575f80fd5b5f855f81518110612aca57612aca6131e9565b602002602001015190505f86600186612ae3919061312f565b81518110612af357612af36131e9565b60200260200101519050805f01518610612b13579250829150612bba9050565b81518610612bb7575f80612b2860018861312f565b90505f5b612b368383612bcf565b9050898181518110612b4a57612b4a6131e9565b6020026020010151965088875f01511115612b7157612b6a816001613092565b9250612b2c565b89612b7d826001613092565b81518110612b8d57612b8d6131e9565b6020026020010151955088865f015111612bb357612bac60018261312f565b9150612b2c565b5050505b50505b935093915050565b60606106f683835f612be9565b5f612bdd6002848418613188565b6106f690848416613092565b606081471015612c0e5760405163cd78605960e01b8152306004820152602401611946565b5f80856001600160a01b03168486604051612c299190613243565b5f6040518083038185875af1925050503d805f8114612c63576040519150601f19603f3d011682016040523d82523d5f602084013e612c68565b606091505b5091509150612c78868383612c82565b9695505050505050565b606082612c9757612c9282612cde565b6106f6565b8151158015612cae57506001600160a01b0384163b155b15612cd757604051639996b31560e01b81526001600160a01b0385166004820152602401611946565b50806106f6565b805115612cee5780518082602001fd5b604051630a12f52160e11b815260040160405180910390fd5b5f5b83811015612d21578181015183820152602001612d09565b50505f910152565b602081525f8251806020840152612d47816040850160208701612d07565b601f01601f19169190910160400192915050565b6001600160a01b0381168114611958575f80fd5b5f8060408385031215612d80575f80fd5b8235612d8b81612d5b565b946020939093013593505050565b5f805f60608486031215612dab575f80fd5b8335612db681612d5b565b92506020840135612dc681612d5b565b929592945050506040919091013590565b5f60208284031215612de7575f80fd5b5035919050565b5f60208284031215612dfe575f80fd5b813567ffffffffffffffff811115612e14575f80fd5b820160a081850312156106f6575f80fd5b5f805f805f60808688031215612e39575f80fd5b8535612e4481612d5b565b94506020860135935060408601359250606086013567ffffffffffffffff80821115612e6e575f80fd5b818801915088601f830112612e81575f80fd5b813581811115612e8f575f80fd5b896020828501011115612ea0575f80fd5b9699959850939650602001949392505050565b5f60208284031215612ec3575f80fd5b81356106f681612d5b565b5f805f60608486031215612ee0575f80fd5b8335612eeb81612d5b565b95602085013595506040909401359392505050565b5f8060408385031215612f11575f80fd5b8235612f1c81612d5b565b91506020830135612f2c81612d5b565b809150509250929050565b5f8060208385031215612f48575f80fd5b823567ffffffffffffffff80821115612f5f575f80fd5b818501915085601f830112612f72575f80fd5b813581811115612f80575f80fd5b8660208260051b8501011115612f94575f80fd5b60209290920196919550909350505050565b5f815180845260208085019450602084015f5b83811015612fd557815187529582019590820190600101612fb9565b509495945050505050565b604081525f612ff26040830185612fa6565b8281036020840152611df58185612fa6565b600181811c9082168061301857607f821691505b60208210810361303657634e487b7160e01b5f52602260045260245ffd5b50919050565b8015158114611958575f80fd5b5f60208284031215613059575f80fd5b81356106f68161303c565b634e487b7160e01b5f52601160045260245ffd5b5f600160ff1b820161308c5761308c613064565b505f0390565b8082018082111561067f5761067f613064565b5f808335601e198436030181126130ba575f80fd5b83018035915067ffffffffffffffff8211156130d4575f80fd5b602001915036819003821315611912575f80fd5b81835281816020850137505f828201602090810191909152601f909101601f19169091010190565b848152836020820152606060408201525f612c786060830184866130e8565b8181038181111561067f5761067f613064565b5f60208284031215613152575f80fd5b81516106f681612d5b565b808202811582820484141761067f5761067f613064565b634e487b7160e01b5f52601260045260245ffd5b5f8261319657613196613174565b500490565b62ffffff8281168282160390808211156131b7576131b7613064565b5092915050565b5f602082840312156131ce575f80fd5b5051919050565b634e487b7160e01b5f52604160045260245ffd5b634e487b7160e01b5f52603260045260245ffd5b5f8261320b5761320b613174565b500690565b5f6001820161322157613221613064565b5060010190565b5f60208284031215613238575f80fd5b81516106f68161303c565b5f8251613254818460208701612d07565b919091019291505056fea2646970667358221220a1e4da1a13a72d7268f4c1eebb5fcc403ef3ab740364a9b3b42be1a4d5d9b1e664736f6c63430008170033",
    "sourcePath": "c:/Users/tucuo/OneDrive/Desktop/CiSwap.Contracts/contracts/core/Pool.sol",
    "compiler": {
        "name": "solc",
        "version": "0.8.23+commit.f704f362"
    },
    "functionHashes": {
        "FEE_PROTOCOL_RATE()": "d24c503d",
        "allowance(address,address)": "dd62ed3e",
        "approve(address,uint256)": "095ea7b3",
        "balanceOf(address)": "70a08231",
        "burn(address,uint256)": "9dc29fac",
        "collectProtocol(address,uint256,uint256)": "a5820157",
        "config()": "79502c55",
        "constant0()": "e6232320",
        "constant1()": "74d96989",
        "decimals()": "313ce567",
        "factory()": "c45a0155",
        "fee()": "ddca3f43",
        "flash(address,uint256,uint256,bytes)": "490e6cbc",
        "initialize()": "8129fc1c",
        "liquidity()": "1a686502",
        "mint(address)": "6a627842",
        "name()": "06fdde03",
        "observations(uint256)": "252c09d7",
        "observe(uint256[])": "dea96b71",
        "owner()": "8da5cb5b",
        "price0X96()": "c806a79e",
        "price1X96()": "4fa1323d",
        "renounceOwnership()": "715018a6",
        "slot0()": "3850c7bd",
        "swap((int256,uint256,bool,address,bytes))": "25a12ac1",
        "symbol()": "95d89b41",
        "token0()": "0dfe1681",
        "token1()": "d21220a7",
        "totalSupply()": "18160ddd",
        "transfer(address,uint256)": "a9059cbb",
        "transferFrom(address,address,uint256)": "23b872dd",
        "transferOwnership(address)": "f2fde38b"
    },
    "gasEstimates": {
        "creation": {
            "codeDepositCost": "2589600",
            "executionCost": "infinite",
            "totalCost": "infinite"
        },
        "external": {
            "FEE_PROTOCOL_RATE()": "292",
            "allowance(address,address)": "infinite",
            "approve(address,uint256)": "24775",
            "balanceOf(address)": "2595",
            "burn(address,uint256)": "infinite",
            "collectProtocol(address,uint256,uint256)": "infinite",
            "config()": "13020",
            "constant0()": "infinite",
            "constant1()": "infinite",
            "decimals()": "222",
            "factory()": "infinite",
            "fee()": "infinite",
            "flash(address,uint256,uint256,bytes)": "infinite",
            "initialize()": "infinite",
            "liquidity()": "infinite",
            "mint(address)": "infinite",
            "name()": "infinite",
            "observations(uint256)": "8945",
            "observe(uint256[])": "infinite",
            "owner()": "2419",
            "price0X96()": "infinite",
            "price1X96()": "infinite",
            "renounceOwnership()": "infinite",
            "slot0()": "13003",
            "swap((int256,uint256,bool,address,bytes))": "infinite",
            "symbol()": "infinite",
            "token0()": "infinite",
            "token1()": "infinite",
            "totalSupply()": "2393",
            "transfer(address,uint256)": "51290",
            "transferFrom(address,address,uint256)": "infinite",
            "transferOwnership(address)": "infinite"
        },
        "internal": {
            "_adjusted0()": "infinite",
            "_adjusted1()": "infinite",
            "_balance0()": "infinite",
            "_balance1()": "infinite",
            "_computeFeeProtocol(uint256)": "infinite",
            "_update(uint256,uint256)": "infinite"
        }
    }
}