{
    "contractName": "Pool",
    "abi": [
        {
            "inputs": [],
            "stateMutability": "nonpayable",
            "type": "constructor"
        },
        {
            "inputs": [
                {
                    "internalType": "address",
                    "name": "target",
                    "type": "address"
                }
            ],
            "name": "AddressEmptyCode",
            "type": "error"
        },
        {
            "inputs": [
                {
                    "internalType": "address",
                    "name": "account",
                    "type": "address"
                }
            ],
            "name": "AddressInsufficientBalance",
            "type": "error"
        },
        {
            "inputs": [
                {
                    "internalType": "address",
                    "name": "spender",
                    "type": "address"
                },
                {
                    "internalType": "uint256",
                    "name": "allowance",
                    "type": "uint256"
                },
                {
                    "internalType": "uint256",
                    "name": "needed",
                    "type": "uint256"
                }
            ],
            "name": "ERC20InsufficientAllowance",
            "type": "error"
        },
        {
            "inputs": [
                {
                    "internalType": "address",
                    "name": "sender",
                    "type": "address"
                },
                {
                    "internalType": "uint256",
                    "name": "balance",
                    "type": "uint256"
                },
                {
                    "internalType": "uint256",
                    "name": "needed",
                    "type": "uint256"
                }
            ],
            "name": "ERC20InsufficientBalance",
            "type": "error"
        },
        {
            "inputs": [
                {
                    "internalType": "address",
                    "name": "approver",
                    "type": "address"
                }
            ],
            "name": "ERC20InvalidApprover",
            "type": "error"
        },
        {
            "inputs": [
                {
                    "internalType": "address",
                    "name": "receiver",
                    "type": "address"
                }
            ],
            "name": "ERC20InvalidReceiver",
            "type": "error"
        },
        {
            "inputs": [
                {
                    "internalType": "address",
                    "name": "sender",
                    "type": "address"
                }
            ],
            "name": "ERC20InvalidSender",
            "type": "error"
        },
        {
            "inputs": [
                {
                    "internalType": "address",
                    "name": "spender",
                    "type": "address"
                }
            ],
            "name": "ERC20InvalidSpender",
            "type": "error"
        },
        {
            "inputs": [],
            "name": "FailedInnerCall",
            "type": "error"
        },
        {
            "inputs": [],
            "name": "MathOverflowedMulDiv",
            "type": "error"
        },
        {
            "inputs": [
                {
                    "internalType": "address",
                    "name": "owner",
                    "type": "address"
                }
            ],
            "name": "OwnableInvalidOwner",
            "type": "error"
        },
        {
            "inputs": [
                {
                    "internalType": "address",
                    "name": "account",
                    "type": "address"
                }
            ],
            "name": "OwnableUnauthorizedAccount",
            "type": "error"
        },
        {
            "inputs": [
                {
                    "internalType": "int256",
                    "name": "value",
                    "type": "int256"
                }
            ],
            "name": "SafeCastOverflowedIntToUint",
            "type": "error"
        },
        {
            "inputs": [
                {
                    "internalType": "uint256",
                    "name": "value",
                    "type": "uint256"
                }
            ],
            "name": "SafeCastOverflowedUintToInt",
            "type": "error"
        },
        {
            "inputs": [
                {
                    "internalType": "address",
                    "name": "token",
                    "type": "address"
                }
            ],
            "name": "SafeERC20FailedOperation",
            "type": "error"
        },
        {
            "anonymous": false,
            "inputs": [
                {
                    "indexed": true,
                    "internalType": "address",
                    "name": "owner",
                    "type": "address"
                },
                {
                    "indexed": true,
                    "internalType": "address",
                    "name": "spender",
                    "type": "address"
                },
                {
                    "indexed": false,
                    "internalType": "uint256",
                    "name": "value",
                    "type": "uint256"
                }
            ],
            "name": "Approval",
            "type": "event"
        },
        {
            "anonymous": false,
            "inputs": [
                {
                    "indexed": true,
                    "internalType": "address",
                    "name": "sender",
                    "type": "address"
                },
                {
                    "indexed": false,
                    "internalType": "uint256",
                    "name": "amount",
                    "type": "uint256"
                },
                {
                    "indexed": false,
                    "internalType": "uint256",
                    "name": "amount0",
                    "type": "uint256"
                },
                {
                    "indexed": false,
                    "internalType": "uint256",
                    "name": "amount1",
                    "type": "uint256"
                },
                {
                    "indexed": true,
                    "internalType": "address",
                    "name": "recipient",
                    "type": "address"
                }
            ],
            "name": "Burn",
            "type": "event"
        },
        {
            "anonymous": false,
            "inputs": [
                {
                    "indexed": true,
                    "internalType": "address",
                    "name": "sender",
                    "type": "address"
                },
                {
                    "indexed": false,
                    "internalType": "uint256",
                    "name": "amount0",
                    "type": "uint256"
                },
                {
                    "indexed": false,
                    "internalType": "uint256",
                    "name": "amount1",
                    "type": "uint256"
                },
                {
                    "indexed": false,
                    "internalType": "uint256",
                    "name": "paid0",
                    "type": "uint256"
                },
                {
                    "indexed": false,
                    "internalType": "uint256",
                    "name": "paid1",
                    "type": "uint256"
                },
                {
                    "indexed": true,
                    "internalType": "address",
                    "name": "recipient",
                    "type": "address"
                }
            ],
            "name": "Flash",
            "type": "event"
        },
        {
            "anonymous": false,
            "inputs": [],
            "name": "Initialized",
            "type": "event"
        },
        {
            "anonymous": false,
            "inputs": [
                {
                    "indexed": true,
                    "internalType": "address",
                    "name": "sender",
                    "type": "address"
                },
                {
                    "indexed": false,
                    "internalType": "uint256",
                    "name": "amount",
                    "type": "uint256"
                },
                {
                    "indexed": false,
                    "internalType": "uint256",
                    "name": "feeToOwner",
                    "type": "uint256"
                },
                {
                    "indexed": false,
                    "internalType": "uint256",
                    "name": "amount0",
                    "type": "uint256"
                },
                {
                    "indexed": false,
                    "internalType": "uint256",
                    "name": "amount1",
                    "type": "uint256"
                },
                {
                    "indexed": true,
                    "internalType": "address",
                    "name": "recipient",
                    "type": "address"
                }
            ],
            "name": "Mint",
            "type": "event"
        },
        {
            "anonymous": false,
            "inputs": [
                {
                    "indexed": true,
                    "internalType": "address",
                    "name": "previousOwner",
                    "type": "address"
                },
                {
                    "indexed": true,
                    "internalType": "address",
                    "name": "newOwner",
                    "type": "address"
                }
            ],
            "name": "OwnershipTransferred",
            "type": "event"
        },
        {
            "anonymous": false,
            "inputs": [
                {
                    "indexed": true,
                    "internalType": "address",
                    "name": "sender",
                    "type": "address"
                },
                {
                    "indexed": false,
                    "internalType": "int256",
                    "name": "amount0",
                    "type": "int256"
                },
                {
                    "indexed": false,
                    "internalType": "int256",
                    "name": "amount1",
                    "type": "int256"
                },
                {
                    "indexed": true,
                    "internalType": "address",
                    "name": "recipient",
                    "type": "address"
                }
            ],
            "name": "Swap",
            "type": "event"
        },
        {
            "anonymous": false,
            "inputs": [
                {
                    "indexed": false,
                    "internalType": "uint256",
                    "name": "reserve0",
                    "type": "uint256"
                },
                {
                    "indexed": false,
                    "internalType": "uint256",
                    "name": "reserve1",
                    "type": "uint256"
                }
            ],
            "name": "Sync",
            "type": "event"
        },
        {
            "anonymous": false,
            "inputs": [
                {
                    "indexed": true,
                    "internalType": "address",
                    "name": "from",
                    "type": "address"
                },
                {
                    "indexed": true,
                    "internalType": "address",
                    "name": "to",
                    "type": "address"
                },
                {
                    "indexed": false,
                    "internalType": "uint256",
                    "name": "value",
                    "type": "uint256"
                }
            ],
            "name": "Transfer",
            "type": "event"
        },
        {
            "inputs": [
                {
                    "internalType": "address",
                    "name": "owner",
                    "type": "address"
                },
                {
                    "internalType": "address",
                    "name": "spender",
                    "type": "address"
                }
            ],
            "name": "allowance",
            "outputs": [
                {
                    "internalType": "uint256",
                    "name": "",
                    "type": "uint256"
                }
            ],
            "stateMutability": "view",
            "type": "function"
        },
        {
            "inputs": [
                {
                    "internalType": "address",
                    "name": "spender",
                    "type": "address"
                },
                {
                    "internalType": "uint256",
                    "name": "value",
                    "type": "uint256"
                }
            ],
            "name": "approve",
            "outputs": [
                {
                    "internalType": "bool",
                    "name": "",
                    "type": "bool"
                }
            ],
            "stateMutability": "nonpayable",
            "type": "function"
        },
        {
            "inputs": [
                {
                    "internalType": "address",
                    "name": "account",
                    "type": "address"
                }
            ],
            "name": "balanceOf",
            "outputs": [
                {
                    "internalType": "uint256",
                    "name": "",
                    "type": "uint256"
                }
            ],
            "stateMutability": "view",
            "type": "function"
        },
        {
            "inputs": [
                {
                    "internalType": "address",
                    "name": "recipient",
                    "type": "address"
                },
                {
                    "internalType": "uint256",
                    "name": "amount",
                    "type": "uint256"
                }
            ],
            "name": "burn",
            "outputs": [
                {
                    "internalType": "uint256",
                    "name": "amount0",
                    "type": "uint256"
                },
                {
                    "internalType": "uint256",
                    "name": "amount1",
                    "type": "uint256"
                }
            ],
            "stateMutability": "nonpayable",
            "type": "function"
        },
        {
            "inputs": [],
            "name": "config",
            "outputs": [
                {
                    "internalType": "address",
                    "name": "tokenA",
                    "type": "address"
                },
                {
                    "internalType": "address",
                    "name": "tokenB",
                    "type": "address"
                },
                {
                    "internalType": "uint256",
                    "name": "amountA",
                    "type": "uint256"
                },
                {
                    "internalType": "uint256",
                    "name": "amountB",
                    "type": "uint256"
                },
                {
                    "internalType": "uint256",
                    "name": "basePriceAX96",
                    "type": "uint256"
                },
                {
                    "internalType": "uint256",
                    "name": "maxPriceAX96",
                    "type": "uint256"
                }
            ],
            "stateMutability": "view",
            "type": "function"
        },
        {
            "inputs": [],
            "name": "constant0",
            "outputs": [
                {
                    "internalType": "uint256",
                    "name": "",
                    "type": "uint256"
                }
            ],
            "stateMutability": "view",
            "type": "function"
        },
        {
            "inputs": [],
            "name": "constant1",
            "outputs": [
                {
                    "internalType": "uint256",
                    "name": "",
                    "type": "uint256"
                }
            ],
            "stateMutability": "view",
            "type": "function"
        },
        {
            "inputs": [],
            "name": "decimals",
            "outputs": [
                {
                    "internalType": "uint8",
                    "name": "",
                    "type": "uint8"
                }
            ],
            "stateMutability": "view",
            "type": "function"
        },
        {
            "inputs": [],
            "name": "factory",
            "outputs": [
                {
                    "internalType": "address",
                    "name": "",
                    "type": "address"
                }
            ],
            "stateMutability": "view",
            "type": "function"
        },
        {
            "inputs": [],
            "name": "fee",
            "outputs": [
                {
                    "internalType": "uint24",
                    "name": "",
                    "type": "uint24"
                }
            ],
            "stateMutability": "view",
            "type": "function"
        },
        {
            "inputs": [
                {
                    "internalType": "address",
                    "name": "recipient",
                    "type": "address"
                },
                {
                    "internalType": "uint256",
                    "name": "amount0",
                    "type": "uint256"
                },
                {
                    "internalType": "uint256",
                    "name": "amount1",
                    "type": "uint256"
                },
                {
                    "internalType": "bytes",
                    "name": "callback",
                    "type": "bytes"
                }
            ],
            "name": "flash",
            "outputs": [
                {
                    "internalType": "uint256",
                    "name": "paid0",
                    "type": "uint256"
                },
                {
                    "internalType": "uint256",
                    "name": "paid1",
                    "type": "uint256"
                }
            ],
            "stateMutability": "nonpayable",
            "type": "function"
        },
        {
            "inputs": [],
            "name": "initialize",
            "outputs": [],
            "stateMutability": "nonpayable",
            "type": "function"
        },
        {
            "inputs": [
                {
                    "internalType": "address",
                    "name": "recipient",
                    "type": "address"
                }
            ],
            "name": "mint",
            "outputs": [
                {
                    "internalType": "uint256",
                    "name": "amount",
                    "type": "uint256"
                },
                {
                    "internalType": "uint256",
                    "name": "feeToOwner",
                    "type": "uint256"
                }
            ],
            "stateMutability": "nonpayable",
            "type": "function"
        },
        {
            "inputs": [],
            "name": "name",
            "outputs": [
                {
                    "internalType": "string",
                    "name": "",
                    "type": "string"
                }
            ],
            "stateMutability": "view",
            "type": "function"
        },
        {
            "inputs": [
                {
                    "internalType": "uint256",
                    "name": "",
                    "type": "uint256"
                }
            ],
            "name": "observations",
            "outputs": [
                {
                    "internalType": "uint256",
                    "name": "blockTimestamp",
                    "type": "uint256"
                },
                {
                    "internalType": "uint256",
                    "name": "reserve0Cumulative",
                    "type": "uint256"
                },
                {
                    "internalType": "uint256",
                    "name": "reserve1Cumulative",
                    "type": "uint256"
                }
            ],
            "stateMutability": "view",
            "type": "function"
        },
        {
            "inputs": [
                {
                    "internalType": "uint256[]",
                    "name": "secondAgos",
                    "type": "uint256[]"
                }
            ],
            "name": "observe",
            "outputs": [
                {
                    "internalType": "uint256[]",
                    "name": "reserve0Cumulatives",
                    "type": "uint256[]"
                },
                {
                    "internalType": "uint256[]",
                    "name": "reserve1Cumulatives",
                    "type": "uint256[]"
                }
            ],
            "stateMutability": "view",
            "type": "function"
        },
        {
            "inputs": [],
            "name": "owner",
            "outputs": [
                {
                    "internalType": "address",
                    "name": "",
                    "type": "address"
                }
            ],
            "stateMutability": "view",
            "type": "function"
        },
        {
            "inputs": [],
            "name": "renounceOwnership",
            "outputs": [],
            "stateMutability": "nonpayable",
            "type": "function"
        },
        {
            "inputs": [],
            "name": "slot0",
            "outputs": [
                {
                    "internalType": "uint256",
                    "name": "reserve0",
                    "type": "uint256"
                },
                {
                    "internalType": "uint256",
                    "name": "reserve1",
                    "type": "uint256"
                },
                {
                    "internalType": "uint256",
                    "name": "observationCardinality",
                    "type": "uint256"
                },
                {
                    "internalType": "bool",
                    "name": "unlocked",
                    "type": "bool"
                }
            ],
            "stateMutability": "view",
            "type": "function"
        },
        {
            "inputs": [
                {
                    "components": [
                        {
                            "internalType": "int256",
                            "name": "amountSpecified",
                            "type": "int256"
                        },
                        {
                            "internalType": "uint256",
                            "name": "limitAmountCalculated",
                            "type": "uint256"
                        },
                        {
                            "internalType": "bool",
                            "name": "zeroForOne",
                            "type": "bool"
                        },
                        {
                            "internalType": "address",
                            "name": "recipient",
                            "type": "address"
                        },
                        {
                            "internalType": "bytes",
                            "name": "callback",
                            "type": "bytes"
                        }
                    ],
                    "internalType": "struct IPoolActions.SwapParams",
                    "name": "params",
                    "type": "tuple"
                }
            ],
            "name": "swap",
            "outputs": [
                {
                    "internalType": "int256",
                    "name": "amount0",
                    "type": "int256"
                },
                {
                    "internalType": "int256",
                    "name": "amount1",
                    "type": "int256"
                }
            ],
            "stateMutability": "nonpayable",
            "type": "function"
        },
        {
            "inputs": [],
            "name": "symbol",
            "outputs": [
                {
                    "internalType": "string",
                    "name": "",
                    "type": "string"
                }
            ],
            "stateMutability": "view",
            "type": "function"
        },
        {
            "inputs": [],
            "name": "token0",
            "outputs": [
                {
                    "internalType": "address",
                    "name": "",
                    "type": "address"
                }
            ],
            "stateMutability": "view",
            "type": "function"
        },
        {
            "inputs": [],
            "name": "token1",
            "outputs": [
                {
                    "internalType": "address",
                    "name": "",
                    "type": "address"
                }
            ],
            "stateMutability": "view",
            "type": "function"
        },
        {
            "inputs": [],
            "name": "totalSupply",
            "outputs": [
                {
                    "internalType": "uint256",
                    "name": "",
                    "type": "uint256"
                }
            ],
            "stateMutability": "view",
            "type": "function"
        },
        {
            "inputs": [
                {
                    "internalType": "address",
                    "name": "to",
                    "type": "address"
                },
                {
                    "internalType": "uint256",
                    "name": "value",
                    "type": "uint256"
                }
            ],
            "name": "transfer",
            "outputs": [
                {
                    "internalType": "bool",
                    "name": "",
                    "type": "bool"
                }
            ],
            "stateMutability": "nonpayable",
            "type": "function"
        },
        {
            "inputs": [
                {
                    "internalType": "address",
                    "name": "from",
                    "type": "address"
                },
                {
                    "internalType": "address",
                    "name": "to",
                    "type": "address"
                },
                {
                    "internalType": "uint256",
                    "name": "value",
                    "type": "uint256"
                }
            ],
            "name": "transferFrom",
            "outputs": [
                {
                    "internalType": "bool",
                    "name": "",
                    "type": "bool"
                }
            ],
            "stateMutability": "nonpayable",
            "type": "function"
        },
        {
            "inputs": [
                {
                    "internalType": "address",
                    "name": "newOwner",
                    "type": "address"
                }
            ],
            "name": "transferOwnership",
            "outputs": [],
            "stateMutability": "nonpayable",
            "type": "function"
        }
    ],
    "bytecode": "61016060405234801562000011575f80fd5b506040518060400160405280601881526020017f4c69717569646974792050726f766964657220546f6b656e0000000000000000815250604051806040016040528060088152602001672628102a37b5b2b760c11b815250620000796200020b60201b60201c565b6001600160a01b038116620000a757604051631e4fbdf760e01b81525f600482015260240160405180910390fd5b620000b2816200020f565b506004620000c18382620006df565b506005620000d08282620006df565b50503060805250336001600160a01b031663f3778fd86040518163ffffffff1660e01b815260040161010060405180830381865afa15801562000115573d5f803e3d5ffd5b505050506040513d601f19601f820116820180604052508101906200013b9190620007c7565b8051600680546001600160a01b039283166001600160a01b03199182168117909255602084015160078054918516919092168117909155604084015160085560608401516009556080840151600a5560a093840151600b5562ffffff90941660c052931690525f91620001ae916200025e565b6001600160a01b0391821661010052911660e052600a54600b546008546009549394505f938493620001e4939092909162000297565b9150915082620001f6578082620001f9565b81815b6101405261012052506200090c915050565b3390565b5f80546001600160a01b038381166001600160a01b0319831681178455604051919092169283917f8be0079c531659141344cd1fd0a4f28419497f9722a3daafe3b4186f6b6457e09190a35050565b5f805f836001600160a01b0316856001600160a01b031610620002845783855f62000289565b848460015b919790965090945092505050565b5f80620002a6868686620002c1565b9150620002b6868386866200033c565b905094509492505050565b5f80620002dd856c0100000000000000000000000086620003a2565b90505f620002eb8262000467565b90505f620002fa8583620008a8565b905066010000000000005f8062000312838662000568565b915091508162000320575f80fd5b6200032c8185620008d6565b96505050505050505b9392505050565b5f6c0100000000000000000000000081806200037c886200035e8989620008f6565b6200036a9190620008a8565b620003768786620008a8565b62000568565b91509150816200038a575f80fd5b620003968382620008d6565b98975050505050505050565b5f838302815f1985870982811083820303915050805f03620003db57838281620003d057620003d0620008c2565b049250505062000335565b808411620003fc5760405163227bc15360e01b815260040160405180910390fd5b5f848688095f868103871696879004966002600389028118808a02820302808a02820302808a02820302808a02820302808a02820302808a02909103029181900381900460010186841190950394909402919094039290920491909117919091029150509392505050565b5f815f036200047757505f919050565b5f600162000485846200058e565b901c6001901b90506001818481620004a157620004a1620008c2565b048201901c90506001818481620004bc57620004bc620008c2565b048201901c90506001818481620004d757620004d7620008c2565b048201901c90506001818481620004f257620004f2620008c2565b048201901c905060018184816200050d576200050d620008c2565b048201901c90506001818481620005285762000528620008c2565b048201901c90506001818481620005435762000543620008c2565b048201901c90506200033581828581620005615762000561620008c2565b046200062a565b5f80838311156200057e57505f90508062000587565b50600190508183035b9250929050565b5f80608083901c15620005a357608092831c92015b604083901c15620005b657604092831c92015b602083901c15620005c957602092831c92015b601083901c15620005dc57601092831c92015b600883901c15620005ef57600892831c92015b600483901c156200060257600492831c92015b600283901c156200061557600292831c92015b600183901c1562000624576001015b92915050565b5f8183106200063a578162000335565b5090919050565b634e487b7160e01b5f52604160045260245ffd5b600181811c908216806200066a57607f821691505b6020821081036200068957634e487b7160e01b5f52602260045260245ffd5b50919050565b601f821115620006da57805f5260205f20601f840160051c81016020851015620006b65750805b601f840160051c820191505b81811015620006d7575f8155600101620006c2565b50505b505050565b81516001600160401b03811115620006fb57620006fb62000641565b62000713816200070c845462000655565b846200068f565b602080601f83116001811462000749575f8415620007315750858301515b5f19600386901b1c1916600185901b178555620007a3565b5f85815260208120601f198616915b82811015620007795788860151825594840194600190910190840162000758565b50858210156200079757878501515f19600388901b60f8161c191681555b505060018460011b0185555b505050505050565b80516001600160a01b0381168114620007c2575f80fd5b919050565b5f805f838503610100811215620007dc575f80fd5b620007e785620007ab565b9350602085015162ffffff81168114620007ff575f80fd5b925060c0603f198201121562000813575f80fd5b5060405160c081016001600160401b038111828210171562000839576200083962000641565b80604052506200084c60408601620007ab565b81526200085c60608601620007ab565b60208201526080850151604082015260a0850151606082015260c0850151608082015260e085015160a0820152809150509250925092565b634e487b7160e01b5f52601160045260245ffd5b808202811582820484141762000624576200062462000894565b634e487b7160e01b5f52601260045260245ffd5b5f82620008f157634e487b7160e01b5f52601260045260245ffd5b500490565b8082018082111562000624576200062462000894565b60805160a05160c05160e051610100516101205161014051612b07620009f15f395f8181610347015281816107dc015281816111cf01526115f501525f81816104f8015281816107b60152818161119701526115bc01525f818161043d015281816106d20152818161073a01528181610be80152818161116001526118be01525f81816101eb015281816106f30152818161071901528181610bbd01528181611135015261183501525f818161049c0152818161088a0152818161095b01528181610cba0152610e2101525f81816104160152610f1f01525f61140f0152612b075ff3fe608060405234801561000f575f80fd5b50600436106101a1575f3560e01c806374d96989116100f3578063c45a015511610093578063ddca3f431161006e578063ddca3f4314610497578063dea96b71146104d2578063e6232320146104f3578063f2fde38b1461051a575f80fd5b8063c45a015514610411578063d21220a714610438578063dd62ed3e1461045f575f80fd5b80638da5cb5b116100ce5780638da5cb5b146103d357806395d89b41146103e35780639dc29fac146103eb578063a9059cbb146103fe575f80fd5b806374d969891461034257806379502c55146103695780638129fc1c146103cb575f80fd5b806325a12ac11161015e578063490e6cbc11610139578063490e6cbc146102ea5780636a627842146102fd57806370a0823114610310578063715018a614610338575f80fd5b806325a12ac114610278578063313ce567146102a05780633850c7bd146102af575f80fd5b806306fdde03146101a5578063095ea7b3146101c35780630dfe1681146101e657806318160ddd1461022557806323b872dd14610237578063252c09d71461024a575b5f80fd5b6101ad61052d565b6040516101ba91906125f3565b60405180910390f35b6101d66101d1366004612640565b6105bd565b60405190151581526020016101ba565b61020d7f000000000000000000000000000000000000000000000000000000000000000081565b6040516001600160a01b0390911681526020016101ba565b6003545b6040519081526020016101ba565b6101d6610245366004612668565b6105d6565b61025d6102583660046126a1565b6105fb565b604080519384526020840192909252908201526060016101ba565b61028b6102863660046126b8565b61062c565b604080519283526020830191909152016101ba565b604051601281526020016101ba565b600d54600e54600f546010546102c89392919060ff1684565b60408051948552602085019390935291830152151560608201526080016101ba565b61028b6102f83660046126ef565b610b94565b61028b61030b36600461277b565b610d80565b61022961031e36600461277b565b6001600160a01b03165f9081526001602052604090205490565b610340610f09565b005b6102297f000000000000000000000000000000000000000000000000000000000000000081565b600654600754600854600954600a54600b54610393956001600160a01b0390811695169392919086565b604080516001600160a01b039788168152969095166020870152938501929092526060840152608083015260a082015260c0016101ba565b610340610f1c565b5f546001600160a01b031661020d565b6101ad611088565b61028b6103f9366004612640565b611097565b6101d661040c366004612640565b611274565b61020d7f000000000000000000000000000000000000000000000000000000000000000081565b61020d7f000000000000000000000000000000000000000000000000000000000000000081565b61022961046d366004612794565b6001600160a01b039182165f90815260026020908152604080832093909416825291909152205490565b6104be7f000000000000000000000000000000000000000000000000000000000000000081565b60405162ffffff90911681526020016101ba565b6104e56104e03660046127c5565b611281565b6040516101ba92919061286e565b6102297f000000000000000000000000000000000000000000000000000000000000000081565b61034061052836600461277b565b6112d8565b60606004805461053c90612892565b80601f016020809104026020016040519081016040528092919081815260200182805461056890612892565b80156105b35780601f1061058a576101008083540402835291602001916105b3565b820191905f5260205f20905b81548152906001019060200180831161059657829003601f168201915b5050505050905090565b5f336105ca81858561131a565b60019150505b92915050565b5f336105e385828561132c565b6105ee8585856113a7565b60019150505b9392505050565b600c818154811061060a575f80fd5b5f91825260209091206003909102018054600182015460029092015490925083565b6010545f90819060ff1661063e575f80fd5b6010805460ff19169055610650611404565b6040805160808082018352600d548252600e54602080840191909152600f548385015260105460ff1615156060808501919091528451610100810186525f808252928101839052948501829052840181905290830181905260a0830181905260c0830181905260e0830152906106cc60608601604087016128d7565b610717577f00000000000000000000000000000000000000000000000000000000000000007f000000000000000000000000000000000000000000000000000000000000000061075a565b7f00000000000000000000000000000000000000000000000000000000000000007f00000000000000000000000000000000000000000000000000000000000000005b6001600160a01b03908116602084015216815261077d60608601604087016128d7565b61078d5760208201518251610795565b815160208301515b60a083015260808201525f6107b060608701604088016128d7565b6107da577f00000000000000000000000000000000000000000000000000000000000000006107fc565b7f00000000000000000000000000000000000000000000000000000000000000005b90505f86351380156108d1576108128735611438565b8360400181815250506108b66040518060a0016040528089604001602081019061083c91906128d7565b61084a57866020015161084d565b86515b815260200161086260608b0160408c016128d7565b61086d578651610873565b86602001515b8152602001848152602001856040015181526020017f000000000000000000000000000000000000000000000000000000000000000062ffffff16815250611461565b60608401819052602088013511156108cc575f80fd5b61099d565b6108e36108de8835612906565b611438565b8360600181815250506109876040518060a0016040528089604001602081019061090d91906128d7565b61091b57866020015161091e565b86515b815260200161093360608b0160408c016128d7565b61093e578651610944565b86602001515b8152602001848152602001856060015181526020017f000000000000000000000000000000000000000000000000000000000000000062ffffff168152506114f2565b604084018190526020880135101561099d575f80fd5b60208301516109c0906109b660808a0160608b0161277b565b8560600151611579565b6109d060608801604089016128d7565b6109e6576109e1836060015161158d565b6109fc565b6109f3836040015161158d565b6109fc90612906565b9550610a0e60608801604089016128d7565b610a2d57610a1f836040015161158d565b610a2890612906565b610a3a565b610a3a836060015161158d565b94505f610a4a6080890189612920565b90501115610ab45733638d4a84198787610a6760808c018c612920565b6040518563ffffffff1660e01b8152600401610a86949392919061298b565b5f604051808303815f87803b158015610a9d575f80fd5b505af1158015610aaf573d5f803e3d5ffd5b505050505b5f610abd6115b9565b90505f610ac86115f2565b90505f610adb60608b0160408c016128d7565b610ae55781610ae7565b825b905085604001518660800151610afd91906129aa565b811015610b08575f80fd5b610b12838361161c565b610b2260808b0160608c0161277b565b6001600160a01b0316336001600160a01b03167f86104e7a79e16fb712c2a4133be3187400bdcaf8d7a74c66f7b75718a83f83718b8b604051610b6f929190918252602082015260400190565b60405180910390a350506010805460ff19166001179055509496939550929350505050565b6010545f90819060ff16610ba6575f80fd5b6010805460ff19169055610bb8611404565b610be37f00000000000000000000000000000000000000000000000000000000000000008888611579565b610c0e7f00000000000000000000000000000000000000000000000000000000000000008887611579565b60405163e83517b560e01b8152339063e83517b590610c3790899089908990899060040161298b565b5f604051808303815f87803b158015610c4e575f80fd5b505af1158015610c60573d5f803e3d5ffd5b505060408051608081018252600d548152600e546020820152600f549181019190915260105460ff161515606082015291505f9050610c9d6115b9565b90505f610ca86115f2565b9050610cde835f0151846020015184847f00000000000000000000000000000000000000000000000000000000000000006116a6565b610ce6575f80fd5b8251610cf290836129bd565b9450826020015181610d0491906129bd565b9350610d10828261161c565b604080518a8152602081018a90528082018790526060810186905290516001600160a01b038c169133917f1d940843caa7af592ac83e5e979405c98c9cad66a2a99359615008d6c97d5bc39181900360800190a350506010805460ff191660011790555090969095509350505050565b6010545f90819060ff16610d92575f80fd5b6010805460ff19169055610da4611404565b5f610dae60035490565b60408051608081018252600d548152600e546020820152600f549181019190915260105460ff16151560608201529091505f610de86115b9565b90505f610df36115f2565b8351909150821180610e085750826020015181115b610e10575f80fd5b610e4584845f0151856020015185857f00000000000000000000000000000000000000000000000000000000000000006116ec565b9096509450610e548787611758565b610e6e610e685f546001600160a01b031690565b86611758565b610e78828261161c565b6001600160a01b038716336001600160a01b03167f265ee4cff6cdf714e68c02e61a7864cf66bc04e372a41b6cc425acbb737cd3958888875f015187610ebe91906129bd565b6020890151610ecd90886129bd565b60408051948552602085019390935291830152606082015260800160405180910390a350506010805460ff191660011790555091939092509050565b610f11611790565b610f1a5f6117bc565b565b337f00000000000000000000000000000000000000000000000000000000000000006001600160a01b031614610f50575f80fd5b5f610f596115b9565b90505f610f646115f2565b60408051606080820183524282525f6020808401828152848601838152600c80546001808201835591865296517fdf6966c971051c3d54ec59162606531493a51404a002842f56009d7e5cf4a8c760039098029788015591517fdf6966c971051c3d54ec59162606531493a51404a002842f56009d7e5cf4a8c8870155517fdf6966c971051c3d54ec59162606531493a51404a002842f56009d7e5cf4a8c99095019490945584516080810186528881529081018690529384018390529201819052600d859055600e839055600f8190556010805460ff19168217905591925061104e848461180b565b905061105a3082611758565b6040517f5daa87a0e9463431830481fd4b6e3403442dfb9a12b9c07597e9f61d50b633c8905f90a150505050565b60606005805461053c90612892565b6010545f90819060ff166110a9575f80fd5b6010805460ff191690556110bb611404565b5f6110c560035490565b90505f84116110d2575f80fd5b60408051608081018252600d548152600e546020820152600f549181019190915260105460ff16151560608201525f61110961181e565b90505f6111146118a7565b905061112b8785855f0151866020015186866118f5565b909650945061115b7f00000000000000000000000000000000000000000000000000000000000000008988611579565b6111867f00000000000000000000000000000000000000000000000000000000000000008987611579565b61119033886119a2565b5f866111bc7f0000000000000000000000000000000000000000000000000000000000000000856129aa565b6111c691906129bd565b90505f866111f47f0000000000000000000000000000000000000000000000000000000000000000856129aa565b6111fe91906129bd565b905061120a828261161c565b604080518a8152602081018a905280820189905290516001600160a01b038c169133917fd175a80c109434bb89948928ab2475a6647c94244cb70002197896423c8833639181900360600190a350506010805460ff19166001179055509396929550919350505050565b5f336105ca8185856113a7565b6060806112cc42600d600201548686808060200260200160405190810160405280939291908181526020018383602002808284375f92019190915250600c9594939250506119d69050565b915091505b9250929050565b6112e0611790565b6001600160a01b03811661130e57604051631e4fbdf760e01b81525f60048201526024015b60405180910390fd5b611317816117bc565b50565b6113278383836001611b58565b505050565b6001600160a01b038381165f908152600260209081526040808320938616835292905220545f1981146113a1578181101561139357604051637dc7a0d960e11b81526001600160a01b03841660048201526024810182905260448101839052606401611305565b6113a184848484035f611b58565b50505050565b6001600160a01b0383166113d057604051634b637e8f60e11b81525f6004820152602401611305565b6001600160a01b0382166113f95760405163ec442f0560e01b81525f6004820152602401611305565b611327838383611c2a565b306001600160a01b037f00000000000000000000000000000000000000000000000000000000000000001614610f1a575f80fd5b5f8082121561145d57604051635467221960e11b815260048101839052602401611305565b5090565b5f81606001515f03611471575f80fd5b602082015182515f91611483916129d0565b90505f8360600151845f015161149991906129aa565b90505f6114a682846129fb565b905084604001518110156114b8575f80fd5b5f8186602001516114c991906129bd565b90506114e88660800151620186a06114e19190612a0e565b8290611d50565b9695505050505050565b5f81606001515f03611502575f80fd5b5f6115248360800151620186a06115199190612a0e565b606085015190611d64565b90505f8360200151845f015161153a91906129d0565b90505f82856020015161154d91906129bd565b9050846040015181101561155f575f80fd5b5f61156a8383611d78565b86519091506114e890826129bd565b6113276001600160a01b0384168383611da8565b5f6001600160ff1b0382111561145d5760405163123baf0360e11b815260048101839052602401611305565b5f7f00000000000000000000000000000000000000000000000000000000000000006115e361181e565b6115ed91906129aa565b905090565b5f7f00000000000000000000000000000000000000000000000000000000000000006115e36118a7565b600d829055600e8190556040805160808101825283815260208101839052600f5491810182905260105460ff16151560608201529061166090600c90428686611dfa565b600f55805160208083015160408051938452918301527fcf2aa50876cdfbb541206f89af0ee78d44a2abf8d328e37fa4917f982149848a910160405180910390a1505050565b5f806116b2878761180b565b90505f6116bf868661180b565b90505f6116d96116d286620186a0612a0e565b8390611d50565b9290921015925050505b95945050505050565b5f805f6116f9888861180b565b90505f611706878761180b565b9050818111611713575f80fd5b5f61172a8b8461172381866129bd565b9190611f15565b905061173c6114e187620186a0612a0e565b945061174885826129bd565b9350505050965096945050505050565b6001600160a01b0382166117815760405163ec442f0560e01b81525f6004820152602401611305565b61178c5f8383611c2a565b5050565b5f546001600160a01b03163314610f1a5760405163118cdaa760e01b8152336004820152602401611305565b5f80546001600160a01b038381166001600160a01b0319831681178455604051919092169283917f8be0079c531659141344cd1fd0a4f28419497f9722a3daafe3b4186f6b6457e09190a35050565b5f6105f461181983856129d0565b611fd4565b6040516370a0823160e01b81523060048201525f907f00000000000000000000000000000000000000000000000000000000000000006001600160a01b0316906370a08231906024015b602060405180830381865afa158015611883573d5f803e3d5ffd5b505050506040513d601f19601f820116820180604052508101906115ed9190612a31565b6040516370a0823160e01b81523060048201525f907f00000000000000000000000000000000000000000000000000000000000000006001600160a01b0316906370a0823190602401611868565b5f80611902868989611f15565b915061190f858989611f15565b90505f61191c82876129bd565b61192684896129bd565b61193091906129d0565b905084831115611966578492505f61194884896129bd565b61195290836129fb565b905061195e81886129bd565b925050611996565b83821115611996578391505f61197c83886129bd565b61198690836129fb565b905061199281896129bd565b9350505b50965096945050505050565b6001600160a01b0382166119cb57604051634b637e8f60e11b81525f6004820152602401611305565b61178c825f83611c2a565b805160609081908067ffffffffffffffff8111156119f6576119f6612a48565b604051908082528060200260200182016040528015611a1f578160200160208202803683370190505b5092508067ffffffffffffffff811115611a3b57611a3b612a48565b604051908082528060200260200182016040528015611a64578160200160208202803683370190505b5091505f87805480602002602001604051908101604052809291908181526020015f905b82821015611ad5578382905f5260205f2090600302016040518060600160405290815f82015481526020016001820154815260200160028201548152505081526020019060010190611a88565b5050505090505f5b82811015611b4c57611b0a828989898581518110611afd57611afd612a5c565b60200260200101516120b8565b868381518110611b1c57611b1c612a5c565b60200260200101868481518110611b3557611b35612a5c565b602090810291909101019190915252600101611add565b50505094509492505050565b6001600160a01b038416611b815760405163e602df0560e01b81525f6004820152602401611305565b6001600160a01b038316611baa57604051634a1406b160e11b81525f6004820152602401611305565b6001600160a01b038085165f90815260026020908152604080832093871683529290522082905580156113a157826001600160a01b0316846001600160a01b03167f8c5be1e5ebec7d5bd14f71427d1e84f3dd0314c0f7b2291e5b200ac8c7c3b92584604051611c1c91815260200190565b60405180910390a350505050565b6001600160a01b038316611c54578060035f828254611c4991906129aa565b90915550611cc49050565b6001600160a01b0383165f9081526001602052604090205481811015611ca65760405163391434e360e21b81526001600160a01b03851660048201526024810182905260448101839052606401611305565b6001600160a01b0384165f9081526001602052604090209082900390555b6001600160a01b038216611ce057600380548290039055611cfe565b6001600160a01b0382165f9081526001602052604090208054820190555b816001600160a01b0316836001600160a01b03167fddf252ad1be2c89b69c2b068fc378daa952ba7f163c4a11628f55a4df523b3ef83604051611d4391815260200190565b60405180910390a3505050565b5f6105f48362ffffff8416620186a0611f15565b5f6105f483620186a08462ffffff16612180565b5f611d8382846129fb565b90505f611d908385612a70565b11156105d05780611da081612a83565b949350505050565b604080516001600160a01b038416602482015260448082018490528251808303909101815260649091019091526020810180516001600160e01b031663a9059cbb60e01b1790526113279084906121b0565b5f8086611e086001886129bd565b81548110611e1857611e18612a5c565b905f5260205f2090600302016040518060600160405290815f8201548152602001600182015481526020016002820154815250509050805f01518503611eb457611e6481868686612211565b87611e706001896129bd565b81548110611e8057611e80612a5c565b905f5260205f2090600302015f820151815f01556020820151816001015560408201518160020155905050859150506116e3565b611ec081868686612211565b878781548110611ed257611ed2612a5c565b905f5260205f2090600302015f820151815f01556020820151816001015560408201518160020155905050856001611f0a91906129aa565b979650505050505050565b5f838302815f1985870982811083820303915050805f03611f4957838281611f3f57611f3f6129e7565b04925050506105f4565b808411611f695760405163227bc15360e01b815260040160405180910390fd5b5f848688095f868103871696879004966002600389028118808a02820302808a02820302808a02820302808a02820302808a02820302808a02909103029181900381900460010186841190950394909402919094039290920491909117919091029150509392505050565b5f815f03611fe357505f919050565b5f6001611fef84612298565b901c6001901b90506001818481612008576120086129e7565b048201901c90506001818481612020576120206129e7565b048201901c90506001818481612038576120386129e7565b048201901c90506001818481612050576120506129e7565b048201901c90506001818481612068576120686129e7565b048201901c90506001818481612080576120806129e7565b048201901c90506001818481612098576120986129e7565b048201901c90506105f4818285816120b2576120b26129e7565b0461232b565b5f80806120c584876129bd565b90505f806120d4898489612340565b8051825192945090925090036120fa578060200151816040015194509450505050612177565b81515f9061210890856129bd565b835183519192505f9161211b91906129bd565b905061213682828660200151866020015161172391906129bd565b846020015161214591906129aa565b61215e83838760400151876040015161172391906129bd565b856040015161216d91906129aa565b9650965050505050505b94509492505050565b5f61218c848484611f15565b90505f828061219d5761219d6129e7565b84860911156105f457806116e381612a83565b5f6121c46001600160a01b0384168361249b565b905080515f141580156121e85750808060200190518101906121e69190612a9b565b155b1561132757604051635274afe760e01b81526001600160a01b0384166004820152602401611305565b61223260405180606001604052805f81526020015f81526020015f81525090565b84515f9061224090866129bd565b90506040518060600160405280868152602001828661225f91906129d0565b886020015161226e91906129aa565b815260200161227d83866129d0565b886040015161228c91906129aa565b90529695505050505050565b5f80608083901c156122ac57608092831c92015b604083901c156122be57604092831c92015b602083901c156122d057602092831c92015b601083901c156122e257601092831c92015b600883901c156122f457600892831c92015b600483901c1561230657600492831c92015b600283901c1561231857600292831c92015b600183901c156105d05760010192915050565b5f81831061233957816105f4565b5090919050565b61236160405180606001604052805f81526020015f81526020015f81525090565b61238260405180606001604052805f81526020015f81526020015f81525090565b600285511015612390575f80fd5b5f855f815181106123a3576123a3612a5c565b602002602001015190505f866001866123bc91906129bd565b815181106123cc576123cc612a5c565b60200260200101519050805f015186106123ec5792508291506124939050565b81518610612490575f806124016001886129bd565b90505f5b61240f83836124a8565b905089818151811061242357612423612a5c565b6020026020010151965088875f0151111561244a576124438160016129aa565b9250612405565b896124568260016129aa565b8151811061246657612466612a5c565b6020026020010151955088865f01511161248c576124856001826129bd565b9150612405565b5050505b50505b935093915050565b60606105f483835f6124c2565b5f6124b660028484186129fb565b6105f4908484166129aa565b6060814710156124e75760405163cd78605960e01b8152306004820152602401611305565b5f80856001600160a01b031684866040516125029190612ab6565b5f6040518083038185875af1925050503d805f811461253c576040519150601f19603f3d011682016040523d82523d5f602084013e612541565b606091505b50915091506114e88683836060826125615761255c826125a8565b6105f4565b815115801561257857506001600160a01b0384163b155b156125a157604051639996b31560e01b81526001600160a01b0385166004820152602401611305565b50806105f4565b8051156125b85780518082602001fd5b604051630a12f52160e11b815260040160405180910390fd5b5f5b838110156125eb5781810151838201526020016125d3565b50505f910152565b602081525f82518060208401526126118160408501602087016125d1565b601f01601f19169190910160400192915050565b80356001600160a01b038116811461263b575f80fd5b919050565b5f8060408385031215612651575f80fd5b61265a83612625565b946020939093013593505050565b5f805f6060848603121561267a575f80fd5b61268384612625565b925061269160208501612625565b9150604084013590509250925092565b5f602082840312156126b1575f80fd5b5035919050565b5f602082840312156126c8575f80fd5b813567ffffffffffffffff8111156126de575f80fd5b820160a081850312156105f4575f80fd5b5f805f805f60808688031215612703575f80fd5b61270c86612625565b94506020860135935060408601359250606086013567ffffffffffffffff80821115612736575f80fd5b818801915088601f830112612749575f80fd5b813581811115612757575f80fd5b896020828501011115612768575f80fd5b9699959850939650602001949392505050565b5f6020828403121561278b575f80fd5b6105f482612625565b5f80604083850312156127a5575f80fd5b6127ae83612625565b91506127bc60208401612625565b90509250929050565b5f80602083850312156127d6575f80fd5b823567ffffffffffffffff808211156127ed575f80fd5b818501915085601f830112612800575f80fd5b81358181111561280e575f80fd5b8660208260051b8501011115612822575f80fd5b60209290920196919550909350505050565b5f815180845260208085019450602084015f5b8381101561286357815187529582019590820190600101612847565b509495945050505050565b604081525f6128806040830185612834565b82810360208401526116e38185612834565b600181811c908216806128a657607f821691505b6020821081036128c457634e487b7160e01b5f52602260045260245ffd5b50919050565b8015158114611317575f80fd5b5f602082840312156128e7575f80fd5b81356105f4816128ca565b634e487b7160e01b5f52601160045260245ffd5b5f600160ff1b820161291a5761291a6128f2565b505f0390565b5f808335601e19843603018112612935575f80fd5b83018035915067ffffffffffffffff82111561294f575f80fd5b6020019150368190038213156112d1575f80fd5b81835281816020850137505f828201602090810191909152601f909101601f19169091010190565b848152836020820152606060408201525f6114e8606083018486612963565b808201808211156105d0576105d06128f2565b818103818111156105d0576105d06128f2565b80820281158282048414176105d0576105d06128f2565b634e487b7160e01b5f52601260045260245ffd5b5f82612a0957612a096129e7565b500490565b62ffffff828116828216039080821115612a2a57612a2a6128f2565b5092915050565b5f60208284031215612a41575f80fd5b5051919050565b634e487b7160e01b5f52604160045260245ffd5b634e487b7160e01b5f52603260045260245ffd5b5f82612a7e57612a7e6129e7565b500690565b5f60018201612a9457612a946128f2565b5060010190565b5f60208284031215612aab575f80fd5b81516105f4816128ca565b5f8251612ac78184602087016125d1565b919091019291505056fea26469706673582212204591fa0a87b19c3ee807d3b80071f8ca1a7fb8858b966b188832eace1372d74964736f6c63430008170033",
    "sourcePath": "c:/Users/tucuo/OneDrive/Desktop/CiSwap.Contracts/contracts/core/Pool.sol",
    "compiler": {
        "name": "solc",
        "version": "0.8.23+commit.f704f362"
    },
    "functionHashes": {
        "allowance(address,address)": "dd62ed3e",
        "approve(address,uint256)": "095ea7b3",
        "balanceOf(address)": "70a08231",
        "burn(address,uint256)": "9dc29fac",
        "config()": "79502c55",
        "constant0()": "e6232320",
        "constant1()": "74d96989",
        "decimals()": "313ce567",
        "factory()": "c45a0155",
        "fee()": "ddca3f43",
        "flash(address,uint256,uint256,bytes)": "490e6cbc",
        "initialize()": "8129fc1c",
        "mint(address)": "6a627842",
        "name()": "06fdde03",
        "observations(uint256)": "252c09d7",
        "observe(uint256[])": "dea96b71",
        "owner()": "8da5cb5b",
        "renounceOwnership()": "715018a6",
        "slot0()": "3850c7bd",
        "swap((int256,uint256,bool,address,bytes))": "25a12ac1",
        "symbol()": "95d89b41",
        "token0()": "0dfe1681",
        "token1()": "d21220a7",
        "totalSupply()": "18160ddd",
        "transfer(address,uint256)": "a9059cbb",
        "transferFrom(address,address,uint256)": "23b872dd",
        "transferOwnership(address)": "f2fde38b"
    },
    "gasEstimates": {
        "creation": {
            "codeDepositCost": "2203000",
            "executionCost": "infinite",
            "totalCost": "infinite"
        },
        "external": {
            "allowance(address,address)": "infinite",
            "approve(address,uint256)": "24758",
            "balanceOf(address)": "2623",
            "burn(address,uint256)": "infinite",
            "config()": "13042",
            "constant0()": "infinite",
            "constant1()": "infinite",
            "decimals()": "244",
            "factory()": "infinite",
            "fee()": "infinite",
            "flash(address,uint256,uint256,bytes)": "infinite",
            "initialize()": "infinite",
            "mint(address)": "infinite",
            "name()": "infinite",
            "observations(uint256)": "8989",
            "observe(uint256[])": "infinite",
            "owner()": "2374",
            "renounceOwnership()": "infinite",
            "slot0()": "8774",
            "swap((int256,uint256,bool,address,bytes))": "infinite",
            "symbol()": "infinite",
            "token0()": "infinite",
            "token1()": "infinite",
            "totalSupply()": "2370",
            "transfer(address,uint256)": "51318",
            "transferFrom(address,address,uint256)": "infinite",
            "transferOwnership(address)": "28439"
        },
        "internal": {
            "_adjusted0()": "infinite",
            "_adjusted1()": "infinite",
            "_balance0()": "infinite",
            "_balance1()": "infinite",
            "_update(uint256,uint256)": "infinite"
        }
    }
}